{
	"contracts/HelloWorld5.sol": {
		"MGNToken": {
			"abi": [
				{
					"inputs": [],
					"stateMutability": "nonpayable",
					"type": "constructor"
				},
				{
					"inputs": [
						{
							"internalType": "address",
							"name": "spender",
							"type": "address"
						},
						{
							"internalType": "uint256",
							"name": "allowance",
							"type": "uint256"
						},
						{
							"internalType": "uint256",
							"name": "needed",
							"type": "uint256"
						}
					],
					"name": "ERC20InsufficientAllowance",
					"type": "error"
				},
				{
					"inputs": [
						{
							"internalType": "address",
							"name": "sender",
							"type": "address"
						},
						{
							"internalType": "uint256",
							"name": "balance",
							"type": "uint256"
						},
						{
							"internalType": "uint256",
							"name": "needed",
							"type": "uint256"
						}
					],
					"name": "ERC20InsufficientBalance",
					"type": "error"
				},
				{
					"inputs": [
						{
							"internalType": "address",
							"name": "approver",
							"type": "address"
						}
					],
					"name": "ERC20InvalidApprover",
					"type": "error"
				},
				{
					"inputs": [
						{
							"internalType": "address",
							"name": "receiver",
							"type": "address"
						}
					],
					"name": "ERC20InvalidReceiver",
					"type": "error"
				},
				{
					"inputs": [
						{
							"internalType": "address",
							"name": "sender",
							"type": "address"
						}
					],
					"name": "ERC20InvalidSender",
					"type": "error"
				},
				{
					"inputs": [
						{
							"internalType": "address",
							"name": "spender",
							"type": "address"
						}
					],
					"name": "ERC20InvalidSpender",
					"type": "error"
				},
				{
					"anonymous": false,
					"inputs": [
						{
							"indexed": true,
							"internalType": "address",
							"name": "owner",
							"type": "address"
						},
						{
							"indexed": true,
							"internalType": "address",
							"name": "spender",
							"type": "address"
						},
						{
							"indexed": false,
							"internalType": "uint256",
							"name": "value",
							"type": "uint256"
						}
					],
					"name": "Approval",
					"type": "event"
				},
				{
					"anonymous": false,
					"inputs": [
						{
							"indexed": true,
							"internalType": "address",
							"name": "sender",
							"type": "address"
						},
						{
							"indexed": true,
							"internalType": "address",
							"name": "receiver",
							"type": "address"
						},
						{
							"indexed": false,
							"internalType": "uint256",
							"name": "value",
							"type": "uint256"
						},
						{
							"indexed": false,
							"internalType": "string",
							"name": "timestamp",
							"type": "string"
						}
					],
					"name": "TransactionInfo",
					"type": "event"
				},
				{
					"anonymous": false,
					"inputs": [
						{
							"indexed": true,
							"internalType": "address",
							"name": "from",
							"type": "address"
						},
						{
							"indexed": true,
							"internalType": "address",
							"name": "to",
							"type": "address"
						},
						{
							"indexed": false,
							"internalType": "uint256",
							"name": "value",
							"type": "uint256"
						}
					],
					"name": "Transfer",
					"type": "event"
				},
				{
					"inputs": [],
					"name": "INITIAL_SUPPLY",
					"outputs": [
						{
							"internalType": "uint256",
							"name": "",
							"type": "uint256"
						}
					],
					"stateMutability": "view",
					"type": "function"
				},
				{
					"inputs": [],
					"name": "admin",
					"outputs": [
						{
							"internalType": "address",
							"name": "",
							"type": "address"
						}
					],
					"stateMutability": "view",
					"type": "function"
				},
				{
					"inputs": [
						{
							"internalType": "address",
							"name": "owner",
							"type": "address"
						},
						{
							"internalType": "address",
							"name": "spender",
							"type": "address"
						}
					],
					"name": "allowance",
					"outputs": [
						{
							"internalType": "uint256",
							"name": "",
							"type": "uint256"
						}
					],
					"stateMutability": "view",
					"type": "function"
				},
				{
					"inputs": [
						{
							"internalType": "address",
							"name": "spender",
							"type": "address"
						},
						{
							"internalType": "uint256",
							"name": "value",
							"type": "uint256"
						}
					],
					"name": "approve",
					"outputs": [
						{
							"internalType": "bool",
							"name": "",
							"type": "bool"
						}
					],
					"stateMutability": "nonpayable",
					"type": "function"
				},
				{
					"inputs": [
						{
							"internalType": "address",
							"name": "account",
							"type": "address"
						}
					],
					"name": "balanceOf",
					"outputs": [
						{
							"internalType": "uint256",
							"name": "",
							"type": "uint256"
						}
					],
					"stateMutability": "view",
					"type": "function"
				},
				{
					"inputs": [
						{
							"internalType": "uint256",
							"name": "amount",
							"type": "uint256"
						}
					],
					"name": "burn",
					"outputs": [],
					"stateMutability": "nonpayable",
					"type": "function"
				},
				{
					"inputs": [],
					"name": "decimals",
					"outputs": [
						{
							"internalType": "uint8",
							"name": "",
							"type": "uint8"
						}
					],
					"stateMutability": "view",
					"type": "function"
				},
				{
					"inputs": [],
					"name": "getLatestTransactionTimestamp",
					"outputs": [
						{
							"internalType": "string",
							"name": "",
							"type": "string"
						}
					],
					"stateMutability": "view",
					"type": "function"
				},
				{
					"inputs": [],
					"name": "getTransactionSender",
					"outputs": [
						{
							"internalType": "address",
							"name": "",
							"type": "address"
						}
					],
					"stateMutability": "view",
					"type": "function"
				},
				{
					"inputs": [
						{
							"internalType": "address",
							"name": "to",
							"type": "address"
						},
						{
							"internalType": "uint256",
							"name": "amount",
							"type": "uint256"
						}
					],
					"name": "mint",
					"outputs": [],
					"stateMutability": "nonpayable",
					"type": "function"
				},
				{
					"inputs": [],
					"name": "name",
					"outputs": [
						{
							"internalType": "string",
							"name": "",
							"type": "string"
						}
					],
					"stateMutability": "view",
					"type": "function"
				},
				{
					"inputs": [],
					"name": "symbol",
					"outputs": [
						{
							"internalType": "string",
							"name": "",
							"type": "string"
						}
					],
					"stateMutability": "view",
					"type": "function"
				},
				{
					"inputs": [],
					"name": "totalSupply",
					"outputs": [
						{
							"internalType": "uint256",
							"name": "",
							"type": "uint256"
						}
					],
					"stateMutability": "view",
					"type": "function"
				},
				{
					"inputs": [
						{
							"internalType": "address",
							"name": "to",
							"type": "address"
						},
						{
							"internalType": "uint256",
							"name": "value",
							"type": "uint256"
						}
					],
					"name": "transfer",
					"outputs": [
						{
							"internalType": "bool",
							"name": "",
							"type": "bool"
						}
					],
					"stateMutability": "nonpayable",
					"type": "function"
				},
				{
					"inputs": [
						{
							"internalType": "address",
							"name": "from",
							"type": "address"
						},
						{
							"internalType": "address",
							"name": "to",
							"type": "address"
						},
						{
							"internalType": "uint256",
							"name": "value",
							"type": "uint256"
						}
					],
					"name": "transferFrom",
					"outputs": [
						{
							"internalType": "bool",
							"name": "",
							"type": "bool"
						}
					],
					"stateMutability": "nonpayable",
					"type": "function"
				}
			],
			"devdoc": {
				"errors": {
					"ERC20InsufficientAllowance(address,uint256,uint256)": [
						{
							"details": "Indicates a failure with the `spender`’s `allowance`. Used in transfers.",
							"params": {
								"allowance": "Amount of tokens a `spender` is allowed to operate with.",
								"needed": "Minimum amount required to perform a transfer.",
								"spender": "Address that may be allowed to operate on tokens without being their owner."
							}
						}
					],
					"ERC20InsufficientBalance(address,uint256,uint256)": [
						{
							"details": "Indicates an error related to the current `balance` of a `sender`. Used in transfers.",
							"params": {
								"balance": "Current balance for the interacting account.",
								"needed": "Minimum amount required to perform a transfer.",
								"sender": "Address whose tokens are being transferred."
							}
						}
					],
					"ERC20InvalidApprover(address)": [
						{
							"details": "Indicates a failure with the `approver` of a token to be approved. Used in approvals.",
							"params": {
								"approver": "Address initiating an approval operation."
							}
						}
					],
					"ERC20InvalidReceiver(address)": [
						{
							"details": "Indicates a failure with the token `receiver`. Used in transfers.",
							"params": {
								"receiver": "Address to which tokens are being transferred."
							}
						}
					],
					"ERC20InvalidSender(address)": [
						{
							"details": "Indicates a failure with the token `sender`. Used in transfers.",
							"params": {
								"sender": "Address whose tokens are being transferred."
							}
						}
					],
					"ERC20InvalidSpender(address)": [
						{
							"details": "Indicates a failure with the `spender` to be approved. Used in approvals.",
							"params": {
								"spender": "Address that may be allowed to operate on tokens without being their owner."
							}
						}
					]
				},
				"events": {
					"Approval(address,address,uint256)": {
						"details": "Emitted when the allowance of a `spender` for an `owner` is set by a call to {approve}. `value` is the new allowance."
					},
					"Transfer(address,address,uint256)": {
						"details": "Emitted when `value` tokens are moved from one account (`from`) to another (`to`). Note that `value` may be zero."
					}
				},
				"kind": "dev",
				"methods": {
					"allowance(address,address)": {
						"details": "See {IERC20-allowance}."
					},
					"approve(address,uint256)": {
						"details": "See {IERC20-approve}. NOTE: If `value` is the maximum `uint256`, the allowance is not updated on `transferFrom`. This is semantically equivalent to an infinite approval. Requirements: - `spender` cannot be the zero address."
					},
					"balanceOf(address)": {
						"details": "See {IERC20-balanceOf}."
					},
					"decimals()": {
						"details": "Returns the number of decimals used to get its user representation. For example, if `decimals` equals `2`, a balance of `505` tokens should be displayed to a user as `5.05` (`505 / 10 ** 2`). Tokens usually opt for a value of 18, imitating the relationship between Ether and Wei. This is the default value returned by this function, unless it's overridden. NOTE: This information is only used for _display_ purposes: it in no way affects any of the arithmetic of the contract, including {IERC20-balanceOf} and {IERC20-transfer}."
					},
					"name()": {
						"details": "Returns the name of the token."
					},
					"symbol()": {
						"details": "Returns the symbol of the token, usually a shorter version of the name."
					},
					"totalSupply()": {
						"details": "See {IERC20-totalSupply}."
					},
					"transfer(address,uint256)": {
						"details": "See {IERC20-transfer}. Requirements: - `to` cannot be the zero address. - the caller must have a balance of at least `value`."
					},
					"transferFrom(address,address,uint256)": {
						"details": "See {IERC20-transferFrom}. Emits an {Approval} event indicating the updated allowance. This is not required by the EIP. See the note at the beginning of {ERC20}. NOTE: Does not update the allowance if the current allowance is the maximum `uint256`. Requirements: - `from` and `to` cannot be the zero address. - `from` must have a balance of at least `value`. - the caller must have allowance for ``from``'s tokens of at least `value`."
					}
				},
				"version": 1
			},
			"evm": {
				"assembly": "    /* \"contracts/HelloWorld5.sol\":115:4531  contract MGNToken is ERC20 {... */\n  mstore(0x40, 0x80)\n    /* \"contracts/HelloWorld5.sol\":226:347  constructor() ERC20(\"AITU_MAGZHAN\", \"MGN\") {... */\n  callvalue\n  dup1\n  iszero\n  tag_1\n  jumpi\n  0x00\n  dup1\n  revert\ntag_1:\n  pop\n    /* \"@openzeppelin/contracts/token/ERC20/ERC20.sol\":1896:2009  constructor(string memory name_, string memory symbol_) {... */\n  mload(0x40)\n  dup1\n  0x40\n  add\n  0x40\n  mstore\n  dup1\n  0x0c\n  dup2\n  mstore\n  0x20\n  add\n  0x414954555f4d41475a48414e0000000000000000000000000000000000000000\n  dup2\n  mstore\n  pop\n  mload(0x40)\n  dup1\n  0x40\n  add\n  0x40\n  mstore\n  dup1\n  0x03\n  dup2\n  mstore\n  0x20\n  add\n  0x4d474e0000000000000000000000000000000000000000000000000000000000\n  dup2\n  mstore\n  pop\n    /* \"@openzeppelin/contracts/token/ERC20/ERC20.sol\":1970:1975  name_ */\n  dup2\n    /* \"@openzeppelin/contracts/token/ERC20/ERC20.sol\":1962:1967  _name */\n  0x03\n    /* \"@openzeppelin/contracts/token/ERC20/ERC20.sol\":1962:1975  _name = name_ */\n  swap1\n  dup2\n  tag_5\n  swap2\n  swap1\n  tag_6\n  jump\t// in\ntag_5:\n  pop\n    /* \"@openzeppelin/contracts/token/ERC20/ERC20.sol\":1995:2002  symbol_ */\n  dup1\n    /* \"@openzeppelin/contracts/token/ERC20/ERC20.sol\":1985:1992  _symbol */\n  0x04\n    /* \"@openzeppelin/contracts/token/ERC20/ERC20.sol\":1985:2002  _symbol = symbol_ */\n  swap1\n  dup2\n  tag_7\n  swap2\n  swap1\n  tag_6\n  jump\t// in\ntag_7:\n  pop\n    /* \"@openzeppelin/contracts/token/ERC20/ERC20.sol\":1896:2009  constructor(string memory name_, string memory symbol_) {... */\n  pop\n  pop\n    /* \"contracts/HelloWorld5.sol\":279:312  _mint(msg.sender, INITIAL_SUPPLY) */\n  tag_9\n    /* \"contracts/HelloWorld5.sol\":285:295  msg.sender */\n  caller\n    /* \"contracts/HelloWorld5.sol\":215:219  2000 */\n  0x07d0\n    /* \"contracts/HelloWorld5.sol\":279:284  _mint */\n  shl(0x20, tag_10)\n    /* \"contracts/HelloWorld5.sol\":279:312  _mint(msg.sender, INITIAL_SUPPLY) */\n  0x20\n  shr\n  jump\t// in\ntag_9:\n    /* \"contracts/HelloWorld5.sol\":330:340  msg.sender */\n  caller\n    /* \"contracts/HelloWorld5.sol\":322:327  admin */\n  0x05\n  0x00\n    /* \"contracts/HelloWorld5.sol\":322:340  admin = msg.sender */\n  0x0100\n  exp\n  dup2\n  sload\n  dup2\n  0xffffffffffffffffffffffffffffffffffffffff\n  mul\n  not\n  and\n  swap1\n  dup4\n  0xffffffffffffffffffffffffffffffffffffffff\n  and\n  mul\n  or\n  swap1\n  sstore\n  pop\n    /* \"contracts/HelloWorld5.sol\":115:4531  contract MGNToken is ERC20 {... */\n  jump(tag_11)\n    /* \"@openzeppelin/contracts/token/ERC20/ERC20.sol\":7721:7929  function _mint(address account, uint256 value) internal {... */\ntag_10:\n    /* \"@openzeppelin/contracts/token/ERC20/ERC20.sol\":7810:7811  0 */\n  0x00\n    /* \"@openzeppelin/contracts/token/ERC20/ERC20.sol\":7791:7812  account == address(0) */\n  0xffffffffffffffffffffffffffffffffffffffff\n  and\n    /* \"@openzeppelin/contracts/token/ERC20/ERC20.sol\":7791:7798  account */\n  dup3\n    /* \"@openzeppelin/contracts/token/ERC20/ERC20.sol\":7791:7812  account == address(0) */\n  0xffffffffffffffffffffffffffffffffffffffff\n  and\n  sub\n    /* \"@openzeppelin/contracts/token/ERC20/ERC20.sol\":7787:7878  if (account == address(0)) {... */\n  tag_13\n  jumpi\n    /* \"@openzeppelin/contracts/token/ERC20/ERC20.sol\":7864:7865  0 */\n  0x00\n    /* \"@openzeppelin/contracts/token/ERC20/ERC20.sol\":7835:7867  ERC20InvalidReceiver(address(0)) */\n  mload(0x40)\n  0xec442f0500000000000000000000000000000000000000000000000000000000\n  dup2\n  mstore\n  0x04\n  add\n  tag_14\n  swap2\n  swap1\n  tag_15\n  jump\t// in\ntag_14:\n  mload(0x40)\n  dup1\n  swap2\n  sub\n  swap1\n  revert\n    /* \"@openzeppelin/contracts/token/ERC20/ERC20.sol\":7787:7878  if (account == address(0)) {... */\ntag_13:\n    /* \"@openzeppelin/contracts/token/ERC20/ERC20.sol\":7887:7922  _update(address(0), account, value) */\n  tag_16\n    /* \"@openzeppelin/contracts/token/ERC20/ERC20.sol\":7903:7904  0 */\n  0x00\n    /* \"@openzeppelin/contracts/token/ERC20/ERC20.sol\":7907:7914  account */\n  dup4\n    /* \"@openzeppelin/contracts/token/ERC20/ERC20.sol\":7916:7921  value */\n  dup4\n    /* \"@openzeppelin/contracts/token/ERC20/ERC20.sol\":7887:7894  _update */\n  shl(0x20, tag_17)\n    /* \"@openzeppelin/contracts/token/ERC20/ERC20.sol\":7887:7922  _update(address(0), account, value) */\n  0x20\n  shr\n  jump\t// in\ntag_16:\n    /* \"@openzeppelin/contracts/token/ERC20/ERC20.sol\":7721:7929  function _mint(address account, uint256 value) internal {... */\n  pop\n  pop\n  jump\t// out\n    /* \"@openzeppelin/contracts/token/ERC20/ERC20.sol\":6271:7378  function _update(address from, address to, uint256 value) internal virtual {... */\ntag_17:\n    /* \"@openzeppelin/contracts/token/ERC20/ERC20.sol\":6376:6377  0 */\n  0x00\n    /* \"@openzeppelin/contracts/token/ERC20/ERC20.sol\":6360:6378  from == address(0) */\n  0xffffffffffffffffffffffffffffffffffffffff\n  and\n    /* \"@openzeppelin/contracts/token/ERC20/ERC20.sol\":6360:6364  from */\n  dup4\n    /* \"@openzeppelin/contracts/token/ERC20/ERC20.sol\":6360:6378  from == address(0) */\n  0xffffffffffffffffffffffffffffffffffffffff\n  and\n  sub\n    /* \"@openzeppelin/contracts/token/ERC20/ERC20.sol\":6356:6896  if (from == address(0)) {... */\n  tag_19\n  jumpi\n    /* \"@openzeppelin/contracts/token/ERC20/ERC20.sol\":6512:6517  value */\n  dup1\n    /* \"@openzeppelin/contracts/token/ERC20/ERC20.sol\":6496:6508  _totalSupply */\n  0x02\n  0x00\n    /* \"@openzeppelin/contracts/token/ERC20/ERC20.sol\":6496:6517  _totalSupply += value */\n  dup3\n  dup3\n  sload\n  tag_20\n  swap2\n  swap1\n  tag_21\n  jump\t// in\ntag_20:\n  swap3\n  pop\n  pop\n  dup2\n  swap1\n  sstore\n  pop\n    /* \"@openzeppelin/contracts/token/ERC20/ERC20.sol\":6356:6896  if (from == address(0)) {... */\n  jump(tag_22)\ntag_19:\n    /* \"@openzeppelin/contracts/token/ERC20/ERC20.sol\":6548:6567  uint256 fromBalance */\n  0x00\n    /* \"@openzeppelin/contracts/token/ERC20/ERC20.sol\":6570:6579  _balances */\n  dup1\n    /* \"@openzeppelin/contracts/token/ERC20/ERC20.sol\":6570:6585  _balances[from] */\n  0x00\n    /* \"@openzeppelin/contracts/token/ERC20/ERC20.sol\":6580:6584  from */\n  dup6\n    /* \"@openzeppelin/contracts/token/ERC20/ERC20.sol\":6570:6585  _balances[from] */\n  0xffffffffffffffffffffffffffffffffffffffff\n  and\n  0xffffffffffffffffffffffffffffffffffffffff\n  and\n  dup2\n  mstore\n  0x20\n  add\n  swap1\n  dup2\n  mstore\n  0x20\n  add\n  0x00\n  keccak256\n  sload\n    /* \"@openzeppelin/contracts/token/ERC20/ERC20.sol\":6548:6585  uint256 fromBalance = _balances[from] */\n  swap1\n  pop\n    /* \"@openzeppelin/contracts/token/ERC20/ERC20.sol\":6617:6622  value */\n  dup2\n    /* \"@openzeppelin/contracts/token/ERC20/ERC20.sol\":6603:6614  fromBalance */\n  dup2\n    /* \"@openzeppelin/contracts/token/ERC20/ERC20.sol\":6603:6622  fromBalance < value */\n  lt\n    /* \"@openzeppelin/contracts/token/ERC20/ERC20.sol\":6599:6714  if (fromBalance < value) {... */\n  iszero\n  tag_23\n  jumpi\n    /* \"@openzeppelin/contracts/token/ERC20/ERC20.sol\":6674:6678  from */\n  dup4\n    /* \"@openzeppelin/contracts/token/ERC20/ERC20.sol\":6680:6691  fromBalance */\n  dup2\n    /* \"@openzeppelin/contracts/token/ERC20/ERC20.sol\":6693:6698  value */\n  dup4\n    /* \"@openzeppelin/contracts/token/ERC20/ERC20.sol\":6649:6699  ERC20InsufficientBalance(from, fromBalance, value) */\n  mload(0x40)\n  0xe450d38c00000000000000000000000000000000000000000000000000000000\n  dup2\n  mstore\n  0x04\n  add\n  tag_24\n  swap4\n  swap3\n  swap2\n  swap1\n  tag_25\n  jump\t// in\ntag_24:\n  mload(0x40)\n  dup1\n  swap2\n  sub\n  swap1\n  revert\n    /* \"@openzeppelin/contracts/token/ERC20/ERC20.sol\":6599:6714  if (fromBalance < value) {... */\ntag_23:\n    /* \"@openzeppelin/contracts/token/ERC20/ERC20.sol\":6866:6871  value */\n  dup2\n    /* \"@openzeppelin/contracts/token/ERC20/ERC20.sol\":6852:6863  fromBalance */\n  dup2\n    /* \"@openzeppelin/contracts/token/ERC20/ERC20.sol\":6852:6871  fromBalance - value */\n  sub\n    /* \"@openzeppelin/contracts/token/ERC20/ERC20.sol\":6834:6843  _balances */\n  0x00\n    /* \"@openzeppelin/contracts/token/ERC20/ERC20.sol\":6834:6849  _balances[from] */\n  dup1\n    /* \"@openzeppelin/contracts/token/ERC20/ERC20.sol\":6844:6848  from */\n  dup7\n    /* \"@openzeppelin/contracts/token/ERC20/ERC20.sol\":6834:6849  _balances[from] */\n  0xffffffffffffffffffffffffffffffffffffffff\n  and\n  0xffffffffffffffffffffffffffffffffffffffff\n  and\n  dup2\n  mstore\n  0x20\n  add\n  swap1\n  dup2\n  mstore\n  0x20\n  add\n  0x00\n  keccak256\n    /* \"@openzeppelin/contracts/token/ERC20/ERC20.sol\":6834:6871  _balances[from] = fromBalance - value */\n  dup2\n  swap1\n  sstore\n  pop\n    /* \"@openzeppelin/contracts/token/ERC20/ERC20.sol\":6534:6896  {... */\n  pop\n    /* \"@openzeppelin/contracts/token/ERC20/ERC20.sol\":6356:6896  if (from == address(0)) {... */\ntag_22:\n    /* \"@openzeppelin/contracts/token/ERC20/ERC20.sol\":6924:6925  0 */\n  0x00\n    /* \"@openzeppelin/contracts/token/ERC20/ERC20.sol\":6910:6926  to == address(0) */\n  0xffffffffffffffffffffffffffffffffffffffff\n  and\n    /* \"@openzeppelin/contracts/token/ERC20/ERC20.sol\":6910:6912  to */\n  dup3\n    /* \"@openzeppelin/contracts/token/ERC20/ERC20.sol\":6910:6926  to == address(0) */\n  0xffffffffffffffffffffffffffffffffffffffff\n  and\n  sub\n    /* \"@openzeppelin/contracts/token/ERC20/ERC20.sol\":6906:7331  if (to == address(0)) {... */\n  tag_26\n  jumpi\n    /* \"@openzeppelin/contracts/token/ERC20/ERC20.sol\":7089:7094  value */\n  dup1\n    /* \"@openzeppelin/contracts/token/ERC20/ERC20.sol\":7073:7085  _totalSupply */\n  0x02\n  0x00\n    /* \"@openzeppelin/contracts/token/ERC20/ERC20.sol\":7073:7094  _totalSupply -= value */\n  dup3\n  dup3\n  sload\n  sub\n  swap3\n  pop\n  pop\n  dup2\n  swap1\n  sstore\n  pop\n    /* \"@openzeppelin/contracts/token/ERC20/ERC20.sol\":6906:7331  if (to == address(0)) {... */\n  jump(tag_27)\ntag_26:\n    /* \"@openzeppelin/contracts/token/ERC20/ERC20.sol\":7301:7306  value */\n  dup1\n    /* \"@openzeppelin/contracts/token/ERC20/ERC20.sol\":7284:7293  _balances */\n  0x00\n    /* \"@openzeppelin/contracts/token/ERC20/ERC20.sol\":7284:7297  _balances[to] */\n  dup1\n    /* \"@openzeppelin/contracts/token/ERC20/ERC20.sol\":7294:7296  to */\n  dup5\n    /* \"@openzeppelin/contracts/token/ERC20/ERC20.sol\":7284:7297  _balances[to] */\n  0xffffffffffffffffffffffffffffffffffffffff\n  and\n  0xffffffffffffffffffffffffffffffffffffffff\n  and\n  dup2\n  mstore\n  0x20\n  add\n  swap1\n  dup2\n  mstore\n  0x20\n  add\n  0x00\n  keccak256\n  0x00\n    /* \"@openzeppelin/contracts/token/ERC20/ERC20.sol\":7284:7306  _balances[to] += value */\n  dup3\n  dup3\n  sload\n  add\n  swap3\n  pop\n  pop\n  dup2\n  swap1\n  sstore\n  pop\n    /* \"@openzeppelin/contracts/token/ERC20/ERC20.sol\":6906:7331  if (to == address(0)) {... */\ntag_27:\n    /* \"@openzeppelin/contracts/token/ERC20/ERC20.sol\":7361:7363  to */\n  dup2\n    /* \"@openzeppelin/contracts/token/ERC20/ERC20.sol\":7346:7371  Transfer(from, to, value) */\n  0xffffffffffffffffffffffffffffffffffffffff\n  and\n    /* \"@openzeppelin/contracts/token/ERC20/ERC20.sol\":7355:7359  from */\n  dup4\n    /* \"@openzeppelin/contracts/token/ERC20/ERC20.sol\":7346:7371  Transfer(from, to, value) */\n  0xffffffffffffffffffffffffffffffffffffffff\n  and\n  0xddf252ad1be2c89b69c2b068fc378daa952ba7f163c4a11628f55a4df523b3ef\n    /* \"@openzeppelin/contracts/token/ERC20/ERC20.sol\":7365:7370  value */\n  dup4\n    /* \"@openzeppelin/contracts/token/ERC20/ERC20.sol\":7346:7371  Transfer(from, to, value) */\n  mload(0x40)\n  tag_28\n  swap2\n  swap1\n  tag_29\n  jump\t// in\ntag_28:\n  mload(0x40)\n  dup1\n  swap2\n  sub\n  swap1\n  log3\n    /* \"@openzeppelin/contracts/token/ERC20/ERC20.sol\":6271:7378  function _update(address from, address to, uint256 value) internal virtual {... */\n  pop\n  pop\n  pop\n  jump\t// out\n    /* \"#utility.yul\":7:106   */\ntag_30:\n    /* \"#utility.yul\":59:65   */\n  0x00\n    /* \"#utility.yul\":93:98   */\n  dup2\n    /* \"#utility.yul\":87:99   */\n  mload\n    /* \"#utility.yul\":77:99   */\n  swap1\n  pop\n    /* \"#utility.yul\":7:106   */\n  swap2\n  swap1\n  pop\n  jump\t// out\n    /* \"#utility.yul\":112:292   */\ntag_31:\n    /* \"#utility.yul\":160:237   */\n  0x4e487b7100000000000000000000000000000000000000000000000000000000\n    /* \"#utility.yul\":157:158   */\n  0x00\n    /* \"#utility.yul\":150:238   */\n  mstore\n    /* \"#utility.yul\":257:261   */\n  0x41\n    /* \"#utility.yul\":254:255   */\n  0x04\n    /* \"#utility.yul\":247:262   */\n  mstore\n    /* \"#utility.yul\":281:285   */\n  0x24\n    /* \"#utility.yul\":278:279   */\n  0x00\n    /* \"#utility.yul\":271:286   */\n  revert\n    /* \"#utility.yul\":298:478   */\ntag_32:\n    /* \"#utility.yul\":346:423   */\n  0x4e487b7100000000000000000000000000000000000000000000000000000000\n    /* \"#utility.yul\":343:344   */\n  0x00\n    /* \"#utility.yul\":336:424   */\n  mstore\n    /* \"#utility.yul\":443:447   */\n  0x22\n    /* \"#utility.yul\":440:441   */\n  0x04\n    /* \"#utility.yul\":433:448   */\n  mstore\n    /* \"#utility.yul\":467:471   */\n  0x24\n    /* \"#utility.yul\":464:465   */\n  0x00\n    /* \"#utility.yul\":457:472   */\n  revert\n    /* \"#utility.yul\":484:804   */\ntag_33:\n    /* \"#utility.yul\":528:534   */\n  0x00\n    /* \"#utility.yul\":565:566   */\n  0x02\n    /* \"#utility.yul\":559:563   */\n  dup3\n    /* \"#utility.yul\":555:567   */\n  div\n    /* \"#utility.yul\":545:567   */\n  swap1\n  pop\n    /* \"#utility.yul\":612:613   */\n  0x01\n    /* \"#utility.yul\":606:610   */\n  dup3\n    /* \"#utility.yul\":602:614   */\n  and\n    /* \"#utility.yul\":633:651   */\n  dup1\n    /* \"#utility.yul\":623:704   */\n  tag_60\n  jumpi\n    /* \"#utility.yul\":689:693   */\n  0x7f\n    /* \"#utility.yul\":681:687   */\n  dup3\n    /* \"#utility.yul\":677:694   */\n  and\n    /* \"#utility.yul\":667:694   */\n  swap2\n  pop\n    /* \"#utility.yul\":623:704   */\ntag_60:\n    /* \"#utility.yul\":751:753   */\n  0x20\n    /* \"#utility.yul\":743:749   */\n  dup3\n    /* \"#utility.yul\":740:754   */\n  lt\n    /* \"#utility.yul\":720:738   */\n  dup2\n    /* \"#utility.yul\":717:755   */\n  sub\n    /* \"#utility.yul\":714:798   */\n  tag_61\n  jumpi\n    /* \"#utility.yul\":770:788   */\n  tag_62\n  tag_32\n  jump\t// in\ntag_62:\n    /* \"#utility.yul\":714:798   */\ntag_61:\n    /* \"#utility.yul\":535:804   */\n  pop\n    /* \"#utility.yul\":484:804   */\n  swap2\n  swap1\n  pop\n  jump\t// out\n    /* \"#utility.yul\":810:951   */\ntag_34:\n    /* \"#utility.yul\":859:863   */\n  0x00\n    /* \"#utility.yul\":882:885   */\n  dup2\n    /* \"#utility.yul\":874:885   */\n  swap1\n  pop\n    /* \"#utility.yul\":905:908   */\n  dup2\n    /* \"#utility.yul\":902:903   */\n  0x00\n    /* \"#utility.yul\":895:909   */\n  mstore\n    /* \"#utility.yul\":939:943   */\n  0x20\n    /* \"#utility.yul\":936:937   */\n  0x00\n    /* \"#utility.yul\":926:944   */\n  keccak256\n    /* \"#utility.yul\":918:944   */\n  swap1\n  pop\n    /* \"#utility.yul\":810:951   */\n  swap2\n  swap1\n  pop\n  jump\t// out\n    /* \"#utility.yul\":957:1050   */\ntag_35:\n    /* \"#utility.yul\":994:1000   */\n  0x00\n    /* \"#utility.yul\":1041:1043   */\n  0x20\n    /* \"#utility.yul\":1036:1038   */\n  0x1f\n    /* \"#utility.yul\":1029:1034   */\n  dup4\n    /* \"#utility.yul\":1025:1039   */\n  add\n    /* \"#utility.yul\":1021:1044   */\n  div\n    /* \"#utility.yul\":1011:1044   */\n  swap1\n  pop\n    /* \"#utility.yul\":957:1050   */\n  swap2\n  swap1\n  pop\n  jump\t// out\n    /* \"#utility.yul\":1056:1163   */\ntag_36:\n    /* \"#utility.yul\":1100:1108   */\n  0x00\n    /* \"#utility.yul\":1150:1155   */\n  dup3\n    /* \"#utility.yul\":1144:1148   */\n  dup3\n    /* \"#utility.yul\":1140:1156   */\n  shl\n    /* \"#utility.yul\":1119:1156   */\n  swap1\n  pop\n    /* \"#utility.yul\":1056:1163   */\n  swap3\n  swap2\n  pop\n  pop\n  jump\t// out\n    /* \"#utility.yul\":1169:1562   */\ntag_37:\n    /* \"#utility.yul\":1238:1244   */\n  0x00\n    /* \"#utility.yul\":1288:1289   */\n  0x08\n    /* \"#utility.yul\":1276:1286   */\n  dup4\n    /* \"#utility.yul\":1272:1290   */\n  mul\n    /* \"#utility.yul\":1311:1408   */\n  tag_67\n    /* \"#utility.yul\":1341:1407   */\n  0xffffffffffffffffffffffffffffffffffffffffffffffffffffffffffffffff\n    /* \"#utility.yul\":1330:1339   */\n  dup3\n    /* \"#utility.yul\":1311:1408   */\n  tag_36\n  jump\t// in\ntag_67:\n    /* \"#utility.yul\":1429:1468   */\n  tag_68\n    /* \"#utility.yul\":1459:1467   */\n  dup7\n    /* \"#utility.yul\":1448:1457   */\n  dup4\n    /* \"#utility.yul\":1429:1468   */\n  tag_36\n  jump\t// in\ntag_68:\n    /* \"#utility.yul\":1417:1468   */\n  swap6\n  pop\n    /* \"#utility.yul\":1501:1505   */\n  dup1\n    /* \"#utility.yul\":1497:1506   */\n  not\n    /* \"#utility.yul\":1490:1495   */\n  dup5\n    /* \"#utility.yul\":1486:1507   */\n  and\n    /* \"#utility.yul\":1477:1507   */\n  swap4\n  pop\n    /* \"#utility.yul\":1550:1554   */\n  dup1\n    /* \"#utility.yul\":1540:1548   */\n  dup7\n    /* \"#utility.yul\":1536:1555   */\n  and\n    /* \"#utility.yul\":1529:1534   */\n  dup5\n    /* \"#utility.yul\":1526:1556   */\n  or\n    /* \"#utility.yul\":1516:1556   */\n  swap3\n  pop\n    /* \"#utility.yul\":1245:1562   */\n  pop\n  pop\n    /* \"#utility.yul\":1169:1562   */\n  swap4\n  swap3\n  pop\n  pop\n  pop\n  jump\t// out\n    /* \"#utility.yul\":1568:1645   */\ntag_38:\n    /* \"#utility.yul\":1605:1612   */\n  0x00\n    /* \"#utility.yul\":1634:1639   */\n  dup2\n    /* \"#utility.yul\":1623:1639   */\n  swap1\n  pop\n    /* \"#utility.yul\":1568:1645   */\n  swap2\n  swap1\n  pop\n  jump\t// out\n    /* \"#utility.yul\":1651:1711   */\ntag_39:\n    /* \"#utility.yul\":1679:1682   */\n  0x00\n    /* \"#utility.yul\":1700:1705   */\n  dup2\n    /* \"#utility.yul\":1693:1705   */\n  swap1\n  pop\n    /* \"#utility.yul\":1651:1711   */\n  swap2\n  swap1\n  pop\n  jump\t// out\n    /* \"#utility.yul\":1717:1859   */\ntag_40:\n    /* \"#utility.yul\":1767:1776   */\n  0x00\n    /* \"#utility.yul\":1800:1853   */\n  tag_72\n    /* \"#utility.yul\":1818:1852   */\n  tag_73\n    /* \"#utility.yul\":1827:1851   */\n  tag_74\n    /* \"#utility.yul\":1845:1850   */\n  dup5\n    /* \"#utility.yul\":1827:1851   */\n  tag_38\n  jump\t// in\ntag_74:\n    /* \"#utility.yul\":1818:1852   */\n  tag_39\n  jump\t// in\ntag_73:\n    /* \"#utility.yul\":1800:1853   */\n  tag_38\n  jump\t// in\ntag_72:\n    /* \"#utility.yul\":1787:1853   */\n  swap1\n  pop\n    /* \"#utility.yul\":1717:1859   */\n  swap2\n  swap1\n  pop\n  jump\t// out\n    /* \"#utility.yul\":1865:1940   */\ntag_41:\n    /* \"#utility.yul\":1908:1911   */\n  0x00\n    /* \"#utility.yul\":1929:1934   */\n  dup2\n    /* \"#utility.yul\":1922:1934   */\n  swap1\n  pop\n    /* \"#utility.yul\":1865:1940   */\n  swap2\n  swap1\n  pop\n  jump\t// out\n    /* \"#utility.yul\":1946:2215   */\ntag_42:\n    /* \"#utility.yul\":2056:2095   */\n  tag_77\n    /* \"#utility.yul\":2087:2094   */\n  dup4\n    /* \"#utility.yul\":2056:2095   */\n  tag_40\n  jump\t// in\ntag_77:\n    /* \"#utility.yul\":2117:2208   */\n  tag_78\n    /* \"#utility.yul\":2166:2207   */\n  tag_79\n    /* \"#utility.yul\":2190:2206   */\n  dup3\n    /* \"#utility.yul\":2166:2207   */\n  tag_41\n  jump\t// in\ntag_79:\n    /* \"#utility.yul\":2158:2164   */\n  dup5\n    /* \"#utility.yul\":2151:2155   */\n  dup5\n    /* \"#utility.yul\":2145:2156   */\n  sload\n    /* \"#utility.yul\":2117:2208   */\n  tag_37\n  jump\t// in\ntag_78:\n    /* \"#utility.yul\":2111:2115   */\n  dup3\n    /* \"#utility.yul\":2104:2209   */\n  sstore\n    /* \"#utility.yul\":2022:2215   */\n  pop\n    /* \"#utility.yul\":1946:2215   */\n  pop\n  pop\n  pop\n  jump\t// out\n    /* \"#utility.yul\":2221:2294   */\ntag_43:\n    /* \"#utility.yul\":2266:2269   */\n  0x00\n    /* \"#utility.yul\":2221:2294   */\n  swap1\n  jump\t// out\n    /* \"#utility.yul\":2300:2489   */\ntag_44:\n    /* \"#utility.yul\":2377:2409   */\n  tag_82\n  tag_43\n  jump\t// in\ntag_82:\n    /* \"#utility.yul\":2418:2483   */\n  tag_83\n    /* \"#utility.yul\":2476:2482   */\n  dup2\n    /* \"#utility.yul\":2468:2474   */\n  dup5\n    /* \"#utility.yul\":2462:2466   */\n  dup5\n    /* \"#utility.yul\":2418:2483   */\n  tag_42\n  jump\t// in\ntag_83:\n    /* \"#utility.yul\":2353:2489   */\n  pop\n    /* \"#utility.yul\":2300:2489   */\n  pop\n  pop\n  jump\t// out\n    /* \"#utility.yul\":2495:2681   */\ntag_45:\n    /* \"#utility.yul\":2555:2675   */\ntag_85:\n    /* \"#utility.yul\":2572:2575   */\n  dup2\n    /* \"#utility.yul\":2565:2570   */\n  dup2\n    /* \"#utility.yul\":2562:2576   */\n  lt\n    /* \"#utility.yul\":2555:2675   */\n  iszero\n  tag_87\n  jumpi\n    /* \"#utility.yul\":2626:2665   */\n  tag_88\n    /* \"#utility.yul\":2663:2664   */\n  0x00\n    /* \"#utility.yul\":2656:2661   */\n  dup3\n    /* \"#utility.yul\":2626:2665   */\n  tag_44\n  jump\t// in\ntag_88:\n    /* \"#utility.yul\":2599:2600   */\n  0x01\n    /* \"#utility.yul\":2592:2597   */\n  dup2\n    /* \"#utility.yul\":2588:2601   */\n  add\n    /* \"#utility.yul\":2579:2601   */\n  swap1\n  pop\n    /* \"#utility.yul\":2555:2675   */\n  jump(tag_85)\ntag_87:\n    /* \"#utility.yul\":2495:2681   */\n  pop\n  pop\n  jump\t// out\n    /* \"#utility.yul\":2687:3230   */\ntag_46:\n    /* \"#utility.yul\":2788:2790   */\n  0x1f\n    /* \"#utility.yul\":2783:2786   */\n  dup3\n    /* \"#utility.yul\":2780:2791   */\n  gt\n    /* \"#utility.yul\":2777:3223   */\n  iszero\n  tag_90\n  jumpi\n    /* \"#utility.yul\":2822:2860   */\n  tag_91\n    /* \"#utility.yul\":2854:2859   */\n  dup2\n    /* \"#utility.yul\":2822:2860   */\n  tag_34\n  jump\t// in\ntag_91:\n    /* \"#utility.yul\":2906:2935   */\n  tag_92\n    /* \"#utility.yul\":2924:2934   */\n  dup5\n    /* \"#utility.yul\":2906:2935   */\n  tag_35\n  jump\t// in\ntag_92:\n    /* \"#utility.yul\":2896:2904   */\n  dup2\n    /* \"#utility.yul\":2892:2936   */\n  add\n    /* \"#utility.yul\":3089:3091   */\n  0x20\n    /* \"#utility.yul\":3077:3087   */\n  dup6\n    /* \"#utility.yul\":3074:3092   */\n  lt\n    /* \"#utility.yul\":3071:3120   */\n  iszero\n  tag_93\n  jumpi\n    /* \"#utility.yul\":3110:3118   */\n  dup2\n    /* \"#utility.yul\":3095:3118   */\n  swap1\n  pop\n    /* \"#utility.yul\":3071:3120   */\ntag_93:\n    /* \"#utility.yul\":3133:3213   */\n  tag_94\n    /* \"#utility.yul\":3189:3211   */\n  tag_95\n    /* \"#utility.yul\":3207:3210   */\n  dup6\n    /* \"#utility.yul\":3189:3211   */\n  tag_35\n  jump\t// in\ntag_95:\n    /* \"#utility.yul\":3179:3187   */\n  dup4\n    /* \"#utility.yul\":3175:3212   */\n  add\n    /* \"#utility.yul\":3162:3173   */\n  dup3\n    /* \"#utility.yul\":3133:3213   */\n  tag_45\n  jump\t// in\ntag_94:\n    /* \"#utility.yul\":2792:3223   */\n  pop\n  pop\n    /* \"#utility.yul\":2777:3223   */\ntag_90:\n    /* \"#utility.yul\":2687:3230   */\n  pop\n  pop\n  pop\n  jump\t// out\n    /* \"#utility.yul\":3236:3353   */\ntag_47:\n    /* \"#utility.yul\":3290:3298   */\n  0x00\n    /* \"#utility.yul\":3340:3345   */\n  dup3\n    /* \"#utility.yul\":3334:3338   */\n  dup3\n    /* \"#utility.yul\":3330:3346   */\n  shr\n    /* \"#utility.yul\":3309:3346   */\n  swap1\n  pop\n    /* \"#utility.yul\":3236:3353   */\n  swap3\n  swap2\n  pop\n  pop\n  jump\t// out\n    /* \"#utility.yul\":3359:3528   */\ntag_48:\n    /* \"#utility.yul\":3403:3409   */\n  0x00\n    /* \"#utility.yul\":3436:3487   */\n  tag_98\n    /* \"#utility.yul\":3484:3485   */\n  0x00\n    /* \"#utility.yul\":3480:3486   */\n  not\n    /* \"#utility.yul\":3472:3477   */\n  dup5\n    /* \"#utility.yul\":3469:3470   */\n  0x08\n    /* \"#utility.yul\":3465:3478   */\n  mul\n    /* \"#utility.yul\":3436:3487   */\n  tag_47\n  jump\t// in\ntag_98:\n    /* \"#utility.yul\":3432:3488   */\n  not\n    /* \"#utility.yul\":3517:3521   */\n  dup1\n    /* \"#utility.yul\":3511:3515   */\n  dup4\n    /* \"#utility.yul\":3507:3522   */\n  and\n    /* \"#utility.yul\":3497:3522   */\n  swap2\n  pop\n    /* \"#utility.yul\":3410:3528   */\n  pop\n    /* \"#utility.yul\":3359:3528   */\n  swap3\n  swap2\n  pop\n  pop\n  jump\t// out\n    /* \"#utility.yul\":3533:3828   */\ntag_49:\n    /* \"#utility.yul\":3609:3613   */\n  0x00\n    /* \"#utility.yul\":3755:3784   */\n  tag_100\n    /* \"#utility.yul\":3780:3783   */\n  dup4\n    /* \"#utility.yul\":3774:3778   */\n  dup4\n    /* \"#utility.yul\":3755:3784   */\n  tag_48\n  jump\t// in\ntag_100:\n    /* \"#utility.yul\":3747:3784   */\n  swap2\n  pop\n    /* \"#utility.yul\":3817:3820   */\n  dup3\n    /* \"#utility.yul\":3814:3815   */\n  0x02\n    /* \"#utility.yul\":3810:3821   */\n  mul\n    /* \"#utility.yul\":3804:3808   */\n  dup3\n    /* \"#utility.yul\":3801:3822   */\n  or\n    /* \"#utility.yul\":3793:3822   */\n  swap1\n  pop\n    /* \"#utility.yul\":3533:3828   */\n  swap3\n  swap2\n  pop\n  pop\n  jump\t// out\n    /* \"#utility.yul\":3833:5228   */\ntag_6:\n    /* \"#utility.yul\":3950:3987   */\n  tag_102\n    /* \"#utility.yul\":3983:3986   */\n  dup3\n    /* \"#utility.yul\":3950:3987   */\n  tag_30\n  jump\t// in\ntag_102:\n    /* \"#utility.yul\":4052:4070   */\n  0xffffffffffffffff\n    /* \"#utility.yul\":4044:4050   */\n  dup2\n    /* \"#utility.yul\":4041:4071   */\n  gt\n    /* \"#utility.yul\":4038:4094   */\n  iszero\n  tag_103\n  jumpi\n    /* \"#utility.yul\":4074:4092   */\n  tag_104\n  tag_31\n  jump\t// in\ntag_104:\n    /* \"#utility.yul\":4038:4094   */\ntag_103:\n    /* \"#utility.yul\":4118:4156   */\n  tag_105\n    /* \"#utility.yul\":4150:4154   */\n  dup3\n    /* \"#utility.yul\":4144:4155   */\n  sload\n    /* \"#utility.yul\":4118:4156   */\n  tag_33\n  jump\t// in\ntag_105:\n    /* \"#utility.yul\":4203:4270   */\n  tag_106\n    /* \"#utility.yul\":4263:4269   */\n  dup3\n    /* \"#utility.yul\":4255:4261   */\n  dup3\n    /* \"#utility.yul\":4249:4253   */\n  dup6\n    /* \"#utility.yul\":4203:4270   */\n  tag_46\n  jump\t// in\ntag_106:\n    /* \"#utility.yul\":4297:4298   */\n  0x00\n    /* \"#utility.yul\":4321:4325   */\n  0x20\n    /* \"#utility.yul\":4308:4325   */\n  swap1\n  pop\n    /* \"#utility.yul\":4353:4355   */\n  0x1f\n    /* \"#utility.yul\":4345:4351   */\n  dup4\n    /* \"#utility.yul\":4342:4356   */\n  gt\n    /* \"#utility.yul\":4370:4371   */\n  0x01\n    /* \"#utility.yul\":4365:4983   */\n  dup2\n  eq\n  tag_108\n  jumpi\n    /* \"#utility.yul\":5027:5028   */\n  0x00\n    /* \"#utility.yul\":5044:5050   */\n  dup5\n    /* \"#utility.yul\":5041:5118   */\n  iszero\n  tag_109\n  jumpi\n    /* \"#utility.yul\":5093:5102   */\n  dup3\n    /* \"#utility.yul\":5088:5091   */\n  dup8\n    /* \"#utility.yul\":5084:5103   */\n  add\n    /* \"#utility.yul\":5078:5104   */\n  mload\n    /* \"#utility.yul\":5069:5104   */\n  swap1\n  pop\n    /* \"#utility.yul\":5041:5118   */\ntag_109:\n    /* \"#utility.yul\":5144:5211   */\n  tag_110\n    /* \"#utility.yul\":5204:5210   */\n  dup6\n    /* \"#utility.yul\":5197:5202   */\n  dup3\n    /* \"#utility.yul\":5144:5211   */\n  tag_49\n  jump\t// in\ntag_110:\n    /* \"#utility.yul\":5138:5142   */\n  dup7\n    /* \"#utility.yul\":5131:5212   */\n  sstore\n    /* \"#utility.yul\":5000:5222   */\n  pop\n    /* \"#utility.yul\":4335:5222   */\n  jump(tag_107)\n    /* \"#utility.yul\":4365:4983   */\ntag_108:\n    /* \"#utility.yul\":4417:4421   */\n  0x1f\n    /* \"#utility.yul\":4413:4422   */\n  not\n    /* \"#utility.yul\":4405:4411   */\n  dup5\n    /* \"#utility.yul\":4401:4423   */\n  and\n    /* \"#utility.yul\":4451:4488   */\n  tag_111\n    /* \"#utility.yul\":4483:4487   */\n  dup7\n    /* \"#utility.yul\":4451:4488   */\n  tag_34\n  jump\t// in\ntag_111:\n    /* \"#utility.yul\":4510:4511   */\n  0x00\n    /* \"#utility.yul\":4524:4732   */\ntag_112:\n    /* \"#utility.yul\":4538:4545   */\n  dup3\n    /* \"#utility.yul\":4535:4536   */\n  dup2\n    /* \"#utility.yul\":4532:4546   */\n  lt\n    /* \"#utility.yul\":4524:4732   */\n  iszero\n  tag_114\n  jumpi\n    /* \"#utility.yul\":4617:4626   */\n  dup5\n    /* \"#utility.yul\":4612:4615   */\n  dup10\n    /* \"#utility.yul\":4608:4627   */\n  add\n    /* \"#utility.yul\":4602:4628   */\n  mload\n    /* \"#utility.yul\":4594:4600   */\n  dup3\n    /* \"#utility.yul\":4587:4629   */\n  sstore\n    /* \"#utility.yul\":4668:4669   */\n  0x01\n    /* \"#utility.yul\":4660:4666   */\n  dup3\n    /* \"#utility.yul\":4656:4670   */\n  add\n    /* \"#utility.yul\":4646:4670   */\n  swap2\n  pop\n    /* \"#utility.yul\":4715:4717   */\n  0x20\n    /* \"#utility.yul\":4704:4713   */\n  dup6\n    /* \"#utility.yul\":4700:4718   */\n  add\n    /* \"#utility.yul\":4687:4718   */\n  swap5\n  pop\n    /* \"#utility.yul\":4561:4565   */\n  0x20\n    /* \"#utility.yul\":4558:4559   */\n  dup2\n    /* \"#utility.yul\":4554:4566   */\n  add\n    /* \"#utility.yul\":4549:4566   */\n  swap1\n  pop\n    /* \"#utility.yul\":4524:4732   */\n  jump(tag_112)\ntag_114:\n    /* \"#utility.yul\":4760:4766   */\n  dup7\n    /* \"#utility.yul\":4751:4758   */\n  dup4\n    /* \"#utility.yul\":4748:4767   */\n  lt\n    /* \"#utility.yul\":4745:4924   */\n  iszero\n  tag_115\n  jumpi\n    /* \"#utility.yul\":4818:4827   */\n  dup5\n    /* \"#utility.yul\":4813:4816   */\n  dup10\n    /* \"#utility.yul\":4809:4828   */\n  add\n    /* \"#utility.yul\":4803:4829   */\n  mload\n    /* \"#utility.yul\":4861:4909   */\n  tag_116\n    /* \"#utility.yul\":4903:4907   */\n  0x1f\n    /* \"#utility.yul\":4895:4901   */\n  dup10\n    /* \"#utility.yul\":4891:4908   */\n  and\n    /* \"#utility.yul\":4880:4889   */\n  dup3\n    /* \"#utility.yul\":4861:4909   */\n  tag_48\n  jump\t// in\ntag_116:\n    /* \"#utility.yul\":4853:4859   */\n  dup4\n    /* \"#utility.yul\":4846:4910   */\n  sstore\n    /* \"#utility.yul\":4768:4924   */\n  pop\n    /* \"#utility.yul\":4745:4924   */\ntag_115:\n    /* \"#utility.yul\":4970:4971   */\n  0x01\n    /* \"#utility.yul\":4966:4967   */\n  0x02\n    /* \"#utility.yul\":4958:4964   */\n  dup9\n    /* \"#utility.yul\":4954:4968   */\n  mul\n    /* \"#utility.yul\":4950:4972   */\n  add\n    /* \"#utility.yul\":4944:4948   */\n  dup9\n    /* \"#utility.yul\":4937:4973   */\n  sstore\n    /* \"#utility.yul\":4372:4983   */\n  pop\n  pop\n  pop\n    /* \"#utility.yul\":4335:5222   */\ntag_107:\n  pop\n    /* \"#utility.yul\":3925:5228   */\n  pop\n  pop\n  pop\n    /* \"#utility.yul\":3833:5228   */\n  pop\n  pop\n  jump\t// out\n    /* \"#utility.yul\":5234:5360   */\ntag_50:\n    /* \"#utility.yul\":5271:5278   */\n  0x00\n    /* \"#utility.yul\":5311:5353   */\n  0xffffffffffffffffffffffffffffffffffffffff\n    /* \"#utility.yul\":5304:5309   */\n  dup3\n    /* \"#utility.yul\":5300:5354   */\n  and\n    /* \"#utility.yul\":5289:5354   */\n  swap1\n  pop\n    /* \"#utility.yul\":5234:5360   */\n  swap2\n  swap1\n  pop\n  jump\t// out\n    /* \"#utility.yul\":5366:5462   */\ntag_51:\n    /* \"#utility.yul\":5403:5410   */\n  0x00\n    /* \"#utility.yul\":5432:5456   */\n  tag_119\n    /* \"#utility.yul\":5450:5455   */\n  dup3\n    /* \"#utility.yul\":5432:5456   */\n  tag_50\n  jump\t// in\ntag_119:\n    /* \"#utility.yul\":5421:5456   */\n  swap1\n  pop\n    /* \"#utility.yul\":5366:5462   */\n  swap2\n  swap1\n  pop\n  jump\t// out\n    /* \"#utility.yul\":5468:5586   */\ntag_52:\n    /* \"#utility.yul\":5555:5579   */\n  tag_121\n    /* \"#utility.yul\":5573:5578   */\n  dup2\n    /* \"#utility.yul\":5555:5579   */\n  tag_51\n  jump\t// in\ntag_121:\n    /* \"#utility.yul\":5550:5553   */\n  dup3\n    /* \"#utility.yul\":5543:5580   */\n  mstore\n    /* \"#utility.yul\":5468:5586   */\n  pop\n  pop\n  jump\t// out\n    /* \"#utility.yul\":5592:5814   */\ntag_15:\n    /* \"#utility.yul\":5685:5689   */\n  0x00\n    /* \"#utility.yul\":5723:5725   */\n  0x20\n    /* \"#utility.yul\":5712:5721   */\n  dup3\n    /* \"#utility.yul\":5708:5726   */\n  add\n    /* \"#utility.yul\":5700:5726   */\n  swap1\n  pop\n    /* \"#utility.yul\":5736:5807   */\n  tag_123\n    /* \"#utility.yul\":5804:5805   */\n  0x00\n    /* \"#utility.yul\":5793:5802   */\n  dup4\n    /* \"#utility.yul\":5789:5806   */\n  add\n    /* \"#utility.yul\":5780:5786   */\n  dup5\n    /* \"#utility.yul\":5736:5807   */\n  tag_52\n  jump\t// in\ntag_123:\n    /* \"#utility.yul\":5592:5814   */\n  swap3\n  swap2\n  pop\n  pop\n  jump\t// out\n    /* \"#utility.yul\":5820:6000   */\ntag_53:\n    /* \"#utility.yul\":5868:5945   */\n  0x4e487b7100000000000000000000000000000000000000000000000000000000\n    /* \"#utility.yul\":5865:5866   */\n  0x00\n    /* \"#utility.yul\":5858:5946   */\n  mstore\n    /* \"#utility.yul\":5965:5969   */\n  0x11\n    /* \"#utility.yul\":5962:5963   */\n  0x04\n    /* \"#utility.yul\":5955:5970   */\n  mstore\n    /* \"#utility.yul\":5989:5993   */\n  0x24\n    /* \"#utility.yul\":5986:5987   */\n  0x00\n    /* \"#utility.yul\":5979:5994   */\n  revert\n    /* \"#utility.yul\":6006:6197   */\ntag_21:\n    /* \"#utility.yul\":6046:6049   */\n  0x00\n    /* \"#utility.yul\":6065:6085   */\n  tag_126\n    /* \"#utility.yul\":6083:6084   */\n  dup3\n    /* \"#utility.yul\":6065:6085   */\n  tag_38\n  jump\t// in\ntag_126:\n    /* \"#utility.yul\":6060:6085   */\n  swap2\n  pop\n    /* \"#utility.yul\":6099:6119   */\n  tag_127\n    /* \"#utility.yul\":6117:6118   */\n  dup4\n    /* \"#utility.yul\":6099:6119   */\n  tag_38\n  jump\t// in\ntag_127:\n    /* \"#utility.yul\":6094:6119   */\n  swap3\n  pop\n    /* \"#utility.yul\":6142:6143   */\n  dup3\n    /* \"#utility.yul\":6139:6140   */\n  dup3\n    /* \"#utility.yul\":6135:6144   */\n  add\n    /* \"#utility.yul\":6128:6144   */\n  swap1\n  pop\n    /* \"#utility.yul\":6163:6166   */\n  dup1\n    /* \"#utility.yul\":6160:6161   */\n  dup3\n    /* \"#utility.yul\":6157:6167   */\n  gt\n    /* \"#utility.yul\":6154:6190   */\n  iszero\n  tag_128\n  jumpi\n    /* \"#utility.yul\":6170:6188   */\n  tag_129\n  tag_53\n  jump\t// in\ntag_129:\n    /* \"#utility.yul\":6154:6190   */\ntag_128:\n    /* \"#utility.yul\":6006:6197   */\n  swap3\n  swap2\n  pop\n  pop\n  jump\t// out\n    /* \"#utility.yul\":6203:6321   */\ntag_54:\n    /* \"#utility.yul\":6290:6314   */\n  tag_131\n    /* \"#utility.yul\":6308:6313   */\n  dup2\n    /* \"#utility.yul\":6290:6314   */\n  tag_38\n  jump\t// in\ntag_131:\n    /* \"#utility.yul\":6285:6288   */\n  dup3\n    /* \"#utility.yul\":6278:6315   */\n  mstore\n    /* \"#utility.yul\":6203:6321   */\n  pop\n  pop\n  jump\t// out\n    /* \"#utility.yul\":6327:6769   */\ntag_25:\n    /* \"#utility.yul\":6476:6480   */\n  0x00\n    /* \"#utility.yul\":6514:6516   */\n  0x60\n    /* \"#utility.yul\":6503:6512   */\n  dup3\n    /* \"#utility.yul\":6499:6517   */\n  add\n    /* \"#utility.yul\":6491:6517   */\n  swap1\n  pop\n    /* \"#utility.yul\":6527:6598   */\n  tag_133\n    /* \"#utility.yul\":6595:6596   */\n  0x00\n    /* \"#utility.yul\":6584:6593   */\n  dup4\n    /* \"#utility.yul\":6580:6597   */\n  add\n    /* \"#utility.yul\":6571:6577   */\n  dup7\n    /* \"#utility.yul\":6527:6598   */\n  tag_52\n  jump\t// in\ntag_133:\n    /* \"#utility.yul\":6608:6680   */\n  tag_134\n    /* \"#utility.yul\":6676:6678   */\n  0x20\n    /* \"#utility.yul\":6665:6674   */\n  dup4\n    /* \"#utility.yul\":6661:6679   */\n  add\n    /* \"#utility.yul\":6652:6658   */\n  dup6\n    /* \"#utility.yul\":6608:6680   */\n  tag_54\n  jump\t// in\ntag_134:\n    /* \"#utility.yul\":6690:6762   */\n  tag_135\n    /* \"#utility.yul\":6758:6760   */\n  0x40\n    /* \"#utility.yul\":6747:6756   */\n  dup4\n    /* \"#utility.yul\":6743:6761   */\n  add\n    /* \"#utility.yul\":6734:6740   */\n  dup5\n    /* \"#utility.yul\":6690:6762   */\n  tag_54\n  jump\t// in\ntag_135:\n    /* \"#utility.yul\":6327:6769   */\n  swap5\n  swap4\n  pop\n  pop\n  pop\n  pop\n  jump\t// out\n    /* \"#utility.yul\":6775:6997   */\ntag_29:\n    /* \"#utility.yul\":6868:6872   */\n  0x00\n    /* \"#utility.yul\":6906:6908   */\n  0x20\n    /* \"#utility.yul\":6895:6904   */\n  dup3\n    /* \"#utility.yul\":6891:6909   */\n  add\n    /* \"#utility.yul\":6883:6909   */\n  swap1\n  pop\n    /* \"#utility.yul\":6919:6990   */\n  tag_137\n    /* \"#utility.yul\":6987:6988   */\n  0x00\n    /* \"#utility.yul\":6976:6985   */\n  dup4\n    /* \"#utility.yul\":6972:6989   */\n  add\n    /* \"#utility.yul\":6963:6969   */\n  dup5\n    /* \"#utility.yul\":6919:6990   */\n  tag_54\n  jump\t// in\ntag_137:\n    /* \"#utility.yul\":6775:6997   */\n  swap3\n  swap2\n  pop\n  pop\n  jump\t// out\n    /* \"contracts/HelloWorld5.sol\":115:4531  contract MGNToken is ERC20 {... */\ntag_11:\n  dataSize(sub_0)\n  dup1\n  dataOffset(sub_0)\n  0x00\n  codecopy\n  0x00\n  return\nstop\n\nsub_0: assembly {\n        /* \"contracts/HelloWorld5.sol\":115:4531  contract MGNToken is ERC20 {... */\n      mstore(0x40, 0x80)\n      callvalue\n      dup1\n      iszero\n      tag_1\n      jumpi\n      0x00\n      dup1\n      revert\n    tag_1:\n      pop\n      jumpi(tag_2, lt(calldatasize, 0x04))\n      shr(0xe0, calldataload(0x00))\n      dup1\n      0x42966c68\n      gt\n      tag_18\n      jumpi\n      dup1\n      0xbead3f50\n      gt\n      tag_19\n      jumpi\n      dup1\n      0xbead3f50\n      eq\n      tag_14\n      jumpi\n      dup1\n      0xd45e3f4a\n      eq\n      tag_15\n      jumpi\n      dup1\n      0xdd62ed3e\n      eq\n      tag_16\n      jumpi\n      dup1\n      0xf851a440\n      eq\n      tag_17\n      jumpi\n      jump(tag_2)\n    tag_19:\n      dup1\n      0x42966c68\n      eq\n      tag_10\n      jumpi\n      dup1\n      0x70a08231\n      eq\n      tag_11\n      jumpi\n      dup1\n      0x95d89b41\n      eq\n      tag_12\n      jumpi\n      dup1\n      0xa9059cbb\n      eq\n      tag_13\n      jumpi\n      jump(tag_2)\n    tag_18:\n      dup1\n      0x23b872dd\n      gt\n      tag_20\n      jumpi\n      dup1\n      0x23b872dd\n      eq\n      tag_6\n      jumpi\n      dup1\n      0x2ff2e9dc\n      eq\n      tag_7\n      jumpi\n      dup1\n      0x313ce567\n      eq\n      tag_8\n      jumpi\n      dup1\n      0x40c10f19\n      eq\n      tag_9\n      jumpi\n      jump(tag_2)\n    tag_20:\n      dup1\n      0x06fdde03\n      eq\n      tag_3\n      jumpi\n      dup1\n      0x095ea7b3\n      eq\n      tag_4\n      jumpi\n      dup1\n      0x18160ddd\n      eq\n      tag_5\n      jumpi\n    tag_2:\n      0x00\n      dup1\n      revert\n        /* \"@openzeppelin/contracts/token/ERC20/ERC20.sol\":2074:2163  function name() public view virtual returns (string memory) {... */\n    tag_3:\n      tag_21\n      tag_22\n      jump\t// in\n    tag_21:\n      mload(0x40)\n      tag_23\n      swap2\n      swap1\n      tag_24\n      jump\t// in\n    tag_23:\n      mload(0x40)\n      dup1\n      swap2\n      sub\n      swap1\n      return\n        /* \"@openzeppelin/contracts/token/ERC20/ERC20.sol\":4293:4479  function approve(address spender, uint256 value) public virtual returns (bool) {... */\n    tag_4:\n      tag_25\n      0x04\n      dup1\n      calldatasize\n      sub\n      dup2\n      add\n      swap1\n      tag_26\n      swap2\n      swap1\n      tag_27\n      jump\t// in\n    tag_26:\n      tag_28\n      jump\t// in\n    tag_25:\n      mload(0x40)\n      tag_29\n      swap2\n      swap1\n      tag_30\n      jump\t// in\n    tag_29:\n      mload(0x40)\n      dup1\n      swap2\n      sub\n      swap1\n      return\n        /* \"@openzeppelin/contracts/token/ERC20/ERC20.sol\":3144:3241  function totalSupply() public view virtual returns (uint256) {... */\n    tag_5:\n      tag_31\n      tag_32\n      jump\t// in\n    tag_31:\n      mload(0x40)\n      tag_33\n      swap2\n      swap1\n      tag_34\n      jump\t// in\n    tag_33:\n      mload(0x40)\n      dup1\n      swap2\n      sub\n      swap1\n      return\n        /* \"@openzeppelin/contracts/token/ERC20/ERC20.sol\":5039:5283  function transferFrom(address from, address to, uint256 value) public virtual returns (bool) {... */\n    tag_6:\n      tag_35\n      0x04\n      dup1\n      calldatasize\n      sub\n      dup2\n      add\n      swap1\n      tag_36\n      swap2\n      swap1\n      tag_37\n      jump\t// in\n    tag_36:\n      tag_38\n      jump\t// in\n    tag_35:\n      mload(0x40)\n      tag_39\n      swap2\n      swap1\n      tag_30\n      jump\t// in\n    tag_39:\n      mload(0x40)\n      dup1\n      swap2\n      sub\n      swap1\n      return\n        /* \"contracts/HelloWorld5.sol\":174:219  uint256 public constant INITIAL_SUPPLY = 2000 */\n    tag_7:\n      tag_40\n      tag_41\n      jump\t// in\n    tag_40:\n      mload(0x40)\n      tag_42\n      swap2\n      swap1\n      tag_34\n      jump\t// in\n    tag_42:\n      mload(0x40)\n      dup1\n      swap2\n      sub\n      swap1\n      return\n        /* \"@openzeppelin/contracts/token/ERC20/ERC20.sol\":3002:3084  function decimals() public view virtual returns (uint8) {... */\n    tag_8:\n      tag_43\n      tag_44\n      jump\t// in\n    tag_43:\n      mload(0x40)\n      tag_45\n      swap2\n      swap1\n      tag_46\n      jump\t// in\n    tag_45:\n      mload(0x40)\n      dup1\n      swap2\n      sub\n      swap1\n      return\n        /* \"contracts/HelloWorld5.sol\":450:545  function mint(address to, uint256 amount) external onlyAdmin {... */\n    tag_9:\n      tag_47\n      0x04\n      dup1\n      calldatasize\n      sub\n      dup2\n      add\n      swap1\n      tag_48\n      swap2\n      swap1\n      tag_27\n      jump\t// in\n    tag_48:\n      tag_49\n      jump\t// in\n    tag_47:\n      stop\n        /* \"contracts/HelloWorld5.sol\":551:632  function burn(uint256 amount) external {... */\n    tag_10:\n      tag_50\n      0x04\n      dup1\n      calldatasize\n      sub\n      dup2\n      add\n      swap1\n      tag_51\n      swap2\n      swap1\n      tag_52\n      jump\t// in\n    tag_51:\n      tag_53\n      jump\t// in\n    tag_50:\n      stop\n        /* \"@openzeppelin/contracts/token/ERC20/ERC20.sol\":3299:3415  function balanceOf(address account) public view virtual returns (uint256) {... */\n    tag_11:\n      tag_54\n      0x04\n      dup1\n      calldatasize\n      sub\n      dup2\n      add\n      swap1\n      tag_55\n      swap2\n      swap1\n      tag_56\n      jump\t// in\n    tag_55:\n      tag_57\n      jump\t// in\n    tag_54:\n      mload(0x40)\n      tag_58\n      swap2\n      swap1\n      tag_34\n      jump\t// in\n    tag_58:\n      mload(0x40)\n      dup1\n      swap2\n      sub\n      swap1\n      return\n        /* \"@openzeppelin/contracts/token/ERC20/ERC20.sol\":2276:2369  function symbol() public view virtual returns (string memory) {... */\n    tag_12:\n      tag_59\n      tag_60\n      jump\t// in\n    tag_59:\n      mload(0x40)\n      tag_61\n      swap2\n      swap1\n      tag_24\n      jump\t// in\n    tag_61:\n      mload(0x40)\n      dup1\n      swap2\n      sub\n      swap1\n      return\n        /* \"@openzeppelin/contracts/token/ERC20/ERC20.sol\":3610:3788  function transfer(address to, uint256 value) public virtual returns (bool) {... */\n    tag_13:\n      tag_62\n      0x04\n      dup1\n      calldatasize\n      sub\n      dup2\n      add\n      swap1\n      tag_63\n      swap2\n      swap1\n      tag_27\n      jump\t// in\n    tag_63:\n      tag_64\n      jump\t// in\n    tag_62:\n      mload(0x40)\n      tag_65\n      swap2\n      swap1\n      tag_30\n      jump\t// in\n    tag_65:\n      mload(0x40)\n      dup1\n      swap2\n      sub\n      swap1\n      return\n        /* \"contracts/HelloWorld5.sol\":880:980  function getTransactionSender() external view returns (address) {... */\n    tag_14:\n      tag_66\n      tag_67\n      jump\t// in\n    tag_66:\n      mload(0x40)\n      tag_68\n      swap2\n      swap1\n      tag_69\n      jump\t// in\n    tag_68:\n      mload(0x40)\n      dup1\n      swap2\n      sub\n      swap1\n      return\n        /* \"contracts/HelloWorld5.sol\":748:874  function getLatestTransactionTimestamp() external view returns (string memory) {... */\n    tag_15:\n      tag_70\n      tag_71\n      jump\t// in\n    tag_70:\n      mload(0x40)\n      tag_72\n      swap2\n      swap1\n      tag_24\n      jump\t// in\n    tag_72:\n      mload(0x40)\n      dup1\n      swap2\n      sub\n      swap1\n      return\n        /* \"@openzeppelin/contracts/token/ERC20/ERC20.sol\":3846:3986  function allowance(address owner, address spender) public view virtual returns (uint256) {... */\n    tag_16:\n      tag_73\n      0x04\n      dup1\n      calldatasize\n      sub\n      dup2\n      add\n      swap1\n      tag_74\n      swap2\n      swap1\n      tag_75\n      jump\t// in\n    tag_74:\n      tag_76\n      jump\t// in\n    tag_73:\n      mload(0x40)\n      tag_77\n      swap2\n      swap1\n      tag_34\n      jump\t// in\n    tag_77:\n      mload(0x40)\n      dup1\n      swap2\n      sub\n      swap1\n      return\n        /* \"contracts/HelloWorld5.sol\":148:168  address public admin */\n    tag_17:\n      tag_78\n      tag_79\n      jump\t// in\n    tag_78:\n      mload(0x40)\n      tag_80\n      swap2\n      swap1\n      tag_69\n      jump\t// in\n    tag_80:\n      mload(0x40)\n      dup1\n      swap2\n      sub\n      swap1\n      return\n        /* \"@openzeppelin/contracts/token/ERC20/ERC20.sol\":2074:2163  function name() public view virtual returns (string memory) {... */\n    tag_22:\n        /* \"@openzeppelin/contracts/token/ERC20/ERC20.sol\":2119:2132  string memory */\n      0x60\n        /* \"@openzeppelin/contracts/token/ERC20/ERC20.sol\":2151:2156  _name */\n      0x03\n        /* \"@openzeppelin/contracts/token/ERC20/ERC20.sol\":2144:2156  return _name */\n      dup1\n      sload\n      tag_82\n      swap1\n      tag_83\n      jump\t// in\n    tag_82:\n      dup1\n      0x1f\n      add\n      0x20\n      dup1\n      swap2\n      div\n      mul\n      0x20\n      add\n      mload(0x40)\n      swap1\n      dup2\n      add\n      0x40\n      mstore\n      dup1\n      swap3\n      swap2\n      swap1\n      dup2\n      dup2\n      mstore\n      0x20\n      add\n      dup3\n      dup1\n      sload\n      tag_84\n      swap1\n      tag_83\n      jump\t// in\n    tag_84:\n      dup1\n      iszero\n      tag_85\n      jumpi\n      dup1\n      0x1f\n      lt\n      tag_86\n      jumpi\n      0x0100\n      dup1\n      dup4\n      sload\n      div\n      mul\n      dup4\n      mstore\n      swap2\n      0x20\n      add\n      swap2\n      jump(tag_85)\n    tag_86:\n      dup3\n      add\n      swap2\n      swap1\n      0x00\n      mstore\n      keccak256(0x00, 0x20)\n      swap1\n    tag_87:\n      dup2\n      sload\n      dup2\n      mstore\n      swap1\n      0x01\n      add\n      swap1\n      0x20\n      add\n      dup1\n      dup4\n      gt\n      tag_87\n      jumpi\n      dup3\n      swap1\n      sub\n      0x1f\n      and\n      dup3\n      add\n      swap2\n    tag_85:\n      pop\n      pop\n      pop\n      pop\n      pop\n      swap1\n      pop\n        /* \"@openzeppelin/contracts/token/ERC20/ERC20.sol\":2074:2163  function name() public view virtual returns (string memory) {... */\n      swap1\n      jump\t// out\n        /* \"@openzeppelin/contracts/token/ERC20/ERC20.sol\":4293:4479  function approve(address spender, uint256 value) public virtual returns (bool) {... */\n    tag_28:\n        /* \"@openzeppelin/contracts/token/ERC20/ERC20.sol\":4366:4370  bool */\n      0x00\n        /* \"@openzeppelin/contracts/token/ERC20/ERC20.sol\":4382:4395  address owner */\n      dup1\n        /* \"@openzeppelin/contracts/token/ERC20/ERC20.sol\":4398:4410  _msgSender() */\n      tag_89\n        /* \"@openzeppelin/contracts/token/ERC20/ERC20.sol\":4398:4408  _msgSender */\n      tag_90\n        /* \"@openzeppelin/contracts/token/ERC20/ERC20.sol\":4398:4410  _msgSender() */\n      jump\t// in\n    tag_89:\n        /* \"@openzeppelin/contracts/token/ERC20/ERC20.sol\":4382:4410  address owner = _msgSender() */\n      swap1\n      pop\n        /* \"@openzeppelin/contracts/token/ERC20/ERC20.sol\":4420:4451  _approve(owner, spender, value) */\n      tag_91\n        /* \"@openzeppelin/contracts/token/ERC20/ERC20.sol\":4429:4434  owner */\n      dup2\n        /* \"@openzeppelin/contracts/token/ERC20/ERC20.sol\":4436:4443  spender */\n      dup6\n        /* \"@openzeppelin/contracts/token/ERC20/ERC20.sol\":4445:4450  value */\n      dup6\n        /* \"@openzeppelin/contracts/token/ERC20/ERC20.sol\":4420:4428  _approve */\n      tag_92\n        /* \"@openzeppelin/contracts/token/ERC20/ERC20.sol\":4420:4451  _approve(owner, spender, value) */\n      jump\t// in\n    tag_91:\n        /* \"@openzeppelin/contracts/token/ERC20/ERC20.sol\":4468:4472  true */\n      0x01\n        /* \"@openzeppelin/contracts/token/ERC20/ERC20.sol\":4461:4472  return true */\n      swap2\n      pop\n      pop\n        /* \"@openzeppelin/contracts/token/ERC20/ERC20.sol\":4293:4479  function approve(address spender, uint256 value) public virtual returns (bool) {... */\n      swap3\n      swap2\n      pop\n      pop\n      jump\t// out\n        /* \"@openzeppelin/contracts/token/ERC20/ERC20.sol\":3144:3241  function totalSupply() public view virtual returns (uint256) {... */\n    tag_32:\n        /* \"@openzeppelin/contracts/token/ERC20/ERC20.sol\":3196:3203  uint256 */\n      0x00\n        /* \"@openzeppelin/contracts/token/ERC20/ERC20.sol\":3222:3234  _totalSupply */\n      sload(0x02)\n        /* \"@openzeppelin/contracts/token/ERC20/ERC20.sol\":3215:3234  return _totalSupply */\n      swap1\n      pop\n        /* \"@openzeppelin/contracts/token/ERC20/ERC20.sol\":3144:3241  function totalSupply() public view virtual returns (uint256) {... */\n      swap1\n      jump\t// out\n        /* \"@openzeppelin/contracts/token/ERC20/ERC20.sol\":5039:5283  function transferFrom(address from, address to, uint256 value) public virtual returns (bool) {... */\n    tag_38:\n        /* \"@openzeppelin/contracts/token/ERC20/ERC20.sol\":5126:5130  bool */\n      0x00\n        /* \"@openzeppelin/contracts/token/ERC20/ERC20.sol\":5142:5157  address spender */\n      dup1\n        /* \"@openzeppelin/contracts/token/ERC20/ERC20.sol\":5160:5172  _msgSender() */\n      tag_95\n        /* \"@openzeppelin/contracts/token/ERC20/ERC20.sol\":5160:5170  _msgSender */\n      tag_90\n        /* \"@openzeppelin/contracts/token/ERC20/ERC20.sol\":5160:5172  _msgSender() */\n      jump\t// in\n    tag_95:\n        /* \"@openzeppelin/contracts/token/ERC20/ERC20.sol\":5142:5172  address spender = _msgSender() */\n      swap1\n      pop\n        /* \"@openzeppelin/contracts/token/ERC20/ERC20.sol\":5182:5219  _spendAllowance(from, spender, value) */\n      tag_96\n        /* \"@openzeppelin/contracts/token/ERC20/ERC20.sol\":5198:5202  from */\n      dup6\n        /* \"@openzeppelin/contracts/token/ERC20/ERC20.sol\":5204:5211  spender */\n      dup3\n        /* \"@openzeppelin/contracts/token/ERC20/ERC20.sol\":5213:5218  value */\n      dup6\n        /* \"@openzeppelin/contracts/token/ERC20/ERC20.sol\":5182:5197  _spendAllowance */\n      tag_97\n        /* \"@openzeppelin/contracts/token/ERC20/ERC20.sol\":5182:5219  _spendAllowance(from, spender, value) */\n      jump\t// in\n    tag_96:\n        /* \"@openzeppelin/contracts/token/ERC20/ERC20.sol\":5229:5255  _transfer(from, to, value) */\n      tag_98\n        /* \"@openzeppelin/contracts/token/ERC20/ERC20.sol\":5239:5243  from */\n      dup6\n        /* \"@openzeppelin/contracts/token/ERC20/ERC20.sol\":5245:5247  to */\n      dup6\n        /* \"@openzeppelin/contracts/token/ERC20/ERC20.sol\":5249:5254  value */\n      dup6\n        /* \"@openzeppelin/contracts/token/ERC20/ERC20.sol\":5229:5238  _transfer */\n      tag_99\n        /* \"@openzeppelin/contracts/token/ERC20/ERC20.sol\":5229:5255  _transfer(from, to, value) */\n      jump\t// in\n    tag_98:\n        /* \"@openzeppelin/contracts/token/ERC20/ERC20.sol\":5272:5276  true */\n      0x01\n        /* \"@openzeppelin/contracts/token/ERC20/ERC20.sol\":5265:5276  return true */\n      swap2\n      pop\n      pop\n        /* \"@openzeppelin/contracts/token/ERC20/ERC20.sol\":5039:5283  function transferFrom(address from, address to, uint256 value) public virtual returns (bool) {... */\n      swap4\n      swap3\n      pop\n      pop\n      pop\n      jump\t// out\n        /* \"contracts/HelloWorld5.sol\":174:219  uint256 public constant INITIAL_SUPPLY = 2000 */\n    tag_41:\n        /* \"contracts/HelloWorld5.sol\":215:219  2000 */\n      0x07d0\n        /* \"contracts/HelloWorld5.sol\":174:219  uint256 public constant INITIAL_SUPPLY = 2000 */\n      dup2\n      jump\t// out\n        /* \"@openzeppelin/contracts/token/ERC20/ERC20.sol\":3002:3084  function decimals() public view virtual returns (uint8) {... */\n    tag_44:\n        /* \"@openzeppelin/contracts/token/ERC20/ERC20.sol\":3051:3056  uint8 */\n      0x00\n        /* \"@openzeppelin/contracts/token/ERC20/ERC20.sol\":3075:3077  18 */\n      0x12\n        /* \"@openzeppelin/contracts/token/ERC20/ERC20.sol\":3068:3077  return 18 */\n      swap1\n      pop\n        /* \"@openzeppelin/contracts/token/ERC20/ERC20.sol\":3002:3084  function decimals() public view virtual returns (uint8) {... */\n      swap1\n      jump\t// out\n        /* \"contracts/HelloWorld5.sol\":450:545  function mint(address to, uint256 amount) external onlyAdmin {... */\n    tag_49:\n        /* \"contracts/HelloWorld5.sol\":406:411  admin */\n      0x05\n      0x00\n      swap1\n      sload\n      swap1\n      0x0100\n      exp\n      swap1\n      div\n      0xffffffffffffffffffffffffffffffffffffffff\n      and\n        /* \"contracts/HelloWorld5.sol\":392:411  msg.sender == admin */\n      0xffffffffffffffffffffffffffffffffffffffff\n      and\n        /* \"contracts/HelloWorld5.sol\":392:402  msg.sender */\n      caller\n        /* \"contracts/HelloWorld5.sol\":392:411  msg.sender == admin */\n      0xffffffffffffffffffffffffffffffffffffffff\n      and\n      eq\n        /* \"contracts/HelloWorld5.sol\":384:426  require(msg.sender == admin, 'Only admin') */\n      tag_102\n      jumpi\n      mload(0x40)\n      0x08c379a000000000000000000000000000000000000000000000000000000000\n      dup2\n      mstore\n      0x04\n      add\n      tag_103\n      swap1\n      tag_104\n      jump\t// in\n    tag_103:\n      mload(0x40)\n      dup1\n      swap2\n      sub\n      swap1\n      revert\n    tag_102:\n        /* \"contracts/HelloWorld5.sol\":521:538  _mint(to, amount) */\n      tag_106\n        /* \"contracts/HelloWorld5.sol\":527:529  to */\n      dup3\n        /* \"contracts/HelloWorld5.sol\":531:537  amount */\n      dup3\n        /* \"contracts/HelloWorld5.sol\":521:526  _mint */\n      tag_107\n        /* \"contracts/HelloWorld5.sol\":521:538  _mint(to, amount) */\n      jump\t// in\n    tag_106:\n        /* \"contracts/HelloWorld5.sol\":450:545  function mint(address to, uint256 amount) external onlyAdmin {... */\n      pop\n      pop\n      jump\t// out\n        /* \"contracts/HelloWorld5.sol\":551:632  function burn(uint256 amount) external {... */\n    tag_53:\n        /* \"contracts/HelloWorld5.sol\":600:625  _burn(msg.sender, amount) */\n      tag_109\n        /* \"contracts/HelloWorld5.sol\":606:616  msg.sender */\n      caller\n        /* \"contracts/HelloWorld5.sol\":618:624  amount */\n      dup3\n        /* \"contracts/HelloWorld5.sol\":600:605  _burn */\n      tag_110\n        /* \"contracts/HelloWorld5.sol\":600:625  _burn(msg.sender, amount) */\n      jump\t// in\n    tag_109:\n        /* \"contracts/HelloWorld5.sol\":551:632  function burn(uint256 amount) external {... */\n      pop\n      jump\t// out\n        /* \"@openzeppelin/contracts/token/ERC20/ERC20.sol\":3299:3415  function balanceOf(address account) public view virtual returns (uint256) {... */\n    tag_57:\n        /* \"@openzeppelin/contracts/token/ERC20/ERC20.sol\":3364:3371  uint256 */\n      0x00\n        /* \"@openzeppelin/contracts/token/ERC20/ERC20.sol\":3390:3399  _balances */\n      dup1\n        /* \"@openzeppelin/contracts/token/ERC20/ERC20.sol\":3390:3408  _balances[account] */\n      0x00\n        /* \"@openzeppelin/contracts/token/ERC20/ERC20.sol\":3400:3407  account */\n      dup4\n        /* \"@openzeppelin/contracts/token/ERC20/ERC20.sol\":3390:3408  _balances[account] */\n      0xffffffffffffffffffffffffffffffffffffffff\n      and\n      0xffffffffffffffffffffffffffffffffffffffff\n      and\n      dup2\n      mstore\n      0x20\n      add\n      swap1\n      dup2\n      mstore\n      0x20\n      add\n      0x00\n      keccak256\n      sload\n        /* \"@openzeppelin/contracts/token/ERC20/ERC20.sol\":3383:3408  return _balances[account] */\n      swap1\n      pop\n        /* \"@openzeppelin/contracts/token/ERC20/ERC20.sol\":3299:3415  function balanceOf(address account) public view virtual returns (uint256) {... */\n      swap2\n      swap1\n      pop\n      jump\t// out\n        /* \"@openzeppelin/contracts/token/ERC20/ERC20.sol\":2276:2369  function symbol() public view virtual returns (string memory) {... */\n    tag_60:\n        /* \"@openzeppelin/contracts/token/ERC20/ERC20.sol\":2323:2336  string memory */\n      0x60\n        /* \"@openzeppelin/contracts/token/ERC20/ERC20.sol\":2355:2362  _symbol */\n      0x04\n        /* \"@openzeppelin/contracts/token/ERC20/ERC20.sol\":2348:2362  return _symbol */\n      dup1\n      sload\n      tag_113\n      swap1\n      tag_83\n      jump\t// in\n    tag_113:\n      dup1\n      0x1f\n      add\n      0x20\n      dup1\n      swap2\n      div\n      mul\n      0x20\n      add\n      mload(0x40)\n      swap1\n      dup2\n      add\n      0x40\n      mstore\n      dup1\n      swap3\n      swap2\n      swap1\n      dup2\n      dup2\n      mstore\n      0x20\n      add\n      dup3\n      dup1\n      sload\n      tag_114\n      swap1\n      tag_83\n      jump\t// in\n    tag_114:\n      dup1\n      iszero\n      tag_115\n      jumpi\n      dup1\n      0x1f\n      lt\n      tag_116\n      jumpi\n      0x0100\n      dup1\n      dup4\n      sload\n      div\n      mul\n      dup4\n      mstore\n      swap2\n      0x20\n      add\n      swap2\n      jump(tag_115)\n    tag_116:\n      dup3\n      add\n      swap2\n      swap1\n      0x00\n      mstore\n      keccak256(0x00, 0x20)\n      swap1\n    tag_117:\n      dup2\n      sload\n      dup2\n      mstore\n      swap1\n      0x01\n      add\n      swap1\n      0x20\n      add\n      dup1\n      dup4\n      gt\n      tag_117\n      jumpi\n      dup3\n      swap1\n      sub\n      0x1f\n      and\n      dup3\n      add\n      swap2\n    tag_115:\n      pop\n      pop\n      pop\n      pop\n      pop\n      swap1\n      pop\n        /* \"@openzeppelin/contracts/token/ERC20/ERC20.sol\":2276:2369  function symbol() public view virtual returns (string memory) {... */\n      swap1\n      jump\t// out\n        /* \"@openzeppelin/contracts/token/ERC20/ERC20.sol\":3610:3788  function transfer(address to, uint256 value) public virtual returns (bool) {... */\n    tag_64:\n        /* \"@openzeppelin/contracts/token/ERC20/ERC20.sol\":3679:3683  bool */\n      0x00\n        /* \"@openzeppelin/contracts/token/ERC20/ERC20.sol\":3695:3708  address owner */\n      dup1\n        /* \"@openzeppelin/contracts/token/ERC20/ERC20.sol\":3711:3723  _msgSender() */\n      tag_119\n        /* \"@openzeppelin/contracts/token/ERC20/ERC20.sol\":3711:3721  _msgSender */\n      tag_90\n        /* \"@openzeppelin/contracts/token/ERC20/ERC20.sol\":3711:3723  _msgSender() */\n      jump\t// in\n    tag_119:\n        /* \"@openzeppelin/contracts/token/ERC20/ERC20.sol\":3695:3723  address owner = _msgSender() */\n      swap1\n      pop\n        /* \"@openzeppelin/contracts/token/ERC20/ERC20.sol\":3733:3760  _transfer(owner, to, value) */\n      tag_120\n        /* \"@openzeppelin/contracts/token/ERC20/ERC20.sol\":3743:3748  owner */\n      dup2\n        /* \"@openzeppelin/contracts/token/ERC20/ERC20.sol\":3750:3752  to */\n      dup6\n        /* \"@openzeppelin/contracts/token/ERC20/ERC20.sol\":3754:3759  value */\n      dup6\n        /* \"@openzeppelin/contracts/token/ERC20/ERC20.sol\":3733:3742  _transfer */\n      tag_99\n        /* \"@openzeppelin/contracts/token/ERC20/ERC20.sol\":3733:3760  _transfer(owner, to, value) */\n      jump\t// in\n    tag_120:\n        /* \"@openzeppelin/contracts/token/ERC20/ERC20.sol\":3777:3781  true */\n      0x01\n        /* \"@openzeppelin/contracts/token/ERC20/ERC20.sol\":3770:3781  return true */\n      swap2\n      pop\n      pop\n        /* \"@openzeppelin/contracts/token/ERC20/ERC20.sol\":3610:3788  function transfer(address to, uint256 value) public virtual returns (bool) {... */\n      swap3\n      swap2\n      pop\n      pop\n      jump\t// out\n        /* \"contracts/HelloWorld5.sol\":880:980  function getTransactionSender() external view returns (address) {... */\n    tag_67:\n        /* \"contracts/HelloWorld5.sol\":935:942  address */\n      0x00\n        /* \"contracts/HelloWorld5.sol\":961:973  _msgSender() */\n      tag_122\n        /* \"contracts/HelloWorld5.sol\":961:971  _msgSender */\n      tag_90\n        /* \"contracts/HelloWorld5.sol\":961:973  _msgSender() */\n      jump\t// in\n    tag_122:\n        /* \"contracts/HelloWorld5.sol\":954:973  return _msgSender() */\n      swap1\n      pop\n        /* \"contracts/HelloWorld5.sol\":880:980  function getTransactionSender() external view returns (address) {... */\n      swap1\n      jump\t// out\n        /* \"contracts/HelloWorld5.sol\":748:874  function getLatestTransactionTimestamp() external view returns (string memory) {... */\n    tag_71:\n        /* \"contracts/HelloWorld5.sol\":812:825  string memory */\n      0x60\n        /* \"contracts/HelloWorld5.sol\":844:867  toDate(block.timestamp) */\n      tag_124\n        /* \"contracts/HelloWorld5.sol\":851:866  block.timestamp */\n      timestamp\n        /* \"contracts/HelloWorld5.sol\":844:850  toDate */\n      tag_125\n        /* \"contracts/HelloWorld5.sol\":844:867  toDate(block.timestamp) */\n      jump\t// in\n    tag_124:\n        /* \"contracts/HelloWorld5.sol\":837:867  return toDate(block.timestamp) */\n      swap1\n      pop\n        /* \"contracts/HelloWorld5.sol\":748:874  function getLatestTransactionTimestamp() external view returns (string memory) {... */\n      swap1\n      jump\t// out\n        /* \"@openzeppelin/contracts/token/ERC20/ERC20.sol\":3846:3986  function allowance(address owner, address spender) public view virtual returns (uint256) {... */\n    tag_76:\n        /* \"@openzeppelin/contracts/token/ERC20/ERC20.sol\":3926:3933  uint256 */\n      0x00\n        /* \"@openzeppelin/contracts/token/ERC20/ERC20.sol\":3952:3963  _allowances */\n      0x01\n        /* \"@openzeppelin/contracts/token/ERC20/ERC20.sol\":3952:3970  _allowances[owner] */\n      0x00\n        /* \"@openzeppelin/contracts/token/ERC20/ERC20.sol\":3964:3969  owner */\n      dup5\n        /* \"@openzeppelin/contracts/token/ERC20/ERC20.sol\":3952:3970  _allowances[owner] */\n      0xffffffffffffffffffffffffffffffffffffffff\n      and\n      0xffffffffffffffffffffffffffffffffffffffff\n      and\n      dup2\n      mstore\n      0x20\n      add\n      swap1\n      dup2\n      mstore\n      0x20\n      add\n      0x00\n      keccak256\n        /* \"@openzeppelin/contracts/token/ERC20/ERC20.sol\":3952:3979  _allowances[owner][spender] */\n      0x00\n        /* \"@openzeppelin/contracts/token/ERC20/ERC20.sol\":3971:3978  spender */\n      dup4\n        /* \"@openzeppelin/contracts/token/ERC20/ERC20.sol\":3952:3979  _allowances[owner][spender] */\n      0xffffffffffffffffffffffffffffffffffffffff\n      and\n      0xffffffffffffffffffffffffffffffffffffffff\n      and\n      dup2\n      mstore\n      0x20\n      add\n      swap1\n      dup2\n      mstore\n      0x20\n      add\n      0x00\n      keccak256\n      sload\n        /* \"@openzeppelin/contracts/token/ERC20/ERC20.sol\":3945:3979  return _allowances[owner][spender] */\n      swap1\n      pop\n        /* \"@openzeppelin/contracts/token/ERC20/ERC20.sol\":3846:3986  function allowance(address owner, address spender) public view virtual returns (uint256) {... */\n      swap3\n      swap2\n      pop\n      pop\n      jump\t// out\n        /* \"contracts/HelloWorld5.sol\":148:168  address public admin */\n    tag_79:\n      0x05\n      0x00\n      swap1\n      sload\n      swap1\n      0x0100\n      exp\n      swap1\n      div\n      0xffffffffffffffffffffffffffffffffffffffff\n      and\n      dup2\n      jump\t// out\n        /* \"@openzeppelin/contracts/utils/Context.sol\":656:752  function _msgSender() internal view virtual returns (address) {... */\n    tag_90:\n        /* \"@openzeppelin/contracts/utils/Context.sol\":709:716  address */\n      0x00\n        /* \"@openzeppelin/contracts/utils/Context.sol\":735:745  msg.sender */\n      caller\n        /* \"@openzeppelin/contracts/utils/Context.sol\":728:745  return msg.sender */\n      swap1\n      pop\n        /* \"@openzeppelin/contracts/utils/Context.sol\":656:752  function _msgSender() internal view virtual returns (address) {... */\n      swap1\n      jump\t// out\n        /* \"@openzeppelin/contracts/token/ERC20/ERC20.sol\":8989:9117  function _approve(address owner, address spender, uint256 value) internal {... */\n    tag_92:\n        /* \"@openzeppelin/contracts/token/ERC20/ERC20.sol\":9073:9110  _approve(owner, spender, value, true) */\n      tag_129\n        /* \"@openzeppelin/contracts/token/ERC20/ERC20.sol\":9082:9087  owner */\n      dup4\n        /* \"@openzeppelin/contracts/token/ERC20/ERC20.sol\":9089:9096  spender */\n      dup4\n        /* \"@openzeppelin/contracts/token/ERC20/ERC20.sol\":9098:9103  value */\n      dup4\n        /* \"@openzeppelin/contracts/token/ERC20/ERC20.sol\":9105:9109  true */\n      0x01\n        /* \"@openzeppelin/contracts/token/ERC20/ERC20.sol\":9073:9081  _approve */\n      tag_130\n        /* \"@openzeppelin/contracts/token/ERC20/ERC20.sol\":9073:9110  _approve(owner, spender, value, true) */\n      jump\t// in\n    tag_129:\n        /* \"@openzeppelin/contracts/token/ERC20/ERC20.sol\":8989:9117  function _approve(address owner, address spender, uint256 value) internal {... */\n      pop\n      pop\n      pop\n      jump\t// out\n        /* \"@openzeppelin/contracts/token/ERC20/ERC20.sol\":10663:11140  function _spendAllowance(address owner, address spender, uint256 value) internal virtual {... */\n    tag_97:\n        /* \"@openzeppelin/contracts/token/ERC20/ERC20.sol\":10762:10786  uint256 currentAllowance */\n      0x00\n        /* \"@openzeppelin/contracts/token/ERC20/ERC20.sol\":10789:10814  allowance(owner, spender) */\n      tag_132\n        /* \"@openzeppelin/contracts/token/ERC20/ERC20.sol\":10799:10804  owner */\n      dup5\n        /* \"@openzeppelin/contracts/token/ERC20/ERC20.sol\":10806:10813  spender */\n      dup5\n        /* \"@openzeppelin/contracts/token/ERC20/ERC20.sol\":10789:10798  allowance */\n      tag_76\n        /* \"@openzeppelin/contracts/token/ERC20/ERC20.sol\":10789:10814  allowance(owner, spender) */\n      jump\t// in\n    tag_132:\n        /* \"@openzeppelin/contracts/token/ERC20/ERC20.sol\":10762:10814  uint256 currentAllowance = allowance(owner, spender) */\n      swap1\n      pop\n        /* \"@openzeppelin/contracts/token/ERC20/ERC20.sol\":10848:10865  type(uint256).max */\n      0xffffffffffffffffffffffffffffffffffffffffffffffffffffffffffffffff\n        /* \"@openzeppelin/contracts/token/ERC20/ERC20.sol\":10828:10844  currentAllowance */\n      dup2\n        /* \"@openzeppelin/contracts/token/ERC20/ERC20.sol\":10828:10865  currentAllowance != type(uint256).max */\n      eq\n        /* \"@openzeppelin/contracts/token/ERC20/ERC20.sol\":10824:11134  if (currentAllowance != type(uint256).max) {... */\n      tag_133\n      jumpi\n        /* \"@openzeppelin/contracts/token/ERC20/ERC20.sol\":10904:10909  value */\n      dup2\n        /* \"@openzeppelin/contracts/token/ERC20/ERC20.sol\":10885:10901  currentAllowance */\n      dup2\n        /* \"@openzeppelin/contracts/token/ERC20/ERC20.sol\":10885:10909  currentAllowance < value */\n      lt\n        /* \"@openzeppelin/contracts/token/ERC20/ERC20.sol\":10881:11011  if (currentAllowance < value) {... */\n      iszero\n      tag_134\n      jumpi\n        /* \"@openzeppelin/contracts/token/ERC20/ERC20.sol\":10963:10970  spender */\n      dup3\n        /* \"@openzeppelin/contracts/token/ERC20/ERC20.sol\":10972:10988  currentAllowance */\n      dup2\n        /* \"@openzeppelin/contracts/token/ERC20/ERC20.sol\":10990:10995  value */\n      dup4\n        /* \"@openzeppelin/contracts/token/ERC20/ERC20.sol\":10936:10996  ERC20InsufficientAllowance(spender, currentAllowance, value) */\n      mload(0x40)\n      0xfb8f41b200000000000000000000000000000000000000000000000000000000\n      dup2\n      mstore\n      0x04\n      add\n      tag_135\n      swap4\n      swap3\n      swap2\n      swap1\n      tag_136\n      jump\t// in\n    tag_135:\n      mload(0x40)\n      dup1\n      swap2\n      sub\n      swap1\n      revert\n        /* \"@openzeppelin/contracts/token/ERC20/ERC20.sol\":10881:11011  if (currentAllowance < value) {... */\n    tag_134:\n        /* \"@openzeppelin/contracts/token/ERC20/ERC20.sol\":11052:11109  _approve(owner, spender, currentAllowance - value, false) */\n      tag_137\n        /* \"@openzeppelin/contracts/token/ERC20/ERC20.sol\":11061:11066  owner */\n      dup5\n        /* \"@openzeppelin/contracts/token/ERC20/ERC20.sol\":11068:11075  spender */\n      dup5\n        /* \"@openzeppelin/contracts/token/ERC20/ERC20.sol\":11096:11101  value */\n      dup5\n        /* \"@openzeppelin/contracts/token/ERC20/ERC20.sol\":11077:11093  currentAllowance */\n      dup5\n        /* \"@openzeppelin/contracts/token/ERC20/ERC20.sol\":11077:11101  currentAllowance - value */\n      sub\n        /* \"@openzeppelin/contracts/token/ERC20/ERC20.sol\":11103:11108  false */\n      0x00\n        /* \"@openzeppelin/contracts/token/ERC20/ERC20.sol\":11052:11060  _approve */\n      tag_130\n        /* \"@openzeppelin/contracts/token/ERC20/ERC20.sol\":11052:11109  _approve(owner, spender, currentAllowance - value, false) */\n      jump\t// in\n    tag_137:\n        /* \"@openzeppelin/contracts/token/ERC20/ERC20.sol\":10824:11134  if (currentAllowance != type(uint256).max) {... */\n    tag_133:\n        /* \"@openzeppelin/contracts/token/ERC20/ERC20.sol\":10752:11140  {... */\n      pop\n        /* \"@openzeppelin/contracts/token/ERC20/ERC20.sol\":10663:11140  function _spendAllowance(address owner, address spender, uint256 value) internal virtual {... */\n      pop\n      pop\n      pop\n      jump\t// out\n        /* \"@openzeppelin/contracts/token/ERC20/ERC20.sol\":5656:5956  function _transfer(address from, address to, uint256 value) internal {... */\n    tag_99:\n        /* \"@openzeppelin/contracts/token/ERC20/ERC20.sol\":5755:5756  0 */\n      0x00\n        /* \"@openzeppelin/contracts/token/ERC20/ERC20.sol\":5739:5757  from == address(0) */\n      0xffffffffffffffffffffffffffffffffffffffff\n      and\n        /* \"@openzeppelin/contracts/token/ERC20/ERC20.sol\":5739:5743  from */\n      dup4\n        /* \"@openzeppelin/contracts/token/ERC20/ERC20.sol\":5739:5757  from == address(0) */\n      0xffffffffffffffffffffffffffffffffffffffff\n      and\n      sub\n        /* \"@openzeppelin/contracts/token/ERC20/ERC20.sol\":5735:5821  if (from == address(0)) {... */\n      tag_139\n      jumpi\n        /* \"@openzeppelin/contracts/token/ERC20/ERC20.sol\":5807:5808  0 */\n      0x00\n        /* \"@openzeppelin/contracts/token/ERC20/ERC20.sol\":5780:5810  ERC20InvalidSender(address(0)) */\n      mload(0x40)\n      0x96c6fd1e00000000000000000000000000000000000000000000000000000000\n      dup2\n      mstore\n      0x04\n      add\n      tag_140\n      swap2\n      swap1\n      tag_69\n      jump\t// in\n    tag_140:\n      mload(0x40)\n      dup1\n      swap2\n      sub\n      swap1\n      revert\n        /* \"@openzeppelin/contracts/token/ERC20/ERC20.sol\":5735:5821  if (from == address(0)) {... */\n    tag_139:\n        /* \"@openzeppelin/contracts/token/ERC20/ERC20.sol\":5848:5849  0 */\n      0x00\n        /* \"@openzeppelin/contracts/token/ERC20/ERC20.sol\":5834:5850  to == address(0) */\n      0xffffffffffffffffffffffffffffffffffffffff\n      and\n        /* \"@openzeppelin/contracts/token/ERC20/ERC20.sol\":5834:5836  to */\n      dup3\n        /* \"@openzeppelin/contracts/token/ERC20/ERC20.sol\":5834:5850  to == address(0) */\n      0xffffffffffffffffffffffffffffffffffffffff\n      and\n      sub\n        /* \"@openzeppelin/contracts/token/ERC20/ERC20.sol\":5830:5916  if (to == address(0)) {... */\n      tag_141\n      jumpi\n        /* \"@openzeppelin/contracts/token/ERC20/ERC20.sol\":5902:5903  0 */\n      0x00\n        /* \"@openzeppelin/contracts/token/ERC20/ERC20.sol\":5873:5905  ERC20InvalidReceiver(address(0)) */\n      mload(0x40)\n      0xec442f0500000000000000000000000000000000000000000000000000000000\n      dup2\n      mstore\n      0x04\n      add\n      tag_142\n      swap2\n      swap1\n      tag_69\n      jump\t// in\n    tag_142:\n      mload(0x40)\n      dup1\n      swap2\n      sub\n      swap1\n      revert\n        /* \"@openzeppelin/contracts/token/ERC20/ERC20.sol\":5830:5916  if (to == address(0)) {... */\n    tag_141:\n        /* \"@openzeppelin/contracts/token/ERC20/ERC20.sol\":5925:5949  _update(from, to, value) */\n      tag_143\n        /* \"@openzeppelin/contracts/token/ERC20/ERC20.sol\":5933:5937  from */\n      dup4\n        /* \"@openzeppelin/contracts/token/ERC20/ERC20.sol\":5939:5941  to */\n      dup4\n        /* \"@openzeppelin/contracts/token/ERC20/ERC20.sol\":5943:5948  value */\n      dup4\n        /* \"@openzeppelin/contracts/token/ERC20/ERC20.sol\":5925:5932  _update */\n      tag_144\n        /* \"@openzeppelin/contracts/token/ERC20/ERC20.sol\":5925:5949  _update(from, to, value) */\n      jump\t// in\n    tag_143:\n        /* \"@openzeppelin/contracts/token/ERC20/ERC20.sol\":5656:5956  function _transfer(address from, address to, uint256 value) internal {... */\n      pop\n      pop\n      pop\n      jump\t// out\n        /* \"@openzeppelin/contracts/token/ERC20/ERC20.sol\":7721:7929  function _mint(address account, uint256 value) internal {... */\n    tag_107:\n        /* \"@openzeppelin/contracts/token/ERC20/ERC20.sol\":7810:7811  0 */\n      0x00\n        /* \"@openzeppelin/contracts/token/ERC20/ERC20.sol\":7791:7812  account == address(0) */\n      0xffffffffffffffffffffffffffffffffffffffff\n      and\n        /* \"@openzeppelin/contracts/token/ERC20/ERC20.sol\":7791:7798  account */\n      dup3\n        /* \"@openzeppelin/contracts/token/ERC20/ERC20.sol\":7791:7812  account == address(0) */\n      0xffffffffffffffffffffffffffffffffffffffff\n      and\n      sub\n        /* \"@openzeppelin/contracts/token/ERC20/ERC20.sol\":7787:7878  if (account == address(0)) {... */\n      tag_146\n      jumpi\n        /* \"@openzeppelin/contracts/token/ERC20/ERC20.sol\":7864:7865  0 */\n      0x00\n        /* \"@openzeppelin/contracts/token/ERC20/ERC20.sol\":7835:7867  ERC20InvalidReceiver(address(0)) */\n      mload(0x40)\n      0xec442f0500000000000000000000000000000000000000000000000000000000\n      dup2\n      mstore\n      0x04\n      add\n      tag_147\n      swap2\n      swap1\n      tag_69\n      jump\t// in\n    tag_147:\n      mload(0x40)\n      dup1\n      swap2\n      sub\n      swap1\n      revert\n        /* \"@openzeppelin/contracts/token/ERC20/ERC20.sol\":7787:7878  if (account == address(0)) {... */\n    tag_146:\n        /* \"@openzeppelin/contracts/token/ERC20/ERC20.sol\":7887:7922  _update(address(0), account, value) */\n      tag_148\n        /* \"@openzeppelin/contracts/token/ERC20/ERC20.sol\":7903:7904  0 */\n      0x00\n        /* \"@openzeppelin/contracts/token/ERC20/ERC20.sol\":7907:7914  account */\n      dup4\n        /* \"@openzeppelin/contracts/token/ERC20/ERC20.sol\":7916:7921  value */\n      dup4\n        /* \"@openzeppelin/contracts/token/ERC20/ERC20.sol\":7887:7894  _update */\n      tag_144\n        /* \"@openzeppelin/contracts/token/ERC20/ERC20.sol\":7887:7922  _update(address(0), account, value) */\n      jump\t// in\n    tag_148:\n        /* \"@openzeppelin/contracts/token/ERC20/ERC20.sol\":7721:7929  function _mint(address account, uint256 value) internal {... */\n      pop\n      pop\n      jump\t// out\n        /* \"@openzeppelin/contracts/token/ERC20/ERC20.sol\":8247:8453  function _burn(address account, uint256 value) internal {... */\n    tag_110:\n        /* \"@openzeppelin/contracts/token/ERC20/ERC20.sol\":8336:8337  0 */\n      0x00\n        /* \"@openzeppelin/contracts/token/ERC20/ERC20.sol\":8317:8338  account == address(0) */\n      0xffffffffffffffffffffffffffffffffffffffff\n      and\n        /* \"@openzeppelin/contracts/token/ERC20/ERC20.sol\":8317:8324  account */\n      dup3\n        /* \"@openzeppelin/contracts/token/ERC20/ERC20.sol\":8317:8338  account == address(0) */\n      0xffffffffffffffffffffffffffffffffffffffff\n      and\n      sub\n        /* \"@openzeppelin/contracts/token/ERC20/ERC20.sol\":8313:8402  if (account == address(0)) {... */\n      tag_150\n      jumpi\n        /* \"@openzeppelin/contracts/token/ERC20/ERC20.sol\":8388:8389  0 */\n      0x00\n        /* \"@openzeppelin/contracts/token/ERC20/ERC20.sol\":8361:8391  ERC20InvalidSender(address(0)) */\n      mload(0x40)\n      0x96c6fd1e00000000000000000000000000000000000000000000000000000000\n      dup2\n      mstore\n      0x04\n      add\n      tag_151\n      swap2\n      swap1\n      tag_69\n      jump\t// in\n    tag_151:\n      mload(0x40)\n      dup1\n      swap2\n      sub\n      swap1\n      revert\n        /* \"@openzeppelin/contracts/token/ERC20/ERC20.sol\":8313:8402  if (account == address(0)) {... */\n    tag_150:\n        /* \"@openzeppelin/contracts/token/ERC20/ERC20.sol\":8411:8446  _update(account, address(0), value) */\n      tag_152\n        /* \"@openzeppelin/contracts/token/ERC20/ERC20.sol\":8419:8426  account */\n      dup3\n        /* \"@openzeppelin/contracts/token/ERC20/ERC20.sol\":8436:8437  0 */\n      0x00\n        /* \"@openzeppelin/contracts/token/ERC20/ERC20.sol\":8440:8445  value */\n      dup4\n        /* \"@openzeppelin/contracts/token/ERC20/ERC20.sol\":8411:8418  _update */\n      tag_144\n        /* \"@openzeppelin/contracts/token/ERC20/ERC20.sol\":8411:8446  _update(account, address(0), value) */\n      jump\t// in\n    tag_152:\n        /* \"@openzeppelin/contracts/token/ERC20/ERC20.sol\":8247:8453  function _burn(address account, uint256 value) internal {... */\n      pop\n      pop\n      jump\t// out\n        /* \"contracts/HelloWorld5.sol\":3743:4052  function toDate(uint256 value) internal pure returns (string memory) {... */\n    tag_125:\n        /* \"contracts/HelloWorld5.sol\":3797:3810  string memory */\n      0x60\n        /* \"contracts/HelloWorld5.sol\":3818:3835  string memory day */\n      0x00\n        /* \"contracts/HelloWorld5.sol\":3838:3867  uint256ToString(toDay(value)) */\n      tag_154\n        /* \"contracts/HelloWorld5.sol\":3854:3866  toDay(value) */\n      tag_155\n        /* \"contracts/HelloWorld5.sol\":3860:3865  value */\n      dup5\n        /* \"contracts/HelloWorld5.sol\":3854:3859  toDay */\n      tag_156\n        /* \"contracts/HelloWorld5.sol\":3854:3866  toDay(value) */\n      jump\t// in\n    tag_155:\n        /* \"contracts/HelloWorld5.sol\":3838:3853  uint256ToString */\n      tag_157\n        /* \"contracts/HelloWorld5.sol\":3838:3867  uint256ToString(toDay(value)) */\n      jump\t// in\n    tag_154:\n        /* \"contracts/HelloWorld5.sol\":3818:3867  string memory day = uint256ToString(toDay(value)) */\n      swap1\n      pop\n        /* \"contracts/HelloWorld5.sol\":3873:3892  string memory month */\n      0x00\n        /* \"contracts/HelloWorld5.sol\":3895:3926  uint256ToString(toMonth(value)) */\n      tag_158\n        /* \"contracts/HelloWorld5.sol\":3911:3925  toMonth(value) */\n      tag_159\n        /* \"contracts/HelloWorld5.sol\":3919:3924  value */\n      dup6\n        /* \"contracts/HelloWorld5.sol\":3911:3918  toMonth */\n      tag_160\n        /* \"contracts/HelloWorld5.sol\":3911:3925  toMonth(value) */\n      jump\t// in\n    tag_159:\n        /* \"contracts/HelloWorld5.sol\":3895:3910  uint256ToString */\n      tag_157\n        /* \"contracts/HelloWorld5.sol\":3895:3926  uint256ToString(toMonth(value)) */\n      jump\t// in\n    tag_158:\n        /* \"contracts/HelloWorld5.sol\":3873:3926  string memory month = uint256ToString(toMonth(value)) */\n      swap1\n      pop\n        /* \"contracts/HelloWorld5.sol\":3932:3950  string memory year */\n      0x00\n        /* \"contracts/HelloWorld5.sol\":3953:3983  uint256ToString(toYear(value)) */\n      tag_161\n        /* \"contracts/HelloWorld5.sol\":3969:3982  toYear(value) */\n      tag_162\n        /* \"contracts/HelloWorld5.sol\":3976:3981  value */\n      dup7\n        /* \"contracts/HelloWorld5.sol\":3969:3975  toYear */\n      tag_163\n        /* \"contracts/HelloWorld5.sol\":3969:3982  toYear(value) */\n      jump\t// in\n    tag_162:\n        /* \"contracts/HelloWorld5.sol\":3953:3968  uint256ToString */\n      tag_157\n        /* \"contracts/HelloWorld5.sol\":3953:3983  uint256ToString(toYear(value)) */\n      jump\t// in\n    tag_161:\n        /* \"contracts/HelloWorld5.sol\":3932:3983  string memory year = uint256ToString(toYear(value)) */\n      swap1\n      pop\n        /* \"contracts/HelloWorld5.sol\":4021:4024  day */\n      dup3\n        /* \"contracts/HelloWorld5.sol\":4031:4036  month */\n      dup3\n        /* \"contracts/HelloWorld5.sol\":4043:4047  year */\n      dup3\n        /* \"contracts/HelloWorld5.sol\":4004:4048  abi.encodePacked(day, \"/\", month, \"/\", year) */\n      add(0x20, mload(0x40))\n      tag_164\n      swap4\n      swap3\n      swap2\n      swap1\n      tag_165\n      jump\t// in\n    tag_164:\n      mload(0x40)\n      0x20\n      dup2\n      dup4\n      sub\n      sub\n      dup2\n      mstore\n      swap1\n      0x40\n      mstore\n        /* \"contracts/HelloWorld5.sol\":3990:4049  return string(abi.encodePacked(day, \"/\", month, \"/\", year)) */\n      swap4\n      pop\n      pop\n      pop\n      pop\n        /* \"contracts/HelloWorld5.sol\":3743:4052  function toDate(uint256 value) internal pure returns (string memory) {... */\n      swap2\n      swap1\n      pop\n      jump\t// out\n        /* \"@openzeppelin/contracts/token/ERC20/ERC20.sol\":9949:10381  function _approve(address owner, address spender, uint256 value, bool emitEvent) internal virtual {... */\n    tag_130:\n        /* \"@openzeppelin/contracts/token/ERC20/ERC20.sol\":10078:10079  0 */\n      0x00\n        /* \"@openzeppelin/contracts/token/ERC20/ERC20.sol\":10061:10080  owner == address(0) */\n      0xffffffffffffffffffffffffffffffffffffffff\n      and\n        /* \"@openzeppelin/contracts/token/ERC20/ERC20.sol\":10061:10066  owner */\n      dup5\n        /* \"@openzeppelin/contracts/token/ERC20/ERC20.sol\":10061:10080  owner == address(0) */\n      0xffffffffffffffffffffffffffffffffffffffff\n      and\n      sub\n        /* \"@openzeppelin/contracts/token/ERC20/ERC20.sol\":10057:10146  if (owner == address(0)) {... */\n      tag_167\n      jumpi\n        /* \"@openzeppelin/contracts/token/ERC20/ERC20.sol\":10132:10133  0 */\n      0x00\n        /* \"@openzeppelin/contracts/token/ERC20/ERC20.sol\":10103:10135  ERC20InvalidApprover(address(0)) */\n      mload(0x40)\n      0xe602df0500000000000000000000000000000000000000000000000000000000\n      dup2\n      mstore\n      0x04\n      add\n      tag_168\n      swap2\n      swap1\n      tag_69\n      jump\t// in\n    tag_168:\n      mload(0x40)\n      dup1\n      swap2\n      sub\n      swap1\n      revert\n        /* \"@openzeppelin/contracts/token/ERC20/ERC20.sol\":10057:10146  if (owner == address(0)) {... */\n    tag_167:\n        /* \"@openzeppelin/contracts/token/ERC20/ERC20.sol\":10178:10179  0 */\n      0x00\n        /* \"@openzeppelin/contracts/token/ERC20/ERC20.sol\":10159:10180  spender == address(0) */\n      0xffffffffffffffffffffffffffffffffffffffff\n      and\n        /* \"@openzeppelin/contracts/token/ERC20/ERC20.sol\":10159:10166  spender */\n      dup4\n        /* \"@openzeppelin/contracts/token/ERC20/ERC20.sol\":10159:10180  spender == address(0) */\n      0xffffffffffffffffffffffffffffffffffffffff\n      and\n      sub\n        /* \"@openzeppelin/contracts/token/ERC20/ERC20.sol\":10155:10245  if (spender == address(0)) {... */\n      tag_169\n      jumpi\n        /* \"@openzeppelin/contracts/token/ERC20/ERC20.sol\":10231:10232  0 */\n      0x00\n        /* \"@openzeppelin/contracts/token/ERC20/ERC20.sol\":10203:10234  ERC20InvalidSpender(address(0)) */\n      mload(0x40)\n      0x94280d6200000000000000000000000000000000000000000000000000000000\n      dup2\n      mstore\n      0x04\n      add\n      tag_170\n      swap2\n      swap1\n      tag_69\n      jump\t// in\n    tag_170:\n      mload(0x40)\n      dup1\n      swap2\n      sub\n      swap1\n      revert\n        /* \"@openzeppelin/contracts/token/ERC20/ERC20.sol\":10155:10245  if (spender == address(0)) {... */\n    tag_169:\n        /* \"@openzeppelin/contracts/token/ERC20/ERC20.sol\":10284:10289  value */\n      dup2\n        /* \"@openzeppelin/contracts/token/ERC20/ERC20.sol\":10254:10265  _allowances */\n      0x01\n        /* \"@openzeppelin/contracts/token/ERC20/ERC20.sol\":10254:10272  _allowances[owner] */\n      0x00\n        /* \"@openzeppelin/contracts/token/ERC20/ERC20.sol\":10266:10271  owner */\n      dup7\n        /* \"@openzeppelin/contracts/token/ERC20/ERC20.sol\":10254:10272  _allowances[owner] */\n      0xffffffffffffffffffffffffffffffffffffffff\n      and\n      0xffffffffffffffffffffffffffffffffffffffff\n      and\n      dup2\n      mstore\n      0x20\n      add\n      swap1\n      dup2\n      mstore\n      0x20\n      add\n      0x00\n      keccak256\n        /* \"@openzeppelin/contracts/token/ERC20/ERC20.sol\":10254:10281  _allowances[owner][spender] */\n      0x00\n        /* \"@openzeppelin/contracts/token/ERC20/ERC20.sol\":10273:10280  spender */\n      dup6\n        /* \"@openzeppelin/contracts/token/ERC20/ERC20.sol\":10254:10281  _allowances[owner][spender] */\n      0xffffffffffffffffffffffffffffffffffffffff\n      and\n      0xffffffffffffffffffffffffffffffffffffffff\n      and\n      dup2\n      mstore\n      0x20\n      add\n      swap1\n      dup2\n      mstore\n      0x20\n      add\n      0x00\n      keccak256\n        /* \"@openzeppelin/contracts/token/ERC20/ERC20.sol\":10254:10289  _allowances[owner][spender] = value */\n      dup2\n      swap1\n      sstore\n      pop\n        /* \"@openzeppelin/contracts/token/ERC20/ERC20.sol\":10303:10312  emitEvent */\n      dup1\n        /* \"@openzeppelin/contracts/token/ERC20/ERC20.sol\":10299:10375  if (emitEvent) {... */\n      iszero\n      tag_171\n      jumpi\n        /* \"@openzeppelin/contracts/token/ERC20/ERC20.sol\":10349:10356  spender */\n      dup3\n        /* \"@openzeppelin/contracts/token/ERC20/ERC20.sol\":10333:10364  Approval(owner, spender, value) */\n      0xffffffffffffffffffffffffffffffffffffffff\n      and\n        /* \"@openzeppelin/contracts/token/ERC20/ERC20.sol\":10342:10347  owner */\n      dup5\n        /* \"@openzeppelin/contracts/token/ERC20/ERC20.sol\":10333:10364  Approval(owner, spender, value) */\n      0xffffffffffffffffffffffffffffffffffffffff\n      and\n      0x8c5be1e5ebec7d5bd14f71427d1e84f3dd0314c0f7b2291e5b200ac8c7c3b925\n        /* \"@openzeppelin/contracts/token/ERC20/ERC20.sol\":10358:10363  value */\n      dup5\n        /* \"@openzeppelin/contracts/token/ERC20/ERC20.sol\":10333:10364  Approval(owner, spender, value) */\n      mload(0x40)\n      tag_172\n      swap2\n      swap1\n      tag_34\n      jump\t// in\n    tag_172:\n      mload(0x40)\n      dup1\n      swap2\n      sub\n      swap1\n      log3\n        /* \"@openzeppelin/contracts/token/ERC20/ERC20.sol\":10299:10375  if (emitEvent) {... */\n    tag_171:\n        /* \"@openzeppelin/contracts/token/ERC20/ERC20.sol\":9949:10381  function _approve(address owner, address spender, uint256 value, bool emitEvent) internal virtual {... */\n      pop\n      pop\n      pop\n      pop\n      jump\t// out\n        /* \"@openzeppelin/contracts/token/ERC20/ERC20.sol\":6271:7378  function _update(address from, address to, uint256 value) internal virtual {... */\n    tag_144:\n        /* \"@openzeppelin/contracts/token/ERC20/ERC20.sol\":6376:6377  0 */\n      0x00\n        /* \"@openzeppelin/contracts/token/ERC20/ERC20.sol\":6360:6378  from == address(0) */\n      0xffffffffffffffffffffffffffffffffffffffff\n      and\n        /* \"@openzeppelin/contracts/token/ERC20/ERC20.sol\":6360:6364  from */\n      dup4\n        /* \"@openzeppelin/contracts/token/ERC20/ERC20.sol\":6360:6378  from == address(0) */\n      0xffffffffffffffffffffffffffffffffffffffff\n      and\n      sub\n        /* \"@openzeppelin/contracts/token/ERC20/ERC20.sol\":6356:6896  if (from == address(0)) {... */\n      tag_174\n      jumpi\n        /* \"@openzeppelin/contracts/token/ERC20/ERC20.sol\":6512:6517  value */\n      dup1\n        /* \"@openzeppelin/contracts/token/ERC20/ERC20.sol\":6496:6508  _totalSupply */\n      0x02\n      0x00\n        /* \"@openzeppelin/contracts/token/ERC20/ERC20.sol\":6496:6517  _totalSupply += value */\n      dup3\n      dup3\n      sload\n      tag_175\n      swap2\n      swap1\n      tag_176\n      jump\t// in\n    tag_175:\n      swap3\n      pop\n      pop\n      dup2\n      swap1\n      sstore\n      pop\n        /* \"@openzeppelin/contracts/token/ERC20/ERC20.sol\":6356:6896  if (from == address(0)) {... */\n      jump(tag_177)\n    tag_174:\n        /* \"@openzeppelin/contracts/token/ERC20/ERC20.sol\":6548:6567  uint256 fromBalance */\n      0x00\n        /* \"@openzeppelin/contracts/token/ERC20/ERC20.sol\":6570:6579  _balances */\n      dup1\n        /* \"@openzeppelin/contracts/token/ERC20/ERC20.sol\":6570:6585  _balances[from] */\n      0x00\n        /* \"@openzeppelin/contracts/token/ERC20/ERC20.sol\":6580:6584  from */\n      dup6\n        /* \"@openzeppelin/contracts/token/ERC20/ERC20.sol\":6570:6585  _balances[from] */\n      0xffffffffffffffffffffffffffffffffffffffff\n      and\n      0xffffffffffffffffffffffffffffffffffffffff\n      and\n      dup2\n      mstore\n      0x20\n      add\n      swap1\n      dup2\n      mstore\n      0x20\n      add\n      0x00\n      keccak256\n      sload\n        /* \"@openzeppelin/contracts/token/ERC20/ERC20.sol\":6548:6585  uint256 fromBalance = _balances[from] */\n      swap1\n      pop\n        /* \"@openzeppelin/contracts/token/ERC20/ERC20.sol\":6617:6622  value */\n      dup2\n        /* \"@openzeppelin/contracts/token/ERC20/ERC20.sol\":6603:6614  fromBalance */\n      dup2\n        /* \"@openzeppelin/contracts/token/ERC20/ERC20.sol\":6603:6622  fromBalance < value */\n      lt\n        /* \"@openzeppelin/contracts/token/ERC20/ERC20.sol\":6599:6714  if (fromBalance < value) {... */\n      iszero\n      tag_178\n      jumpi\n        /* \"@openzeppelin/contracts/token/ERC20/ERC20.sol\":6674:6678  from */\n      dup4\n        /* \"@openzeppelin/contracts/token/ERC20/ERC20.sol\":6680:6691  fromBalance */\n      dup2\n        /* \"@openzeppelin/contracts/token/ERC20/ERC20.sol\":6693:6698  value */\n      dup4\n        /* \"@openzeppelin/contracts/token/ERC20/ERC20.sol\":6649:6699  ERC20InsufficientBalance(from, fromBalance, value) */\n      mload(0x40)\n      0xe450d38c00000000000000000000000000000000000000000000000000000000\n      dup2\n      mstore\n      0x04\n      add\n      tag_179\n      swap4\n      swap3\n      swap2\n      swap1\n      tag_136\n      jump\t// in\n    tag_179:\n      mload(0x40)\n      dup1\n      swap2\n      sub\n      swap1\n      revert\n        /* \"@openzeppelin/contracts/token/ERC20/ERC20.sol\":6599:6714  if (fromBalance < value) {... */\n    tag_178:\n        /* \"@openzeppelin/contracts/token/ERC20/ERC20.sol\":6866:6871  value */\n      dup2\n        /* \"@openzeppelin/contracts/token/ERC20/ERC20.sol\":6852:6863  fromBalance */\n      dup2\n        /* \"@openzeppelin/contracts/token/ERC20/ERC20.sol\":6852:6871  fromBalance - value */\n      sub\n        /* \"@openzeppelin/contracts/token/ERC20/ERC20.sol\":6834:6843  _balances */\n      0x00\n        /* \"@openzeppelin/contracts/token/ERC20/ERC20.sol\":6834:6849  _balances[from] */\n      dup1\n        /* \"@openzeppelin/contracts/token/ERC20/ERC20.sol\":6844:6848  from */\n      dup7\n        /* \"@openzeppelin/contracts/token/ERC20/ERC20.sol\":6834:6849  _balances[from] */\n      0xffffffffffffffffffffffffffffffffffffffff\n      and\n      0xffffffffffffffffffffffffffffffffffffffff\n      and\n      dup2\n      mstore\n      0x20\n      add\n      swap1\n      dup2\n      mstore\n      0x20\n      add\n      0x00\n      keccak256\n        /* \"@openzeppelin/contracts/token/ERC20/ERC20.sol\":6834:6871  _balances[from] = fromBalance - value */\n      dup2\n      swap1\n      sstore\n      pop\n        /* \"@openzeppelin/contracts/token/ERC20/ERC20.sol\":6534:6896  {... */\n      pop\n        /* \"@openzeppelin/contracts/token/ERC20/ERC20.sol\":6356:6896  if (from == address(0)) {... */\n    tag_177:\n        /* \"@openzeppelin/contracts/token/ERC20/ERC20.sol\":6924:6925  0 */\n      0x00\n        /* \"@openzeppelin/contracts/token/ERC20/ERC20.sol\":6910:6926  to == address(0) */\n      0xffffffffffffffffffffffffffffffffffffffff\n      and\n        /* \"@openzeppelin/contracts/token/ERC20/ERC20.sol\":6910:6912  to */\n      dup3\n        /* \"@openzeppelin/contracts/token/ERC20/ERC20.sol\":6910:6926  to == address(0) */\n      0xffffffffffffffffffffffffffffffffffffffff\n      and\n      sub\n        /* \"@openzeppelin/contracts/token/ERC20/ERC20.sol\":6906:7331  if (to == address(0)) {... */\n      tag_180\n      jumpi\n        /* \"@openzeppelin/contracts/token/ERC20/ERC20.sol\":7089:7094  value */\n      dup1\n        /* \"@openzeppelin/contracts/token/ERC20/ERC20.sol\":7073:7085  _totalSupply */\n      0x02\n      0x00\n        /* \"@openzeppelin/contracts/token/ERC20/ERC20.sol\":7073:7094  _totalSupply -= value */\n      dup3\n      dup3\n      sload\n      sub\n      swap3\n      pop\n      pop\n      dup2\n      swap1\n      sstore\n      pop\n        /* \"@openzeppelin/contracts/token/ERC20/ERC20.sol\":6906:7331  if (to == address(0)) {... */\n      jump(tag_181)\n    tag_180:\n        /* \"@openzeppelin/contracts/token/ERC20/ERC20.sol\":7301:7306  value */\n      dup1\n        /* \"@openzeppelin/contracts/token/ERC20/ERC20.sol\":7284:7293  _balances */\n      0x00\n        /* \"@openzeppelin/contracts/token/ERC20/ERC20.sol\":7284:7297  _balances[to] */\n      dup1\n        /* \"@openzeppelin/contracts/token/ERC20/ERC20.sol\":7294:7296  to */\n      dup5\n        /* \"@openzeppelin/contracts/token/ERC20/ERC20.sol\":7284:7297  _balances[to] */\n      0xffffffffffffffffffffffffffffffffffffffff\n      and\n      0xffffffffffffffffffffffffffffffffffffffff\n      and\n      dup2\n      mstore\n      0x20\n      add\n      swap1\n      dup2\n      mstore\n      0x20\n      add\n      0x00\n      keccak256\n      0x00\n        /* \"@openzeppelin/contracts/token/ERC20/ERC20.sol\":7284:7306  _balances[to] += value */\n      dup3\n      dup3\n      sload\n      add\n      swap3\n      pop\n      pop\n      dup2\n      swap1\n      sstore\n      pop\n        /* \"@openzeppelin/contracts/token/ERC20/ERC20.sol\":6906:7331  if (to == address(0)) {... */\n    tag_181:\n        /* \"@openzeppelin/contracts/token/ERC20/ERC20.sol\":7361:7363  to */\n      dup2\n        /* \"@openzeppelin/contracts/token/ERC20/ERC20.sol\":7346:7371  Transfer(from, to, value) */\n      0xffffffffffffffffffffffffffffffffffffffff\n      and\n        /* \"@openzeppelin/contracts/token/ERC20/ERC20.sol\":7355:7359  from */\n      dup4\n        /* \"@openzeppelin/contracts/token/ERC20/ERC20.sol\":7346:7371  Transfer(from, to, value) */\n      0xffffffffffffffffffffffffffffffffffffffff\n      and\n      0xddf252ad1be2c89b69c2b068fc378daa952ba7f163c4a11628f55a4df523b3ef\n        /* \"@openzeppelin/contracts/token/ERC20/ERC20.sol\":7365:7370  value */\n      dup4\n        /* \"@openzeppelin/contracts/token/ERC20/ERC20.sol\":7346:7371  Transfer(from, to, value) */\n      mload(0x40)\n      tag_182\n      swap2\n      swap1\n      tag_34\n      jump\t// in\n    tag_182:\n      mload(0x40)\n      dup1\n      swap2\n      sub\n      swap1\n      log3\n        /* \"@openzeppelin/contracts/token/ERC20/ERC20.sol\":6271:7378  function _update(address from, address to, uint256 value) internal virtual {... */\n      pop\n      pop\n      pop\n      jump\t// out\n        /* \"contracts/HelloWorld5.sol\":1267:1656  function toDay(uint256 value) internal pure returns (uint y) {... */\n    tag_156:\n        /* \"contracts/HelloWorld5.sol\":1320:1326  uint y */\n      0x00\n        /* \"contracts/HelloWorld5.sol\":1338:1350  uint256 year */\n      dup1\n        /* \"contracts/HelloWorld5.sol\":1353:1366  toYear(value) */\n      tag_184\n        /* \"contracts/HelloWorld5.sol\":1360:1365  value */\n      dup4\n        /* \"contracts/HelloWorld5.sol\":1353:1359  toYear */\n      tag_163\n        /* \"contracts/HelloWorld5.sol\":1353:1366  toYear(value) */\n      jump\t// in\n    tag_184:\n        /* \"contracts/HelloWorld5.sol\":1338:1366  uint256 year = toYear(value) */\n      swap1\n      pop\n        /* \"contracts/HelloWorld5.sol\":1376:1387  uint256 yea */\n      0x00\n        /* \"contracts/HelloWorld5.sol\":1397:1401  1970 */\n      0x07b2\n        /* \"contracts/HelloWorld5.sol\":1390:1394  year */\n      dup3\n        /* \"contracts/HelloWorld5.sol\":1390:1401  year - 1970 */\n      tag_185\n      swap2\n      swap1\n      tag_186\n      jump\t// in\n    tag_185:\n        /* \"contracts/HelloWorld5.sol\":1376:1401  uint256 yea = year - 1970 */\n      swap1\n      pop\n        /* \"contracts/HelloWorld5.sol\":1411:1427  uint256 reminder */\n      0x00\n        /* \"contracts/HelloWorld5.sol\":1439:1451  60 * 60 * 24 */\n      0x015180\n        /* \"contracts/HelloWorld5.sol\":1430:1435  value */\n      dup6\n        /* \"contracts/HelloWorld5.sol\":1430:1452  value / (60 * 60 * 24) */\n      tag_187\n      swap2\n      swap1\n      tag_188\n      jump\t// in\n    tag_187:\n        /* \"contracts/HelloWorld5.sol\":1411:1452  uint256 reminder = value / (60 * 60 * 24) */\n      swap1\n      pop\n        /* \"contracts/HelloWorld5.sol\":1462:1471  uint256 i */\n      0x00\n        /* \"contracts/HelloWorld5.sol\":1500:1501  0 */\n      dup1\n        /* \"contracts/HelloWorld5.sol\":1495:1496  4 */\n      0x04\n        /* \"contracts/HelloWorld5.sol\":1488:1492  year */\n      dup6\n        /* \"contracts/HelloWorld5.sol\":1488:1496  year % 4 */\n      tag_189\n      swap2\n      swap1\n      tag_190\n      jump\t// in\n    tag_189:\n        /* \"contracts/HelloWorld5.sol\":1488:1501  year % 4 == 0 */\n      sub\n        /* \"contracts/HelloWorld5.sol\":1485:1581  if(year % 4 == 0) {... */\n      tag_191\n      jumpi\n        /* \"contracts/HelloWorld5.sol\":1521:1524  365 */\n      0x016d\n        /* \"contracts/HelloWorld5.sol\":1517:1524  i = 365 */\n      swap1\n      pop\n        /* \"contracts/HelloWorld5.sol\":1485:1581  if(year % 4 == 0) {... */\n      jump(tag_192)\n    tag_191:\n        /* \"contracts/HelloWorld5.sol\":1567:1570  364 */\n      0x016c\n        /* \"contracts/HelloWorld5.sol\":1563:1570  i = 364 */\n      swap1\n      pop\n        /* \"contracts/HelloWorld5.sol\":1485:1581  if(year % 4 == 0) {... */\n    tag_192:\n        /* \"contracts/HelloWorld5.sol\":1590:1601  uint256 day */\n      0x00\n        /* \"contracts/HelloWorld5.sol\":1627:1629  12 */\n      0x0c\n        /* \"contracts/HelloWorld5.sol\":1622:1623  i */\n      dup3\n        /* \"contracts/HelloWorld5.sol\":1616:1619  yea */\n      dup6\n        /* \"contracts/HelloWorld5.sol\":1616:1623  yea * i */\n      tag_193\n      swap2\n      swap1\n      tag_194\n      jump\t// in\n    tag_193:\n        /* \"contracts/HelloWorld5.sol\":1604:1612  reminder */\n      dup5\n        /* \"contracts/HelloWorld5.sol\":1604:1624  reminder - (yea * i) */\n      tag_195\n      swap2\n      swap1\n      tag_186\n      jump\t// in\n    tag_195:\n        /* \"contracts/HelloWorld5.sol\":1604:1629  reminder - (yea * i) - 12 */\n      tag_196\n      swap2\n      swap1\n      tag_186\n      jump\t// in\n    tag_196:\n        /* \"contracts/HelloWorld5.sol\":1590:1629  uint256 day = reminder - (yea * i) - 12 */\n      swap1\n      pop\n        /* \"contracts/HelloWorld5.sol\":1646:1649  day */\n      dup1\n        /* \"contracts/HelloWorld5.sol\":1639:1649  return day */\n      swap6\n      pop\n      pop\n      pop\n      pop\n      pop\n      pop\n        /* \"contracts/HelloWorld5.sol\":1267:1656  function toDay(uint256 value) internal pure returns (uint y) {... */\n      swap2\n      swap1\n      pop\n      jump\t// out\n        /* \"contracts/HelloWorld5.sol\":4053:4529  function uint256ToString(uint256 value) internal pure returns (string memory) {... */\n    tag_157:\n        /* \"contracts/HelloWorld5.sol\":4116:4129  string memory */\n      0x60\n        /* \"contracts/HelloWorld5.sol\":4150:4151  0 */\n      0x00\n        /* \"contracts/HelloWorld5.sol\":4141:4146  value */\n      dup3\n        /* \"contracts/HelloWorld5.sol\":4141:4151  value == 0 */\n      sub\n        /* \"contracts/HelloWorld5.sol\":4137:4180  if (value == 0) {... */\n      tag_198\n      jumpi\n        /* \"contracts/HelloWorld5.sol\":4163:4173  return \"0\" */\n      mload(0x40)\n      dup1\n      0x40\n      add\n      0x40\n      mstore\n      dup1\n      0x01\n      dup2\n      mstore\n      0x20\n      add\n      0x3000000000000000000000000000000000000000000000000000000000000000\n      dup2\n      mstore\n      pop\n      swap1\n      pop\n      jump(tag_197)\n        /* \"contracts/HelloWorld5.sol\":4137:4180  if (value == 0) {... */\n    tag_198:\n        /* \"contracts/HelloWorld5.sol\":4190:4202  uint256 temp */\n      0x00\n        /* \"contracts/HelloWorld5.sol\":4205:4210  value */\n      dup3\n        /* \"contracts/HelloWorld5.sol\":4190:4210  uint256 temp = value */\n      swap1\n      pop\n        /* \"contracts/HelloWorld5.sol\":4216:4230  uint256 digits */\n      0x00\n        /* \"contracts/HelloWorld5.sol\":4241:4304  while (temp != 0) {... */\n    tag_199:\n        /* \"contracts/HelloWorld5.sol\":4256:4257  0 */\n      0x00\n        /* \"contracts/HelloWorld5.sol\":4248:4252  temp */\n      dup3\n        /* \"contracts/HelloWorld5.sol\":4248:4257  temp != 0 */\n      eq\n        /* \"contracts/HelloWorld5.sol\":4241:4304  while (temp != 0) {... */\n      tag_200\n      jumpi\n        /* \"contracts/HelloWorld5.sol\":4269:4277  digits++ */\n      dup1\n      dup1\n      tag_201\n      swap1\n      tag_202\n      jump\t// in\n    tag_201:\n      swap2\n      pop\n      pop\n        /* \"contracts/HelloWorld5.sol\":4295:4297  10 */\n      0x0a\n        /* \"contracts/HelloWorld5.sol\":4287:4297  temp /= 10 */\n      dup3\n      tag_203\n      swap2\n      swap1\n      tag_188\n      jump\t// in\n    tag_203:\n      swap2\n      pop\n        /* \"contracts/HelloWorld5.sol\":4241:4304  while (temp != 0) {... */\n      jump(tag_199)\n    tag_200:\n        /* \"contracts/HelloWorld5.sol\":4314:4333  bytes memory buffer */\n      0x00\n        /* \"contracts/HelloWorld5.sol\":4346:4352  digits */\n      dup2\n        /* \"contracts/HelloWorld5.sol\":4336:4353  new bytes(digits) */\n      0xffffffffffffffff\n      dup2\n      gt\n      iszero\n      tag_204\n      jumpi\n      tag_205\n      tag_206\n      jump\t// in\n    tag_205:\n    tag_204:\n      mload(0x40)\n      swap1\n      dup1\n      dup3\n      mstore\n      dup1\n      0x1f\n      add\n      not(0x1f)\n      and\n      0x20\n      add\n      dup3\n      add\n      0x40\n      mstore\n      dup1\n      iszero\n      tag_207\n      jumpi\n      dup2\n      0x20\n      add\n      0x01\n      dup3\n      mul\n      dup1\n      calldatasize\n      dup4\n      calldatacopy\n      dup1\n      dup3\n      add\n      swap2\n      pop\n      pop\n      swap1\n      pop\n    tag_207:\n      pop\n        /* \"contracts/HelloWorld5.sol\":4314:4353  bytes memory buffer = new bytes(digits) */\n      swap1\n      pop\n        /* \"contracts/HelloWorld5.sol\":4364:4495  while (value != 0) {... */\n    tag_208:\n        /* \"contracts/HelloWorld5.sol\":4380:4381  0 */\n      0x00\n        /* \"contracts/HelloWorld5.sol\":4371:4376  value */\n      dup6\n        /* \"contracts/HelloWorld5.sol\":4371:4381  value != 0 */\n      eq\n        /* \"contracts/HelloWorld5.sol\":4364:4495  while (value != 0) {... */\n      tag_209\n      jumpi\n        /* \"contracts/HelloWorld5.sol\":4393:4401  digits-- */\n      dup2\n      dup1\n      tag_210\n      swap1\n      tag_211\n      jump\t// in\n    tag_210:\n      swap3\n      pop\n      pop\n        /* \"contracts/HelloWorld5.sol\":4462:4464  10 */\n      0x0a\n        /* \"contracts/HelloWorld5.sol\":4454:4459  value */\n      dup6\n        /* \"contracts/HelloWorld5.sol\":4454:4464  value % 10 */\n      tag_212\n      swap2\n      swap1\n      tag_190\n      jump\t// in\n    tag_212:\n        /* \"contracts/HelloWorld5.sol\":4441:4443  48 */\n      0x30\n        /* \"contracts/HelloWorld5.sol\":4441:4465  48 + uint256(value % 10) */\n      tag_213\n      swap2\n      swap1\n      tag_176\n      jump\t// in\n    tag_213:\n        /* \"contracts/HelloWorld5.sol\":4428:4467  bytes1(uint8(48 + uint256(value % 10))) */\n      0xf8\n      shl\n        /* \"contracts/HelloWorld5.sol\":4411:4417  buffer */\n      dup2\n        /* \"contracts/HelloWorld5.sol\":4418:4424  digits */\n      dup4\n        /* \"contracts/HelloWorld5.sol\":4411:4425  buffer[digits] */\n      dup2\n      mload\n      dup2\n      lt\n      tag_214\n      jumpi\n      tag_215\n      tag_216\n      jump\t// in\n    tag_215:\n    tag_214:\n      0x20\n      add\n      add\n        /* \"contracts/HelloWorld5.sol\":4411:4467  buffer[digits] = bytes1(uint8(48 + uint256(value % 10))) */\n      swap1\n      not(0xffffffffffffffffffffffffffffffffffffffffffffffffffffffffffffff)\n      and\n      swap1\n      dup2\n      0x00\n      byte\n      swap1\n      mstore8\n      pop\n        /* \"contracts/HelloWorld5.sol\":4486:4488  10 */\n      0x0a\n        /* \"contracts/HelloWorld5.sol\":4477:4488  value /= 10 */\n      dup6\n      tag_217\n      swap2\n      swap1\n      tag_188\n      jump\t// in\n    tag_217:\n      swap5\n      pop\n        /* \"contracts/HelloWorld5.sol\":4364:4495  while (value != 0) {... */\n      jump(tag_208)\n    tag_209:\n        /* \"contracts/HelloWorld5.sol\":4519:4525  buffer */\n      dup1\n        /* \"contracts/HelloWorld5.sol\":4505:4526  return string(buffer) */\n      swap4\n      pop\n      pop\n      pop\n      pop\n        /* \"contracts/HelloWorld5.sol\":4053:4529  function uint256ToString(uint256 value) internal pure returns (string memory) {... */\n    tag_197:\n      swap2\n      swap1\n      pop\n      jump\t// out\n        /* \"contracts/HelloWorld5.sol\":1661:3733  function toMonth(uint256 value) internal pure returns (uint y) {... */\n    tag_160:\n        /* \"contracts/HelloWorld5.sol\":1716:1722  uint y */\n      0x00\n        /* \"contracts/HelloWorld5.sol\":1734:1746  uint256 year */\n      dup1\n        /* \"contracts/HelloWorld5.sol\":1749:1762  toYear(value) */\n      tag_219\n        /* \"contracts/HelloWorld5.sol\":1756:1761  value */\n      dup4\n        /* \"contracts/HelloWorld5.sol\":1749:1755  toYear */\n      tag_163\n        /* \"contracts/HelloWorld5.sol\":1749:1762  toYear(value) */\n      jump\t// in\n    tag_219:\n        /* \"contracts/HelloWorld5.sol\":1734:1762  uint256 year = toYear(value) */\n      swap1\n      pop\n        /* \"contracts/HelloWorld5.sol\":1772:1781  uint256 i */\n      0x00\n        /* \"contracts/HelloWorld5.sol\":1810:1811  0 */\n      dup1\n        /* \"contracts/HelloWorld5.sol\":1805:1806  4 */\n      0x04\n        /* \"contracts/HelloWorld5.sol\":1798:1802  year */\n      dup4\n        /* \"contracts/HelloWorld5.sol\":1798:1806  year % 4 */\n      tag_220\n      swap2\n      swap1\n      tag_190\n      jump\t// in\n    tag_220:\n        /* \"contracts/HelloWorld5.sol\":1798:1811  year % 4 == 0 */\n      sub\n        /* \"contracts/HelloWorld5.sol\":1795:1891  if(year % 4 == 0) {... */\n      tag_221\n      jumpi\n        /* \"contracts/HelloWorld5.sol\":1831:1834  366 */\n      0x016e\n        /* \"contracts/HelloWorld5.sol\":1827:1834  i = 366 */\n      swap1\n      pop\n        /* \"contracts/HelloWorld5.sol\":1795:1891  if(year % 4 == 0) {... */\n      jump(tag_222)\n    tag_221:\n        /* \"contracts/HelloWorld5.sol\":1877:1880  365 */\n      0x016d\n        /* \"contracts/HelloWorld5.sol\":1873:1880  i = 365 */\n      swap1\n      pop\n        /* \"contracts/HelloWorld5.sol\":1795:1891  if(year % 4 == 0) {... */\n    tag_222:\n        /* \"contracts/HelloWorld5.sol\":1900:1911  uint256 day */\n      0x00\n        /* \"contracts/HelloWorld5.sol\":1914:1926  toDay(value) */\n      tag_223\n        /* \"contracts/HelloWorld5.sol\":1920:1925  value */\n      dup6\n        /* \"contracts/HelloWorld5.sol\":1914:1919  toDay */\n      tag_156\n        /* \"contracts/HelloWorld5.sol\":1914:1926  toDay(value) */\n      jump\t// in\n    tag_223:\n        /* \"contracts/HelloWorld5.sol\":1900:1926  uint256 day = toDay(value) */\n      swap1\n      pop\n        /* \"contracts/HelloWorld5.sol\":1936:1949  uint256 month */\n      0x00\n        /* \"contracts/HelloWorld5.sol\":1974:1976  31 */\n      0x1f\n        /* \"contracts/HelloWorld5.sol\":1967:1970  day */\n      dup3\n        /* \"contracts/HelloWorld5.sol\":1967:1976  day <= 31 */\n      gt\n        /* \"contracts/HelloWorld5.sol\":1963:3696  if (day <= 31) {... */\n      tag_224\n      jumpi\n        /* \"contracts/HelloWorld5.sol\":2000:2001  1 */\n      0x01\n        /* \"contracts/HelloWorld5.sol\":1992:2001  month = 1 */\n      swap1\n      pop\n        /* \"contracts/HelloWorld5.sol\":1963:3696  if (day <= 31) {... */\n      jump(tag_225)\n    tag_224:\n        /* \"contracts/HelloWorld5.sol\":2037:2039  59 */\n      0x3b\n        /* \"contracts/HelloWorld5.sol\":2030:2033  day */\n      dup3\n        /* \"contracts/HelloWorld5.sol\":2030:2039  day <= 59 */\n      gt\n      iszero\n        /* \"contracts/HelloWorld5.sol\":2030:2051  day <= 59 && i == 365 */\n      dup1\n      iszero\n      tag_226\n      jumpi\n      pop\n        /* \"contracts/HelloWorld5.sol\":2048:2051  365 */\n      0x016d\n        /* \"contracts/HelloWorld5.sol\":2043:2044  i */\n      dup4\n        /* \"contracts/HelloWorld5.sol\":2043:2051  i == 365 */\n      eq\n        /* \"contracts/HelloWorld5.sol\":2030:2051  day <= 59 && i == 365 */\n    tag_226:\n        /* \"contracts/HelloWorld5.sol\":2026:3696  if (day <= 59 && i == 365) {... */\n      iszero\n      tag_227\n      jumpi\n        /* \"contracts/HelloWorld5.sol\":2075:2076  2 */\n      0x02\n        /* \"contracts/HelloWorld5.sol\":2067:2076  month = 2 */\n      swap1\n      pop\n        /* \"contracts/HelloWorld5.sol\":2026:3696  if (day <= 59 && i == 365) {... */\n      jump(tag_228)\n    tag_227:\n        /* \"contracts/HelloWorld5.sol\":2112:2114  60 */\n      0x3c\n        /* \"contracts/HelloWorld5.sol\":2105:2108  day */\n      dup3\n        /* \"contracts/HelloWorld5.sol\":2105:2114  day <= 60 */\n      gt\n      iszero\n        /* \"contracts/HelloWorld5.sol\":2105:2126  day <= 60 && i == 366 */\n      dup1\n      iszero\n      tag_229\n      jumpi\n      pop\n        /* \"contracts/HelloWorld5.sol\":2123:2126  366 */\n      0x016e\n        /* \"contracts/HelloWorld5.sol\":2118:2119  i */\n      dup4\n        /* \"contracts/HelloWorld5.sol\":2118:2126  i == 366 */\n      eq\n        /* \"contracts/HelloWorld5.sol\":2105:2126  day <= 60 && i == 366 */\n    tag_229:\n        /* \"contracts/HelloWorld5.sol\":2101:3696  if (day <= 60 && i == 366) {... */\n      iszero\n      tag_230\n      jumpi\n        /* \"contracts/HelloWorld5.sol\":2150:2151  2 */\n      0x02\n        /* \"contracts/HelloWorld5.sol\":2142:2151  month = 2 */\n      swap1\n      pop\n        /* \"contracts/HelloWorld5.sol\":2101:3696  if (day <= 60 && i == 366) {... */\n      jump(tag_231)\n    tag_230:\n        /* \"contracts/HelloWorld5.sol\":2188:2190  90 */\n      0x5a\n        /* \"contracts/HelloWorld5.sol\":2181:2184  day */\n      dup3\n        /* \"contracts/HelloWorld5.sol\":2181:2190  day <= 90 */\n      gt\n      iszero\n        /* \"contracts/HelloWorld5.sol\":2181:2202  day <= 90 && i == 365 */\n      dup1\n      iszero\n      tag_232\n      jumpi\n      pop\n        /* \"contracts/HelloWorld5.sol\":2199:2202  365 */\n      0x016d\n        /* \"contracts/HelloWorld5.sol\":2194:2195  i */\n      dup4\n        /* \"contracts/HelloWorld5.sol\":2194:2202  i == 365 */\n      eq\n        /* \"contracts/HelloWorld5.sol\":2181:2202  day <= 90 && i == 365 */\n    tag_232:\n        /* \"contracts/HelloWorld5.sol\":2177:3696  if (day <= 90 && i == 365) {... */\n      iszero\n      tag_233\n      jumpi\n        /* \"contracts/HelloWorld5.sol\":2226:2227  3 */\n      0x03\n        /* \"contracts/HelloWorld5.sol\":2218:2227  month = 3 */\n      swap1\n      pop\n        /* \"contracts/HelloWorld5.sol\":2177:3696  if (day <= 90 && i == 365) {... */\n      jump(tag_234)\n    tag_233:\n        /* \"contracts/HelloWorld5.sol\":2263:2265  91 */\n      0x5b\n        /* \"contracts/HelloWorld5.sol\":2256:2259  day */\n      dup3\n        /* \"contracts/HelloWorld5.sol\":2256:2265  day <= 91 */\n      gt\n      iszero\n        /* \"contracts/HelloWorld5.sol\":2256:2277  day <= 91 && i == 366 */\n      dup1\n      iszero\n      tag_235\n      jumpi\n      pop\n        /* \"contracts/HelloWorld5.sol\":2274:2277  366 */\n      0x016e\n        /* \"contracts/HelloWorld5.sol\":2269:2270  i */\n      dup4\n        /* \"contracts/HelloWorld5.sol\":2269:2277  i == 366 */\n      eq\n        /* \"contracts/HelloWorld5.sol\":2256:2277  day <= 91 && i == 366 */\n    tag_235:\n        /* \"contracts/HelloWorld5.sol\":2252:3696  if (day <= 91 && i == 366) {... */\n      iszero\n      tag_236\n      jumpi\n        /* \"contracts/HelloWorld5.sol\":2301:2302  3 */\n      0x03\n        /* \"contracts/HelloWorld5.sol\":2293:2302  month = 3 */\n      swap1\n      pop\n        /* \"contracts/HelloWorld5.sol\":2252:3696  if (day <= 91 && i == 366) {... */\n      jump(tag_237)\n    tag_236:\n        /* \"contracts/HelloWorld5.sol\":2339:2342  120 */\n      0x78\n        /* \"contracts/HelloWorld5.sol\":2332:2335  day */\n      dup3\n        /* \"contracts/HelloWorld5.sol\":2332:2342  day <= 120 */\n      gt\n      iszero\n        /* \"contracts/HelloWorld5.sol\":2332:2354  day <= 120 && i == 365 */\n      dup1\n      iszero\n      tag_238\n      jumpi\n      pop\n        /* \"contracts/HelloWorld5.sol\":2351:2354  365 */\n      0x016d\n        /* \"contracts/HelloWorld5.sol\":2346:2347  i */\n      dup4\n        /* \"contracts/HelloWorld5.sol\":2346:2354  i == 365 */\n      eq\n        /* \"contracts/HelloWorld5.sol\":2332:2354  day <= 120 && i == 365 */\n    tag_238:\n        /* \"contracts/HelloWorld5.sol\":2328:3696  if (day <= 120 && i == 365) {... */\n      iszero\n      tag_239\n      jumpi\n        /* \"contracts/HelloWorld5.sol\":2378:2379  4 */\n      0x04\n        /* \"contracts/HelloWorld5.sol\":2370:2379  month = 4 */\n      swap1\n      pop\n        /* \"contracts/HelloWorld5.sol\":2328:3696  if (day <= 120 && i == 365) {... */\n      jump(tag_240)\n    tag_239:\n        /* \"contracts/HelloWorld5.sol\":2415:2418  121 */\n      0x79\n        /* \"contracts/HelloWorld5.sol\":2408:2411  day */\n      dup3\n        /* \"contracts/HelloWorld5.sol\":2408:2418  day <= 121 */\n      gt\n      iszero\n        /* \"contracts/HelloWorld5.sol\":2408:2430  day <= 121 && i == 366 */\n      dup1\n      iszero\n      tag_241\n      jumpi\n      pop\n        /* \"contracts/HelloWorld5.sol\":2427:2430  366 */\n      0x016e\n        /* \"contracts/HelloWorld5.sol\":2422:2423  i */\n      dup4\n        /* \"contracts/HelloWorld5.sol\":2422:2430  i == 366 */\n      eq\n        /* \"contracts/HelloWorld5.sol\":2408:2430  day <= 121 && i == 366 */\n    tag_241:\n        /* \"contracts/HelloWorld5.sol\":2404:3696  if (day <= 121 && i == 366) {... */\n      iszero\n      tag_242\n      jumpi\n        /* \"contracts/HelloWorld5.sol\":2454:2455  4 */\n      0x04\n        /* \"contracts/HelloWorld5.sol\":2446:2455  month = 4 */\n      swap1\n      pop\n        /* \"contracts/HelloWorld5.sol\":2404:3696  if (day <= 121 && i == 366) {... */\n      jump(tag_243)\n    tag_242:\n        /* \"contracts/HelloWorld5.sol\":2492:2495  151 */\n      0x97\n        /* \"contracts/HelloWorld5.sol\":2485:2488  day */\n      dup3\n        /* \"contracts/HelloWorld5.sol\":2485:2495  day <= 151 */\n      gt\n      iszero\n        /* \"contracts/HelloWorld5.sol\":2485:2507  day <= 151 && i == 365 */\n      dup1\n      iszero\n      tag_244\n      jumpi\n      pop\n        /* \"contracts/HelloWorld5.sol\":2504:2507  365 */\n      0x016d\n        /* \"contracts/HelloWorld5.sol\":2499:2500  i */\n      dup4\n        /* \"contracts/HelloWorld5.sol\":2499:2507  i == 365 */\n      eq\n        /* \"contracts/HelloWorld5.sol\":2485:2507  day <= 151 && i == 365 */\n    tag_244:\n        /* \"contracts/HelloWorld5.sol\":2481:3696  if (day <= 151 && i == 365) {... */\n      iszero\n      tag_245\n      jumpi\n        /* \"contracts/HelloWorld5.sol\":2531:2532  5 */\n      0x05\n        /* \"contracts/HelloWorld5.sol\":2523:2532  month = 5 */\n      swap1\n      pop\n        /* \"contracts/HelloWorld5.sol\":2481:3696  if (day <= 151 && i == 365) {... */\n      jump(tag_246)\n    tag_245:\n        /* \"contracts/HelloWorld5.sol\":2568:2571  152 */\n      0x98\n        /* \"contracts/HelloWorld5.sol\":2561:2564  day */\n      dup3\n        /* \"contracts/HelloWorld5.sol\":2561:2571  day <= 152 */\n      gt\n      iszero\n        /* \"contracts/HelloWorld5.sol\":2561:2583  day <= 152 && i == 366 */\n      dup1\n      iszero\n      tag_247\n      jumpi\n      pop\n        /* \"contracts/HelloWorld5.sol\":2580:2583  366 */\n      0x016e\n        /* \"contracts/HelloWorld5.sol\":2575:2576  i */\n      dup4\n        /* \"contracts/HelloWorld5.sol\":2575:2583  i == 366 */\n      eq\n        /* \"contracts/HelloWorld5.sol\":2561:2583  day <= 152 && i == 366 */\n    tag_247:\n        /* \"contracts/HelloWorld5.sol\":2557:3696  if (day <= 152 && i == 366) {... */\n      iszero\n      tag_248\n      jumpi\n        /* \"contracts/HelloWorld5.sol\":2607:2608  5 */\n      0x05\n        /* \"contracts/HelloWorld5.sol\":2599:2608  month = 5 */\n      swap1\n      pop\n        /* \"contracts/HelloWorld5.sol\":2557:3696  if (day <= 152 && i == 366) {... */\n      jump(tag_249)\n    tag_248:\n        /* \"contracts/HelloWorld5.sol\":2645:2648  181 */\n      0xb5\n        /* \"contracts/HelloWorld5.sol\":2638:2641  day */\n      dup3\n        /* \"contracts/HelloWorld5.sol\":2638:2648  day <= 181 */\n      gt\n      iszero\n        /* \"contracts/HelloWorld5.sol\":2638:2660  day <= 181 && i == 365 */\n      dup1\n      iszero\n      tag_250\n      jumpi\n      pop\n        /* \"contracts/HelloWorld5.sol\":2657:2660  365 */\n      0x016d\n        /* \"contracts/HelloWorld5.sol\":2652:2653  i */\n      dup4\n        /* \"contracts/HelloWorld5.sol\":2652:2660  i == 365 */\n      eq\n        /* \"contracts/HelloWorld5.sol\":2638:2660  day <= 181 && i == 365 */\n    tag_250:\n        /* \"contracts/HelloWorld5.sol\":2634:3696  if (day <= 181 && i == 365) {... */\n      iszero\n      tag_251\n      jumpi\n        /* \"contracts/HelloWorld5.sol\":2684:2685  6 */\n      0x06\n        /* \"contracts/HelloWorld5.sol\":2676:2685  month = 6 */\n      swap1\n      pop\n        /* \"contracts/HelloWorld5.sol\":2634:3696  if (day <= 181 && i == 365) {... */\n      jump(tag_252)\n    tag_251:\n        /* \"contracts/HelloWorld5.sol\":2721:2724  182 */\n      0xb6\n        /* \"contracts/HelloWorld5.sol\":2714:2717  day */\n      dup3\n        /* \"contracts/HelloWorld5.sol\":2714:2724  day <= 182 */\n      gt\n      iszero\n        /* \"contracts/HelloWorld5.sol\":2714:2736  day <= 182 && i == 366 */\n      dup1\n      iszero\n      tag_253\n      jumpi\n      pop\n        /* \"contracts/HelloWorld5.sol\":2733:2736  366 */\n      0x016e\n        /* \"contracts/HelloWorld5.sol\":2728:2729  i */\n      dup4\n        /* \"contracts/HelloWorld5.sol\":2728:2736  i == 366 */\n      eq\n        /* \"contracts/HelloWorld5.sol\":2714:2736  day <= 182 && i == 366 */\n    tag_253:\n        /* \"contracts/HelloWorld5.sol\":2710:3696  if (day <= 182 && i == 366) {... */\n      iszero\n      tag_254\n      jumpi\n        /* \"contracts/HelloWorld5.sol\":2760:2761  6 */\n      0x06\n        /* \"contracts/HelloWorld5.sol\":2752:2761  month = 6 */\n      swap1\n      pop\n        /* \"contracts/HelloWorld5.sol\":2710:3696  if (day <= 182 && i == 366) {... */\n      jump(tag_255)\n    tag_254:\n        /* \"contracts/HelloWorld5.sol\":2798:2801  212 */\n      0xd4\n        /* \"contracts/HelloWorld5.sol\":2791:2794  day */\n      dup3\n        /* \"contracts/HelloWorld5.sol\":2791:2801  day <= 212 */\n      gt\n      iszero\n        /* \"contracts/HelloWorld5.sol\":2791:2813  day <= 212 && i == 365 */\n      dup1\n      iszero\n      tag_256\n      jumpi\n      pop\n        /* \"contracts/HelloWorld5.sol\":2810:2813  365 */\n      0x016d\n        /* \"contracts/HelloWorld5.sol\":2805:2806  i */\n      dup4\n        /* \"contracts/HelloWorld5.sol\":2805:2813  i == 365 */\n      eq\n        /* \"contracts/HelloWorld5.sol\":2791:2813  day <= 212 && i == 365 */\n    tag_256:\n        /* \"contracts/HelloWorld5.sol\":2787:3696  if (day <= 212 && i == 365) {... */\n      iszero\n      tag_257\n      jumpi\n        /* \"contracts/HelloWorld5.sol\":2837:2838  7 */\n      0x07\n        /* \"contracts/HelloWorld5.sol\":2829:2838  month = 7 */\n      swap1\n      pop\n        /* \"contracts/HelloWorld5.sol\":2787:3696  if (day <= 212 && i == 365) {... */\n      jump(tag_258)\n    tag_257:\n        /* \"contracts/HelloWorld5.sol\":2874:2877  213 */\n      0xd5\n        /* \"contracts/HelloWorld5.sol\":2867:2870  day */\n      dup3\n        /* \"contracts/HelloWorld5.sol\":2867:2877  day <= 213 */\n      gt\n      iszero\n        /* \"contracts/HelloWorld5.sol\":2867:2889  day <= 213 && i == 366 */\n      dup1\n      iszero\n      tag_259\n      jumpi\n      pop\n        /* \"contracts/HelloWorld5.sol\":2886:2889  366 */\n      0x016e\n        /* \"contracts/HelloWorld5.sol\":2881:2882  i */\n      dup4\n        /* \"contracts/HelloWorld5.sol\":2881:2889  i == 366 */\n      eq\n        /* \"contracts/HelloWorld5.sol\":2867:2889  day <= 213 && i == 366 */\n    tag_259:\n        /* \"contracts/HelloWorld5.sol\":2863:3696  if (day <= 213 && i == 366) {... */\n      iszero\n      tag_260\n      jumpi\n        /* \"contracts/HelloWorld5.sol\":2913:2914  7 */\n      0x07\n        /* \"contracts/HelloWorld5.sol\":2905:2914  month = 7 */\n      swap1\n      pop\n        /* \"contracts/HelloWorld5.sol\":2863:3696  if (day <= 213 && i == 366) {... */\n      jump(tag_261)\n    tag_260:\n        /* \"contracts/HelloWorld5.sol\":2951:2954  243 */\n      0xf3\n        /* \"contracts/HelloWorld5.sol\":2944:2947  day */\n      dup3\n        /* \"contracts/HelloWorld5.sol\":2944:2954  day <= 243 */\n      gt\n      iszero\n        /* \"contracts/HelloWorld5.sol\":2944:2966  day <= 243 && i == 365 */\n      dup1\n      iszero\n      tag_262\n      jumpi\n      pop\n        /* \"contracts/HelloWorld5.sol\":2963:2966  365 */\n      0x016d\n        /* \"contracts/HelloWorld5.sol\":2958:2959  i */\n      dup4\n        /* \"contracts/HelloWorld5.sol\":2958:2966  i == 365 */\n      eq\n        /* \"contracts/HelloWorld5.sol\":2944:2966  day <= 243 && i == 365 */\n    tag_262:\n        /* \"contracts/HelloWorld5.sol\":2940:3696  if (day <= 243 && i == 365) {... */\n      iszero\n      tag_263\n      jumpi\n        /* \"contracts/HelloWorld5.sol\":2990:2991  8 */\n      0x08\n        /* \"contracts/HelloWorld5.sol\":2982:2991  month = 8 */\n      swap1\n      pop\n        /* \"contracts/HelloWorld5.sol\":2940:3696  if (day <= 243 && i == 365) {... */\n      jump(tag_264)\n    tag_263:\n        /* \"contracts/HelloWorld5.sol\":3027:3030  244 */\n      0xf4\n        /* \"contracts/HelloWorld5.sol\":3020:3023  day */\n      dup3\n        /* \"contracts/HelloWorld5.sol\":3020:3030  day <= 244 */\n      gt\n      iszero\n        /* \"contracts/HelloWorld5.sol\":3020:3042  day <= 244 && i == 366 */\n      dup1\n      iszero\n      tag_265\n      jumpi\n      pop\n        /* \"contracts/HelloWorld5.sol\":3039:3042  366 */\n      0x016e\n        /* \"contracts/HelloWorld5.sol\":3034:3035  i */\n      dup4\n        /* \"contracts/HelloWorld5.sol\":3034:3042  i == 366 */\n      eq\n        /* \"contracts/HelloWorld5.sol\":3020:3042  day <= 244 && i == 366 */\n    tag_265:\n        /* \"contracts/HelloWorld5.sol\":3016:3696  if (day <= 244 && i == 366) {... */\n      iszero\n      tag_266\n      jumpi\n        /* \"contracts/HelloWorld5.sol\":3066:3067  8 */\n      0x08\n        /* \"contracts/HelloWorld5.sol\":3058:3067  month = 8 */\n      swap1\n      pop\n        /* \"contracts/HelloWorld5.sol\":3016:3696  if (day <= 244 && i == 366) {... */\n      jump(tag_267)\n    tag_266:\n        /* \"contracts/HelloWorld5.sol\":3104:3107  273 */\n      0x0111\n        /* \"contracts/HelloWorld5.sol\":3097:3100  day */\n      dup3\n        /* \"contracts/HelloWorld5.sol\":3097:3107  day <= 273 */\n      gt\n      iszero\n        /* \"contracts/HelloWorld5.sol\":3097:3119  day <= 273 && i == 365 */\n      dup1\n      iszero\n      tag_268\n      jumpi\n      pop\n        /* \"contracts/HelloWorld5.sol\":3116:3119  365 */\n      0x016d\n        /* \"contracts/HelloWorld5.sol\":3111:3112  i */\n      dup4\n        /* \"contracts/HelloWorld5.sol\":3111:3119  i == 365 */\n      eq\n        /* \"contracts/HelloWorld5.sol\":3097:3119  day <= 273 && i == 365 */\n    tag_268:\n        /* \"contracts/HelloWorld5.sol\":3093:3696  if (day <= 273 && i == 365) {... */\n      iszero\n      tag_269\n      jumpi\n        /* \"contracts/HelloWorld5.sol\":3143:3144  9 */\n      0x09\n        /* \"contracts/HelloWorld5.sol\":3135:3144  month = 9 */\n      swap1\n      pop\n        /* \"contracts/HelloWorld5.sol\":3093:3696  if (day <= 273 && i == 365) {... */\n      jump(tag_270)\n    tag_269:\n        /* \"contracts/HelloWorld5.sol\":3180:3183  274 */\n      0x0112\n        /* \"contracts/HelloWorld5.sol\":3173:3176  day */\n      dup3\n        /* \"contracts/HelloWorld5.sol\":3173:3183  day <= 274 */\n      gt\n      iszero\n        /* \"contracts/HelloWorld5.sol\":3173:3195  day <= 274 && i == 366 */\n      dup1\n      iszero\n      tag_271\n      jumpi\n      pop\n        /* \"contracts/HelloWorld5.sol\":3192:3195  366 */\n      0x016e\n        /* \"contracts/HelloWorld5.sol\":3187:3188  i */\n      dup4\n        /* \"contracts/HelloWorld5.sol\":3187:3195  i == 366 */\n      eq\n        /* \"contracts/HelloWorld5.sol\":3173:3195  day <= 274 && i == 366 */\n    tag_271:\n        /* \"contracts/HelloWorld5.sol\":3169:3696  if (day <= 274 && i == 366) {... */\n      iszero\n      tag_272\n      jumpi\n        /* \"contracts/HelloWorld5.sol\":3219:3220  9 */\n      0x09\n        /* \"contracts/HelloWorld5.sol\":3211:3220  month = 9 */\n      swap1\n      pop\n        /* \"contracts/HelloWorld5.sol\":3169:3696  if (day <= 274 && i == 366) {... */\n      jump(tag_273)\n    tag_272:\n        /* \"contracts/HelloWorld5.sol\":3257:3260  304 */\n      0x0130\n        /* \"contracts/HelloWorld5.sol\":3250:3253  day */\n      dup3\n        /* \"contracts/HelloWorld5.sol\":3250:3260  day <= 304 */\n      gt\n      iszero\n        /* \"contracts/HelloWorld5.sol\":3250:3272  day <= 304 && i == 365 */\n      dup1\n      iszero\n      tag_274\n      jumpi\n      pop\n        /* \"contracts/HelloWorld5.sol\":3269:3272  365 */\n      0x016d\n        /* \"contracts/HelloWorld5.sol\":3264:3265  i */\n      dup4\n        /* \"contracts/HelloWorld5.sol\":3264:3272  i == 365 */\n      eq\n        /* \"contracts/HelloWorld5.sol\":3250:3272  day <= 304 && i == 365 */\n    tag_274:\n        /* \"contracts/HelloWorld5.sol\":3246:3696  if (day <= 304 && i == 365) {... */\n      iszero\n      tag_275\n      jumpi\n        /* \"contracts/HelloWorld5.sol\":3296:3298  10 */\n      0x0a\n        /* \"contracts/HelloWorld5.sol\":3288:3298  month = 10 */\n      swap1\n      pop\n        /* \"contracts/HelloWorld5.sol\":3246:3696  if (day <= 304 && i == 365) {... */\n      jump(tag_276)\n    tag_275:\n        /* \"contracts/HelloWorld5.sol\":3334:3337  305 */\n      0x0131\n        /* \"contracts/HelloWorld5.sol\":3327:3330  day */\n      dup3\n        /* \"contracts/HelloWorld5.sol\":3327:3337  day <= 305 */\n      gt\n      iszero\n        /* \"contracts/HelloWorld5.sol\":3327:3349  day <= 305 && i == 366 */\n      dup1\n      iszero\n      tag_277\n      jumpi\n      pop\n        /* \"contracts/HelloWorld5.sol\":3346:3349  366 */\n      0x016e\n        /* \"contracts/HelloWorld5.sol\":3341:3342  i */\n      dup4\n        /* \"contracts/HelloWorld5.sol\":3341:3349  i == 366 */\n      eq\n        /* \"contracts/HelloWorld5.sol\":3327:3349  day <= 305 && i == 366 */\n    tag_277:\n        /* \"contracts/HelloWorld5.sol\":3323:3696  if (day <= 305 && i == 366) {... */\n      iszero\n      tag_278\n      jumpi\n        /* \"contracts/HelloWorld5.sol\":3373:3375  10 */\n      0x0a\n        /* \"contracts/HelloWorld5.sol\":3365:3375  month = 10 */\n      swap1\n      pop\n        /* \"contracts/HelloWorld5.sol\":3323:3696  if (day <= 305 && i == 366) {... */\n      jump(tag_279)\n    tag_278:\n        /* \"contracts/HelloWorld5.sol\":3412:3415  334 */\n      0x014e\n        /* \"contracts/HelloWorld5.sol\":3405:3408  day */\n      dup3\n        /* \"contracts/HelloWorld5.sol\":3405:3415  day <= 334 */\n      gt\n      iszero\n        /* \"contracts/HelloWorld5.sol\":3405:3427  day <= 334 && i == 365 */\n      dup1\n      iszero\n      tag_280\n      jumpi\n      pop\n        /* \"contracts/HelloWorld5.sol\":3424:3427  365 */\n      0x016d\n        /* \"contracts/HelloWorld5.sol\":3419:3420  i */\n      dup4\n        /* \"contracts/HelloWorld5.sol\":3419:3427  i == 365 */\n      eq\n        /* \"contracts/HelloWorld5.sol\":3405:3427  day <= 334 && i == 365 */\n    tag_280:\n        /* \"contracts/HelloWorld5.sol\":3401:3696  if (day <= 334 && i == 365) {... */\n      iszero\n      tag_281\n      jumpi\n        /* \"contracts/HelloWorld5.sol\":3451:3453  11 */\n      0x0b\n        /* \"contracts/HelloWorld5.sol\":3443:3453  month = 11 */\n      swap1\n      pop\n        /* \"contracts/HelloWorld5.sol\":3401:3696  if (day <= 334 && i == 365) {... */\n      jump(tag_282)\n    tag_281:\n        /* \"contracts/HelloWorld5.sol\":3489:3492  335 */\n      0x014f\n        /* \"contracts/HelloWorld5.sol\":3482:3485  day */\n      dup3\n        /* \"contracts/HelloWorld5.sol\":3482:3492  day <= 335 */\n      gt\n      iszero\n        /* \"contracts/HelloWorld5.sol\":3482:3504  day <= 335 && i == 366 */\n      dup1\n      iszero\n      tag_283\n      jumpi\n      pop\n        /* \"contracts/HelloWorld5.sol\":3501:3504  366 */\n      0x016e\n        /* \"contracts/HelloWorld5.sol\":3496:3497  i */\n      dup4\n        /* \"contracts/HelloWorld5.sol\":3496:3504  i == 366 */\n      eq\n        /* \"contracts/HelloWorld5.sol\":3482:3504  day <= 335 && i == 366 */\n    tag_283:\n        /* \"contracts/HelloWorld5.sol\":3478:3696  if (day <= 335 && i == 366) {... */\n      iszero\n      tag_284\n      jumpi\n        /* \"contracts/HelloWorld5.sol\":3528:3530  11 */\n      0x0b\n        /* \"contracts/HelloWorld5.sol\":3520:3530  month = 11 */\n      swap1\n      pop\n        /* \"contracts/HelloWorld5.sol\":3478:3696  if (day <= 335 && i == 366) {... */\n      jump(tag_285)\n    tag_284:\n        /* \"contracts/HelloWorld5.sol\":3567:3570  365 */\n      0x016d\n        /* \"contracts/HelloWorld5.sol\":3560:3563  day */\n      dup3\n        /* \"contracts/HelloWorld5.sol\":3560:3570  day <= 365 */\n      gt\n      iszero\n        /* \"contracts/HelloWorld5.sol\":3560:3582  day <= 365 && i == 365 */\n      dup1\n      iszero\n      tag_286\n      jumpi\n      pop\n        /* \"contracts/HelloWorld5.sol\":3579:3582  365 */\n      0x016d\n        /* \"contracts/HelloWorld5.sol\":3574:3575  i */\n      dup4\n        /* \"contracts/HelloWorld5.sol\":3574:3582  i == 365 */\n      eq\n        /* \"contracts/HelloWorld5.sol\":3560:3582  day <= 365 && i == 365 */\n    tag_286:\n        /* \"contracts/HelloWorld5.sol\":3556:3696  if (day <= 365 && i == 365) {... */\n      iszero\n      tag_287\n      jumpi\n        /* \"contracts/HelloWorld5.sol\":3606:3608  12 */\n      0x0c\n        /* \"contracts/HelloWorld5.sol\":3598:3608  month = 12 */\n      swap1\n      pop\n        /* \"contracts/HelloWorld5.sol\":3556:3696  if (day <= 365 && i == 365) {... */\n      jump(tag_288)\n    tag_287:\n        /* \"contracts/HelloWorld5.sol\":3644:3647  366 */\n      0x016e\n        /* \"contracts/HelloWorld5.sol\":3637:3640  day */\n      dup3\n        /* \"contracts/HelloWorld5.sol\":3637:3647  day <= 366 */\n      gt\n      iszero\n        /* \"contracts/HelloWorld5.sol\":3637:3659  day <= 366 && i == 366 */\n      dup1\n      iszero\n      tag_289\n      jumpi\n      pop\n        /* \"contracts/HelloWorld5.sol\":3656:3659  366 */\n      0x016e\n        /* \"contracts/HelloWorld5.sol\":3651:3652  i */\n      dup4\n        /* \"contracts/HelloWorld5.sol\":3651:3659  i == 366 */\n      eq\n        /* \"contracts/HelloWorld5.sol\":3637:3659  day <= 366 && i == 366 */\n    tag_289:\n        /* \"contracts/HelloWorld5.sol\":3633:3696  if (day <= 366 && i == 366) {... */\n      iszero\n      tag_290\n      jumpi\n        /* \"contracts/HelloWorld5.sol\":3683:3685  12 */\n      0x0c\n        /* \"contracts/HelloWorld5.sol\":3675:3685  month = 12 */\n      swap1\n      pop\n        /* \"contracts/HelloWorld5.sol\":3633:3696  if (day <= 366 && i == 366) {... */\n    tag_290:\n        /* \"contracts/HelloWorld5.sol\":3556:3696  if (day <= 365 && i == 365) {... */\n    tag_288:\n        /* \"contracts/HelloWorld5.sol\":3478:3696  if (day <= 335 && i == 366) {... */\n    tag_285:\n        /* \"contracts/HelloWorld5.sol\":3401:3696  if (day <= 334 && i == 365) {... */\n    tag_282:\n        /* \"contracts/HelloWorld5.sol\":3323:3696  if (day <= 305 && i == 366) {... */\n    tag_279:\n        /* \"contracts/HelloWorld5.sol\":3246:3696  if (day <= 304 && i == 365) {... */\n    tag_276:\n        /* \"contracts/HelloWorld5.sol\":3169:3696  if (day <= 274 && i == 366) {... */\n    tag_273:\n        /* \"contracts/HelloWorld5.sol\":3093:3696  if (day <= 273 && i == 365) {... */\n    tag_270:\n        /* \"contracts/HelloWorld5.sol\":3016:3696  if (day <= 244 && i == 366) {... */\n    tag_267:\n        /* \"contracts/HelloWorld5.sol\":2940:3696  if (day <= 243 && i == 365) {... */\n    tag_264:\n        /* \"contracts/HelloWorld5.sol\":2863:3696  if (day <= 213 && i == 366) {... */\n    tag_261:\n        /* \"contracts/HelloWorld5.sol\":2787:3696  if (day <= 212 && i == 365) {... */\n    tag_258:\n        /* \"contracts/HelloWorld5.sol\":2710:3696  if (day <= 182 && i == 366) {... */\n    tag_255:\n        /* \"contracts/HelloWorld5.sol\":2634:3696  if (day <= 181 && i == 365) {... */\n    tag_252:\n        /* \"contracts/HelloWorld5.sol\":2557:3696  if (day <= 152 && i == 366) {... */\n    tag_249:\n        /* \"contracts/HelloWorld5.sol\":2481:3696  if (day <= 151 && i == 365) {... */\n    tag_246:\n        /* \"contracts/HelloWorld5.sol\":2404:3696  if (day <= 121 && i == 366) {... */\n    tag_243:\n        /* \"contracts/HelloWorld5.sol\":2328:3696  if (day <= 120 && i == 365) {... */\n    tag_240:\n        /* \"contracts/HelloWorld5.sol\":2252:3696  if (day <= 91 && i == 366) {... */\n    tag_237:\n        /* \"contracts/HelloWorld5.sol\":2177:3696  if (day <= 90 && i == 365) {... */\n    tag_234:\n        /* \"contracts/HelloWorld5.sol\":2101:3696  if (day <= 60 && i == 366) {... */\n    tag_231:\n        /* \"contracts/HelloWorld5.sol\":2026:3696  if (day <= 59 && i == 365) {... */\n    tag_228:\n        /* \"contracts/HelloWorld5.sol\":1963:3696  if (day <= 31) {... */\n    tag_225:\n        /* \"contracts/HelloWorld5.sol\":3721:3726  month */\n      dup1\n        /* \"contracts/HelloWorld5.sol\":3714:3726  return month */\n      swap5\n      pop\n      pop\n      pop\n      pop\n      pop\n        /* \"contracts/HelloWorld5.sol\":1661:3733  function toMonth(uint256 value) internal pure returns (uint y) {... */\n      swap2\n      swap1\n      pop\n      jump\t// out\n        /* \"contracts/HelloWorld5.sol\":986:1262  function toYear(uint256 value) internal pure returns (uint y) {... */\n    tag_163:\n        /* \"contracts/HelloWorld5.sol\":1040:1046  uint y */\n      0x00\n        /* \"contracts/HelloWorld5.sol\":1058:1070  uint256 secs */\n      dup1\n        /* \"contracts/HelloWorld5.sol\":1081:1082  4 */\n      0x04\n        /* \"contracts/HelloWorld5.sol\":1073:1078  value */\n      dup4\n        /* \"contracts/HelloWorld5.sol\":1073:1082  value / 4 */\n      tag_292\n      swap2\n      swap1\n      tag_188\n      jump\t// in\n    tag_292:\n        /* \"contracts/HelloWorld5.sol\":1058:1082  uint256 secs = value / 4 */\n      swap1\n      pop\n        /* \"contracts/HelloWorld5.sol\":1092:1103  uint256 yea */\n      0x00\n        /* \"contracts/HelloWorld5.sol\":1170:1174  1971 */\n      0x07b3\n        /* \"contracts/HelloWorld5.sol\":1148:1166  366 * 24 * 60 * 60 */\n      0x01e28500\n        /* \"contracts/HelloWorld5.sol\":1140:1144  secs */\n      dup4\n        /* \"contracts/HelloWorld5.sol\":1140:1167  secs / (366 * 24 * 60 * 60) */\n      tag_293\n      swap2\n      swap1\n      tag_188\n      jump\t// in\n    tag_293:\n        /* \"contracts/HelloWorld5.sol\":1118:1136  365 * 24 * 60 * 60 */\n      0x01e13380\n        /* \"contracts/HelloWorld5.sol\":1110:1114  secs */\n      dup5\n        /* \"contracts/HelloWorld5.sol\":1106:1107  3 */\n      0x03\n        /* \"contracts/HelloWorld5.sol\":1106:1114  3 * secs */\n      tag_294\n      swap2\n      swap1\n      tag_194\n      jump\t// in\n    tag_294:\n        /* \"contracts/HelloWorld5.sol\":1106:1137  3 * secs / (365 * 24 * 60 * 60) */\n      tag_295\n      swap2\n      swap1\n      tag_188\n      jump\t// in\n    tag_295:\n        /* \"contracts/HelloWorld5.sol\":1106:1167  3 * secs / (365 * 24 * 60 * 60) + secs / (366 * 24 * 60 * 60) */\n      tag_296\n      swap2\n      swap1\n      tag_176\n      jump\t// in\n    tag_296:\n        /* \"contracts/HelloWorld5.sol\":1106:1174  3 * secs / (365 * 24 * 60 * 60) + secs / (366 * 24 * 60 * 60) + 1971 */\n      tag_297\n      swap2\n      swap1\n      tag_176\n      jump\t// in\n    tag_297:\n        /* \"contracts/HelloWorld5.sol\":1092:1174  uint256 yea = 3 * secs / (365 * 24 * 60 * 60) + secs / (366 * 24 * 60 * 60) + 1971 */\n      swap1\n      pop\n        /* \"contracts/HelloWorld5.sol\":1252:1255  yea */\n      dup1\n        /* \"contracts/HelloWorld5.sol\":1245:1255  return yea */\n      swap3\n      pop\n      pop\n      pop\n        /* \"contracts/HelloWorld5.sol\":986:1262  function toYear(uint256 value) internal pure returns (uint y) {... */\n      swap2\n      swap1\n      pop\n      jump\t// out\n        /* \"#utility.yul\":7:106   */\n    tag_298:\n        /* \"#utility.yul\":59:65   */\n      0x00\n        /* \"#utility.yul\":93:98   */\n      dup2\n        /* \"#utility.yul\":87:99   */\n      mload\n        /* \"#utility.yul\":77:99   */\n      swap1\n      pop\n        /* \"#utility.yul\":7:106   */\n      swap2\n      swap1\n      pop\n      jump\t// out\n        /* \"#utility.yul\":112:281   */\n    tag_299:\n        /* \"#utility.yul\":196:207   */\n      0x00\n        /* \"#utility.yul\":230:236   */\n      dup3\n        /* \"#utility.yul\":225:228   */\n      dup3\n        /* \"#utility.yul\":218:237   */\n      mstore\n        /* \"#utility.yul\":270:274   */\n      0x20\n        /* \"#utility.yul\":265:268   */\n      dup3\n        /* \"#utility.yul\":261:275   */\n      add\n        /* \"#utility.yul\":246:275   */\n      swap1\n      pop\n        /* \"#utility.yul\":112:281   */\n      swap3\n      swap2\n      pop\n      pop\n      jump\t// out\n        /* \"#utility.yul\":287:533   */\n    tag_300:\n        /* \"#utility.yul\":368:369   */\n      0x00\n        /* \"#utility.yul\":378:491   */\n    tag_332:\n        /* \"#utility.yul\":392:398   */\n      dup4\n        /* \"#utility.yul\":389:390   */\n      dup2\n        /* \"#utility.yul\":386:399   */\n      lt\n        /* \"#utility.yul\":378:491   */\n      iszero\n      tag_334\n      jumpi\n        /* \"#utility.yul\":477:478   */\n      dup1\n        /* \"#utility.yul\":472:475   */\n      dup3\n        /* \"#utility.yul\":468:479   */\n      add\n        /* \"#utility.yul\":462:480   */\n      mload\n        /* \"#utility.yul\":458:459   */\n      dup2\n        /* \"#utility.yul\":453:456   */\n      dup5\n        /* \"#utility.yul\":449:460   */\n      add\n        /* \"#utility.yul\":442:481   */\n      mstore\n        /* \"#utility.yul\":414:416   */\n      0x20\n        /* \"#utility.yul\":411:412   */\n      dup2\n        /* \"#utility.yul\":407:417   */\n      add\n        /* \"#utility.yul\":402:417   */\n      swap1\n      pop\n        /* \"#utility.yul\":378:491   */\n      jump(tag_332)\n    tag_334:\n        /* \"#utility.yul\":525:526   */\n      0x00\n        /* \"#utility.yul\":516:522   */\n      dup5\n        /* \"#utility.yul\":511:514   */\n      dup5\n        /* \"#utility.yul\":507:523   */\n      add\n        /* \"#utility.yul\":500:527   */\n      mstore\n        /* \"#utility.yul\":349:533   */\n      pop\n        /* \"#utility.yul\":287:533   */\n      pop\n      pop\n      pop\n      jump\t// out\n        /* \"#utility.yul\":539:641   */\n    tag_301:\n        /* \"#utility.yul\":580:586   */\n      0x00\n        /* \"#utility.yul\":631:633   */\n      0x1f\n        /* \"#utility.yul\":627:634   */\n      not\n        /* \"#utility.yul\":622:624   */\n      0x1f\n        /* \"#utility.yul\":615:620   */\n      dup4\n        /* \"#utility.yul\":611:625   */\n      add\n        /* \"#utility.yul\":607:635   */\n      and\n        /* \"#utility.yul\":597:635   */\n      swap1\n      pop\n        /* \"#utility.yul\":539:641   */\n      swap2\n      swap1\n      pop\n      jump\t// out\n        /* \"#utility.yul\":647:1024   */\n    tag_302:\n        /* \"#utility.yul\":735:738   */\n      0x00\n        /* \"#utility.yul\":763:802   */\n      tag_337\n        /* \"#utility.yul\":796:801   */\n      dup3\n        /* \"#utility.yul\":763:802   */\n      tag_298\n      jump\t// in\n    tag_337:\n        /* \"#utility.yul\":818:889   */\n      tag_338\n        /* \"#utility.yul\":882:888   */\n      dup2\n        /* \"#utility.yul\":877:880   */\n      dup6\n        /* \"#utility.yul\":818:889   */\n      tag_299\n      jump\t// in\n    tag_338:\n        /* \"#utility.yul\":811:889   */\n      swap4\n      pop\n        /* \"#utility.yul\":898:963   */\n      tag_339\n        /* \"#utility.yul\":956:962   */\n      dup2\n        /* \"#utility.yul\":951:954   */\n      dup6\n        /* \"#utility.yul\":944:948   */\n      0x20\n        /* \"#utility.yul\":937:942   */\n      dup7\n        /* \"#utility.yul\":933:949   */\n      add\n        /* \"#utility.yul\":898:963   */\n      tag_300\n      jump\t// in\n    tag_339:\n        /* \"#utility.yul\":988:1017   */\n      tag_340\n        /* \"#utility.yul\":1010:1016   */\n      dup2\n        /* \"#utility.yul\":988:1017   */\n      tag_301\n      jump\t// in\n    tag_340:\n        /* \"#utility.yul\":983:986   */\n      dup5\n        /* \"#utility.yul\":979:1018   */\n      add\n        /* \"#utility.yul\":972:1018   */\n      swap2\n      pop\n        /* \"#utility.yul\":739:1024   */\n      pop\n        /* \"#utility.yul\":647:1024   */\n      swap3\n      swap2\n      pop\n      pop\n      jump\t// out\n        /* \"#utility.yul\":1030:1343   */\n    tag_24:\n        /* \"#utility.yul\":1143:1147   */\n      0x00\n        /* \"#utility.yul\":1181:1183   */\n      0x20\n        /* \"#utility.yul\":1170:1179   */\n      dup3\n        /* \"#utility.yul\":1166:1184   */\n      add\n        /* \"#utility.yul\":1158:1184   */\n      swap1\n      pop\n        /* \"#utility.yul\":1230:1239   */\n      dup2\n        /* \"#utility.yul\":1224:1228   */\n      dup2\n        /* \"#utility.yul\":1220:1240   */\n      sub\n        /* \"#utility.yul\":1216:1217   */\n      0x00\n        /* \"#utility.yul\":1205:1214   */\n      dup4\n        /* \"#utility.yul\":1201:1218   */\n      add\n        /* \"#utility.yul\":1194:1241   */\n      mstore\n        /* \"#utility.yul\":1258:1336   */\n      tag_342\n        /* \"#utility.yul\":1331:1335   */\n      dup2\n        /* \"#utility.yul\":1322:1328   */\n      dup5\n        /* \"#utility.yul\":1258:1336   */\n      tag_302\n      jump\t// in\n    tag_342:\n        /* \"#utility.yul\":1250:1336   */\n      swap1\n      pop\n        /* \"#utility.yul\":1030:1343   */\n      swap3\n      swap2\n      pop\n      pop\n      jump\t// out\n        /* \"#utility.yul\":1430:1547   */\n    tag_304:\n        /* \"#utility.yul\":1539:1540   */\n      0x00\n        /* \"#utility.yul\":1536:1537   */\n      dup1\n        /* \"#utility.yul\":1529:1541   */\n      revert\n        /* \"#utility.yul\":1676:1802   */\n    tag_306:\n        /* \"#utility.yul\":1713:1720   */\n      0x00\n        /* \"#utility.yul\":1753:1795   */\n      0xffffffffffffffffffffffffffffffffffffffff\n        /* \"#utility.yul\":1746:1751   */\n      dup3\n        /* \"#utility.yul\":1742:1796   */\n      and\n        /* \"#utility.yul\":1731:1796   */\n      swap1\n      pop\n        /* \"#utility.yul\":1676:1802   */\n      swap2\n      swap1\n      pop\n      jump\t// out\n        /* \"#utility.yul\":1808:1904   */\n    tag_307:\n        /* \"#utility.yul\":1845:1852   */\n      0x00\n        /* \"#utility.yul\":1874:1898   */\n      tag_348\n        /* \"#utility.yul\":1892:1897   */\n      dup3\n        /* \"#utility.yul\":1874:1898   */\n      tag_306\n      jump\t// in\n    tag_348:\n        /* \"#utility.yul\":1863:1898   */\n      swap1\n      pop\n        /* \"#utility.yul\":1808:1904   */\n      swap2\n      swap1\n      pop\n      jump\t// out\n        /* \"#utility.yul\":1910:2032   */\n    tag_308:\n        /* \"#utility.yul\":1983:2007   */\n      tag_350\n        /* \"#utility.yul\":2001:2006   */\n      dup2\n        /* \"#utility.yul\":1983:2007   */\n      tag_307\n      jump\t// in\n    tag_350:\n        /* \"#utility.yul\":1976:1981   */\n      dup2\n        /* \"#utility.yul\":1973:2008   */\n      eq\n        /* \"#utility.yul\":1963:2026   */\n      tag_351\n      jumpi\n        /* \"#utility.yul\":2022:2023   */\n      0x00\n        /* \"#utility.yul\":2019:2020   */\n      dup1\n        /* \"#utility.yul\":2012:2024   */\n      revert\n        /* \"#utility.yul\":1963:2026   */\n    tag_351:\n        /* \"#utility.yul\":1910:2032   */\n      pop\n      jump\t// out\n        /* \"#utility.yul\":2038:2177   */\n    tag_309:\n        /* \"#utility.yul\":2084:2089   */\n      0x00\n        /* \"#utility.yul\":2122:2128   */\n      dup2\n        /* \"#utility.yul\":2109:2129   */\n      calldataload\n        /* \"#utility.yul\":2100:2129   */\n      swap1\n      pop\n        /* \"#utility.yul\":2138:2171   */\n      tag_353\n        /* \"#utility.yul\":2165:2170   */\n      dup2\n        /* \"#utility.yul\":2138:2171   */\n      tag_308\n      jump\t// in\n    tag_353:\n        /* \"#utility.yul\":2038:2177   */\n      swap3\n      swap2\n      pop\n      pop\n      jump\t// out\n        /* \"#utility.yul\":2183:2260   */\n    tag_310:\n        /* \"#utility.yul\":2220:2227   */\n      0x00\n        /* \"#utility.yul\":2249:2254   */\n      dup2\n        /* \"#utility.yul\":2238:2254   */\n      swap1\n      pop\n        /* \"#utility.yul\":2183:2260   */\n      swap2\n      swap1\n      pop\n      jump\t// out\n        /* \"#utility.yul\":2266:2388   */\n    tag_311:\n        /* \"#utility.yul\":2339:2363   */\n      tag_356\n        /* \"#utility.yul\":2357:2362   */\n      dup2\n        /* \"#utility.yul\":2339:2363   */\n      tag_310\n      jump\t// in\n    tag_356:\n        /* \"#utility.yul\":2332:2337   */\n      dup2\n        /* \"#utility.yul\":2329:2364   */\n      eq\n        /* \"#utility.yul\":2319:2382   */\n      tag_357\n      jumpi\n        /* \"#utility.yul\":2378:2379   */\n      0x00\n        /* \"#utility.yul\":2375:2376   */\n      dup1\n        /* \"#utility.yul\":2368:2380   */\n      revert\n        /* \"#utility.yul\":2319:2382   */\n    tag_357:\n        /* \"#utility.yul\":2266:2388   */\n      pop\n      jump\t// out\n        /* \"#utility.yul\":2394:2533   */\n    tag_312:\n        /* \"#utility.yul\":2440:2445   */\n      0x00\n        /* \"#utility.yul\":2478:2484   */\n      dup2\n        /* \"#utility.yul\":2465:2485   */\n      calldataload\n        /* \"#utility.yul\":2456:2485   */\n      swap1\n      pop\n        /* \"#utility.yul\":2494:2527   */\n      tag_359\n        /* \"#utility.yul\":2521:2526   */\n      dup2\n        /* \"#utility.yul\":2494:2527   */\n      tag_311\n      jump\t// in\n    tag_359:\n        /* \"#utility.yul\":2394:2533   */\n      swap3\n      swap2\n      pop\n      pop\n      jump\t// out\n        /* \"#utility.yul\":2539:3013   */\n    tag_27:\n        /* \"#utility.yul\":2607:2613   */\n      0x00\n        /* \"#utility.yul\":2615:2621   */\n      dup1\n        /* \"#utility.yul\":2664:2666   */\n      0x40\n        /* \"#utility.yul\":2652:2661   */\n      dup4\n        /* \"#utility.yul\":2643:2650   */\n      dup6\n        /* \"#utility.yul\":2639:2662   */\n      sub\n        /* \"#utility.yul\":2635:2667   */\n      slt\n        /* \"#utility.yul\":2632:2751   */\n      iszero\n      tag_361\n      jumpi\n        /* \"#utility.yul\":2670:2749   */\n      tag_362\n      tag_304\n      jump\t// in\n    tag_362:\n        /* \"#utility.yul\":2632:2751   */\n    tag_361:\n        /* \"#utility.yul\":2790:2791   */\n      0x00\n        /* \"#utility.yul\":2815:2868   */\n      tag_363\n        /* \"#utility.yul\":2860:2867   */\n      dup6\n        /* \"#utility.yul\":2851:2857   */\n      dup3\n        /* \"#utility.yul\":2840:2849   */\n      dup7\n        /* \"#utility.yul\":2836:2858   */\n      add\n        /* \"#utility.yul\":2815:2868   */\n      tag_309\n      jump\t// in\n    tag_363:\n        /* \"#utility.yul\":2805:2868   */\n      swap3\n      pop\n        /* \"#utility.yul\":2761:2878   */\n      pop\n        /* \"#utility.yul\":2917:2919   */\n      0x20\n        /* \"#utility.yul\":2943:2996   */\n      tag_364\n        /* \"#utility.yul\":2988:2995   */\n      dup6\n        /* \"#utility.yul\":2979:2985   */\n      dup3\n        /* \"#utility.yul\":2968:2977   */\n      dup7\n        /* \"#utility.yul\":2964:2986   */\n      add\n        /* \"#utility.yul\":2943:2996   */\n      tag_312\n      jump\t// in\n    tag_364:\n        /* \"#utility.yul\":2933:2996   */\n      swap2\n      pop\n        /* \"#utility.yul\":2888:3006   */\n      pop\n        /* \"#utility.yul\":2539:3013   */\n      swap3\n      pop\n      swap3\n      swap1\n      pop\n      jump\t// out\n        /* \"#utility.yul\":3019:3109   */\n    tag_313:\n        /* \"#utility.yul\":3053:3060   */\n      0x00\n        /* \"#utility.yul\":3096:3101   */\n      dup2\n        /* \"#utility.yul\":3089:3102   */\n      iszero\n        /* \"#utility.yul\":3082:3103   */\n      iszero\n        /* \"#utility.yul\":3071:3103   */\n      swap1\n      pop\n        /* \"#utility.yul\":3019:3109   */\n      swap2\n      swap1\n      pop\n      jump\t// out\n        /* \"#utility.yul\":3115:3224   */\n    tag_314:\n        /* \"#utility.yul\":3196:3217   */\n      tag_367\n        /* \"#utility.yul\":3211:3216   */\n      dup2\n        /* \"#utility.yul\":3196:3217   */\n      tag_313\n      jump\t// in\n    tag_367:\n        /* \"#utility.yul\":3191:3194   */\n      dup3\n        /* \"#utility.yul\":3184:3218   */\n      mstore\n        /* \"#utility.yul\":3115:3224   */\n      pop\n      pop\n      jump\t// out\n        /* \"#utility.yul\":3230:3440   */\n    tag_30:\n        /* \"#utility.yul\":3317:3321   */\n      0x00\n        /* \"#utility.yul\":3355:3357   */\n      0x20\n        /* \"#utility.yul\":3344:3353   */\n      dup3\n        /* \"#utility.yul\":3340:3358   */\n      add\n        /* \"#utility.yul\":3332:3358   */\n      swap1\n      pop\n        /* \"#utility.yul\":3368:3433   */\n      tag_369\n        /* \"#utility.yul\":3430:3431   */\n      0x00\n        /* \"#utility.yul\":3419:3428   */\n      dup4\n        /* \"#utility.yul\":3415:3432   */\n      add\n        /* \"#utility.yul\":3406:3412   */\n      dup5\n        /* \"#utility.yul\":3368:3433   */\n      tag_314\n      jump\t// in\n    tag_369:\n        /* \"#utility.yul\":3230:3440   */\n      swap3\n      swap2\n      pop\n      pop\n      jump\t// out\n        /* \"#utility.yul\":3446:3564   */\n    tag_315:\n        /* \"#utility.yul\":3533:3557   */\n      tag_371\n        /* \"#utility.yul\":3551:3556   */\n      dup2\n        /* \"#utility.yul\":3533:3557   */\n      tag_310\n      jump\t// in\n    tag_371:\n        /* \"#utility.yul\":3528:3531   */\n      dup3\n        /* \"#utility.yul\":3521:3558   */\n      mstore\n        /* \"#utility.yul\":3446:3564   */\n      pop\n      pop\n      jump\t// out\n        /* \"#utility.yul\":3570:3792   */\n    tag_34:\n        /* \"#utility.yul\":3663:3667   */\n      0x00\n        /* \"#utility.yul\":3701:3703   */\n      0x20\n        /* \"#utility.yul\":3690:3699   */\n      dup3\n        /* \"#utility.yul\":3686:3704   */\n      add\n        /* \"#utility.yul\":3678:3704   */\n      swap1\n      pop\n        /* \"#utility.yul\":3714:3785   */\n      tag_373\n        /* \"#utility.yul\":3782:3783   */\n      0x00\n        /* \"#utility.yul\":3771:3780   */\n      dup4\n        /* \"#utility.yul\":3767:3784   */\n      add\n        /* \"#utility.yul\":3758:3764   */\n      dup5\n        /* \"#utility.yul\":3714:3785   */\n      tag_315\n      jump\t// in\n    tag_373:\n        /* \"#utility.yul\":3570:3792   */\n      swap3\n      swap2\n      pop\n      pop\n      jump\t// out\n        /* \"#utility.yul\":3798:4417   */\n    tag_37:\n        /* \"#utility.yul\":3875:3881   */\n      0x00\n        /* \"#utility.yul\":3883:3889   */\n      dup1\n        /* \"#utility.yul\":3891:3897   */\n      0x00\n        /* \"#utility.yul\":3940:3942   */\n      0x60\n        /* \"#utility.yul\":3928:3937   */\n      dup5\n        /* \"#utility.yul\":3919:3926   */\n      dup7\n        /* \"#utility.yul\":3915:3938   */\n      sub\n        /* \"#utility.yul\":3911:3943   */\n      slt\n        /* \"#utility.yul\":3908:4027   */\n      iszero\n      tag_375\n      jumpi\n        /* \"#utility.yul\":3946:4025   */\n      tag_376\n      tag_304\n      jump\t// in\n    tag_376:\n        /* \"#utility.yul\":3908:4027   */\n    tag_375:\n        /* \"#utility.yul\":4066:4067   */\n      0x00\n        /* \"#utility.yul\":4091:4144   */\n      tag_377\n        /* \"#utility.yul\":4136:4143   */\n      dup7\n        /* \"#utility.yul\":4127:4133   */\n      dup3\n        /* \"#utility.yul\":4116:4125   */\n      dup8\n        /* \"#utility.yul\":4112:4134   */\n      add\n        /* \"#utility.yul\":4091:4144   */\n      tag_309\n      jump\t// in\n    tag_377:\n        /* \"#utility.yul\":4081:4144   */\n      swap4\n      pop\n        /* \"#utility.yul\":4037:4154   */\n      pop\n        /* \"#utility.yul\":4193:4195   */\n      0x20\n        /* \"#utility.yul\":4219:4272   */\n      tag_378\n        /* \"#utility.yul\":4264:4271   */\n      dup7\n        /* \"#utility.yul\":4255:4261   */\n      dup3\n        /* \"#utility.yul\":4244:4253   */\n      dup8\n        /* \"#utility.yul\":4240:4262   */\n      add\n        /* \"#utility.yul\":4219:4272   */\n      tag_309\n      jump\t// in\n    tag_378:\n        /* \"#utility.yul\":4209:4272   */\n      swap3\n      pop\n        /* \"#utility.yul\":4164:4282   */\n      pop\n        /* \"#utility.yul\":4321:4323   */\n      0x40\n        /* \"#utility.yul\":4347:4400   */\n      tag_379\n        /* \"#utility.yul\":4392:4399   */\n      dup7\n        /* \"#utility.yul\":4383:4389   */\n      dup3\n        /* \"#utility.yul\":4372:4381   */\n      dup8\n        /* \"#utility.yul\":4368:4390   */\n      add\n        /* \"#utility.yul\":4347:4400   */\n      tag_312\n      jump\t// in\n    tag_379:\n        /* \"#utility.yul\":4337:4400   */\n      swap2\n      pop\n        /* \"#utility.yul\":4292:4410   */\n      pop\n        /* \"#utility.yul\":3798:4417   */\n      swap3\n      pop\n      swap3\n      pop\n      swap3\n      jump\t// out\n        /* \"#utility.yul\":4423:4509   */\n    tag_316:\n        /* \"#utility.yul\":4458:4465   */\n      0x00\n        /* \"#utility.yul\":4498:4502   */\n      0xff\n        /* \"#utility.yul\":4491:4496   */\n      dup3\n        /* \"#utility.yul\":4487:4503   */\n      and\n        /* \"#utility.yul\":4476:4503   */\n      swap1\n      pop\n        /* \"#utility.yul\":4423:4509   */\n      swap2\n      swap1\n      pop\n      jump\t// out\n        /* \"#utility.yul\":4515:4627   */\n    tag_317:\n        /* \"#utility.yul\":4598:4620   */\n      tag_382\n        /* \"#utility.yul\":4614:4619   */\n      dup2\n        /* \"#utility.yul\":4598:4620   */\n      tag_316\n      jump\t// in\n    tag_382:\n        /* \"#utility.yul\":4593:4596   */\n      dup3\n        /* \"#utility.yul\":4586:4621   */\n      mstore\n        /* \"#utility.yul\":4515:4627   */\n      pop\n      pop\n      jump\t// out\n        /* \"#utility.yul\":4633:4847   */\n    tag_46:\n        /* \"#utility.yul\":4722:4726   */\n      0x00\n        /* \"#utility.yul\":4760:4762   */\n      0x20\n        /* \"#utility.yul\":4749:4758   */\n      dup3\n        /* \"#utility.yul\":4745:4763   */\n      add\n        /* \"#utility.yul\":4737:4763   */\n      swap1\n      pop\n        /* \"#utility.yul\":4773:4840   */\n      tag_384\n        /* \"#utility.yul\":4837:4838   */\n      0x00\n        /* \"#utility.yul\":4826:4835   */\n      dup4\n        /* \"#utility.yul\":4822:4839   */\n      add\n        /* \"#utility.yul\":4813:4819   */\n      dup5\n        /* \"#utility.yul\":4773:4840   */\n      tag_317\n      jump\t// in\n    tag_384:\n        /* \"#utility.yul\":4633:4847   */\n      swap3\n      swap2\n      pop\n      pop\n      jump\t// out\n        /* \"#utility.yul\":4853:5182   */\n    tag_52:\n        /* \"#utility.yul\":4912:4918   */\n      0x00\n        /* \"#utility.yul\":4961:4963   */\n      0x20\n        /* \"#utility.yul\":4949:4958   */\n      dup3\n        /* \"#utility.yul\":4940:4947   */\n      dup5\n        /* \"#utility.yul\":4936:4959   */\n      sub\n        /* \"#utility.yul\":4932:4964   */\n      slt\n        /* \"#utility.yul\":4929:5048   */\n      iszero\n      tag_386\n      jumpi\n        /* \"#utility.yul\":4967:5046   */\n      tag_387\n      tag_304\n      jump\t// in\n    tag_387:\n        /* \"#utility.yul\":4929:5048   */\n    tag_386:\n        /* \"#utility.yul\":5087:5088   */\n      0x00\n        /* \"#utility.yul\":5112:5165   */\n      tag_388\n        /* \"#utility.yul\":5157:5164   */\n      dup5\n        /* \"#utility.yul\":5148:5154   */\n      dup3\n        /* \"#utility.yul\":5137:5146   */\n      dup6\n        /* \"#utility.yul\":5133:5155   */\n      add\n        /* \"#utility.yul\":5112:5165   */\n      tag_312\n      jump\t// in\n    tag_388:\n        /* \"#utility.yul\":5102:5165   */\n      swap2\n      pop\n        /* \"#utility.yul\":5058:5175   */\n      pop\n        /* \"#utility.yul\":4853:5182   */\n      swap3\n      swap2\n      pop\n      pop\n      jump\t// out\n        /* \"#utility.yul\":5188:5517   */\n    tag_56:\n        /* \"#utility.yul\":5247:5253   */\n      0x00\n        /* \"#utility.yul\":5296:5298   */\n      0x20\n        /* \"#utility.yul\":5284:5293   */\n      dup3\n        /* \"#utility.yul\":5275:5282   */\n      dup5\n        /* \"#utility.yul\":5271:5294   */\n      sub\n        /* \"#utility.yul\":5267:5299   */\n      slt\n        /* \"#utility.yul\":5264:5383   */\n      iszero\n      tag_390\n      jumpi\n        /* \"#utility.yul\":5302:5381   */\n      tag_391\n      tag_304\n      jump\t// in\n    tag_391:\n        /* \"#utility.yul\":5264:5383   */\n    tag_390:\n        /* \"#utility.yul\":5422:5423   */\n      0x00\n        /* \"#utility.yul\":5447:5500   */\n      tag_392\n        /* \"#utility.yul\":5492:5499   */\n      dup5\n        /* \"#utility.yul\":5483:5489   */\n      dup3\n        /* \"#utility.yul\":5472:5481   */\n      dup6\n        /* \"#utility.yul\":5468:5490   */\n      add\n        /* \"#utility.yul\":5447:5500   */\n      tag_309\n      jump\t// in\n    tag_392:\n        /* \"#utility.yul\":5437:5500   */\n      swap2\n      pop\n        /* \"#utility.yul\":5393:5510   */\n      pop\n        /* \"#utility.yul\":5188:5517   */\n      swap3\n      swap2\n      pop\n      pop\n      jump\t// out\n        /* \"#utility.yul\":5523:5641   */\n    tag_318:\n        /* \"#utility.yul\":5610:5634   */\n      tag_394\n        /* \"#utility.yul\":5628:5633   */\n      dup2\n        /* \"#utility.yul\":5610:5634   */\n      tag_307\n      jump\t// in\n    tag_394:\n        /* \"#utility.yul\":5605:5608   */\n      dup3\n        /* \"#utility.yul\":5598:5635   */\n      mstore\n        /* \"#utility.yul\":5523:5641   */\n      pop\n      pop\n      jump\t// out\n        /* \"#utility.yul\":5647:5869   */\n    tag_69:\n        /* \"#utility.yul\":5740:5744   */\n      0x00\n        /* \"#utility.yul\":5778:5780   */\n      0x20\n        /* \"#utility.yul\":5767:5776   */\n      dup3\n        /* \"#utility.yul\":5763:5781   */\n      add\n        /* \"#utility.yul\":5755:5781   */\n      swap1\n      pop\n        /* \"#utility.yul\":5791:5862   */\n      tag_396\n        /* \"#utility.yul\":5859:5860   */\n      0x00\n        /* \"#utility.yul\":5848:5857   */\n      dup4\n        /* \"#utility.yul\":5844:5861   */\n      add\n        /* \"#utility.yul\":5835:5841   */\n      dup5\n        /* \"#utility.yul\":5791:5862   */\n      tag_318\n      jump\t// in\n    tag_396:\n        /* \"#utility.yul\":5647:5869   */\n      swap3\n      swap2\n      pop\n      pop\n      jump\t// out\n        /* \"#utility.yul\":5875:6349   */\n    tag_75:\n        /* \"#utility.yul\":5943:5949   */\n      0x00\n        /* \"#utility.yul\":5951:5957   */\n      dup1\n        /* \"#utility.yul\":6000:6002   */\n      0x40\n        /* \"#utility.yul\":5988:5997   */\n      dup4\n        /* \"#utility.yul\":5979:5986   */\n      dup6\n        /* \"#utility.yul\":5975:5998   */\n      sub\n        /* \"#utility.yul\":5971:6003   */\n      slt\n        /* \"#utility.yul\":5968:6087   */\n      iszero\n      tag_398\n      jumpi\n        /* \"#utility.yul\":6006:6085   */\n      tag_399\n      tag_304\n      jump\t// in\n    tag_399:\n        /* \"#utility.yul\":5968:6087   */\n    tag_398:\n        /* \"#utility.yul\":6126:6127   */\n      0x00\n        /* \"#utility.yul\":6151:6204   */\n      tag_400\n        /* \"#utility.yul\":6196:6203   */\n      dup6\n        /* \"#utility.yul\":6187:6193   */\n      dup3\n        /* \"#utility.yul\":6176:6185   */\n      dup7\n        /* \"#utility.yul\":6172:6194   */\n      add\n        /* \"#utility.yul\":6151:6204   */\n      tag_309\n      jump\t// in\n    tag_400:\n        /* \"#utility.yul\":6141:6204   */\n      swap3\n      pop\n        /* \"#utility.yul\":6097:6214   */\n      pop\n        /* \"#utility.yul\":6253:6255   */\n      0x20\n        /* \"#utility.yul\":6279:6332   */\n      tag_401\n        /* \"#utility.yul\":6324:6331   */\n      dup6\n        /* \"#utility.yul\":6315:6321   */\n      dup3\n        /* \"#utility.yul\":6304:6313   */\n      dup7\n        /* \"#utility.yul\":6300:6322   */\n      add\n        /* \"#utility.yul\":6279:6332   */\n      tag_309\n      jump\t// in\n    tag_401:\n        /* \"#utility.yul\":6269:6332   */\n      swap2\n      pop\n        /* \"#utility.yul\":6224:6342   */\n      pop\n        /* \"#utility.yul\":5875:6349   */\n      swap3\n      pop\n      swap3\n      swap1\n      pop\n      jump\t// out\n        /* \"#utility.yul\":6355:6535   */\n    tag_319:\n        /* \"#utility.yul\":6403:6480   */\n      0x4e487b7100000000000000000000000000000000000000000000000000000000\n        /* \"#utility.yul\":6400:6401   */\n      0x00\n        /* \"#utility.yul\":6393:6481   */\n      mstore\n        /* \"#utility.yul\":6500:6504   */\n      0x22\n        /* \"#utility.yul\":6497:6498   */\n      0x04\n        /* \"#utility.yul\":6490:6505   */\n      mstore\n        /* \"#utility.yul\":6524:6528   */\n      0x24\n        /* \"#utility.yul\":6521:6522   */\n      0x00\n        /* \"#utility.yul\":6514:6529   */\n      revert\n        /* \"#utility.yul\":6541:6861   */\n    tag_83:\n        /* \"#utility.yul\":6585:6591   */\n      0x00\n        /* \"#utility.yul\":6622:6623   */\n      0x02\n        /* \"#utility.yul\":6616:6620   */\n      dup3\n        /* \"#utility.yul\":6612:6624   */\n      div\n        /* \"#utility.yul\":6602:6624   */\n      swap1\n      pop\n        /* \"#utility.yul\":6669:6670   */\n      0x01\n        /* \"#utility.yul\":6663:6667   */\n      dup3\n        /* \"#utility.yul\":6659:6671   */\n      and\n        /* \"#utility.yul\":6690:6708   */\n      dup1\n        /* \"#utility.yul\":6680:6761   */\n      tag_404\n      jumpi\n        /* \"#utility.yul\":6746:6750   */\n      0x7f\n        /* \"#utility.yul\":6738:6744   */\n      dup3\n        /* \"#utility.yul\":6734:6751   */\n      and\n        /* \"#utility.yul\":6724:6751   */\n      swap2\n      pop\n        /* \"#utility.yul\":6680:6761   */\n    tag_404:\n        /* \"#utility.yul\":6808:6810   */\n      0x20\n        /* \"#utility.yul\":6800:6806   */\n      dup3\n        /* \"#utility.yul\":6797:6811   */\n      lt\n        /* \"#utility.yul\":6777:6795   */\n      dup2\n        /* \"#utility.yul\":6774:6812   */\n      sub\n        /* \"#utility.yul\":6771:6855   */\n      tag_405\n      jumpi\n        /* \"#utility.yul\":6827:6845   */\n      tag_406\n      tag_319\n      jump\t// in\n    tag_406:\n        /* \"#utility.yul\":6771:6855   */\n    tag_405:\n        /* \"#utility.yul\":6592:6861   */\n      pop\n        /* \"#utility.yul\":6541:6861   */\n      swap2\n      swap1\n      pop\n      jump\t// out\n        /* \"#utility.yul\":6867:7027   */\n    tag_320:\n        /* \"#utility.yul\":7007:7019   */\n      0x4f6e6c792061646d696e00000000000000000000000000000000000000000000\n        /* \"#utility.yul\":7003:7004   */\n      0x00\n        /* \"#utility.yul\":6995:7001   */\n      dup3\n        /* \"#utility.yul\":6991:7005   */\n      add\n        /* \"#utility.yul\":6984:7020   */\n      mstore\n        /* \"#utility.yul\":6867:7027   */\n      pop\n      jump\t// out\n        /* \"#utility.yul\":7033:7399   */\n    tag_321:\n        /* \"#utility.yul\":7175:7178   */\n      0x00\n        /* \"#utility.yul\":7196:7263   */\n      tag_409\n        /* \"#utility.yul\":7260:7262   */\n      0x0a\n        /* \"#utility.yul\":7255:7258   */\n      dup4\n        /* \"#utility.yul\":7196:7263   */\n      tag_299\n      jump\t// in\n    tag_409:\n        /* \"#utility.yul\":7189:7263   */\n      swap2\n      pop\n        /* \"#utility.yul\":7272:7365   */\n      tag_410\n        /* \"#utility.yul\":7361:7364   */\n      dup3\n        /* \"#utility.yul\":7272:7365   */\n      tag_320\n      jump\t// in\n    tag_410:\n        /* \"#utility.yul\":7390:7392   */\n      0x20\n        /* \"#utility.yul\":7385:7388   */\n      dup3\n        /* \"#utility.yul\":7381:7393   */\n      add\n        /* \"#utility.yul\":7374:7393   */\n      swap1\n      pop\n        /* \"#utility.yul\":7033:7399   */\n      swap2\n      swap1\n      pop\n      jump\t// out\n        /* \"#utility.yul\":7405:7824   */\n    tag_104:\n        /* \"#utility.yul\":7571:7575   */\n      0x00\n        /* \"#utility.yul\":7609:7611   */\n      0x20\n        /* \"#utility.yul\":7598:7607   */\n      dup3\n        /* \"#utility.yul\":7594:7612   */\n      add\n        /* \"#utility.yul\":7586:7612   */\n      swap1\n      pop\n        /* \"#utility.yul\":7658:7667   */\n      dup2\n        /* \"#utility.yul\":7652:7656   */\n      dup2\n        /* \"#utility.yul\":7648:7668   */\n      sub\n        /* \"#utility.yul\":7644:7645   */\n      0x00\n        /* \"#utility.yul\":7633:7642   */\n      dup4\n        /* \"#utility.yul\":7629:7646   */\n      add\n        /* \"#utility.yul\":7622:7669   */\n      mstore\n        /* \"#utility.yul\":7686:7817   */\n      tag_412\n        /* \"#utility.yul\":7812:7816   */\n      dup2\n        /* \"#utility.yul\":7686:7817   */\n      tag_321\n      jump\t// in\n    tag_412:\n        /* \"#utility.yul\":7678:7817   */\n      swap1\n      pop\n        /* \"#utility.yul\":7405:7824   */\n      swap2\n      swap1\n      pop\n      jump\t// out\n        /* \"#utility.yul\":7830:8272   */\n    tag_136:\n        /* \"#utility.yul\":7979:7983   */\n      0x00\n        /* \"#utility.yul\":8017:8019   */\n      0x60\n        /* \"#utility.yul\":8006:8015   */\n      dup3\n        /* \"#utility.yul\":8002:8020   */\n      add\n        /* \"#utility.yul\":7994:8020   */\n      swap1\n      pop\n        /* \"#utility.yul\":8030:8101   */\n      tag_414\n        /* \"#utility.yul\":8098:8099   */\n      0x00\n        /* \"#utility.yul\":8087:8096   */\n      dup4\n        /* \"#utility.yul\":8083:8100   */\n      add\n        /* \"#utility.yul\":8074:8080   */\n      dup7\n        /* \"#utility.yul\":8030:8101   */\n      tag_318\n      jump\t// in\n    tag_414:\n        /* \"#utility.yul\":8111:8183   */\n      tag_415\n        /* \"#utility.yul\":8179:8181   */\n      0x20\n        /* \"#utility.yul\":8168:8177   */\n      dup4\n        /* \"#utility.yul\":8164:8182   */\n      add\n        /* \"#utility.yul\":8155:8161   */\n      dup6\n        /* \"#utility.yul\":8111:8183   */\n      tag_315\n      jump\t// in\n    tag_415:\n        /* \"#utility.yul\":8193:8265   */\n      tag_416\n        /* \"#utility.yul\":8261:8263   */\n      0x40\n        /* \"#utility.yul\":8250:8259   */\n      dup4\n        /* \"#utility.yul\":8246:8264   */\n      add\n        /* \"#utility.yul\":8237:8243   */\n      dup5\n        /* \"#utility.yul\":8193:8265   */\n      tag_315\n      jump\t// in\n    tag_416:\n        /* \"#utility.yul\":7830:8272   */\n      swap5\n      swap4\n      pop\n      pop\n      pop\n      pop\n      jump\t// out\n        /* \"#utility.yul\":8278:8426   */\n    tag_322:\n        /* \"#utility.yul\":8380:8391   */\n      0x00\n        /* \"#utility.yul\":8417:8420   */\n      dup2\n        /* \"#utility.yul\":8402:8420   */\n      swap1\n      pop\n        /* \"#utility.yul\":8278:8426   */\n      swap3\n      swap2\n      pop\n      pop\n      jump\t// out\n        /* \"#utility.yul\":8432:8822   */\n    tag_323:\n        /* \"#utility.yul\":8538:8541   */\n      0x00\n        /* \"#utility.yul\":8566:8605   */\n      tag_419\n        /* \"#utility.yul\":8599:8604   */\n      dup3\n        /* \"#utility.yul\":8566:8605   */\n      tag_298\n      jump\t// in\n    tag_419:\n        /* \"#utility.yul\":8621:8710   */\n      tag_420\n        /* \"#utility.yul\":8703:8709   */\n      dup2\n        /* \"#utility.yul\":8698:8701   */\n      dup6\n        /* \"#utility.yul\":8621:8710   */\n      tag_322\n      jump\t// in\n    tag_420:\n        /* \"#utility.yul\":8614:8710   */\n      swap4\n      pop\n        /* \"#utility.yul\":8719:8784   */\n      tag_421\n        /* \"#utility.yul\":8777:8783   */\n      dup2\n        /* \"#utility.yul\":8772:8775   */\n      dup6\n        /* \"#utility.yul\":8765:8769   */\n      0x20\n        /* \"#utility.yul\":8758:8763   */\n      dup7\n        /* \"#utility.yul\":8754:8770   */\n      add\n        /* \"#utility.yul\":8719:8784   */\n      tag_300\n      jump\t// in\n    tag_421:\n        /* \"#utility.yul\":8809:8815   */\n      dup1\n        /* \"#utility.yul\":8804:8807   */\n      dup5\n        /* \"#utility.yul\":8800:8816   */\n      add\n        /* \"#utility.yul\":8793:8816   */\n      swap2\n      pop\n        /* \"#utility.yul\":8542:8822   */\n      pop\n        /* \"#utility.yul\":8432:8822   */\n      swap3\n      swap2\n      pop\n      pop\n      jump\t// out\n        /* \"#utility.yul\":8828:8979   */\n    tag_324:\n        /* \"#utility.yul\":8968:8971   */\n      0x2f00000000000000000000000000000000000000000000000000000000000000\n        /* \"#utility.yul\":8964:8965   */\n      0x00\n        /* \"#utility.yul\":8956:8962   */\n      dup3\n        /* \"#utility.yul\":8952:8966   */\n      add\n        /* \"#utility.yul\":8945:8972   */\n      mstore\n        /* \"#utility.yul\":8828:8979   */\n      pop\n      jump\t// out\n        /* \"#utility.yul\":8985:9385   */\n    tag_325:\n        /* \"#utility.yul\":9145:9148   */\n      0x00\n        /* \"#utility.yul\":9166:9250   */\n      tag_424\n        /* \"#utility.yul\":9248:9249   */\n      0x01\n        /* \"#utility.yul\":9243:9246   */\n      dup4\n        /* \"#utility.yul\":9166:9250   */\n      tag_322\n      jump\t// in\n    tag_424:\n        /* \"#utility.yul\":9159:9250   */\n      swap2\n      pop\n        /* \"#utility.yul\":9259:9352   */\n      tag_425\n        /* \"#utility.yul\":9348:9351   */\n      dup3\n        /* \"#utility.yul\":9259:9352   */\n      tag_324\n      jump\t// in\n    tag_425:\n        /* \"#utility.yul\":9377:9378   */\n      0x01\n        /* \"#utility.yul\":9372:9375   */\n      dup3\n        /* \"#utility.yul\":9368:9379   */\n      add\n        /* \"#utility.yul\":9361:9379   */\n      swap1\n      pop\n        /* \"#utility.yul\":8985:9385   */\n      swap2\n      swap1\n      pop\n      jump\t// out\n        /* \"#utility.yul\":9391:10518   */\n    tag_165:\n        /* \"#utility.yul\":9821:9824   */\n      0x00\n        /* \"#utility.yul\":9843:9938   */\n      tag_427\n        /* \"#utility.yul\":9934:9937   */\n      dup3\n        /* \"#utility.yul\":9925:9931   */\n      dup7\n        /* \"#utility.yul\":9843:9938   */\n      tag_323\n      jump\t// in\n    tag_427:\n        /* \"#utility.yul\":9836:9938   */\n      swap2\n      pop\n        /* \"#utility.yul\":9955:10103   */\n      tag_428\n        /* \"#utility.yul\":10099:10102   */\n      dup3\n        /* \"#utility.yul\":9955:10103   */\n      tag_325\n      jump\t// in\n    tag_428:\n        /* \"#utility.yul\":9948:10103   */\n      swap2\n      pop\n        /* \"#utility.yul\":10120:10215   */\n      tag_429\n        /* \"#utility.yul\":10211:10214   */\n      dup3\n        /* \"#utility.yul\":10202:10208   */\n      dup6\n        /* \"#utility.yul\":10120:10215   */\n      tag_323\n      jump\t// in\n    tag_429:\n        /* \"#utility.yul\":10113:10215   */\n      swap2\n      pop\n        /* \"#utility.yul\":10232:10380   */\n      tag_430\n        /* \"#utility.yul\":10376:10379   */\n      dup3\n        /* \"#utility.yul\":10232:10380   */\n      tag_325\n      jump\t// in\n    tag_430:\n        /* \"#utility.yul\":10225:10380   */\n      swap2\n      pop\n        /* \"#utility.yul\":10397:10492   */\n      tag_431\n        /* \"#utility.yul\":10488:10491   */\n      dup3\n        /* \"#utility.yul\":10479:10485   */\n      dup5\n        /* \"#utility.yul\":10397:10492   */\n      tag_323\n      jump\t// in\n    tag_431:\n        /* \"#utility.yul\":10390:10492   */\n      swap2\n      pop\n        /* \"#utility.yul\":10509:10512   */\n      dup2\n        /* \"#utility.yul\":10502:10512   */\n      swap1\n      pop\n        /* \"#utility.yul\":9391:10518   */\n      swap5\n      swap4\n      pop\n      pop\n      pop\n      pop\n      jump\t// out\n        /* \"#utility.yul\":10524:10704   */\n    tag_326:\n        /* \"#utility.yul\":10572:10649   */\n      0x4e487b7100000000000000000000000000000000000000000000000000000000\n        /* \"#utility.yul\":10569:10570   */\n      0x00\n        /* \"#utility.yul\":10562:10650   */\n      mstore\n        /* \"#utility.yul\":10669:10673   */\n      0x11\n        /* \"#utility.yul\":10666:10667   */\n      0x04\n        /* \"#utility.yul\":10659:10674   */\n      mstore\n        /* \"#utility.yul\":10693:10697   */\n      0x24\n        /* \"#utility.yul\":10690:10691   */\n      0x00\n        /* \"#utility.yul\":10683:10698   */\n      revert\n        /* \"#utility.yul\":10710:10901   */\n    tag_176:\n        /* \"#utility.yul\":10750:10753   */\n      0x00\n        /* \"#utility.yul\":10769:10789   */\n      tag_434\n        /* \"#utility.yul\":10787:10788   */\n      dup3\n        /* \"#utility.yul\":10769:10789   */\n      tag_310\n      jump\t// in\n    tag_434:\n        /* \"#utility.yul\":10764:10789   */\n      swap2\n      pop\n        /* \"#utility.yul\":10803:10823   */\n      tag_435\n        /* \"#utility.yul\":10821:10822   */\n      dup4\n        /* \"#utility.yul\":10803:10823   */\n      tag_310\n      jump\t// in\n    tag_435:\n        /* \"#utility.yul\":10798:10823   */\n      swap3\n      pop\n        /* \"#utility.yul\":10846:10847   */\n      dup3\n        /* \"#utility.yul\":10843:10844   */\n      dup3\n        /* \"#utility.yul\":10839:10848   */\n      add\n        /* \"#utility.yul\":10832:10848   */\n      swap1\n      pop\n        /* \"#utility.yul\":10867:10870   */\n      dup1\n        /* \"#utility.yul\":10864:10865   */\n      dup3\n        /* \"#utility.yul\":10861:10871   */\n      gt\n        /* \"#utility.yul\":10858:10894   */\n      iszero\n      tag_436\n      jumpi\n        /* \"#utility.yul\":10874:10892   */\n      tag_437\n      tag_326\n      jump\t// in\n    tag_437:\n        /* \"#utility.yul\":10858:10894   */\n    tag_436:\n        /* \"#utility.yul\":10710:10901   */\n      swap3\n      swap2\n      pop\n      pop\n      jump\t// out\n        /* \"#utility.yul\":10907:11101   */\n    tag_186:\n        /* \"#utility.yul\":10947:10951   */\n      0x00\n        /* \"#utility.yul\":10967:10987   */\n      tag_439\n        /* \"#utility.yul\":10985:10986   */\n      dup3\n        /* \"#utility.yul\":10967:10987   */\n      tag_310\n      jump\t// in\n    tag_439:\n        /* \"#utility.yul\":10962:10987   */\n      swap2\n      pop\n        /* \"#utility.yul\":11001:11021   */\n      tag_440\n        /* \"#utility.yul\":11019:11020   */\n      dup4\n        /* \"#utility.yul\":11001:11021   */\n      tag_310\n      jump\t// in\n    tag_440:\n        /* \"#utility.yul\":10996:11021   */\n      swap3\n      pop\n        /* \"#utility.yul\":11045:11046   */\n      dup3\n        /* \"#utility.yul\":11042:11043   */\n      dup3\n        /* \"#utility.yul\":11038:11047   */\n      sub\n        /* \"#utility.yul\":11030:11047   */\n      swap1\n      pop\n        /* \"#utility.yul\":11069:11070   */\n      dup2\n        /* \"#utility.yul\":11063:11067   */\n      dup2\n        /* \"#utility.yul\":11060:11071   */\n      gt\n        /* \"#utility.yul\":11057:11094   */\n      iszero\n      tag_441\n      jumpi\n        /* \"#utility.yul\":11074:11092   */\n      tag_442\n      tag_326\n      jump\t// in\n    tag_442:\n        /* \"#utility.yul\":11057:11094   */\n    tag_441:\n        /* \"#utility.yul\":10907:11101   */\n      swap3\n      swap2\n      pop\n      pop\n      jump\t// out\n        /* \"#utility.yul\":11107:11287   */\n    tag_327:\n        /* \"#utility.yul\":11155:11232   */\n      0x4e487b7100000000000000000000000000000000000000000000000000000000\n        /* \"#utility.yul\":11152:11153   */\n      0x00\n        /* \"#utility.yul\":11145:11233   */\n      mstore\n        /* \"#utility.yul\":11252:11256   */\n      0x12\n        /* \"#utility.yul\":11249:11250   */\n      0x04\n        /* \"#utility.yul\":11242:11257   */\n      mstore\n        /* \"#utility.yul\":11276:11280   */\n      0x24\n        /* \"#utility.yul\":11273:11274   */\n      0x00\n        /* \"#utility.yul\":11266:11281   */\n      revert\n        /* \"#utility.yul\":11293:11478   */\n    tag_188:\n        /* \"#utility.yul\":11333:11334   */\n      0x00\n        /* \"#utility.yul\":11350:11370   */\n      tag_445\n        /* \"#utility.yul\":11368:11369   */\n      dup3\n        /* \"#utility.yul\":11350:11370   */\n      tag_310\n      jump\t// in\n    tag_445:\n        /* \"#utility.yul\":11345:11370   */\n      swap2\n      pop\n        /* \"#utility.yul\":11384:11404   */\n      tag_446\n        /* \"#utility.yul\":11402:11403   */\n      dup4\n        /* \"#utility.yul\":11384:11404   */\n      tag_310\n      jump\t// in\n    tag_446:\n        /* \"#utility.yul\":11379:11404   */\n      swap3\n      pop\n        /* \"#utility.yul\":11423:11424   */\n      dup3\n        /* \"#utility.yul\":11413:11448   */\n      tag_447\n      jumpi\n        /* \"#utility.yul\":11428:11446   */\n      tag_448\n      tag_327\n      jump\t// in\n    tag_448:\n        /* \"#utility.yul\":11413:11448   */\n    tag_447:\n        /* \"#utility.yul\":11470:11471   */\n      dup3\n        /* \"#utility.yul\":11467:11468   */\n      dup3\n        /* \"#utility.yul\":11463:11472   */\n      div\n        /* \"#utility.yul\":11458:11472   */\n      swap1\n      pop\n        /* \"#utility.yul\":11293:11478   */\n      swap3\n      swap2\n      pop\n      pop\n      jump\t// out\n        /* \"#utility.yul\":11484:11660   */\n    tag_190:\n        /* \"#utility.yul\":11516:11517   */\n      0x00\n        /* \"#utility.yul\":11533:11553   */\n      tag_450\n        /* \"#utility.yul\":11551:11552   */\n      dup3\n        /* \"#utility.yul\":11533:11553   */\n      tag_310\n      jump\t// in\n    tag_450:\n        /* \"#utility.yul\":11528:11553   */\n      swap2\n      pop\n        /* \"#utility.yul\":11567:11587   */\n      tag_451\n        /* \"#utility.yul\":11585:11586   */\n      dup4\n        /* \"#utility.yul\":11567:11587   */\n      tag_310\n      jump\t// in\n    tag_451:\n        /* \"#utility.yul\":11562:11587   */\n      swap3\n      pop\n        /* \"#utility.yul\":11606:11607   */\n      dup3\n        /* \"#utility.yul\":11596:11631   */\n      tag_452\n      jumpi\n        /* \"#utility.yul\":11611:11629   */\n      tag_453\n      tag_327\n      jump\t// in\n    tag_453:\n        /* \"#utility.yul\":11596:11631   */\n    tag_452:\n        /* \"#utility.yul\":11652:11653   */\n      dup3\n        /* \"#utility.yul\":11649:11650   */\n      dup3\n        /* \"#utility.yul\":11645:11654   */\n      mod\n        /* \"#utility.yul\":11640:11654   */\n      swap1\n      pop\n        /* \"#utility.yul\":11484:11660   */\n      swap3\n      swap2\n      pop\n      pop\n      jump\t// out\n        /* \"#utility.yul\":11666:12076   */\n    tag_194:\n        /* \"#utility.yul\":11706:11713   */\n      0x00\n        /* \"#utility.yul\":11729:11749   */\n      tag_455\n        /* \"#utility.yul\":11747:11748   */\n      dup3\n        /* \"#utility.yul\":11729:11749   */\n      tag_310\n      jump\t// in\n    tag_455:\n        /* \"#utility.yul\":11724:11749   */\n      swap2\n      pop\n        /* \"#utility.yul\":11763:11783   */\n      tag_456\n        /* \"#utility.yul\":11781:11782   */\n      dup4\n        /* \"#utility.yul\":11763:11783   */\n      tag_310\n      jump\t// in\n    tag_456:\n        /* \"#utility.yul\":11758:11783   */\n      swap3\n      pop\n        /* \"#utility.yul\":11818:11819   */\n      dup3\n        /* \"#utility.yul\":11815:11816   */\n      dup3\n        /* \"#utility.yul\":11811:11820   */\n      mul\n        /* \"#utility.yul\":11840:11870   */\n      tag_457\n        /* \"#utility.yul\":11858:11869   */\n      dup2\n        /* \"#utility.yul\":11840:11870   */\n      tag_310\n      jump\t// in\n    tag_457:\n        /* \"#utility.yul\":11829:11870   */\n      swap2\n      pop\n        /* \"#utility.yul\":12019:12020   */\n      dup3\n        /* \"#utility.yul\":12010:12017   */\n      dup3\n        /* \"#utility.yul\":12006:12021   */\n      div\n        /* \"#utility.yul\":12003:12004   */\n      dup5\n        /* \"#utility.yul\":12000:12022   */\n      eq\n        /* \"#utility.yul\":11980:11981   */\n      dup4\n        /* \"#utility.yul\":11973:11982   */\n      iszero\n        /* \"#utility.yul\":11953:12036   */\n      or\n        /* \"#utility.yul\":11930:12069   */\n      tag_458\n      jumpi\n        /* \"#utility.yul\":12049:12067   */\n      tag_459\n      tag_326\n      jump\t// in\n    tag_459:\n        /* \"#utility.yul\":11930:12069   */\n    tag_458:\n        /* \"#utility.yul\":11714:12076   */\n      pop\n        /* \"#utility.yul\":11666:12076   */\n      swap3\n      swap2\n      pop\n      pop\n      jump\t// out\n        /* \"#utility.yul\":12082:12315   */\n    tag_202:\n        /* \"#utility.yul\":12121:12124   */\n      0x00\n        /* \"#utility.yul\":12144:12168   */\n      tag_461\n        /* \"#utility.yul\":12162:12167   */\n      dup3\n        /* \"#utility.yul\":12144:12168   */\n      tag_310\n      jump\t// in\n    tag_461:\n        /* \"#utility.yul\":12135:12168   */\n      swap2\n      pop\n        /* \"#utility.yul\":12190:12256   */\n      0xffffffffffffffffffffffffffffffffffffffffffffffffffffffffffffffff\n        /* \"#utility.yul\":12183:12188   */\n      dup3\n        /* \"#utility.yul\":12180:12257   */\n      sub\n        /* \"#utility.yul\":12177:12280   */\n      tag_462\n      jumpi\n        /* \"#utility.yul\":12260:12278   */\n      tag_463\n      tag_326\n      jump\t// in\n    tag_463:\n        /* \"#utility.yul\":12177:12280   */\n    tag_462:\n        /* \"#utility.yul\":12307:12308   */\n      0x01\n        /* \"#utility.yul\":12300:12305   */\n      dup3\n        /* \"#utility.yul\":12296:12309   */\n      add\n        /* \"#utility.yul\":12289:12309   */\n      swap1\n      pop\n        /* \"#utility.yul\":12082:12315   */\n      swap2\n      swap1\n      pop\n      jump\t// out\n        /* \"#utility.yul\":12321:12501   */\n    tag_206:\n        /* \"#utility.yul\":12369:12446   */\n      0x4e487b7100000000000000000000000000000000000000000000000000000000\n        /* \"#utility.yul\":12366:12367   */\n      0x00\n        /* \"#utility.yul\":12359:12447   */\n      mstore\n        /* \"#utility.yul\":12466:12470   */\n      0x41\n        /* \"#utility.yul\":12463:12464   */\n      0x04\n        /* \"#utility.yul\":12456:12471   */\n      mstore\n        /* \"#utility.yul\":12490:12494   */\n      0x24\n        /* \"#utility.yul\":12487:12488   */\n      0x00\n        /* \"#utility.yul\":12480:12495   */\n      revert\n        /* \"#utility.yul\":12507:12678   */\n    tag_211:\n        /* \"#utility.yul\":12546:12549   */\n      0x00\n        /* \"#utility.yul\":12569:12593   */\n      tag_466\n        /* \"#utility.yul\":12587:12592   */\n      dup3\n        /* \"#utility.yul\":12569:12593   */\n      tag_310\n      jump\t// in\n    tag_466:\n        /* \"#utility.yul\":12560:12593   */\n      swap2\n      pop\n        /* \"#utility.yul\":12615:12619   */\n      0x00\n        /* \"#utility.yul\":12608:12613   */\n      dup3\n        /* \"#utility.yul\":12605:12620   */\n      sub\n        /* \"#utility.yul\":12602:12643   */\n      tag_467\n      jumpi\n        /* \"#utility.yul\":12623:12641   */\n      tag_468\n      tag_326\n      jump\t// in\n    tag_468:\n        /* \"#utility.yul\":12602:12643   */\n    tag_467:\n        /* \"#utility.yul\":12670:12671   */\n      0x01\n        /* \"#utility.yul\":12663:12668   */\n      dup3\n        /* \"#utility.yul\":12659:12672   */\n      sub\n        /* \"#utility.yul\":12652:12672   */\n      swap1\n      pop\n        /* \"#utility.yul\":12507:12678   */\n      swap2\n      swap1\n      pop\n      jump\t// out\n        /* \"#utility.yul\":12684:12864   */\n    tag_216:\n        /* \"#utility.yul\":12732:12809   */\n      0x4e487b7100000000000000000000000000000000000000000000000000000000\n        /* \"#utility.yul\":12729:12730   */\n      0x00\n        /* \"#utility.yul\":12722:12810   */\n      mstore\n        /* \"#utility.yul\":12829:12833   */\n      0x32\n        /* \"#utility.yul\":12826:12827   */\n      0x04\n        /* \"#utility.yul\":12819:12834   */\n      mstore\n        /* \"#utility.yul\":12853:12857   */\n      0x24\n        /* \"#utility.yul\":12850:12851   */\n      0x00\n        /* \"#utility.yul\":12843:12858   */\n      revert\n\n    auxdata: 0xa26469706673582212207afec91a0bb0a14aa801fa6ef7090a9c1be1c69472774c3600a3dfb7ae7697de64736f6c63430008160033\n}\n",
				"bytecode": {
					"linkReferences": {},
					"object": "608060405234801562000010575f80fd5b506040518060400160405280600c81526020017f414954555f4d41475a48414e00000000000000000000000000000000000000008152506040518060400160405280600381526020017f4d474e000000000000000000000000000000000000000000000000000000000081525081600390816200008e91906200060f565b508060049081620000a091906200060f565b505050620000b7336107d0620000fd60201b60201c565b3360055f6101000a81548173ffffffffffffffffffffffffffffffffffffffff021916908373ffffffffffffffffffffffffffffffffffffffff1602179055506200081f565b5f73ffffffffffffffffffffffffffffffffffffffff168273ffffffffffffffffffffffffffffffffffffffff160362000170575f6040517fec442f0500000000000000000000000000000000000000000000000000000000815260040162000167919062000736565b60405180910390fd5b620001835f83836200018760201b60201c565b5050565b5f73ffffffffffffffffffffffffffffffffffffffff168373ffffffffffffffffffffffffffffffffffffffff1603620001db578060025f828254620001ce91906200077e565b92505081905550620002ac565b5f805f8573ffffffffffffffffffffffffffffffffffffffff1673ffffffffffffffffffffffffffffffffffffffff1681526020019081526020015f205490508181101562000267578381836040517fe450d38c0000000000000000000000000000000000000000000000000000000081526004016200025e93929190620007c9565b60405180910390fd5b8181035f808673ffffffffffffffffffffffffffffffffffffffff1673ffffffffffffffffffffffffffffffffffffffff1681526020019081526020015f2081905550505b5f73ffffffffffffffffffffffffffffffffffffffff168273ffffffffffffffffffffffffffffffffffffffff1603620002f5578060025f82825403925050819055506200033f565b805f808473ffffffffffffffffffffffffffffffffffffffff1673ffffffffffffffffffffffffffffffffffffffff1681526020019081526020015f205f82825401925050819055505b8173ffffffffffffffffffffffffffffffffffffffff168373ffffffffffffffffffffffffffffffffffffffff167fddf252ad1be2c89b69c2b068fc378daa952ba7f163c4a11628f55a4df523b3ef836040516200039e919062000804565b60405180910390a3505050565b5f81519050919050565b7f4e487b71000000000000000000000000000000000000000000000000000000005f52604160045260245ffd5b7f4e487b71000000000000000000000000000000000000000000000000000000005f52602260045260245ffd5b5f60028204905060018216806200042757607f821691505b6020821081036200043d576200043c620003e2565b5b50919050565b5f819050815f5260205f209050919050565b5f6020601f8301049050919050565b5f82821b905092915050565b5f60088302620004a17fffffffffffffffffffffffffffffffffffffffffffffffffffffffffffffffff8262000464565b620004ad868362000464565b95508019841693508086168417925050509392505050565b5f819050919050565b5f819050919050565b5f620004f7620004f1620004eb84620004c5565b620004ce565b620004c5565b9050919050565b5f819050919050565b6200051283620004d7565b6200052a6200052182620004fe565b84845462000470565b825550505050565b5f90565b6200054062000532565b6200054d81848462000507565b505050565b5b818110156200057457620005685f8262000536565b60018101905062000553565b5050565b601f821115620005c3576200058d8162000443565b620005988462000455565b81016020851015620005a8578190505b620005c0620005b78562000455565b83018262000552565b50505b505050565b5f82821c905092915050565b5f620005e55f1984600802620005c8565b1980831691505092915050565b5f620005ff8383620005d4565b9150826002028217905092915050565b6200061a82620003ab565b67ffffffffffffffff811115620006365762000635620003b5565b5b6200064282546200040f565b6200064f82828562000578565b5f60209050601f83116001811462000685575f841562000670578287015190505b6200067c8582620005f2565b865550620006eb565b601f198416620006958662000443565b5f5b82811015620006be5784890151825560018201915060208501945060208101905062000697565b86831015620006de5784890151620006da601f891682620005d4565b8355505b6001600288020188555050505b505050505050565b5f73ffffffffffffffffffffffffffffffffffffffff82169050919050565b5f6200071e82620006f3565b9050919050565b620007308162000712565b82525050565b5f6020820190506200074b5f83018462000725565b92915050565b7f4e487b71000000000000000000000000000000000000000000000000000000005f52601160045260245ffd5b5f6200078a82620004c5565b91506200079783620004c5565b9250828201905080821115620007b257620007b162000751565b5b92915050565b620007c381620004c5565b82525050565b5f606082019050620007de5f83018662000725565b620007ed6020830185620007b8565b620007fc6040830184620007b8565b949350505050565b5f602082019050620008195f830184620007b8565b92915050565b611a05806200082d5f395ff3fe608060405234801561000f575f80fd5b50600436106100f3575f3560e01c806342966c6811610095578063bead3f5011610064578063bead3f5014610285578063d45e3f4a146102a3578063dd62ed3e146102c1578063f851a440146102f1576100f3565b806342966c68146101eb57806370a082311461020757806395d89b4114610237578063a9059cbb14610255576100f3565b806323b872dd116100d157806323b872dd146101635780632ff2e9dc14610193578063313ce567146101b157806340c10f19146101cf576100f3565b806306fdde03146100f7578063095ea7b31461011557806318160ddd14610145575b5f80fd5b6100ff61030f565b60405161010c9190611358565b60405180910390f35b61012f600480360381019061012a9190611409565b61039f565b60405161013c9190611461565b60405180910390f35b61014d6103c1565b60405161015a9190611489565b60405180910390f35b61017d600480360381019061017891906114a2565b6103ca565b60405161018a9190611461565b60405180910390f35b61019b6103f8565b6040516101a89190611489565b60405180910390f35b6101b96103fe565b6040516101c6919061150d565b60405180910390f35b6101e960048036038101906101e49190611409565b610406565b005b61020560048036038101906102009190611526565b6104a3565b005b610221600480360381019061021c9190611551565b6104b0565b60405161022e9190611489565b60405180910390f35b61023f6104f5565b60405161024c9190611358565b60405180910390f35b61026f600480360381019061026a9190611409565b610585565b60405161027c9190611461565b60405180910390f35b61028d6105a7565b60405161029a919061158b565b60405180910390f35b6102ab6105b5565b6040516102b89190611358565b60405180910390f35b6102db60048036038101906102d691906115a4565b6105c5565b6040516102e89190611489565b60405180910390f35b6102f9610647565b604051610306919061158b565b60405180910390f35b60606003805461031e9061160f565b80601f016020809104026020016040519081016040528092919081815260200182805461034a9061160f565b80156103955780601f1061036c57610100808354040283529160200191610395565b820191905f5260205f20905b81548152906001019060200180831161037857829003601f168201915b5050505050905090565b5f806103a961066c565b90506103b6818585610673565b600191505092915050565b5f600254905090565b5f806103d461066c565b90506103e1858285610685565b6103ec858585610717565b60019150509392505050565b6107d081565b5f6012905090565b60055f9054906101000a900473ffffffffffffffffffffffffffffffffffffffff1673ffffffffffffffffffffffffffffffffffffffff163373ffffffffffffffffffffffffffffffffffffffff1614610495576040517f08c379a000000000000000000000000000000000000000000000000000000000815260040161048c90611689565b60405180910390fd5b61049f8282610807565b5050565b6104ad3382610886565b50565b5f805f8373ffffffffffffffffffffffffffffffffffffffff1673ffffffffffffffffffffffffffffffffffffffff1681526020019081526020015f20549050919050565b6060600480546105049061160f565b80601f01602080910402602001604051908101604052809291908181526020018280546105309061160f565b801561057b5780601f106105525761010080835404028352916020019161057b565b820191905f5260205f20905b81548152906001019060200180831161055e57829003601f168201915b5050505050905090565b5f8061058f61066c565b905061059c818585610717565b600191505092915050565b5f6105b061066c565b905090565b60606105c042610905565b905090565b5f60015f8473ffffffffffffffffffffffffffffffffffffffff1673ffffffffffffffffffffffffffffffffffffffff1681526020019081526020015f205f8373ffffffffffffffffffffffffffffffffffffffff1673ffffffffffffffffffffffffffffffffffffffff1681526020019081526020015f2054905092915050565b60055f9054906101000a900473ffffffffffffffffffffffffffffffffffffffff1681565b5f33905090565b6106808383836001610971565b505050565b5f61069084846105c5565b90507fffffffffffffffffffffffffffffffffffffffffffffffffffffffffffffffff81146107115781811015610702578281836040517ffb8f41b20000000000000000000000000000000000000000000000000000000081526004016106f9939291906116a7565b60405180910390fd5b61071084848484035f610971565b5b50505050565b5f73ffffffffffffffffffffffffffffffffffffffff168373ffffffffffffffffffffffffffffffffffffffff1603610787575f6040517f96c6fd1e00000000000000000000000000000000000000000000000000000000815260040161077e919061158b565b60405180910390fd5b5f73ffffffffffffffffffffffffffffffffffffffff168273ffffffffffffffffffffffffffffffffffffffff16036107f7575f6040517fec442f050000000000000000000000000000000000000000000000000000000081526004016107ee919061158b565b60405180910390fd5b610802838383610b40565b505050565b5f73ffffffffffffffffffffffffffffffffffffffff168273ffffffffffffffffffffffffffffffffffffffff1603610877575f6040517fec442f0500000000000000000000000000000000000000000000000000000000815260040161086e919061158b565b60405180910390fd5b6108825f8383610b40565b5050565b5f73ffffffffffffffffffffffffffffffffffffffff168273ffffffffffffffffffffffffffffffffffffffff16036108f6575f6040517f96c6fd1e0000000000000000000000000000000000000000000000000000000081526004016108ed919061158b565b60405180910390fd5b610901825f83610b40565b5050565b60605f61091961091484610d59565b610de0565b90505f61092d61092885610f38565b610de0565b90505f61094161093c8661126d565b610de0565b905082828260405160200161095893929190611760565b6040516020818303038152906040529350505050919050565b5f73ffffffffffffffffffffffffffffffffffffffff168473ffffffffffffffffffffffffffffffffffffffff16036109e1575f6040517fe602df050000000000000000000000000000000000000000000000000000000081526004016109d8919061158b565b60405180910390fd5b5f73ffffffffffffffffffffffffffffffffffffffff168373ffffffffffffffffffffffffffffffffffffffff1603610a51575f6040517f94280d62000000000000000000000000000000000000000000000000000000008152600401610a48919061158b565b60405180910390fd5b8160015f8673ffffffffffffffffffffffffffffffffffffffff1673ffffffffffffffffffffffffffffffffffffffff1681526020019081526020015f205f8573ffffffffffffffffffffffffffffffffffffffff1673ffffffffffffffffffffffffffffffffffffffff1681526020019081526020015f20819055508015610b3a578273ffffffffffffffffffffffffffffffffffffffff168473ffffffffffffffffffffffffffffffffffffffff167f8c5be1e5ebec7d5bd14f71427d1e84f3dd0314c0f7b2291e5b200ac8c7c3b92584604051610b319190611489565b60405180910390a35b50505050565b5f73ffffffffffffffffffffffffffffffffffffffff168373ffffffffffffffffffffffffffffffffffffffff1603610b90578060025f828254610b8491906117d3565b92505081905550610c5e565b5f805f8573ffffffffffffffffffffffffffffffffffffffff1673ffffffffffffffffffffffffffffffffffffffff1681526020019081526020015f2054905081811015610c19578381836040517fe450d38c000000000000000000000000000000000000000000000000000000008152600401610c10939291906116a7565b60405180910390fd5b8181035f808673ffffffffffffffffffffffffffffffffffffffff1673ffffffffffffffffffffffffffffffffffffffff1681526020019081526020015f2081905550505b5f73ffffffffffffffffffffffffffffffffffffffff168273ffffffffffffffffffffffffffffffffffffffff1603610ca5578060025f8282540392505081905550610cef565b805f808473ffffffffffffffffffffffffffffffffffffffff1673ffffffffffffffffffffffffffffffffffffffff1681526020019081526020015f205f82825401925050819055505b8173ffffffffffffffffffffffffffffffffffffffff168373ffffffffffffffffffffffffffffffffffffffff167fddf252ad1be2c89b69c2b068fc378daa952ba7f163c4a11628f55a4df523b3ef83604051610d4c9190611489565b60405180910390a3505050565b5f80610d648361126d565b90505f6107b282610d759190611806565b90505f6201518085610d879190611866565b90505f80600485610d989190611896565b03610da75761016d9050610dad565b61016c90505b5f600c8285610dbc91906118c6565b84610dc79190611806565b610dd19190611806565b90508095505050505050919050565b60605f8203610e26576040518060400160405280600181526020017f30000000000000000000000000000000000000000000000000000000000000008152509050610f33565b5f8290505f5b5f8214610e55578080610e3e90611907565b915050600a82610e4e9190611866565b9150610e2c565b5f8167ffffffffffffffff811115610e7057610e6f61194e565b5b6040519080825280601f01601f191660200182016040528015610ea25781602001600182028036833780820191505090505b5090505b5f8514610f2c578180610eb89061197b565b925050600a85610ec89190611896565b6030610ed491906117d3565b60f81b818381518110610eea57610ee96119a2565b5b60200101907effffffffffffffffffffffffffffffffffffffffffffffffffffffffffffff191690815f1a905350600a85610f259190611866565b9450610ea6565b8093505050505b919050565b5f80610f438361126d565b90505f80600483610f549190611896565b03610f635761016e9050610f69565b61016d90505b5f610f7385610d59565b90505f601f8211610f875760019050611261565b603b8211158015610f99575061016d83145b15610fa75760029050611260565b603c8211158015610fb9575061016e83145b15610fc7576002905061125f565b605a8211158015610fd9575061016d83145b15610fe7576003905061125e565b605b8211158015610ff9575061016e83145b15611007576003905061125d565b60788211158015611019575061016d83145b15611027576004905061125c565b60798211158015611039575061016e83145b15611047576004905061125b565b60978211158015611059575061016d83145b15611067576005905061125a565b60988211158015611079575061016e83145b156110875760059050611259565b60b58211158015611099575061016d83145b156110a75760069050611258565b60b682111580156110b9575061016e83145b156110c75760069050611257565b60d482111580156110d9575061016d83145b156110e75760079050611256565b60d582111580156110f9575061016e83145b156111075760079050611255565b60f38211158015611119575061016d83145b156111275760089050611254565b60f48211158015611139575061016e83145b156111475760089050611253565b610111821115801561115a575061016d83145b156111685760099050611252565b610112821115801561117b575061016e83145b156111895760099050611251565b610130821115801561119c575061016d83145b156111aa57600a9050611250565b61013182111580156111bd575061016e83145b156111cb57600a905061124f565b61014e82111580156111de575061016d83145b156111ec57600b905061124e565b61014f82111580156111ff575061016e83145b1561120d57600b905061124d565b61016d8211158015611220575061016d83145b1561122e57600c905061124c565b61016e8211158015611241575061016e83145b1561124b57600c90505b5b5b5b5b5b5b5b5b5b5b5b5b5b5b5b5b5b5b5b5b5b5b80945050505050919050565b5f8060048361127c9190611866565b90505f6107b36301e28500836112929190611866565b6301e133808460036112a491906118c6565b6112ae9190611866565b6112b891906117d3565b6112c291906117d3565b90508092505050919050565b5f81519050919050565b5f82825260208201905092915050565b5f5b838110156113055780820151818401526020810190506112ea565b5f8484015250505050565b5f601f19601f8301169050919050565b5f61132a826112ce565b61133481856112d8565b93506113448185602086016112e8565b61134d81611310565b840191505092915050565b5f6020820190508181035f8301526113708184611320565b905092915050565b5f80fd5b5f73ffffffffffffffffffffffffffffffffffffffff82169050919050565b5f6113a58261137c565b9050919050565b6113b58161139b565b81146113bf575f80fd5b50565b5f813590506113d0816113ac565b92915050565b5f819050919050565b6113e8816113d6565b81146113f2575f80fd5b50565b5f81359050611403816113df565b92915050565b5f806040838503121561141f5761141e611378565b5b5f61142c858286016113c2565b925050602061143d858286016113f5565b9150509250929050565b5f8115159050919050565b61145b81611447565b82525050565b5f6020820190506114745f830184611452565b92915050565b611483816113d6565b82525050565b5f60208201905061149c5f83018461147a565b92915050565b5f805f606084860312156114b9576114b8611378565b5b5f6114c6868287016113c2565b93505060206114d7868287016113c2565b92505060406114e8868287016113f5565b9150509250925092565b5f60ff82169050919050565b611507816114f2565b82525050565b5f6020820190506115205f8301846114fe565b92915050565b5f6020828403121561153b5761153a611378565b5b5f611548848285016113f5565b91505092915050565b5f6020828403121561156657611565611378565b5b5f611573848285016113c2565b91505092915050565b6115858161139b565b82525050565b5f60208201905061159e5f83018461157c565b92915050565b5f80604083850312156115ba576115b9611378565b5b5f6115c7858286016113c2565b92505060206115d8858286016113c2565b9150509250929050565b7f4e487b71000000000000000000000000000000000000000000000000000000005f52602260045260245ffd5b5f600282049050600182168061162657607f821691505b602082108103611639576116386115e2565b5b50919050565b7f4f6e6c792061646d696e000000000000000000000000000000000000000000005f82015250565b5f611673600a836112d8565b915061167e8261163f565b602082019050919050565b5f6020820190508181035f8301526116a081611667565b9050919050565b5f6060820190506116ba5f83018661157c565b6116c7602083018561147a565b6116d4604083018461147a565b949350505050565b5f81905092915050565b5f6116f0826112ce565b6116fa81856116dc565b935061170a8185602086016112e8565b80840191505092915050565b7f2f000000000000000000000000000000000000000000000000000000000000005f82015250565b5f61174a6001836116dc565b915061175582611716565b600182019050919050565b5f61176b82866116e6565b91506117768261173e565b915061178282856116e6565b915061178d8261173e565b915061179982846116e6565b9150819050949350505050565b7f4e487b71000000000000000000000000000000000000000000000000000000005f52601160045260245ffd5b5f6117dd826113d6565b91506117e8836113d6565b9250828201905080821115611800576117ff6117a6565b5b92915050565b5f611810826113d6565b915061181b836113d6565b9250828203905081811115611833576118326117a6565b5b92915050565b7f4e487b71000000000000000000000000000000000000000000000000000000005f52601260045260245ffd5b5f611870826113d6565b915061187b836113d6565b92508261188b5761188a611839565b5b828204905092915050565b5f6118a0826113d6565b91506118ab836113d6565b9250826118bb576118ba611839565b5b828206905092915050565b5f6118d0826113d6565b91506118db836113d6565b92508282026118e9816113d6565b91508282048414831517611900576118ff6117a6565b5b5092915050565b5f611911826113d6565b91507fffffffffffffffffffffffffffffffffffffffffffffffffffffffffffffffff8203611943576119426117a6565b5b600182019050919050565b7f4e487b71000000000000000000000000000000000000000000000000000000005f52604160045260245ffd5b5f611985826113d6565b91505f8203611997576119966117a6565b5b600182039050919050565b7f4e487b71000000000000000000000000000000000000000000000000000000005f52603260045260245ffdfea26469706673582212207afec91a0bb0a14aa801fa6ef7090a9c1be1c69472774c3600a3dfb7ae7697de64736f6c63430008160033",
					"opcodes": "PUSH1 0x80 PUSH1 0x40 MSTORE CALLVALUE DUP1 ISZERO PUSH3 0x10 JUMPI PUSH0 DUP1 REVERT JUMPDEST POP PUSH1 0x40 MLOAD DUP1 PUSH1 0x40 ADD PUSH1 0x40 MSTORE DUP1 PUSH1 0xC DUP2 MSTORE PUSH1 0x20 ADD PUSH32 0x414954555F4D41475A48414E0000000000000000000000000000000000000000 DUP2 MSTORE POP PUSH1 0x40 MLOAD DUP1 PUSH1 0x40 ADD PUSH1 0x40 MSTORE DUP1 PUSH1 0x3 DUP2 MSTORE PUSH1 0x20 ADD PUSH32 0x4D474E0000000000000000000000000000000000000000000000000000000000 DUP2 MSTORE POP DUP2 PUSH1 0x3 SWAP1 DUP2 PUSH3 0x8E SWAP2 SWAP1 PUSH3 0x60F JUMP JUMPDEST POP DUP1 PUSH1 0x4 SWAP1 DUP2 PUSH3 0xA0 SWAP2 SWAP1 PUSH3 0x60F JUMP JUMPDEST POP POP POP PUSH3 0xB7 CALLER PUSH2 0x7D0 PUSH3 0xFD PUSH1 0x20 SHL PUSH1 0x20 SHR JUMP JUMPDEST CALLER PUSH1 0x5 PUSH0 PUSH2 0x100 EXP DUP2 SLOAD DUP2 PUSH20 0xFFFFFFFFFFFFFFFFFFFFFFFFFFFFFFFFFFFFFFFF MUL NOT AND SWAP1 DUP4 PUSH20 0xFFFFFFFFFFFFFFFFFFFFFFFFFFFFFFFFFFFFFFFF AND MUL OR SWAP1 SSTORE POP PUSH3 0x81F JUMP JUMPDEST PUSH0 PUSH20 0xFFFFFFFFFFFFFFFFFFFFFFFFFFFFFFFFFFFFFFFF AND DUP3 PUSH20 0xFFFFFFFFFFFFFFFFFFFFFFFFFFFFFFFFFFFFFFFF AND SUB PUSH3 0x170 JUMPI PUSH0 PUSH1 0x40 MLOAD PUSH32 0xEC442F0500000000000000000000000000000000000000000000000000000000 DUP2 MSTORE PUSH1 0x4 ADD PUSH3 0x167 SWAP2 SWAP1 PUSH3 0x736 JUMP JUMPDEST PUSH1 0x40 MLOAD DUP1 SWAP2 SUB SWAP1 REVERT JUMPDEST PUSH3 0x183 PUSH0 DUP4 DUP4 PUSH3 0x187 PUSH1 0x20 SHL PUSH1 0x20 SHR JUMP JUMPDEST POP POP JUMP JUMPDEST PUSH0 PUSH20 0xFFFFFFFFFFFFFFFFFFFFFFFFFFFFFFFFFFFFFFFF AND DUP4 PUSH20 0xFFFFFFFFFFFFFFFFFFFFFFFFFFFFFFFFFFFFFFFF AND SUB PUSH3 0x1DB JUMPI DUP1 PUSH1 0x2 PUSH0 DUP3 DUP3 SLOAD PUSH3 0x1CE SWAP2 SWAP1 PUSH3 0x77E JUMP JUMPDEST SWAP3 POP POP DUP2 SWAP1 SSTORE POP PUSH3 0x2AC JUMP JUMPDEST PUSH0 DUP1 PUSH0 DUP6 PUSH20 0xFFFFFFFFFFFFFFFFFFFFFFFFFFFFFFFFFFFFFFFF AND PUSH20 0xFFFFFFFFFFFFFFFFFFFFFFFFFFFFFFFFFFFFFFFF AND DUP2 MSTORE PUSH1 0x20 ADD SWAP1 DUP2 MSTORE PUSH1 0x20 ADD PUSH0 KECCAK256 SLOAD SWAP1 POP DUP2 DUP2 LT ISZERO PUSH3 0x267 JUMPI DUP4 DUP2 DUP4 PUSH1 0x40 MLOAD PUSH32 0xE450D38C00000000000000000000000000000000000000000000000000000000 DUP2 MSTORE PUSH1 0x4 ADD PUSH3 0x25E SWAP4 SWAP3 SWAP2 SWAP1 PUSH3 0x7C9 JUMP JUMPDEST PUSH1 0x40 MLOAD DUP1 SWAP2 SUB SWAP1 REVERT JUMPDEST DUP2 DUP2 SUB PUSH0 DUP1 DUP7 PUSH20 0xFFFFFFFFFFFFFFFFFFFFFFFFFFFFFFFFFFFFFFFF AND PUSH20 0xFFFFFFFFFFFFFFFFFFFFFFFFFFFFFFFFFFFFFFFF AND DUP2 MSTORE PUSH1 0x20 ADD SWAP1 DUP2 MSTORE PUSH1 0x20 ADD PUSH0 KECCAK256 DUP2 SWAP1 SSTORE POP POP JUMPDEST PUSH0 PUSH20 0xFFFFFFFFFFFFFFFFFFFFFFFFFFFFFFFFFFFFFFFF AND DUP3 PUSH20 0xFFFFFFFFFFFFFFFFFFFFFFFFFFFFFFFFFFFFFFFF AND SUB PUSH3 0x2F5 JUMPI DUP1 PUSH1 0x2 PUSH0 DUP3 DUP3 SLOAD SUB SWAP3 POP POP DUP2 SWAP1 SSTORE POP PUSH3 0x33F JUMP JUMPDEST DUP1 PUSH0 DUP1 DUP5 PUSH20 0xFFFFFFFFFFFFFFFFFFFFFFFFFFFFFFFFFFFFFFFF AND PUSH20 0xFFFFFFFFFFFFFFFFFFFFFFFFFFFFFFFFFFFFFFFF AND DUP2 MSTORE PUSH1 0x20 ADD SWAP1 DUP2 MSTORE PUSH1 0x20 ADD PUSH0 KECCAK256 PUSH0 DUP3 DUP3 SLOAD ADD SWAP3 POP POP DUP2 SWAP1 SSTORE POP JUMPDEST DUP2 PUSH20 0xFFFFFFFFFFFFFFFFFFFFFFFFFFFFFFFFFFFFFFFF AND DUP4 PUSH20 0xFFFFFFFFFFFFFFFFFFFFFFFFFFFFFFFFFFFFFFFF AND PUSH32 0xDDF252AD1BE2C89B69C2B068FC378DAA952BA7F163C4A11628F55A4DF523B3EF DUP4 PUSH1 0x40 MLOAD PUSH3 0x39E SWAP2 SWAP1 PUSH3 0x804 JUMP JUMPDEST PUSH1 0x40 MLOAD DUP1 SWAP2 SUB SWAP1 LOG3 POP POP POP JUMP JUMPDEST PUSH0 DUP2 MLOAD SWAP1 POP SWAP2 SWAP1 POP JUMP JUMPDEST PUSH32 0x4E487B7100000000000000000000000000000000000000000000000000000000 PUSH0 MSTORE PUSH1 0x41 PUSH1 0x4 MSTORE PUSH1 0x24 PUSH0 REVERT JUMPDEST PUSH32 0x4E487B7100000000000000000000000000000000000000000000000000000000 PUSH0 MSTORE PUSH1 0x22 PUSH1 0x4 MSTORE PUSH1 0x24 PUSH0 REVERT JUMPDEST PUSH0 PUSH1 0x2 DUP3 DIV SWAP1 POP PUSH1 0x1 DUP3 AND DUP1 PUSH3 0x427 JUMPI PUSH1 0x7F DUP3 AND SWAP2 POP JUMPDEST PUSH1 0x20 DUP3 LT DUP2 SUB PUSH3 0x43D JUMPI PUSH3 0x43C PUSH3 0x3E2 JUMP JUMPDEST JUMPDEST POP SWAP2 SWAP1 POP JUMP JUMPDEST PUSH0 DUP2 SWAP1 POP DUP2 PUSH0 MSTORE PUSH1 0x20 PUSH0 KECCAK256 SWAP1 POP SWAP2 SWAP1 POP JUMP JUMPDEST PUSH0 PUSH1 0x20 PUSH1 0x1F DUP4 ADD DIV SWAP1 POP SWAP2 SWAP1 POP JUMP JUMPDEST PUSH0 DUP3 DUP3 SHL SWAP1 POP SWAP3 SWAP2 POP POP JUMP JUMPDEST PUSH0 PUSH1 0x8 DUP4 MUL PUSH3 0x4A1 PUSH32 0xFFFFFFFFFFFFFFFFFFFFFFFFFFFFFFFFFFFFFFFFFFFFFFFFFFFFFFFFFFFFFFFF DUP3 PUSH3 0x464 JUMP JUMPDEST PUSH3 0x4AD DUP7 DUP4 PUSH3 0x464 JUMP JUMPDEST SWAP6 POP DUP1 NOT DUP5 AND SWAP4 POP DUP1 DUP7 AND DUP5 OR SWAP3 POP POP POP SWAP4 SWAP3 POP POP POP JUMP JUMPDEST PUSH0 DUP2 SWAP1 POP SWAP2 SWAP1 POP JUMP JUMPDEST PUSH0 DUP2 SWAP1 POP SWAP2 SWAP1 POP JUMP JUMPDEST PUSH0 PUSH3 0x4F7 PUSH3 0x4F1 PUSH3 0x4EB DUP5 PUSH3 0x4C5 JUMP JUMPDEST PUSH3 0x4CE JUMP JUMPDEST PUSH3 0x4C5 JUMP JUMPDEST SWAP1 POP SWAP2 SWAP1 POP JUMP JUMPDEST PUSH0 DUP2 SWAP1 POP SWAP2 SWAP1 POP JUMP JUMPDEST PUSH3 0x512 DUP4 PUSH3 0x4D7 JUMP JUMPDEST PUSH3 0x52A PUSH3 0x521 DUP3 PUSH3 0x4FE JUMP JUMPDEST DUP5 DUP5 SLOAD PUSH3 0x470 JUMP JUMPDEST DUP3 SSTORE POP POP POP POP JUMP JUMPDEST PUSH0 SWAP1 JUMP JUMPDEST PUSH3 0x540 PUSH3 0x532 JUMP JUMPDEST PUSH3 0x54D DUP2 DUP5 DUP5 PUSH3 0x507 JUMP JUMPDEST POP POP POP JUMP JUMPDEST JUMPDEST DUP2 DUP2 LT ISZERO PUSH3 0x574 JUMPI PUSH3 0x568 PUSH0 DUP3 PUSH3 0x536 JUMP JUMPDEST PUSH1 0x1 DUP2 ADD SWAP1 POP PUSH3 0x553 JUMP JUMPDEST POP POP JUMP JUMPDEST PUSH1 0x1F DUP3 GT ISZERO PUSH3 0x5C3 JUMPI PUSH3 0x58D DUP2 PUSH3 0x443 JUMP JUMPDEST PUSH3 0x598 DUP5 PUSH3 0x455 JUMP JUMPDEST DUP2 ADD PUSH1 0x20 DUP6 LT ISZERO PUSH3 0x5A8 JUMPI DUP2 SWAP1 POP JUMPDEST PUSH3 0x5C0 PUSH3 0x5B7 DUP6 PUSH3 0x455 JUMP JUMPDEST DUP4 ADD DUP3 PUSH3 0x552 JUMP JUMPDEST POP POP JUMPDEST POP POP POP JUMP JUMPDEST PUSH0 DUP3 DUP3 SHR SWAP1 POP SWAP3 SWAP2 POP POP JUMP JUMPDEST PUSH0 PUSH3 0x5E5 PUSH0 NOT DUP5 PUSH1 0x8 MUL PUSH3 0x5C8 JUMP JUMPDEST NOT DUP1 DUP4 AND SWAP2 POP POP SWAP3 SWAP2 POP POP JUMP JUMPDEST PUSH0 PUSH3 0x5FF DUP4 DUP4 PUSH3 0x5D4 JUMP JUMPDEST SWAP2 POP DUP3 PUSH1 0x2 MUL DUP3 OR SWAP1 POP SWAP3 SWAP2 POP POP JUMP JUMPDEST PUSH3 0x61A DUP3 PUSH3 0x3AB JUMP JUMPDEST PUSH8 0xFFFFFFFFFFFFFFFF DUP2 GT ISZERO PUSH3 0x636 JUMPI PUSH3 0x635 PUSH3 0x3B5 JUMP JUMPDEST JUMPDEST PUSH3 0x642 DUP3 SLOAD PUSH3 0x40F JUMP JUMPDEST PUSH3 0x64F DUP3 DUP3 DUP6 PUSH3 0x578 JUMP JUMPDEST PUSH0 PUSH1 0x20 SWAP1 POP PUSH1 0x1F DUP4 GT PUSH1 0x1 DUP2 EQ PUSH3 0x685 JUMPI PUSH0 DUP5 ISZERO PUSH3 0x670 JUMPI DUP3 DUP8 ADD MLOAD SWAP1 POP JUMPDEST PUSH3 0x67C DUP6 DUP3 PUSH3 0x5F2 JUMP JUMPDEST DUP7 SSTORE POP PUSH3 0x6EB JUMP JUMPDEST PUSH1 0x1F NOT DUP5 AND PUSH3 0x695 DUP7 PUSH3 0x443 JUMP JUMPDEST PUSH0 JUMPDEST DUP3 DUP2 LT ISZERO PUSH3 0x6BE JUMPI DUP5 DUP10 ADD MLOAD DUP3 SSTORE PUSH1 0x1 DUP3 ADD SWAP2 POP PUSH1 0x20 DUP6 ADD SWAP5 POP PUSH1 0x20 DUP2 ADD SWAP1 POP PUSH3 0x697 JUMP JUMPDEST DUP7 DUP4 LT ISZERO PUSH3 0x6DE JUMPI DUP5 DUP10 ADD MLOAD PUSH3 0x6DA PUSH1 0x1F DUP10 AND DUP3 PUSH3 0x5D4 JUMP JUMPDEST DUP4 SSTORE POP JUMPDEST PUSH1 0x1 PUSH1 0x2 DUP9 MUL ADD DUP9 SSTORE POP POP POP JUMPDEST POP POP POP POP POP POP JUMP JUMPDEST PUSH0 PUSH20 0xFFFFFFFFFFFFFFFFFFFFFFFFFFFFFFFFFFFFFFFF DUP3 AND SWAP1 POP SWAP2 SWAP1 POP JUMP JUMPDEST PUSH0 PUSH3 0x71E DUP3 PUSH3 0x6F3 JUMP JUMPDEST SWAP1 POP SWAP2 SWAP1 POP JUMP JUMPDEST PUSH3 0x730 DUP2 PUSH3 0x712 JUMP JUMPDEST DUP3 MSTORE POP POP JUMP JUMPDEST PUSH0 PUSH1 0x20 DUP3 ADD SWAP1 POP PUSH3 0x74B PUSH0 DUP4 ADD DUP5 PUSH3 0x725 JUMP JUMPDEST SWAP3 SWAP2 POP POP JUMP JUMPDEST PUSH32 0x4E487B7100000000000000000000000000000000000000000000000000000000 PUSH0 MSTORE PUSH1 0x11 PUSH1 0x4 MSTORE PUSH1 0x24 PUSH0 REVERT JUMPDEST PUSH0 PUSH3 0x78A DUP3 PUSH3 0x4C5 JUMP JUMPDEST SWAP2 POP PUSH3 0x797 DUP4 PUSH3 0x4C5 JUMP JUMPDEST SWAP3 POP DUP3 DUP3 ADD SWAP1 POP DUP1 DUP3 GT ISZERO PUSH3 0x7B2 JUMPI PUSH3 0x7B1 PUSH3 0x751 JUMP JUMPDEST JUMPDEST SWAP3 SWAP2 POP POP JUMP JUMPDEST PUSH3 0x7C3 DUP2 PUSH3 0x4C5 JUMP JUMPDEST DUP3 MSTORE POP POP JUMP JUMPDEST PUSH0 PUSH1 0x60 DUP3 ADD SWAP1 POP PUSH3 0x7DE PUSH0 DUP4 ADD DUP7 PUSH3 0x725 JUMP JUMPDEST PUSH3 0x7ED PUSH1 0x20 DUP4 ADD DUP6 PUSH3 0x7B8 JUMP JUMPDEST PUSH3 0x7FC PUSH1 0x40 DUP4 ADD DUP5 PUSH3 0x7B8 JUMP JUMPDEST SWAP5 SWAP4 POP POP POP POP JUMP JUMPDEST PUSH0 PUSH1 0x20 DUP3 ADD SWAP1 POP PUSH3 0x819 PUSH0 DUP4 ADD DUP5 PUSH3 0x7B8 JUMP JUMPDEST SWAP3 SWAP2 POP POP JUMP JUMPDEST PUSH2 0x1A05 DUP1 PUSH3 0x82D PUSH0 CODECOPY PUSH0 RETURN INVALID PUSH1 0x80 PUSH1 0x40 MSTORE CALLVALUE DUP1 ISZERO PUSH2 0xF JUMPI PUSH0 DUP1 REVERT JUMPDEST POP PUSH1 0x4 CALLDATASIZE LT PUSH2 0xF3 JUMPI PUSH0 CALLDATALOAD PUSH1 0xE0 SHR DUP1 PUSH4 0x42966C68 GT PUSH2 0x95 JUMPI DUP1 PUSH4 0xBEAD3F50 GT PUSH2 0x64 JUMPI DUP1 PUSH4 0xBEAD3F50 EQ PUSH2 0x285 JUMPI DUP1 PUSH4 0xD45E3F4A EQ PUSH2 0x2A3 JUMPI DUP1 PUSH4 0xDD62ED3E EQ PUSH2 0x2C1 JUMPI DUP1 PUSH4 0xF851A440 EQ PUSH2 0x2F1 JUMPI PUSH2 0xF3 JUMP JUMPDEST DUP1 PUSH4 0x42966C68 EQ PUSH2 0x1EB JUMPI DUP1 PUSH4 0x70A08231 EQ PUSH2 0x207 JUMPI DUP1 PUSH4 0x95D89B41 EQ PUSH2 0x237 JUMPI DUP1 PUSH4 0xA9059CBB EQ PUSH2 0x255 JUMPI PUSH2 0xF3 JUMP JUMPDEST DUP1 PUSH4 0x23B872DD GT PUSH2 0xD1 JUMPI DUP1 PUSH4 0x23B872DD EQ PUSH2 0x163 JUMPI DUP1 PUSH4 0x2FF2E9DC EQ PUSH2 0x193 JUMPI DUP1 PUSH4 0x313CE567 EQ PUSH2 0x1B1 JUMPI DUP1 PUSH4 0x40C10F19 EQ PUSH2 0x1CF JUMPI PUSH2 0xF3 JUMP JUMPDEST DUP1 PUSH4 0x6FDDE03 EQ PUSH2 0xF7 JUMPI DUP1 PUSH4 0x95EA7B3 EQ PUSH2 0x115 JUMPI DUP1 PUSH4 0x18160DDD EQ PUSH2 0x145 JUMPI JUMPDEST PUSH0 DUP1 REVERT JUMPDEST PUSH2 0xFF PUSH2 0x30F JUMP JUMPDEST PUSH1 0x40 MLOAD PUSH2 0x10C SWAP2 SWAP1 PUSH2 0x1358 JUMP JUMPDEST PUSH1 0x40 MLOAD DUP1 SWAP2 SUB SWAP1 RETURN JUMPDEST PUSH2 0x12F PUSH1 0x4 DUP1 CALLDATASIZE SUB DUP2 ADD SWAP1 PUSH2 0x12A SWAP2 SWAP1 PUSH2 0x1409 JUMP JUMPDEST PUSH2 0x39F JUMP JUMPDEST PUSH1 0x40 MLOAD PUSH2 0x13C SWAP2 SWAP1 PUSH2 0x1461 JUMP JUMPDEST PUSH1 0x40 MLOAD DUP1 SWAP2 SUB SWAP1 RETURN JUMPDEST PUSH2 0x14D PUSH2 0x3C1 JUMP JUMPDEST PUSH1 0x40 MLOAD PUSH2 0x15A SWAP2 SWAP1 PUSH2 0x1489 JUMP JUMPDEST PUSH1 0x40 MLOAD DUP1 SWAP2 SUB SWAP1 RETURN JUMPDEST PUSH2 0x17D PUSH1 0x4 DUP1 CALLDATASIZE SUB DUP2 ADD SWAP1 PUSH2 0x178 SWAP2 SWAP1 PUSH2 0x14A2 JUMP JUMPDEST PUSH2 0x3CA JUMP JUMPDEST PUSH1 0x40 MLOAD PUSH2 0x18A SWAP2 SWAP1 PUSH2 0x1461 JUMP JUMPDEST PUSH1 0x40 MLOAD DUP1 SWAP2 SUB SWAP1 RETURN JUMPDEST PUSH2 0x19B PUSH2 0x3F8 JUMP JUMPDEST PUSH1 0x40 MLOAD PUSH2 0x1A8 SWAP2 SWAP1 PUSH2 0x1489 JUMP JUMPDEST PUSH1 0x40 MLOAD DUP1 SWAP2 SUB SWAP1 RETURN JUMPDEST PUSH2 0x1B9 PUSH2 0x3FE JUMP JUMPDEST PUSH1 0x40 MLOAD PUSH2 0x1C6 SWAP2 SWAP1 PUSH2 0x150D JUMP JUMPDEST PUSH1 0x40 MLOAD DUP1 SWAP2 SUB SWAP1 RETURN JUMPDEST PUSH2 0x1E9 PUSH1 0x4 DUP1 CALLDATASIZE SUB DUP2 ADD SWAP1 PUSH2 0x1E4 SWAP2 SWAP1 PUSH2 0x1409 JUMP JUMPDEST PUSH2 0x406 JUMP JUMPDEST STOP JUMPDEST PUSH2 0x205 PUSH1 0x4 DUP1 CALLDATASIZE SUB DUP2 ADD SWAP1 PUSH2 0x200 SWAP2 SWAP1 PUSH2 0x1526 JUMP JUMPDEST PUSH2 0x4A3 JUMP JUMPDEST STOP JUMPDEST PUSH2 0x221 PUSH1 0x4 DUP1 CALLDATASIZE SUB DUP2 ADD SWAP1 PUSH2 0x21C SWAP2 SWAP1 PUSH2 0x1551 JUMP JUMPDEST PUSH2 0x4B0 JUMP JUMPDEST PUSH1 0x40 MLOAD PUSH2 0x22E SWAP2 SWAP1 PUSH2 0x1489 JUMP JUMPDEST PUSH1 0x40 MLOAD DUP1 SWAP2 SUB SWAP1 RETURN JUMPDEST PUSH2 0x23F PUSH2 0x4F5 JUMP JUMPDEST PUSH1 0x40 MLOAD PUSH2 0x24C SWAP2 SWAP1 PUSH2 0x1358 JUMP JUMPDEST PUSH1 0x40 MLOAD DUP1 SWAP2 SUB SWAP1 RETURN JUMPDEST PUSH2 0x26F PUSH1 0x4 DUP1 CALLDATASIZE SUB DUP2 ADD SWAP1 PUSH2 0x26A SWAP2 SWAP1 PUSH2 0x1409 JUMP JUMPDEST PUSH2 0x585 JUMP JUMPDEST PUSH1 0x40 MLOAD PUSH2 0x27C SWAP2 SWAP1 PUSH2 0x1461 JUMP JUMPDEST PUSH1 0x40 MLOAD DUP1 SWAP2 SUB SWAP1 RETURN JUMPDEST PUSH2 0x28D PUSH2 0x5A7 JUMP JUMPDEST PUSH1 0x40 MLOAD PUSH2 0x29A SWAP2 SWAP1 PUSH2 0x158B JUMP JUMPDEST PUSH1 0x40 MLOAD DUP1 SWAP2 SUB SWAP1 RETURN JUMPDEST PUSH2 0x2AB PUSH2 0x5B5 JUMP JUMPDEST PUSH1 0x40 MLOAD PUSH2 0x2B8 SWAP2 SWAP1 PUSH2 0x1358 JUMP JUMPDEST PUSH1 0x40 MLOAD DUP1 SWAP2 SUB SWAP1 RETURN JUMPDEST PUSH2 0x2DB PUSH1 0x4 DUP1 CALLDATASIZE SUB DUP2 ADD SWAP1 PUSH2 0x2D6 SWAP2 SWAP1 PUSH2 0x15A4 JUMP JUMPDEST PUSH2 0x5C5 JUMP JUMPDEST PUSH1 0x40 MLOAD PUSH2 0x2E8 SWAP2 SWAP1 PUSH2 0x1489 JUMP JUMPDEST PUSH1 0x40 MLOAD DUP1 SWAP2 SUB SWAP1 RETURN JUMPDEST PUSH2 0x2F9 PUSH2 0x647 JUMP JUMPDEST PUSH1 0x40 MLOAD PUSH2 0x306 SWAP2 SWAP1 PUSH2 0x158B JUMP JUMPDEST PUSH1 0x40 MLOAD DUP1 SWAP2 SUB SWAP1 RETURN JUMPDEST PUSH1 0x60 PUSH1 0x3 DUP1 SLOAD PUSH2 0x31E SWAP1 PUSH2 0x160F JUMP JUMPDEST DUP1 PUSH1 0x1F ADD PUSH1 0x20 DUP1 SWAP2 DIV MUL PUSH1 0x20 ADD PUSH1 0x40 MLOAD SWAP1 DUP2 ADD PUSH1 0x40 MSTORE DUP1 SWAP3 SWAP2 SWAP1 DUP2 DUP2 MSTORE PUSH1 0x20 ADD DUP3 DUP1 SLOAD PUSH2 0x34A SWAP1 PUSH2 0x160F JUMP JUMPDEST DUP1 ISZERO PUSH2 0x395 JUMPI DUP1 PUSH1 0x1F LT PUSH2 0x36C JUMPI PUSH2 0x100 DUP1 DUP4 SLOAD DIV MUL DUP4 MSTORE SWAP2 PUSH1 0x20 ADD SWAP2 PUSH2 0x395 JUMP JUMPDEST DUP3 ADD SWAP2 SWAP1 PUSH0 MSTORE PUSH1 0x20 PUSH0 KECCAK256 SWAP1 JUMPDEST DUP2 SLOAD DUP2 MSTORE SWAP1 PUSH1 0x1 ADD SWAP1 PUSH1 0x20 ADD DUP1 DUP4 GT PUSH2 0x378 JUMPI DUP3 SWAP1 SUB PUSH1 0x1F AND DUP3 ADD SWAP2 JUMPDEST POP POP POP POP POP SWAP1 POP SWAP1 JUMP JUMPDEST PUSH0 DUP1 PUSH2 0x3A9 PUSH2 0x66C JUMP JUMPDEST SWAP1 POP PUSH2 0x3B6 DUP2 DUP6 DUP6 PUSH2 0x673 JUMP JUMPDEST PUSH1 0x1 SWAP2 POP POP SWAP3 SWAP2 POP POP JUMP JUMPDEST PUSH0 PUSH1 0x2 SLOAD SWAP1 POP SWAP1 JUMP JUMPDEST PUSH0 DUP1 PUSH2 0x3D4 PUSH2 0x66C JUMP JUMPDEST SWAP1 POP PUSH2 0x3E1 DUP6 DUP3 DUP6 PUSH2 0x685 JUMP JUMPDEST PUSH2 0x3EC DUP6 DUP6 DUP6 PUSH2 0x717 JUMP JUMPDEST PUSH1 0x1 SWAP2 POP POP SWAP4 SWAP3 POP POP POP JUMP JUMPDEST PUSH2 0x7D0 DUP2 JUMP JUMPDEST PUSH0 PUSH1 0x12 SWAP1 POP SWAP1 JUMP JUMPDEST PUSH1 0x5 PUSH0 SWAP1 SLOAD SWAP1 PUSH2 0x100 EXP SWAP1 DIV PUSH20 0xFFFFFFFFFFFFFFFFFFFFFFFFFFFFFFFFFFFFFFFF AND PUSH20 0xFFFFFFFFFFFFFFFFFFFFFFFFFFFFFFFFFFFFFFFF AND CALLER PUSH20 0xFFFFFFFFFFFFFFFFFFFFFFFFFFFFFFFFFFFFFFFF AND EQ PUSH2 0x495 JUMPI PUSH1 0x40 MLOAD PUSH32 0x8C379A000000000000000000000000000000000000000000000000000000000 DUP2 MSTORE PUSH1 0x4 ADD PUSH2 0x48C SWAP1 PUSH2 0x1689 JUMP JUMPDEST PUSH1 0x40 MLOAD DUP1 SWAP2 SUB SWAP1 REVERT JUMPDEST PUSH2 0x49F DUP3 DUP3 PUSH2 0x807 JUMP JUMPDEST POP POP JUMP JUMPDEST PUSH2 0x4AD CALLER DUP3 PUSH2 0x886 JUMP JUMPDEST POP JUMP JUMPDEST PUSH0 DUP1 PUSH0 DUP4 PUSH20 0xFFFFFFFFFFFFFFFFFFFFFFFFFFFFFFFFFFFFFFFF AND PUSH20 0xFFFFFFFFFFFFFFFFFFFFFFFFFFFFFFFFFFFFFFFF AND DUP2 MSTORE PUSH1 0x20 ADD SWAP1 DUP2 MSTORE PUSH1 0x20 ADD PUSH0 KECCAK256 SLOAD SWAP1 POP SWAP2 SWAP1 POP JUMP JUMPDEST PUSH1 0x60 PUSH1 0x4 DUP1 SLOAD PUSH2 0x504 SWAP1 PUSH2 0x160F JUMP JUMPDEST DUP1 PUSH1 0x1F ADD PUSH1 0x20 DUP1 SWAP2 DIV MUL PUSH1 0x20 ADD PUSH1 0x40 MLOAD SWAP1 DUP2 ADD PUSH1 0x40 MSTORE DUP1 SWAP3 SWAP2 SWAP1 DUP2 DUP2 MSTORE PUSH1 0x20 ADD DUP3 DUP1 SLOAD PUSH2 0x530 SWAP1 PUSH2 0x160F JUMP JUMPDEST DUP1 ISZERO PUSH2 0x57B JUMPI DUP1 PUSH1 0x1F LT PUSH2 0x552 JUMPI PUSH2 0x100 DUP1 DUP4 SLOAD DIV MUL DUP4 MSTORE SWAP2 PUSH1 0x20 ADD SWAP2 PUSH2 0x57B JUMP JUMPDEST DUP3 ADD SWAP2 SWAP1 PUSH0 MSTORE PUSH1 0x20 PUSH0 KECCAK256 SWAP1 JUMPDEST DUP2 SLOAD DUP2 MSTORE SWAP1 PUSH1 0x1 ADD SWAP1 PUSH1 0x20 ADD DUP1 DUP4 GT PUSH2 0x55E JUMPI DUP3 SWAP1 SUB PUSH1 0x1F AND DUP3 ADD SWAP2 JUMPDEST POP POP POP POP POP SWAP1 POP SWAP1 JUMP JUMPDEST PUSH0 DUP1 PUSH2 0x58F PUSH2 0x66C JUMP JUMPDEST SWAP1 POP PUSH2 0x59C DUP2 DUP6 DUP6 PUSH2 0x717 JUMP JUMPDEST PUSH1 0x1 SWAP2 POP POP SWAP3 SWAP2 POP POP JUMP JUMPDEST PUSH0 PUSH2 0x5B0 PUSH2 0x66C JUMP JUMPDEST SWAP1 POP SWAP1 JUMP JUMPDEST PUSH1 0x60 PUSH2 0x5C0 TIMESTAMP PUSH2 0x905 JUMP JUMPDEST SWAP1 POP SWAP1 JUMP JUMPDEST PUSH0 PUSH1 0x1 PUSH0 DUP5 PUSH20 0xFFFFFFFFFFFFFFFFFFFFFFFFFFFFFFFFFFFFFFFF AND PUSH20 0xFFFFFFFFFFFFFFFFFFFFFFFFFFFFFFFFFFFFFFFF AND DUP2 MSTORE PUSH1 0x20 ADD SWAP1 DUP2 MSTORE PUSH1 0x20 ADD PUSH0 KECCAK256 PUSH0 DUP4 PUSH20 0xFFFFFFFFFFFFFFFFFFFFFFFFFFFFFFFFFFFFFFFF AND PUSH20 0xFFFFFFFFFFFFFFFFFFFFFFFFFFFFFFFFFFFFFFFF AND DUP2 MSTORE PUSH1 0x20 ADD SWAP1 DUP2 MSTORE PUSH1 0x20 ADD PUSH0 KECCAK256 SLOAD SWAP1 POP SWAP3 SWAP2 POP POP JUMP JUMPDEST PUSH1 0x5 PUSH0 SWAP1 SLOAD SWAP1 PUSH2 0x100 EXP SWAP1 DIV PUSH20 0xFFFFFFFFFFFFFFFFFFFFFFFFFFFFFFFFFFFFFFFF AND DUP2 JUMP JUMPDEST PUSH0 CALLER SWAP1 POP SWAP1 JUMP JUMPDEST PUSH2 0x680 DUP4 DUP4 DUP4 PUSH1 0x1 PUSH2 0x971 JUMP JUMPDEST POP POP POP JUMP JUMPDEST PUSH0 PUSH2 0x690 DUP5 DUP5 PUSH2 0x5C5 JUMP JUMPDEST SWAP1 POP PUSH32 0xFFFFFFFFFFFFFFFFFFFFFFFFFFFFFFFFFFFFFFFFFFFFFFFFFFFFFFFFFFFFFFFF DUP2 EQ PUSH2 0x711 JUMPI DUP2 DUP2 LT ISZERO PUSH2 0x702 JUMPI DUP3 DUP2 DUP4 PUSH1 0x40 MLOAD PUSH32 0xFB8F41B200000000000000000000000000000000000000000000000000000000 DUP2 MSTORE PUSH1 0x4 ADD PUSH2 0x6F9 SWAP4 SWAP3 SWAP2 SWAP1 PUSH2 0x16A7 JUMP JUMPDEST PUSH1 0x40 MLOAD DUP1 SWAP2 SUB SWAP1 REVERT JUMPDEST PUSH2 0x710 DUP5 DUP5 DUP5 DUP5 SUB PUSH0 PUSH2 0x971 JUMP JUMPDEST JUMPDEST POP POP POP POP JUMP JUMPDEST PUSH0 PUSH20 0xFFFFFFFFFFFFFFFFFFFFFFFFFFFFFFFFFFFFFFFF AND DUP4 PUSH20 0xFFFFFFFFFFFFFFFFFFFFFFFFFFFFFFFFFFFFFFFF AND SUB PUSH2 0x787 JUMPI PUSH0 PUSH1 0x40 MLOAD PUSH32 0x96C6FD1E00000000000000000000000000000000000000000000000000000000 DUP2 MSTORE PUSH1 0x4 ADD PUSH2 0x77E SWAP2 SWAP1 PUSH2 0x158B JUMP JUMPDEST PUSH1 0x40 MLOAD DUP1 SWAP2 SUB SWAP1 REVERT JUMPDEST PUSH0 PUSH20 0xFFFFFFFFFFFFFFFFFFFFFFFFFFFFFFFFFFFFFFFF AND DUP3 PUSH20 0xFFFFFFFFFFFFFFFFFFFFFFFFFFFFFFFFFFFFFFFF AND SUB PUSH2 0x7F7 JUMPI PUSH0 PUSH1 0x40 MLOAD PUSH32 0xEC442F0500000000000000000000000000000000000000000000000000000000 DUP2 MSTORE PUSH1 0x4 ADD PUSH2 0x7EE SWAP2 SWAP1 PUSH2 0x158B JUMP JUMPDEST PUSH1 0x40 MLOAD DUP1 SWAP2 SUB SWAP1 REVERT JUMPDEST PUSH2 0x802 DUP4 DUP4 DUP4 PUSH2 0xB40 JUMP JUMPDEST POP POP POP JUMP JUMPDEST PUSH0 PUSH20 0xFFFFFFFFFFFFFFFFFFFFFFFFFFFFFFFFFFFFFFFF AND DUP3 PUSH20 0xFFFFFFFFFFFFFFFFFFFFFFFFFFFFFFFFFFFFFFFF AND SUB PUSH2 0x877 JUMPI PUSH0 PUSH1 0x40 MLOAD PUSH32 0xEC442F0500000000000000000000000000000000000000000000000000000000 DUP2 MSTORE PUSH1 0x4 ADD PUSH2 0x86E SWAP2 SWAP1 PUSH2 0x158B JUMP JUMPDEST PUSH1 0x40 MLOAD DUP1 SWAP2 SUB SWAP1 REVERT JUMPDEST PUSH2 0x882 PUSH0 DUP4 DUP4 PUSH2 0xB40 JUMP JUMPDEST POP POP JUMP JUMPDEST PUSH0 PUSH20 0xFFFFFFFFFFFFFFFFFFFFFFFFFFFFFFFFFFFFFFFF AND DUP3 PUSH20 0xFFFFFFFFFFFFFFFFFFFFFFFFFFFFFFFFFFFFFFFF AND SUB PUSH2 0x8F6 JUMPI PUSH0 PUSH1 0x40 MLOAD PUSH32 0x96C6FD1E00000000000000000000000000000000000000000000000000000000 DUP2 MSTORE PUSH1 0x4 ADD PUSH2 0x8ED SWAP2 SWAP1 PUSH2 0x158B JUMP JUMPDEST PUSH1 0x40 MLOAD DUP1 SWAP2 SUB SWAP1 REVERT JUMPDEST PUSH2 0x901 DUP3 PUSH0 DUP4 PUSH2 0xB40 JUMP JUMPDEST POP POP JUMP JUMPDEST PUSH1 0x60 PUSH0 PUSH2 0x919 PUSH2 0x914 DUP5 PUSH2 0xD59 JUMP JUMPDEST PUSH2 0xDE0 JUMP JUMPDEST SWAP1 POP PUSH0 PUSH2 0x92D PUSH2 0x928 DUP6 PUSH2 0xF38 JUMP JUMPDEST PUSH2 0xDE0 JUMP JUMPDEST SWAP1 POP PUSH0 PUSH2 0x941 PUSH2 0x93C DUP7 PUSH2 0x126D JUMP JUMPDEST PUSH2 0xDE0 JUMP JUMPDEST SWAP1 POP DUP3 DUP3 DUP3 PUSH1 0x40 MLOAD PUSH1 0x20 ADD PUSH2 0x958 SWAP4 SWAP3 SWAP2 SWAP1 PUSH2 0x1760 JUMP JUMPDEST PUSH1 0x40 MLOAD PUSH1 0x20 DUP2 DUP4 SUB SUB DUP2 MSTORE SWAP1 PUSH1 0x40 MSTORE SWAP4 POP POP POP POP SWAP2 SWAP1 POP JUMP JUMPDEST PUSH0 PUSH20 0xFFFFFFFFFFFFFFFFFFFFFFFFFFFFFFFFFFFFFFFF AND DUP5 PUSH20 0xFFFFFFFFFFFFFFFFFFFFFFFFFFFFFFFFFFFFFFFF AND SUB PUSH2 0x9E1 JUMPI PUSH0 PUSH1 0x40 MLOAD PUSH32 0xE602DF0500000000000000000000000000000000000000000000000000000000 DUP2 MSTORE PUSH1 0x4 ADD PUSH2 0x9D8 SWAP2 SWAP1 PUSH2 0x158B JUMP JUMPDEST PUSH1 0x40 MLOAD DUP1 SWAP2 SUB SWAP1 REVERT JUMPDEST PUSH0 PUSH20 0xFFFFFFFFFFFFFFFFFFFFFFFFFFFFFFFFFFFFFFFF AND DUP4 PUSH20 0xFFFFFFFFFFFFFFFFFFFFFFFFFFFFFFFFFFFFFFFF AND SUB PUSH2 0xA51 JUMPI PUSH0 PUSH1 0x40 MLOAD PUSH32 0x94280D6200000000000000000000000000000000000000000000000000000000 DUP2 MSTORE PUSH1 0x4 ADD PUSH2 0xA48 SWAP2 SWAP1 PUSH2 0x158B JUMP JUMPDEST PUSH1 0x40 MLOAD DUP1 SWAP2 SUB SWAP1 REVERT JUMPDEST DUP2 PUSH1 0x1 PUSH0 DUP7 PUSH20 0xFFFFFFFFFFFFFFFFFFFFFFFFFFFFFFFFFFFFFFFF AND PUSH20 0xFFFFFFFFFFFFFFFFFFFFFFFFFFFFFFFFFFFFFFFF AND DUP2 MSTORE PUSH1 0x20 ADD SWAP1 DUP2 MSTORE PUSH1 0x20 ADD PUSH0 KECCAK256 PUSH0 DUP6 PUSH20 0xFFFFFFFFFFFFFFFFFFFFFFFFFFFFFFFFFFFFFFFF AND PUSH20 0xFFFFFFFFFFFFFFFFFFFFFFFFFFFFFFFFFFFFFFFF AND DUP2 MSTORE PUSH1 0x20 ADD SWAP1 DUP2 MSTORE PUSH1 0x20 ADD PUSH0 KECCAK256 DUP2 SWAP1 SSTORE POP DUP1 ISZERO PUSH2 0xB3A JUMPI DUP3 PUSH20 0xFFFFFFFFFFFFFFFFFFFFFFFFFFFFFFFFFFFFFFFF AND DUP5 PUSH20 0xFFFFFFFFFFFFFFFFFFFFFFFFFFFFFFFFFFFFFFFF AND PUSH32 0x8C5BE1E5EBEC7D5BD14F71427D1E84F3DD0314C0F7B2291E5B200AC8C7C3B925 DUP5 PUSH1 0x40 MLOAD PUSH2 0xB31 SWAP2 SWAP1 PUSH2 0x1489 JUMP JUMPDEST PUSH1 0x40 MLOAD DUP1 SWAP2 SUB SWAP1 LOG3 JUMPDEST POP POP POP POP JUMP JUMPDEST PUSH0 PUSH20 0xFFFFFFFFFFFFFFFFFFFFFFFFFFFFFFFFFFFFFFFF AND DUP4 PUSH20 0xFFFFFFFFFFFFFFFFFFFFFFFFFFFFFFFFFFFFFFFF AND SUB PUSH2 0xB90 JUMPI DUP1 PUSH1 0x2 PUSH0 DUP3 DUP3 SLOAD PUSH2 0xB84 SWAP2 SWAP1 PUSH2 0x17D3 JUMP JUMPDEST SWAP3 POP POP DUP2 SWAP1 SSTORE POP PUSH2 0xC5E JUMP JUMPDEST PUSH0 DUP1 PUSH0 DUP6 PUSH20 0xFFFFFFFFFFFFFFFFFFFFFFFFFFFFFFFFFFFFFFFF AND PUSH20 0xFFFFFFFFFFFFFFFFFFFFFFFFFFFFFFFFFFFFFFFF AND DUP2 MSTORE PUSH1 0x20 ADD SWAP1 DUP2 MSTORE PUSH1 0x20 ADD PUSH0 KECCAK256 SLOAD SWAP1 POP DUP2 DUP2 LT ISZERO PUSH2 0xC19 JUMPI DUP4 DUP2 DUP4 PUSH1 0x40 MLOAD PUSH32 0xE450D38C00000000000000000000000000000000000000000000000000000000 DUP2 MSTORE PUSH1 0x4 ADD PUSH2 0xC10 SWAP4 SWAP3 SWAP2 SWAP1 PUSH2 0x16A7 JUMP JUMPDEST PUSH1 0x40 MLOAD DUP1 SWAP2 SUB SWAP1 REVERT JUMPDEST DUP2 DUP2 SUB PUSH0 DUP1 DUP7 PUSH20 0xFFFFFFFFFFFFFFFFFFFFFFFFFFFFFFFFFFFFFFFF AND PUSH20 0xFFFFFFFFFFFFFFFFFFFFFFFFFFFFFFFFFFFFFFFF AND DUP2 MSTORE PUSH1 0x20 ADD SWAP1 DUP2 MSTORE PUSH1 0x20 ADD PUSH0 KECCAK256 DUP2 SWAP1 SSTORE POP POP JUMPDEST PUSH0 PUSH20 0xFFFFFFFFFFFFFFFFFFFFFFFFFFFFFFFFFFFFFFFF AND DUP3 PUSH20 0xFFFFFFFFFFFFFFFFFFFFFFFFFFFFFFFFFFFFFFFF AND SUB PUSH2 0xCA5 JUMPI DUP1 PUSH1 0x2 PUSH0 DUP3 DUP3 SLOAD SUB SWAP3 POP POP DUP2 SWAP1 SSTORE POP PUSH2 0xCEF JUMP JUMPDEST DUP1 PUSH0 DUP1 DUP5 PUSH20 0xFFFFFFFFFFFFFFFFFFFFFFFFFFFFFFFFFFFFFFFF AND PUSH20 0xFFFFFFFFFFFFFFFFFFFFFFFFFFFFFFFFFFFFFFFF AND DUP2 MSTORE PUSH1 0x20 ADD SWAP1 DUP2 MSTORE PUSH1 0x20 ADD PUSH0 KECCAK256 PUSH0 DUP3 DUP3 SLOAD ADD SWAP3 POP POP DUP2 SWAP1 SSTORE POP JUMPDEST DUP2 PUSH20 0xFFFFFFFFFFFFFFFFFFFFFFFFFFFFFFFFFFFFFFFF AND DUP4 PUSH20 0xFFFFFFFFFFFFFFFFFFFFFFFFFFFFFFFFFFFFFFFF AND PUSH32 0xDDF252AD1BE2C89B69C2B068FC378DAA952BA7F163C4A11628F55A4DF523B3EF DUP4 PUSH1 0x40 MLOAD PUSH2 0xD4C SWAP2 SWAP1 PUSH2 0x1489 JUMP JUMPDEST PUSH1 0x40 MLOAD DUP1 SWAP2 SUB SWAP1 LOG3 POP POP POP JUMP JUMPDEST PUSH0 DUP1 PUSH2 0xD64 DUP4 PUSH2 0x126D JUMP JUMPDEST SWAP1 POP PUSH0 PUSH2 0x7B2 DUP3 PUSH2 0xD75 SWAP2 SWAP1 PUSH2 0x1806 JUMP JUMPDEST SWAP1 POP PUSH0 PUSH3 0x15180 DUP6 PUSH2 0xD87 SWAP2 SWAP1 PUSH2 0x1866 JUMP JUMPDEST SWAP1 POP PUSH0 DUP1 PUSH1 0x4 DUP6 PUSH2 0xD98 SWAP2 SWAP1 PUSH2 0x1896 JUMP JUMPDEST SUB PUSH2 0xDA7 JUMPI PUSH2 0x16D SWAP1 POP PUSH2 0xDAD JUMP JUMPDEST PUSH2 0x16C SWAP1 POP JUMPDEST PUSH0 PUSH1 0xC DUP3 DUP6 PUSH2 0xDBC SWAP2 SWAP1 PUSH2 0x18C6 JUMP JUMPDEST DUP5 PUSH2 0xDC7 SWAP2 SWAP1 PUSH2 0x1806 JUMP JUMPDEST PUSH2 0xDD1 SWAP2 SWAP1 PUSH2 0x1806 JUMP JUMPDEST SWAP1 POP DUP1 SWAP6 POP POP POP POP POP POP SWAP2 SWAP1 POP JUMP JUMPDEST PUSH1 0x60 PUSH0 DUP3 SUB PUSH2 0xE26 JUMPI PUSH1 0x40 MLOAD DUP1 PUSH1 0x40 ADD PUSH1 0x40 MSTORE DUP1 PUSH1 0x1 DUP2 MSTORE PUSH1 0x20 ADD PUSH32 0x3000000000000000000000000000000000000000000000000000000000000000 DUP2 MSTORE POP SWAP1 POP PUSH2 0xF33 JUMP JUMPDEST PUSH0 DUP3 SWAP1 POP PUSH0 JUMPDEST PUSH0 DUP3 EQ PUSH2 0xE55 JUMPI DUP1 DUP1 PUSH2 0xE3E SWAP1 PUSH2 0x1907 JUMP JUMPDEST SWAP2 POP POP PUSH1 0xA DUP3 PUSH2 0xE4E SWAP2 SWAP1 PUSH2 0x1866 JUMP JUMPDEST SWAP2 POP PUSH2 0xE2C JUMP JUMPDEST PUSH0 DUP2 PUSH8 0xFFFFFFFFFFFFFFFF DUP2 GT ISZERO PUSH2 0xE70 JUMPI PUSH2 0xE6F PUSH2 0x194E JUMP JUMPDEST JUMPDEST PUSH1 0x40 MLOAD SWAP1 DUP1 DUP3 MSTORE DUP1 PUSH1 0x1F ADD PUSH1 0x1F NOT AND PUSH1 0x20 ADD DUP3 ADD PUSH1 0x40 MSTORE DUP1 ISZERO PUSH2 0xEA2 JUMPI DUP2 PUSH1 0x20 ADD PUSH1 0x1 DUP3 MUL DUP1 CALLDATASIZE DUP4 CALLDATACOPY DUP1 DUP3 ADD SWAP2 POP POP SWAP1 POP JUMPDEST POP SWAP1 POP JUMPDEST PUSH0 DUP6 EQ PUSH2 0xF2C JUMPI DUP2 DUP1 PUSH2 0xEB8 SWAP1 PUSH2 0x197B JUMP JUMPDEST SWAP3 POP POP PUSH1 0xA DUP6 PUSH2 0xEC8 SWAP2 SWAP1 PUSH2 0x1896 JUMP JUMPDEST PUSH1 0x30 PUSH2 0xED4 SWAP2 SWAP1 PUSH2 0x17D3 JUMP JUMPDEST PUSH1 0xF8 SHL DUP2 DUP4 DUP2 MLOAD DUP2 LT PUSH2 0xEEA JUMPI PUSH2 0xEE9 PUSH2 0x19A2 JUMP JUMPDEST JUMPDEST PUSH1 0x20 ADD ADD SWAP1 PUSH31 0xFFFFFFFFFFFFFFFFFFFFFFFFFFFFFFFFFFFFFFFFFFFFFFFFFFFFFFFFFFFFFF NOT AND SWAP1 DUP2 PUSH0 BYTE SWAP1 MSTORE8 POP PUSH1 0xA DUP6 PUSH2 0xF25 SWAP2 SWAP1 PUSH2 0x1866 JUMP JUMPDEST SWAP5 POP PUSH2 0xEA6 JUMP JUMPDEST DUP1 SWAP4 POP POP POP POP JUMPDEST SWAP2 SWAP1 POP JUMP JUMPDEST PUSH0 DUP1 PUSH2 0xF43 DUP4 PUSH2 0x126D JUMP JUMPDEST SWAP1 POP PUSH0 DUP1 PUSH1 0x4 DUP4 PUSH2 0xF54 SWAP2 SWAP1 PUSH2 0x1896 JUMP JUMPDEST SUB PUSH2 0xF63 JUMPI PUSH2 0x16E SWAP1 POP PUSH2 0xF69 JUMP JUMPDEST PUSH2 0x16D SWAP1 POP JUMPDEST PUSH0 PUSH2 0xF73 DUP6 PUSH2 0xD59 JUMP JUMPDEST SWAP1 POP PUSH0 PUSH1 0x1F DUP3 GT PUSH2 0xF87 JUMPI PUSH1 0x1 SWAP1 POP PUSH2 0x1261 JUMP JUMPDEST PUSH1 0x3B DUP3 GT ISZERO DUP1 ISZERO PUSH2 0xF99 JUMPI POP PUSH2 0x16D DUP4 EQ JUMPDEST ISZERO PUSH2 0xFA7 JUMPI PUSH1 0x2 SWAP1 POP PUSH2 0x1260 JUMP JUMPDEST PUSH1 0x3C DUP3 GT ISZERO DUP1 ISZERO PUSH2 0xFB9 JUMPI POP PUSH2 0x16E DUP4 EQ JUMPDEST ISZERO PUSH2 0xFC7 JUMPI PUSH1 0x2 SWAP1 POP PUSH2 0x125F JUMP JUMPDEST PUSH1 0x5A DUP3 GT ISZERO DUP1 ISZERO PUSH2 0xFD9 JUMPI POP PUSH2 0x16D DUP4 EQ JUMPDEST ISZERO PUSH2 0xFE7 JUMPI PUSH1 0x3 SWAP1 POP PUSH2 0x125E JUMP JUMPDEST PUSH1 0x5B DUP3 GT ISZERO DUP1 ISZERO PUSH2 0xFF9 JUMPI POP PUSH2 0x16E DUP4 EQ JUMPDEST ISZERO PUSH2 0x1007 JUMPI PUSH1 0x3 SWAP1 POP PUSH2 0x125D JUMP JUMPDEST PUSH1 0x78 DUP3 GT ISZERO DUP1 ISZERO PUSH2 0x1019 JUMPI POP PUSH2 0x16D DUP4 EQ JUMPDEST ISZERO PUSH2 0x1027 JUMPI PUSH1 0x4 SWAP1 POP PUSH2 0x125C JUMP JUMPDEST PUSH1 0x79 DUP3 GT ISZERO DUP1 ISZERO PUSH2 0x1039 JUMPI POP PUSH2 0x16E DUP4 EQ JUMPDEST ISZERO PUSH2 0x1047 JUMPI PUSH1 0x4 SWAP1 POP PUSH2 0x125B JUMP JUMPDEST PUSH1 0x97 DUP3 GT ISZERO DUP1 ISZERO PUSH2 0x1059 JUMPI POP PUSH2 0x16D DUP4 EQ JUMPDEST ISZERO PUSH2 0x1067 JUMPI PUSH1 0x5 SWAP1 POP PUSH2 0x125A JUMP JUMPDEST PUSH1 0x98 DUP3 GT ISZERO DUP1 ISZERO PUSH2 0x1079 JUMPI POP PUSH2 0x16E DUP4 EQ JUMPDEST ISZERO PUSH2 0x1087 JUMPI PUSH1 0x5 SWAP1 POP PUSH2 0x1259 JUMP JUMPDEST PUSH1 0xB5 DUP3 GT ISZERO DUP1 ISZERO PUSH2 0x1099 JUMPI POP PUSH2 0x16D DUP4 EQ JUMPDEST ISZERO PUSH2 0x10A7 JUMPI PUSH1 0x6 SWAP1 POP PUSH2 0x1258 JUMP JUMPDEST PUSH1 0xB6 DUP3 GT ISZERO DUP1 ISZERO PUSH2 0x10B9 JUMPI POP PUSH2 0x16E DUP4 EQ JUMPDEST ISZERO PUSH2 0x10C7 JUMPI PUSH1 0x6 SWAP1 POP PUSH2 0x1257 JUMP JUMPDEST PUSH1 0xD4 DUP3 GT ISZERO DUP1 ISZERO PUSH2 0x10D9 JUMPI POP PUSH2 0x16D DUP4 EQ JUMPDEST ISZERO PUSH2 0x10E7 JUMPI PUSH1 0x7 SWAP1 POP PUSH2 0x1256 JUMP JUMPDEST PUSH1 0xD5 DUP3 GT ISZERO DUP1 ISZERO PUSH2 0x10F9 JUMPI POP PUSH2 0x16E DUP4 EQ JUMPDEST ISZERO PUSH2 0x1107 JUMPI PUSH1 0x7 SWAP1 POP PUSH2 0x1255 JUMP JUMPDEST PUSH1 0xF3 DUP3 GT ISZERO DUP1 ISZERO PUSH2 0x1119 JUMPI POP PUSH2 0x16D DUP4 EQ JUMPDEST ISZERO PUSH2 0x1127 JUMPI PUSH1 0x8 SWAP1 POP PUSH2 0x1254 JUMP JUMPDEST PUSH1 0xF4 DUP3 GT ISZERO DUP1 ISZERO PUSH2 0x1139 JUMPI POP PUSH2 0x16E DUP4 EQ JUMPDEST ISZERO PUSH2 0x1147 JUMPI PUSH1 0x8 SWAP1 POP PUSH2 0x1253 JUMP JUMPDEST PUSH2 0x111 DUP3 GT ISZERO DUP1 ISZERO PUSH2 0x115A JUMPI POP PUSH2 0x16D DUP4 EQ JUMPDEST ISZERO PUSH2 0x1168 JUMPI PUSH1 0x9 SWAP1 POP PUSH2 0x1252 JUMP JUMPDEST PUSH2 0x112 DUP3 GT ISZERO DUP1 ISZERO PUSH2 0x117B JUMPI POP PUSH2 0x16E DUP4 EQ JUMPDEST ISZERO PUSH2 0x1189 JUMPI PUSH1 0x9 SWAP1 POP PUSH2 0x1251 JUMP JUMPDEST PUSH2 0x130 DUP3 GT ISZERO DUP1 ISZERO PUSH2 0x119C JUMPI POP PUSH2 0x16D DUP4 EQ JUMPDEST ISZERO PUSH2 0x11AA JUMPI PUSH1 0xA SWAP1 POP PUSH2 0x1250 JUMP JUMPDEST PUSH2 0x131 DUP3 GT ISZERO DUP1 ISZERO PUSH2 0x11BD JUMPI POP PUSH2 0x16E DUP4 EQ JUMPDEST ISZERO PUSH2 0x11CB JUMPI PUSH1 0xA SWAP1 POP PUSH2 0x124F JUMP JUMPDEST PUSH2 0x14E DUP3 GT ISZERO DUP1 ISZERO PUSH2 0x11DE JUMPI POP PUSH2 0x16D DUP4 EQ JUMPDEST ISZERO PUSH2 0x11EC JUMPI PUSH1 0xB SWAP1 POP PUSH2 0x124E JUMP JUMPDEST PUSH2 0x14F DUP3 GT ISZERO DUP1 ISZERO PUSH2 0x11FF JUMPI POP PUSH2 0x16E DUP4 EQ JUMPDEST ISZERO PUSH2 0x120D JUMPI PUSH1 0xB SWAP1 POP PUSH2 0x124D JUMP JUMPDEST PUSH2 0x16D DUP3 GT ISZERO DUP1 ISZERO PUSH2 0x1220 JUMPI POP PUSH2 0x16D DUP4 EQ JUMPDEST ISZERO PUSH2 0x122E JUMPI PUSH1 0xC SWAP1 POP PUSH2 0x124C JUMP JUMPDEST PUSH2 0x16E DUP3 GT ISZERO DUP1 ISZERO PUSH2 0x1241 JUMPI POP PUSH2 0x16E DUP4 EQ JUMPDEST ISZERO PUSH2 0x124B JUMPI PUSH1 0xC SWAP1 POP JUMPDEST JUMPDEST JUMPDEST JUMPDEST JUMPDEST JUMPDEST JUMPDEST JUMPDEST JUMPDEST JUMPDEST JUMPDEST JUMPDEST JUMPDEST JUMPDEST JUMPDEST JUMPDEST JUMPDEST JUMPDEST JUMPDEST JUMPDEST JUMPDEST JUMPDEST JUMPDEST DUP1 SWAP5 POP POP POP POP POP SWAP2 SWAP1 POP JUMP JUMPDEST PUSH0 DUP1 PUSH1 0x4 DUP4 PUSH2 0x127C SWAP2 SWAP1 PUSH2 0x1866 JUMP JUMPDEST SWAP1 POP PUSH0 PUSH2 0x7B3 PUSH4 0x1E28500 DUP4 PUSH2 0x1292 SWAP2 SWAP1 PUSH2 0x1866 JUMP JUMPDEST PUSH4 0x1E13380 DUP5 PUSH1 0x3 PUSH2 0x12A4 SWAP2 SWAP1 PUSH2 0x18C6 JUMP JUMPDEST PUSH2 0x12AE SWAP2 SWAP1 PUSH2 0x1866 JUMP JUMPDEST PUSH2 0x12B8 SWAP2 SWAP1 PUSH2 0x17D3 JUMP JUMPDEST PUSH2 0x12C2 SWAP2 SWAP1 PUSH2 0x17D3 JUMP JUMPDEST SWAP1 POP DUP1 SWAP3 POP POP POP SWAP2 SWAP1 POP JUMP JUMPDEST PUSH0 DUP2 MLOAD SWAP1 POP SWAP2 SWAP1 POP JUMP JUMPDEST PUSH0 DUP3 DUP3 MSTORE PUSH1 0x20 DUP3 ADD SWAP1 POP SWAP3 SWAP2 POP POP JUMP JUMPDEST PUSH0 JUMPDEST DUP4 DUP2 LT ISZERO PUSH2 0x1305 JUMPI DUP1 DUP3 ADD MLOAD DUP2 DUP5 ADD MSTORE PUSH1 0x20 DUP2 ADD SWAP1 POP PUSH2 0x12EA JUMP JUMPDEST PUSH0 DUP5 DUP5 ADD MSTORE POP POP POP POP JUMP JUMPDEST PUSH0 PUSH1 0x1F NOT PUSH1 0x1F DUP4 ADD AND SWAP1 POP SWAP2 SWAP1 POP JUMP JUMPDEST PUSH0 PUSH2 0x132A DUP3 PUSH2 0x12CE JUMP JUMPDEST PUSH2 0x1334 DUP2 DUP6 PUSH2 0x12D8 JUMP JUMPDEST SWAP4 POP PUSH2 0x1344 DUP2 DUP6 PUSH1 0x20 DUP7 ADD PUSH2 0x12E8 JUMP JUMPDEST PUSH2 0x134D DUP2 PUSH2 0x1310 JUMP JUMPDEST DUP5 ADD SWAP2 POP POP SWAP3 SWAP2 POP POP JUMP JUMPDEST PUSH0 PUSH1 0x20 DUP3 ADD SWAP1 POP DUP2 DUP2 SUB PUSH0 DUP4 ADD MSTORE PUSH2 0x1370 DUP2 DUP5 PUSH2 0x1320 JUMP JUMPDEST SWAP1 POP SWAP3 SWAP2 POP POP JUMP JUMPDEST PUSH0 DUP1 REVERT JUMPDEST PUSH0 PUSH20 0xFFFFFFFFFFFFFFFFFFFFFFFFFFFFFFFFFFFFFFFF DUP3 AND SWAP1 POP SWAP2 SWAP1 POP JUMP JUMPDEST PUSH0 PUSH2 0x13A5 DUP3 PUSH2 0x137C JUMP JUMPDEST SWAP1 POP SWAP2 SWAP1 POP JUMP JUMPDEST PUSH2 0x13B5 DUP2 PUSH2 0x139B JUMP JUMPDEST DUP2 EQ PUSH2 0x13BF JUMPI PUSH0 DUP1 REVERT JUMPDEST POP JUMP JUMPDEST PUSH0 DUP2 CALLDATALOAD SWAP1 POP PUSH2 0x13D0 DUP2 PUSH2 0x13AC JUMP JUMPDEST SWAP3 SWAP2 POP POP JUMP JUMPDEST PUSH0 DUP2 SWAP1 POP SWAP2 SWAP1 POP JUMP JUMPDEST PUSH2 0x13E8 DUP2 PUSH2 0x13D6 JUMP JUMPDEST DUP2 EQ PUSH2 0x13F2 JUMPI PUSH0 DUP1 REVERT JUMPDEST POP JUMP JUMPDEST PUSH0 DUP2 CALLDATALOAD SWAP1 POP PUSH2 0x1403 DUP2 PUSH2 0x13DF JUMP JUMPDEST SWAP3 SWAP2 POP POP JUMP JUMPDEST PUSH0 DUP1 PUSH1 0x40 DUP4 DUP6 SUB SLT ISZERO PUSH2 0x141F JUMPI PUSH2 0x141E PUSH2 0x1378 JUMP JUMPDEST JUMPDEST PUSH0 PUSH2 0x142C DUP6 DUP3 DUP7 ADD PUSH2 0x13C2 JUMP JUMPDEST SWAP3 POP POP PUSH1 0x20 PUSH2 0x143D DUP6 DUP3 DUP7 ADD PUSH2 0x13F5 JUMP JUMPDEST SWAP2 POP POP SWAP3 POP SWAP3 SWAP1 POP JUMP JUMPDEST PUSH0 DUP2 ISZERO ISZERO SWAP1 POP SWAP2 SWAP1 POP JUMP JUMPDEST PUSH2 0x145B DUP2 PUSH2 0x1447 JUMP JUMPDEST DUP3 MSTORE POP POP JUMP JUMPDEST PUSH0 PUSH1 0x20 DUP3 ADD SWAP1 POP PUSH2 0x1474 PUSH0 DUP4 ADD DUP5 PUSH2 0x1452 JUMP JUMPDEST SWAP3 SWAP2 POP POP JUMP JUMPDEST PUSH2 0x1483 DUP2 PUSH2 0x13D6 JUMP JUMPDEST DUP3 MSTORE POP POP JUMP JUMPDEST PUSH0 PUSH1 0x20 DUP3 ADD SWAP1 POP PUSH2 0x149C PUSH0 DUP4 ADD DUP5 PUSH2 0x147A JUMP JUMPDEST SWAP3 SWAP2 POP POP JUMP JUMPDEST PUSH0 DUP1 PUSH0 PUSH1 0x60 DUP5 DUP7 SUB SLT ISZERO PUSH2 0x14B9 JUMPI PUSH2 0x14B8 PUSH2 0x1378 JUMP JUMPDEST JUMPDEST PUSH0 PUSH2 0x14C6 DUP7 DUP3 DUP8 ADD PUSH2 0x13C2 JUMP JUMPDEST SWAP4 POP POP PUSH1 0x20 PUSH2 0x14D7 DUP7 DUP3 DUP8 ADD PUSH2 0x13C2 JUMP JUMPDEST SWAP3 POP POP PUSH1 0x40 PUSH2 0x14E8 DUP7 DUP3 DUP8 ADD PUSH2 0x13F5 JUMP JUMPDEST SWAP2 POP POP SWAP3 POP SWAP3 POP SWAP3 JUMP JUMPDEST PUSH0 PUSH1 0xFF DUP3 AND SWAP1 POP SWAP2 SWAP1 POP JUMP JUMPDEST PUSH2 0x1507 DUP2 PUSH2 0x14F2 JUMP JUMPDEST DUP3 MSTORE POP POP JUMP JUMPDEST PUSH0 PUSH1 0x20 DUP3 ADD SWAP1 POP PUSH2 0x1520 PUSH0 DUP4 ADD DUP5 PUSH2 0x14FE JUMP JUMPDEST SWAP3 SWAP2 POP POP JUMP JUMPDEST PUSH0 PUSH1 0x20 DUP3 DUP5 SUB SLT ISZERO PUSH2 0x153B JUMPI PUSH2 0x153A PUSH2 0x1378 JUMP JUMPDEST JUMPDEST PUSH0 PUSH2 0x1548 DUP5 DUP3 DUP6 ADD PUSH2 0x13F5 JUMP JUMPDEST SWAP2 POP POP SWAP3 SWAP2 POP POP JUMP JUMPDEST PUSH0 PUSH1 0x20 DUP3 DUP5 SUB SLT ISZERO PUSH2 0x1566 JUMPI PUSH2 0x1565 PUSH2 0x1378 JUMP JUMPDEST JUMPDEST PUSH0 PUSH2 0x1573 DUP5 DUP3 DUP6 ADD PUSH2 0x13C2 JUMP JUMPDEST SWAP2 POP POP SWAP3 SWAP2 POP POP JUMP JUMPDEST PUSH2 0x1585 DUP2 PUSH2 0x139B JUMP JUMPDEST DUP3 MSTORE POP POP JUMP JUMPDEST PUSH0 PUSH1 0x20 DUP3 ADD SWAP1 POP PUSH2 0x159E PUSH0 DUP4 ADD DUP5 PUSH2 0x157C JUMP JUMPDEST SWAP3 SWAP2 POP POP JUMP JUMPDEST PUSH0 DUP1 PUSH1 0x40 DUP4 DUP6 SUB SLT ISZERO PUSH2 0x15BA JUMPI PUSH2 0x15B9 PUSH2 0x1378 JUMP JUMPDEST JUMPDEST PUSH0 PUSH2 0x15C7 DUP6 DUP3 DUP7 ADD PUSH2 0x13C2 JUMP JUMPDEST SWAP3 POP POP PUSH1 0x20 PUSH2 0x15D8 DUP6 DUP3 DUP7 ADD PUSH2 0x13C2 JUMP JUMPDEST SWAP2 POP POP SWAP3 POP SWAP3 SWAP1 POP JUMP JUMPDEST PUSH32 0x4E487B7100000000000000000000000000000000000000000000000000000000 PUSH0 MSTORE PUSH1 0x22 PUSH1 0x4 MSTORE PUSH1 0x24 PUSH0 REVERT JUMPDEST PUSH0 PUSH1 0x2 DUP3 DIV SWAP1 POP PUSH1 0x1 DUP3 AND DUP1 PUSH2 0x1626 JUMPI PUSH1 0x7F DUP3 AND SWAP2 POP JUMPDEST PUSH1 0x20 DUP3 LT DUP2 SUB PUSH2 0x1639 JUMPI PUSH2 0x1638 PUSH2 0x15E2 JUMP JUMPDEST JUMPDEST POP SWAP2 SWAP1 POP JUMP JUMPDEST PUSH32 0x4F6E6C792061646D696E00000000000000000000000000000000000000000000 PUSH0 DUP3 ADD MSTORE POP JUMP JUMPDEST PUSH0 PUSH2 0x1673 PUSH1 0xA DUP4 PUSH2 0x12D8 JUMP JUMPDEST SWAP2 POP PUSH2 0x167E DUP3 PUSH2 0x163F JUMP JUMPDEST PUSH1 0x20 DUP3 ADD SWAP1 POP SWAP2 SWAP1 POP JUMP JUMPDEST PUSH0 PUSH1 0x20 DUP3 ADD SWAP1 POP DUP2 DUP2 SUB PUSH0 DUP4 ADD MSTORE PUSH2 0x16A0 DUP2 PUSH2 0x1667 JUMP JUMPDEST SWAP1 POP SWAP2 SWAP1 POP JUMP JUMPDEST PUSH0 PUSH1 0x60 DUP3 ADD SWAP1 POP PUSH2 0x16BA PUSH0 DUP4 ADD DUP7 PUSH2 0x157C JUMP JUMPDEST PUSH2 0x16C7 PUSH1 0x20 DUP4 ADD DUP6 PUSH2 0x147A JUMP JUMPDEST PUSH2 0x16D4 PUSH1 0x40 DUP4 ADD DUP5 PUSH2 0x147A JUMP JUMPDEST SWAP5 SWAP4 POP POP POP POP JUMP JUMPDEST PUSH0 DUP2 SWAP1 POP SWAP3 SWAP2 POP POP JUMP JUMPDEST PUSH0 PUSH2 0x16F0 DUP3 PUSH2 0x12CE JUMP JUMPDEST PUSH2 0x16FA DUP2 DUP6 PUSH2 0x16DC JUMP JUMPDEST SWAP4 POP PUSH2 0x170A DUP2 DUP6 PUSH1 0x20 DUP7 ADD PUSH2 0x12E8 JUMP JUMPDEST DUP1 DUP5 ADD SWAP2 POP POP SWAP3 SWAP2 POP POP JUMP JUMPDEST PUSH32 0x2F00000000000000000000000000000000000000000000000000000000000000 PUSH0 DUP3 ADD MSTORE POP JUMP JUMPDEST PUSH0 PUSH2 0x174A PUSH1 0x1 DUP4 PUSH2 0x16DC JUMP JUMPDEST SWAP2 POP PUSH2 0x1755 DUP3 PUSH2 0x1716 JUMP JUMPDEST PUSH1 0x1 DUP3 ADD SWAP1 POP SWAP2 SWAP1 POP JUMP JUMPDEST PUSH0 PUSH2 0x176B DUP3 DUP7 PUSH2 0x16E6 JUMP JUMPDEST SWAP2 POP PUSH2 0x1776 DUP3 PUSH2 0x173E JUMP JUMPDEST SWAP2 POP PUSH2 0x1782 DUP3 DUP6 PUSH2 0x16E6 JUMP JUMPDEST SWAP2 POP PUSH2 0x178D DUP3 PUSH2 0x173E JUMP JUMPDEST SWAP2 POP PUSH2 0x1799 DUP3 DUP5 PUSH2 0x16E6 JUMP JUMPDEST SWAP2 POP DUP2 SWAP1 POP SWAP5 SWAP4 POP POP POP POP JUMP JUMPDEST PUSH32 0x4E487B7100000000000000000000000000000000000000000000000000000000 PUSH0 MSTORE PUSH1 0x11 PUSH1 0x4 MSTORE PUSH1 0x24 PUSH0 REVERT JUMPDEST PUSH0 PUSH2 0x17DD DUP3 PUSH2 0x13D6 JUMP JUMPDEST SWAP2 POP PUSH2 0x17E8 DUP4 PUSH2 0x13D6 JUMP JUMPDEST SWAP3 POP DUP3 DUP3 ADD SWAP1 POP DUP1 DUP3 GT ISZERO PUSH2 0x1800 JUMPI PUSH2 0x17FF PUSH2 0x17A6 JUMP JUMPDEST JUMPDEST SWAP3 SWAP2 POP POP JUMP JUMPDEST PUSH0 PUSH2 0x1810 DUP3 PUSH2 0x13D6 JUMP JUMPDEST SWAP2 POP PUSH2 0x181B DUP4 PUSH2 0x13D6 JUMP JUMPDEST SWAP3 POP DUP3 DUP3 SUB SWAP1 POP DUP2 DUP2 GT ISZERO PUSH2 0x1833 JUMPI PUSH2 0x1832 PUSH2 0x17A6 JUMP JUMPDEST JUMPDEST SWAP3 SWAP2 POP POP JUMP JUMPDEST PUSH32 0x4E487B7100000000000000000000000000000000000000000000000000000000 PUSH0 MSTORE PUSH1 0x12 PUSH1 0x4 MSTORE PUSH1 0x24 PUSH0 REVERT JUMPDEST PUSH0 PUSH2 0x1870 DUP3 PUSH2 0x13D6 JUMP JUMPDEST SWAP2 POP PUSH2 0x187B DUP4 PUSH2 0x13D6 JUMP JUMPDEST SWAP3 POP DUP3 PUSH2 0x188B JUMPI PUSH2 0x188A PUSH2 0x1839 JUMP JUMPDEST JUMPDEST DUP3 DUP3 DIV SWAP1 POP SWAP3 SWAP2 POP POP JUMP JUMPDEST PUSH0 PUSH2 0x18A0 DUP3 PUSH2 0x13D6 JUMP JUMPDEST SWAP2 POP PUSH2 0x18AB DUP4 PUSH2 0x13D6 JUMP JUMPDEST SWAP3 POP DUP3 PUSH2 0x18BB JUMPI PUSH2 0x18BA PUSH2 0x1839 JUMP JUMPDEST JUMPDEST DUP3 DUP3 MOD SWAP1 POP SWAP3 SWAP2 POP POP JUMP JUMPDEST PUSH0 PUSH2 0x18D0 DUP3 PUSH2 0x13D6 JUMP JUMPDEST SWAP2 POP PUSH2 0x18DB DUP4 PUSH2 0x13D6 JUMP JUMPDEST SWAP3 POP DUP3 DUP3 MUL PUSH2 0x18E9 DUP2 PUSH2 0x13D6 JUMP JUMPDEST SWAP2 POP DUP3 DUP3 DIV DUP5 EQ DUP4 ISZERO OR PUSH2 0x1900 JUMPI PUSH2 0x18FF PUSH2 0x17A6 JUMP JUMPDEST JUMPDEST POP SWAP3 SWAP2 POP POP JUMP JUMPDEST PUSH0 PUSH2 0x1911 DUP3 PUSH2 0x13D6 JUMP JUMPDEST SWAP2 POP PUSH32 0xFFFFFFFFFFFFFFFFFFFFFFFFFFFFFFFFFFFFFFFFFFFFFFFFFFFFFFFFFFFFFFFF DUP3 SUB PUSH2 0x1943 JUMPI PUSH2 0x1942 PUSH2 0x17A6 JUMP JUMPDEST JUMPDEST PUSH1 0x1 DUP3 ADD SWAP1 POP SWAP2 SWAP1 POP JUMP JUMPDEST PUSH32 0x4E487B7100000000000000000000000000000000000000000000000000000000 PUSH0 MSTORE PUSH1 0x41 PUSH1 0x4 MSTORE PUSH1 0x24 PUSH0 REVERT JUMPDEST PUSH0 PUSH2 0x1985 DUP3 PUSH2 0x13D6 JUMP JUMPDEST SWAP2 POP PUSH0 DUP3 SUB PUSH2 0x1997 JUMPI PUSH2 0x1996 PUSH2 0x17A6 JUMP JUMPDEST JUMPDEST PUSH1 0x1 DUP3 SUB SWAP1 POP SWAP2 SWAP1 POP JUMP JUMPDEST PUSH32 0x4E487B7100000000000000000000000000000000000000000000000000000000 PUSH0 MSTORE PUSH1 0x32 PUSH1 0x4 MSTORE PUSH1 0x24 PUSH0 REVERT INVALID LOG2 PUSH5 0x6970667358 0x22 SLT KECCAK256 PUSH27 0xFEC91A0BB0A14AA801FA6EF7090A9C1BE1C69472774C3600A3DFB7 0xAE PUSH23 0x97DE64736F6C6343000816003300000000000000000000 "
				},
				"gasEstimates": {
					"creation": {
						"codeDepositCost": "1332200",
						"executionCost": "infinite",
						"totalCost": "infinite"
					},
					"external": {
						"INITIAL_SUPPLY()": "370",
						"admin()": "2596",
						"allowance(address,address)": "infinite",
						"approve(address,uint256)": "infinite",
						"balanceOf(address)": "2874",
						"burn(uint256)": "infinite",
						"decimals()": "405",
						"getLatestTransactionTimestamp()": "infinite",
						"getTransactionSender()": "435",
						"mint(address,uint256)": "infinite",
						"name()": "infinite",
						"symbol()": "infinite",
						"totalSupply()": "2500",
						"transfer(address,uint256)": "infinite",
						"transferFrom(address,address,uint256)": "infinite"
					},
					"internal": {
						"toDate(uint256)": "infinite",
						"toDay(uint256)": "infinite",
						"toMonth(uint256)": "infinite",
						"toYear(uint256)": "infinite",
						"uint256ToString(uint256)": "infinite"
					}
				},
				"methodIdentifiers": {
					"INITIAL_SUPPLY()": "2ff2e9dc",
					"admin()": "f851a440",
					"allowance(address,address)": "dd62ed3e",
					"approve(address,uint256)": "095ea7b3",
					"balanceOf(address)": "70a08231",
					"burn(uint256)": "42966c68",
					"decimals()": "313ce567",
					"getLatestTransactionTimestamp()": "d45e3f4a",
					"getTransactionSender()": "bead3f50",
					"mint(address,uint256)": "40c10f19",
					"name()": "06fdde03",
					"symbol()": "95d89b41",
					"totalSupply()": "18160ddd",
					"transfer(address,uint256)": "a9059cbb",
					"transferFrom(address,address,uint256)": "23b872dd"
				}
			},
			"storageLayout": {
				"storage": [
					{
						"astId": 159,
						"contract": "contracts/HelloWorld5.sol:MGNToken",
						"label": "_balances",
						"offset": 0,
						"slot": "0",
						"type": "t_mapping(t_address,t_uint256)"
					},
					{
						"astId": 165,
						"contract": "contracts/HelloWorld5.sol:MGNToken",
						"label": "_allowances",
						"offset": 0,
						"slot": "1",
						"type": "t_mapping(t_address,t_mapping(t_address,t_uint256))"
					},
					{
						"astId": 167,
						"contract": "contracts/HelloWorld5.sol:MGNToken",
						"label": "_totalSupply",
						"offset": 0,
						"slot": "2",
						"type": "t_uint256"
					},
					{
						"astId": 169,
						"contract": "contracts/HelloWorld5.sol:MGNToken",
						"label": "_name",
						"offset": 0,
						"slot": "3",
						"type": "t_string_storage"
					},
					{
						"astId": 171,
						"contract": "contracts/HelloWorld5.sol:MGNToken",
						"label": "_symbol",
						"offset": 0,
						"slot": "4",
						"type": "t_string_storage"
					},
					{
						"astId": 792,
						"contract": "contracts/HelloWorld5.sol:MGNToken",
						"label": "admin",
						"offset": 0,
						"slot": "5",
						"type": "t_address"
					}
				],
				"types": {
					"t_address": {
						"encoding": "inplace",
						"label": "address",
						"numberOfBytes": "20"
					},
					"t_mapping(t_address,t_mapping(t_address,t_uint256))": {
						"encoding": "mapping",
						"key": "t_address",
						"label": "mapping(address => mapping(address => uint256))",
						"numberOfBytes": "32",
						"value": "t_mapping(t_address,t_uint256)"
					},
					"t_mapping(t_address,t_uint256)": {
						"encoding": "mapping",
						"key": "t_address",
						"label": "mapping(address => uint256)",
						"numberOfBytes": "32",
						"value": "t_uint256"
					},
					"t_string_storage": {
						"encoding": "bytes",
						"label": "string",
						"numberOfBytes": "32"
					},
					"t_uint256": {
						"encoding": "inplace",
						"label": "uint256",
						"numberOfBytes": "32"
					}
				}
			},
			"userdoc": {
				"kind": "user",
				"methods": {},
				"version": 1
			}
		}
	}
}