{
	"data": {
		"bytecode": {
			"linkReferences": {},
			"object": "608060405234801561001057600080fd5b50610185806100206000396000f3fe60806040526004361061001e5760003560e01c806305b1137b14610023575b600080fd5b61006f6004803603604081101561003957600080fd5b81019080803573ffffffffffffffffffffffffffffffffffffffff16906020019092919080359060200190929190505050610071565b005b803410156100ca576040517f08c379a000000000000000000000000000000000000000000000000000000000815260040180806020018281038252603b815260200180610116603b913960400191505060405180910390fd5b8173ffffffffffffffffffffffffffffffffffffffff166108fc829081150290604051600060405180830381858888f19350505050158015610110573d6000803e3d6000fd5b50505056fed09dd0b5d0b4d0bed181d182d0b0d182d0bed187d0bdd0be20d18dd184d0b8d180d0b020d0b4d0bbd18f20d0bfd0b5d180d0b5d0b2d0bed0b4d0b0a265627a7a723158209cbe46e240b6e5066d9acd3961243c53c9d37c5078d0f18f8f47481f906b86b464736f6c63430005110032",
			"opcodes": "PUSH1 0x80 PUSH1 0x40 MSTORE CALLVALUE DUP1 ISZERO PUSH2 0x10 JUMPI PUSH1 0x0 DUP1 REVERT JUMPDEST POP PUSH2 0x185 DUP1 PUSH2 0x20 PUSH1 0x0 CODECOPY PUSH1 0x0 RETURN INVALID PUSH1 0x80 PUSH1 0x40 MSTORE PUSH1 0x4 CALLDATASIZE LT PUSH2 0x1E JUMPI PUSH1 0x0 CALLDATALOAD PUSH1 0xE0 SHR DUP1 PUSH4 0x5B1137B EQ PUSH2 0x23 JUMPI JUMPDEST PUSH1 0x0 DUP1 REVERT JUMPDEST PUSH2 0x6F PUSH1 0x4 DUP1 CALLDATASIZE SUB PUSH1 0x40 DUP2 LT ISZERO PUSH2 0x39 JUMPI PUSH1 0x0 DUP1 REVERT JUMPDEST DUP2 ADD SWAP1 DUP1 DUP1 CALLDATALOAD PUSH20 0xFFFFFFFFFFFFFFFFFFFFFFFFFFFFFFFFFFFFFFFF AND SWAP1 PUSH1 0x20 ADD SWAP1 SWAP3 SWAP2 SWAP1 DUP1 CALLDATALOAD SWAP1 PUSH1 0x20 ADD SWAP1 SWAP3 SWAP2 SWAP1 POP POP POP PUSH2 0x71 JUMP JUMPDEST STOP JUMPDEST DUP1 CALLVALUE LT ISZERO PUSH2 0xCA JUMPI PUSH1 0x40 MLOAD PUSH32 0x8C379A000000000000000000000000000000000000000000000000000000000 DUP2 MSTORE PUSH1 0x4 ADD DUP1 DUP1 PUSH1 0x20 ADD DUP3 DUP2 SUB DUP3 MSTORE PUSH1 0x3B DUP2 MSTORE PUSH1 0x20 ADD DUP1 PUSH2 0x116 PUSH1 0x3B SWAP2 CODECOPY PUSH1 0x40 ADD SWAP2 POP POP PUSH1 0x40 MLOAD DUP1 SWAP2 SUB SWAP1 REVERT JUMPDEST DUP2 PUSH20 0xFFFFFFFFFFFFFFFFFFFFFFFFFFFFFFFFFFFFFFFF AND PUSH2 0x8FC DUP3 SWAP1 DUP2 ISZERO MUL SWAP1 PUSH1 0x40 MLOAD PUSH1 0x0 PUSH1 0x40 MLOAD DUP1 DUP4 SUB DUP2 DUP6 DUP9 DUP9 CALL SWAP4 POP POP POP POP ISZERO DUP1 ISZERO PUSH2 0x110 JUMPI RETURNDATASIZE PUSH1 0x0 DUP1 RETURNDATACOPY RETURNDATASIZE PUSH1 0x0 REVERT JUMPDEST POP POP POP JUMP INVALID 0xD0 SWAP14 0xD0 0xB5 0xD0 0xB4 0xD0 0xBE 0xD1 DUP2 0xD1 DUP3 0xD0 0xB0 0xD1 DUP3 0xD0 0xBE 0xD1 DUP8 0xD0 0xBD 0xD0 0xBE KECCAK256 0xD1 DUP14 0xD1 DUP5 0xD0 0xB8 0xD1 DUP1 0xD0 0xB0 KECCAK256 0xD0 0xB4 0xD0 0xBB 0xD1 DUP16 KECCAK256 0xD0 0xBF 0xD0 0xB5 0xD1 DUP1 0xD0 0xB5 0xD0 0xB2 0xD0 0xBE 0xD0 0xB4 0xD0 0xB0 LOG2 PUSH6 0x627A7A723158 KECCAK256 SWAP13 0xBE CHAINID 0xE2 BLOCKHASH 0xB6 0xE5 MOD PUSH14 0x9ACD3961243C53C9D37C5078D0F1 DUP16 DUP16 SELFBALANCE 0x48 0x1F SWAP1 PUSH12 0x86B464736F6C634300051100 ORIGIN "
		},
		"gasEstimates": {
			"creation": {
				"codeDepositCost": "77800",
				"executionCost": "129",
				"totalCost": "77929"
			},
			"external": {
				"transferEther(address,uint256)": "infinite"
			}
		},
		"methodIdentifiers": {
			"transferEther(address,uint256)": "05b1137b"
		}
	},
	"abi": [
		{
			"constant": false,
			"inputs": [
				{
					"internalType": "address payable",
					"name": "to",
					"type": "address"
				},
				{
					"internalType": "uint256",
					"name": "amount",
					"type": "uint256"
				}
			],
			"name": "transferEther",
			"outputs": [],
			"payable": true,
			"stateMutability": "payable",
			"type": "function"
		}
	]
}