{
	"data": {
		"bytecode": {
			"linkReferences": {},
			"object": "608060405234801562000010575f80fd5b506040518060400160405280600c81526020017f414954555f4d41475a48414e00000000000000000000000000000000000000008152506040518060400160405280600381526020017f4d474e000000000000000000000000000000000000000000000000000000000081525081600390816200008e91906200060f565b508060049081620000a091906200060f565b505050620000b7336107d0620000fd60201b60201c565b3360055f6101000a81548173ffffffffffffffffffffffffffffffffffffffff021916908373ffffffffffffffffffffffffffffffffffffffff1602179055506200081f565b5f73ffffffffffffffffffffffffffffffffffffffff168273ffffffffffffffffffffffffffffffffffffffff160362000170575f6040517fec442f0500000000000000000000000000000000000000000000000000000000815260040162000167919062000736565b60405180910390fd5b620001835f83836200018760201b60201c565b5050565b5f73ffffffffffffffffffffffffffffffffffffffff168373ffffffffffffffffffffffffffffffffffffffff1603620001db578060025f828254620001ce91906200077e565b92505081905550620002ac565b5f805f8573ffffffffffffffffffffffffffffffffffffffff1673ffffffffffffffffffffffffffffffffffffffff1681526020019081526020015f205490508181101562000267578381836040517fe450d38c0000000000000000000000000000000000000000000000000000000081526004016200025e93929190620007c9565b60405180910390fd5b8181035f808673ffffffffffffffffffffffffffffffffffffffff1673ffffffffffffffffffffffffffffffffffffffff1681526020019081526020015f2081905550505b5f73ffffffffffffffffffffffffffffffffffffffff168273ffffffffffffffffffffffffffffffffffffffff1603620002f5578060025f82825403925050819055506200033f565b805f808473ffffffffffffffffffffffffffffffffffffffff1673ffffffffffffffffffffffffffffffffffffffff1681526020019081526020015f205f82825401925050819055505b8173ffffffffffffffffffffffffffffffffffffffff168373ffffffffffffffffffffffffffffffffffffffff167fddf252ad1be2c89b69c2b068fc378daa952ba7f163c4a11628f55a4df523b3ef836040516200039e919062000804565b60405180910390a3505050565b5f81519050919050565b7f4e487b71000000000000000000000000000000000000000000000000000000005f52604160045260245ffd5b7f4e487b71000000000000000000000000000000000000000000000000000000005f52602260045260245ffd5b5f60028204905060018216806200042757607f821691505b6020821081036200043d576200043c620003e2565b5b50919050565b5f819050815f5260205f209050919050565b5f6020601f8301049050919050565b5f82821b905092915050565b5f60088302620004a17fffffffffffffffffffffffffffffffffffffffffffffffffffffffffffffffff8262000464565b620004ad868362000464565b95508019841693508086168417925050509392505050565b5f819050919050565b5f819050919050565b5f620004f7620004f1620004eb84620004c5565b620004ce565b620004c5565b9050919050565b5f819050919050565b6200051283620004d7565b6200052a6200052182620004fe565b84845462000470565b825550505050565b5f90565b6200054062000532565b6200054d81848462000507565b505050565b5b818110156200057457620005685f8262000536565b60018101905062000553565b5050565b601f821115620005c3576200058d8162000443565b620005988462000455565b81016020851015620005a8578190505b620005c0620005b78562000455565b83018262000552565b50505b505050565b5f82821c905092915050565b5f620005e55f1984600802620005c8565b1980831691505092915050565b5f620005ff8383620005d4565b9150826002028217905092915050565b6200061a82620003ab565b67ffffffffffffffff811115620006365762000635620003b5565b5b6200064282546200040f565b6200064f82828562000578565b5f60209050601f83116001811462000685575f841562000670578287015190505b6200067c8582620005f2565b865550620006eb565b601f198416620006958662000443565b5f5b82811015620006be5784890151825560018201915060208501945060208101905062000697565b86831015620006de5784890151620006da601f891682620005d4565b8355505b6001600288020188555050505b505050505050565b5f73ffffffffffffffffffffffffffffffffffffffff82169050919050565b5f6200071e82620006f3565b9050919050565b620007308162000712565b82525050565b5f6020820190506200074b5f83018462000725565b92915050565b7f4e487b71000000000000000000000000000000000000000000000000000000005f52601160045260245ffd5b5f6200078a82620004c5565b91506200079783620004c5565b9250828201905080821115620007b257620007b162000751565b5b92915050565b620007c381620004c5565b82525050565b5f606082019050620007de5f83018662000725565b620007ed6020830185620007b8565b620007fc6040830184620007b8565b949350505050565b5f602082019050620008195f830184620007b8565b92915050565b611a05806200082d5f395ff3fe608060405234801561000f575f80fd5b50600436106100f3575f3560e01c806342966c6811610095578063bead3f5011610064578063bead3f5014610285578063d45e3f4a146102a3578063dd62ed3e146102c1578063f851a440146102f1576100f3565b806342966c68146101eb57806370a082311461020757806395d89b4114610237578063a9059cbb14610255576100f3565b806323b872dd116100d157806323b872dd146101635780632ff2e9dc14610193578063313ce567146101b157806340c10f19146101cf576100f3565b806306fdde03146100f7578063095ea7b31461011557806318160ddd14610145575b5f80fd5b6100ff61030f565b60405161010c9190611358565b60405180910390f35b61012f600480360381019061012a9190611409565b61039f565b60405161013c9190611461565b60405180910390f35b61014d6103c1565b60405161015a9190611489565b60405180910390f35b61017d600480360381019061017891906114a2565b6103ca565b60405161018a9190611461565b60405180910390f35b61019b6103f8565b6040516101a89190611489565b60405180910390f35b6101b96103fe565b6040516101c6919061150d565b60405180910390f35b6101e960048036038101906101e49190611409565b610406565b005b61020560048036038101906102009190611526565b6104a3565b005b610221600480360381019061021c9190611551565b6104b0565b60405161022e9190611489565b60405180910390f35b61023f6104f5565b60405161024c9190611358565b60405180910390f35b61026f600480360381019061026a9190611409565b610585565b60405161027c9190611461565b60405180910390f35b61028d6105a7565b60405161029a919061158b565b60405180910390f35b6102ab6105b5565b6040516102b89190611358565b60405180910390f35b6102db60048036038101906102d691906115a4565b6105c5565b6040516102e89190611489565b60405180910390f35b6102f9610647565b604051610306919061158b565b60405180910390f35b60606003805461031e9061160f565b80601f016020809104026020016040519081016040528092919081815260200182805461034a9061160f565b80156103955780601f1061036c57610100808354040283529160200191610395565b820191905f5260205f20905b81548152906001019060200180831161037857829003601f168201915b5050505050905090565b5f806103a961066c565b90506103b6818585610673565b600191505092915050565b5f600254905090565b5f806103d461066c565b90506103e1858285610685565b6103ec858585610717565b60019150509392505050565b6107d081565b5f6012905090565b60055f9054906101000a900473ffffffffffffffffffffffffffffffffffffffff1673ffffffffffffffffffffffffffffffffffffffff163373ffffffffffffffffffffffffffffffffffffffff1614610495576040517f08c379a000000000000000000000000000000000000000000000000000000000815260040161048c90611689565b60405180910390fd5b61049f8282610807565b5050565b6104ad3382610886565b50565b5f805f8373ffffffffffffffffffffffffffffffffffffffff1673ffffffffffffffffffffffffffffffffffffffff1681526020019081526020015f20549050919050565b6060600480546105049061160f565b80601f01602080910402602001604051908101604052809291908181526020018280546105309061160f565b801561057b5780601f106105525761010080835404028352916020019161057b565b820191905f5260205f20905b81548152906001019060200180831161055e57829003601f168201915b5050505050905090565b5f8061058f61066c565b905061059c818585610717565b600191505092915050565b5f6105b061066c565b905090565b60606105c042610905565b905090565b5f60015f8473ffffffffffffffffffffffffffffffffffffffff1673ffffffffffffffffffffffffffffffffffffffff1681526020019081526020015f205f8373ffffffffffffffffffffffffffffffffffffffff1673ffffffffffffffffffffffffffffffffffffffff1681526020019081526020015f2054905092915050565b60055f9054906101000a900473ffffffffffffffffffffffffffffffffffffffff1681565b5f33905090565b6106808383836001610971565b505050565b5f61069084846105c5565b90507fffffffffffffffffffffffffffffffffffffffffffffffffffffffffffffffff81146107115781811015610702578281836040517ffb8f41b20000000000000000000000000000000000000000000000000000000081526004016106f9939291906116a7565b60405180910390fd5b61071084848484035f610971565b5b50505050565b5f73ffffffffffffffffffffffffffffffffffffffff168373ffffffffffffffffffffffffffffffffffffffff1603610787575f6040517f96c6fd1e00000000000000000000000000000000000000000000000000000000815260040161077e919061158b565b60405180910390fd5b5f73ffffffffffffffffffffffffffffffffffffffff168273ffffffffffffffffffffffffffffffffffffffff16036107f7575f6040517fec442f050000000000000000000000000000000000000000000000000000000081526004016107ee919061158b565b60405180910390fd5b610802838383610b40565b505050565b5f73ffffffffffffffffffffffffffffffffffffffff168273ffffffffffffffffffffffffffffffffffffffff1603610877575f6040517fec442f0500000000000000000000000000000000000000000000000000000000815260040161086e919061158b565b60405180910390fd5b6108825f8383610b40565b5050565b5f73ffffffffffffffffffffffffffffffffffffffff168273ffffffffffffffffffffffffffffffffffffffff16036108f6575f6040517f96c6fd1e0000000000000000000000000000000000000000000000000000000081526004016108ed919061158b565b60405180910390fd5b610901825f83610b40565b5050565b60605f61091961091484610d59565b610de0565b90505f61092d61092885610f38565b610de0565b90505f61094161093c8661126d565b610de0565b905082828260405160200161095893929190611760565b6040516020818303038152906040529350505050919050565b5f73ffffffffffffffffffffffffffffffffffffffff168473ffffffffffffffffffffffffffffffffffffffff16036109e1575f6040517fe602df050000000000000000000000000000000000000000000000000000000081526004016109d8919061158b565b60405180910390fd5b5f73ffffffffffffffffffffffffffffffffffffffff168373ffffffffffffffffffffffffffffffffffffffff1603610a51575f6040517f94280d62000000000000000000000000000000000000000000000000000000008152600401610a48919061158b565b60405180910390fd5b8160015f8673ffffffffffffffffffffffffffffffffffffffff1673ffffffffffffffffffffffffffffffffffffffff1681526020019081526020015f205f8573ffffffffffffffffffffffffffffffffffffffff1673ffffffffffffffffffffffffffffffffffffffff1681526020019081526020015f20819055508015610b3a578273ffffffffffffffffffffffffffffffffffffffff168473ffffffffffffffffffffffffffffffffffffffff167f8c5be1e5ebec7d5bd14f71427d1e84f3dd0314c0f7b2291e5b200ac8c7c3b92584604051610b319190611489565b60405180910390a35b50505050565b5f73ffffffffffffffffffffffffffffffffffffffff168373ffffffffffffffffffffffffffffffffffffffff1603610b90578060025f828254610b8491906117d3565b92505081905550610c5e565b5f805f8573ffffffffffffffffffffffffffffffffffffffff1673ffffffffffffffffffffffffffffffffffffffff1681526020019081526020015f2054905081811015610c19578381836040517fe450d38c000000000000000000000000000000000000000000000000000000008152600401610c10939291906116a7565b60405180910390fd5b8181035f808673ffffffffffffffffffffffffffffffffffffffff1673ffffffffffffffffffffffffffffffffffffffff1681526020019081526020015f2081905550505b5f73ffffffffffffffffffffffffffffffffffffffff168273ffffffffffffffffffffffffffffffffffffffff1603610ca5578060025f8282540392505081905550610cef565b805f808473ffffffffffffffffffffffffffffffffffffffff1673ffffffffffffffffffffffffffffffffffffffff1681526020019081526020015f205f82825401925050819055505b8173ffffffffffffffffffffffffffffffffffffffff168373ffffffffffffffffffffffffffffffffffffffff167fddf252ad1be2c89b69c2b068fc378daa952ba7f163c4a11628f55a4df523b3ef83604051610d4c9190611489565b60405180910390a3505050565b5f80610d648361126d565b90505f6107b282610d759190611806565b90505f6201518085610d879190611866565b90505f80600485610d989190611896565b03610da75761016d9050610dad565b61016c90505b5f600c8285610dbc91906118c6565b84610dc79190611806565b610dd19190611806565b90508095505050505050919050565b60605f8203610e26576040518060400160405280600181526020017f30000000000000000000000000000000000000000000000000000000000000008152509050610f33565b5f8290505f5b5f8214610e55578080610e3e90611907565b915050600a82610e4e9190611866565b9150610e2c565b5f8167ffffffffffffffff811115610e7057610e6f61194e565b5b6040519080825280601f01601f191660200182016040528015610ea25781602001600182028036833780820191505090505b5090505b5f8514610f2c578180610eb89061197b565b925050600a85610ec89190611896565b6030610ed491906117d3565b60f81b818381518110610eea57610ee96119a2565b5b60200101907effffffffffffffffffffffffffffffffffffffffffffffffffffffffffffff191690815f1a905350600a85610f259190611866565b9450610ea6565b8093505050505b919050565b5f80610f438361126d565b90505f80600483610f549190611896565b03610f635761016e9050610f69565b61016d90505b5f610f7385610d59565b90505f601f8211610f875760019050611261565b603b8211158015610f99575061016d83145b15610fa75760029050611260565b603c8211158015610fb9575061016e83145b15610fc7576002905061125f565b605a8211158015610fd9575061016d83145b15610fe7576003905061125e565b605b8211158015610ff9575061016e83145b15611007576003905061125d565b60788211158015611019575061016d83145b15611027576004905061125c565b60798211158015611039575061016e83145b15611047576004905061125b565b60978211158015611059575061016d83145b15611067576005905061125a565b60988211158015611079575061016e83145b156110875760059050611259565b60b58211158015611099575061016d83145b156110a75760069050611258565b60b682111580156110b9575061016e83145b156110c75760069050611257565b60d482111580156110d9575061016d83145b156110e75760079050611256565b60d582111580156110f9575061016e83145b156111075760079050611255565b60f38211158015611119575061016d83145b156111275760089050611254565b60f48211158015611139575061016e83145b156111475760089050611253565b610111821115801561115a575061016d83145b156111685760099050611252565b610112821115801561117b575061016e83145b156111895760099050611251565b610130821115801561119c575061016d83145b156111aa57600a9050611250565b61013182111580156111bd575061016e83145b156111cb57600a905061124f565b61014e82111580156111de575061016d83145b156111ec57600b905061124e565b61014f82111580156111ff575061016e83145b1561120d57600b905061124d565b61016d8211158015611220575061016d83145b1561122e57600c905061124c565b61016e8211158015611241575061016e83145b1561124b57600c90505b5b5b5b5b5b5b5b5b5b5b5b5b5b5b5b5b5b5b5b5b5b5b80945050505050919050565b5f8060048361127c9190611866565b90505f6107b36301e28500836112929190611866565b6301e133808460036112a491906118c6565b6112ae9190611866565b6112b891906117d3565b6112c291906117d3565b90508092505050919050565b5f81519050919050565b5f82825260208201905092915050565b5f5b838110156113055780820151818401526020810190506112ea565b5f8484015250505050565b5f601f19601f8301169050919050565b5f61132a826112ce565b61133481856112d8565b93506113448185602086016112e8565b61134d81611310565b840191505092915050565b5f6020820190508181035f8301526113708184611320565b905092915050565b5f80fd5b5f73ffffffffffffffffffffffffffffffffffffffff82169050919050565b5f6113a58261137c565b9050919050565b6113b58161139b565b81146113bf575f80fd5b50565b5f813590506113d0816113ac565b92915050565b5f819050919050565b6113e8816113d6565b81146113f2575f80fd5b50565b5f81359050611403816113df565b92915050565b5f806040838503121561141f5761141e611378565b5b5f61142c858286016113c2565b925050602061143d858286016113f5565b9150509250929050565b5f8115159050919050565b61145b81611447565b82525050565b5f6020820190506114745f830184611452565b92915050565b611483816113d6565b82525050565b5f60208201905061149c5f83018461147a565b92915050565b5f805f606084860312156114b9576114b8611378565b5b5f6114c6868287016113c2565b93505060206114d7868287016113c2565b92505060406114e8868287016113f5565b9150509250925092565b5f60ff82169050919050565b611507816114f2565b82525050565b5f6020820190506115205f8301846114fe565b92915050565b5f6020828403121561153b5761153a611378565b5b5f611548848285016113f5565b91505092915050565b5f6020828403121561156657611565611378565b5b5f611573848285016113c2565b91505092915050565b6115858161139b565b82525050565b5f60208201905061159e5f83018461157c565b92915050565b5f80604083850312156115ba576115b9611378565b5b5f6115c7858286016113c2565b92505060206115d8858286016113c2565b9150509250929050565b7f4e487b71000000000000000000000000000000000000000000000000000000005f52602260045260245ffd5b5f600282049050600182168061162657607f821691505b602082108103611639576116386115e2565b5b50919050565b7f4f6e6c792061646d696e000000000000000000000000000000000000000000005f82015250565b5f611673600a836112d8565b915061167e8261163f565b602082019050919050565b5f6020820190508181035f8301526116a081611667565b9050919050565b5f6060820190506116ba5f83018661157c565b6116c7602083018561147a565b6116d4604083018461147a565b949350505050565b5f81905092915050565b5f6116f0826112ce565b6116fa81856116dc565b935061170a8185602086016112e8565b80840191505092915050565b7f2f000000000000000000000000000000000000000000000000000000000000005f82015250565b5f61174a6001836116dc565b915061175582611716565b600182019050919050565b5f61176b82866116e6565b91506117768261173e565b915061178282856116e6565b915061178d8261173e565b915061179982846116e6565b9150819050949350505050565b7f4e487b71000000000000000000000000000000000000000000000000000000005f52601160045260245ffd5b5f6117dd826113d6565b91506117e8836113d6565b9250828201905080821115611800576117ff6117a6565b5b92915050565b5f611810826113d6565b915061181b836113d6565b9250828203905081811115611833576118326117a6565b5b92915050565b7f4e487b71000000000000000000000000000000000000000000000000000000005f52601260045260245ffd5b5f611870826113d6565b915061187b836113d6565b92508261188b5761188a611839565b5b828204905092915050565b5f6118a0826113d6565b91506118ab836113d6565b9250826118bb576118ba611839565b5b828206905092915050565b5f6118d0826113d6565b91506118db836113d6565b92508282026118e9816113d6565b91508282048414831517611900576118ff6117a6565b5b5092915050565b5f611911826113d6565b91507fffffffffffffffffffffffffffffffffffffffffffffffffffffffffffffffff8203611943576119426117a6565b5b600182019050919050565b7f4e487b71000000000000000000000000000000000000000000000000000000005f52604160045260245ffd5b5f611985826113d6565b91505f8203611997576119966117a6565b5b600182039050919050565b7f4e487b71000000000000000000000000000000000000000000000000000000005f52603260045260245ffdfea26469706673582212207afec91a0bb0a14aa801fa6ef7090a9c1be1c69472774c3600a3dfb7ae7697de64736f6c63430008160033",
			"opcodes": "PUSH1 0x80 PUSH1 0x40 MSTORE CALLVALUE DUP1 ISZERO PUSH3 0x10 JUMPI PUSH0 DUP1 REVERT JUMPDEST POP PUSH1 0x40 MLOAD DUP1 PUSH1 0x40 ADD PUSH1 0x40 MSTORE DUP1 PUSH1 0xC DUP2 MSTORE PUSH1 0x20 ADD PUSH32 0x414954555F4D41475A48414E0000000000000000000000000000000000000000 DUP2 MSTORE POP PUSH1 0x40 MLOAD DUP1 PUSH1 0x40 ADD PUSH1 0x40 MSTORE DUP1 PUSH1 0x3 DUP2 MSTORE PUSH1 0x20 ADD PUSH32 0x4D474E0000000000000000000000000000000000000000000000000000000000 DUP2 MSTORE POP DUP2 PUSH1 0x3 SWAP1 DUP2 PUSH3 0x8E SWAP2 SWAP1 PUSH3 0x60F JUMP JUMPDEST POP DUP1 PUSH1 0x4 SWAP1 DUP2 PUSH3 0xA0 SWAP2 SWAP1 PUSH3 0x60F JUMP JUMPDEST POP POP POP PUSH3 0xB7 CALLER PUSH2 0x7D0 PUSH3 0xFD PUSH1 0x20 SHL PUSH1 0x20 SHR JUMP JUMPDEST CALLER PUSH1 0x5 PUSH0 PUSH2 0x100 EXP DUP2 SLOAD DUP2 PUSH20 0xFFFFFFFFFFFFFFFFFFFFFFFFFFFFFFFFFFFFFFFF MUL NOT AND SWAP1 DUP4 PUSH20 0xFFFFFFFFFFFFFFFFFFFFFFFFFFFFFFFFFFFFFFFF AND MUL OR SWAP1 SSTORE POP PUSH3 0x81F JUMP JUMPDEST PUSH0 PUSH20 0xFFFFFFFFFFFFFFFFFFFFFFFFFFFFFFFFFFFFFFFF AND DUP3 PUSH20 0xFFFFFFFFFFFFFFFFFFFFFFFFFFFFFFFFFFFFFFFF AND SUB PUSH3 0x170 JUMPI PUSH0 PUSH1 0x40 MLOAD PUSH32 0xEC442F0500000000000000000000000000000000000000000000000000000000 DUP2 MSTORE PUSH1 0x4 ADD PUSH3 0x167 SWAP2 SWAP1 PUSH3 0x736 JUMP JUMPDEST PUSH1 0x40 MLOAD DUP1 SWAP2 SUB SWAP1 REVERT JUMPDEST PUSH3 0x183 PUSH0 DUP4 DUP4 PUSH3 0x187 PUSH1 0x20 SHL PUSH1 0x20 SHR JUMP JUMPDEST POP POP JUMP JUMPDEST PUSH0 PUSH20 0xFFFFFFFFFFFFFFFFFFFFFFFFFFFFFFFFFFFFFFFF AND DUP4 PUSH20 0xFFFFFFFFFFFFFFFFFFFFFFFFFFFFFFFFFFFFFFFF AND SUB PUSH3 0x1DB JUMPI DUP1 PUSH1 0x2 PUSH0 DUP3 DUP3 SLOAD PUSH3 0x1CE SWAP2 SWAP1 PUSH3 0x77E JUMP JUMPDEST SWAP3 POP POP DUP2 SWAP1 SSTORE POP PUSH3 0x2AC JUMP JUMPDEST PUSH0 DUP1 PUSH0 DUP6 PUSH20 0xFFFFFFFFFFFFFFFFFFFFFFFFFFFFFFFFFFFFFFFF AND PUSH20 0xFFFFFFFFFFFFFFFFFFFFFFFFFFFFFFFFFFFFFFFF AND DUP2 MSTORE PUSH1 0x20 ADD SWAP1 DUP2 MSTORE PUSH1 0x20 ADD PUSH0 KECCAK256 SLOAD SWAP1 POP DUP2 DUP2 LT ISZERO PUSH3 0x267 JUMPI DUP4 DUP2 DUP4 PUSH1 0x40 MLOAD PUSH32 0xE450D38C00000000000000000000000000000000000000000000000000000000 DUP2 MSTORE PUSH1 0x4 ADD PUSH3 0x25E SWAP4 SWAP3 SWAP2 SWAP1 PUSH3 0x7C9 JUMP JUMPDEST PUSH1 0x40 MLOAD DUP1 SWAP2 SUB SWAP1 REVERT JUMPDEST DUP2 DUP2 SUB PUSH0 DUP1 DUP7 PUSH20 0xFFFFFFFFFFFFFFFFFFFFFFFFFFFFFFFFFFFFFFFF AND PUSH20 0xFFFFFFFFFFFFFFFFFFFFFFFFFFFFFFFFFFFFFFFF AND DUP2 MSTORE PUSH1 0x20 ADD SWAP1 DUP2 MSTORE PUSH1 0x20 ADD PUSH0 KECCAK256 DUP2 SWAP1 SSTORE POP POP JUMPDEST PUSH0 PUSH20 0xFFFFFFFFFFFFFFFFFFFFFFFFFFFFFFFFFFFFFFFF AND DUP3 PUSH20 0xFFFFFFFFFFFFFFFFFFFFFFFFFFFFFFFFFFFFFFFF AND SUB PUSH3 0x2F5 JUMPI DUP1 PUSH1 0x2 PUSH0 DUP3 DUP3 SLOAD SUB SWAP3 POP POP DUP2 SWAP1 SSTORE POP PUSH3 0x33F JUMP JUMPDEST DUP1 PUSH0 DUP1 DUP5 PUSH20 0xFFFFFFFFFFFFFFFFFFFFFFFFFFFFFFFFFFFFFFFF AND PUSH20 0xFFFFFFFFFFFFFFFFFFFFFFFFFFFFFFFFFFFFFFFF AND DUP2 MSTORE PUSH1 0x20 ADD SWAP1 DUP2 MSTORE PUSH1 0x20 ADD PUSH0 KECCAK256 PUSH0 DUP3 DUP3 SLOAD ADD SWAP3 POP POP DUP2 SWAP1 SSTORE POP JUMPDEST DUP2 PUSH20 0xFFFFFFFFFFFFFFFFFFFFFFFFFFFFFFFFFFFFFFFF AND DUP4 PUSH20 0xFFFFFFFFFFFFFFFFFFFFFFFFFFFFFFFFFFFFFFFF AND PUSH32 0xDDF252AD1BE2C89B69C2B068FC378DAA952BA7F163C4A11628F55A4DF523B3EF DUP4 PUSH1 0x40 MLOAD PUSH3 0x39E SWAP2 SWAP1 PUSH3 0x804 JUMP JUMPDEST PUSH1 0x40 MLOAD DUP1 SWAP2 SUB SWAP1 LOG3 POP POP POP JUMP JUMPDEST PUSH0 DUP2 MLOAD SWAP1 POP SWAP2 SWAP1 POP JUMP JUMPDEST PUSH32 0x4E487B7100000000000000000000000000000000000000000000000000000000 PUSH0 MSTORE PUSH1 0x41 PUSH1 0x4 MSTORE PUSH1 0x24 PUSH0 REVERT JUMPDEST PUSH32 0x4E487B7100000000000000000000000000000000000000000000000000000000 PUSH0 MSTORE PUSH1 0x22 PUSH1 0x4 MSTORE PUSH1 0x24 PUSH0 REVERT JUMPDEST PUSH0 PUSH1 0x2 DUP3 DIV SWAP1 POP PUSH1 0x1 DUP3 AND DUP1 PUSH3 0x427 JUMPI PUSH1 0x7F DUP3 AND SWAP2 POP JUMPDEST PUSH1 0x20 DUP3 LT DUP2 SUB PUSH3 0x43D JUMPI PUSH3 0x43C PUSH3 0x3E2 JUMP JUMPDEST JUMPDEST POP SWAP2 SWAP1 POP JUMP JUMPDEST PUSH0 DUP2 SWAP1 POP DUP2 PUSH0 MSTORE PUSH1 0x20 PUSH0 KECCAK256 SWAP1 POP SWAP2 SWAP1 POP JUMP JUMPDEST PUSH0 PUSH1 0x20 PUSH1 0x1F DUP4 ADD DIV SWAP1 POP SWAP2 SWAP1 POP JUMP JUMPDEST PUSH0 DUP3 DUP3 SHL SWAP1 POP SWAP3 SWAP2 POP POP JUMP JUMPDEST PUSH0 PUSH1 0x8 DUP4 MUL PUSH3 0x4A1 PUSH32 0xFFFFFFFFFFFFFFFFFFFFFFFFFFFFFFFFFFFFFFFFFFFFFFFFFFFFFFFFFFFFFFFF DUP3 PUSH3 0x464 JUMP JUMPDEST PUSH3 0x4AD DUP7 DUP4 PUSH3 0x464 JUMP JUMPDEST SWAP6 POP DUP1 NOT DUP5 AND SWAP4 POP DUP1 DUP7 AND DUP5 OR SWAP3 POP POP POP SWAP4 SWAP3 POP POP POP JUMP JUMPDEST PUSH0 DUP2 SWAP1 POP SWAP2 SWAP1 POP JUMP JUMPDEST PUSH0 DUP2 SWAP1 POP SWAP2 SWAP1 POP JUMP JUMPDEST PUSH0 PUSH3 0x4F7 PUSH3 0x4F1 PUSH3 0x4EB DUP5 PUSH3 0x4C5 JUMP JUMPDEST PUSH3 0x4CE JUMP JUMPDEST PUSH3 0x4C5 JUMP JUMPDEST SWAP1 POP SWAP2 SWAP1 POP JUMP JUMPDEST PUSH0 DUP2 SWAP1 POP SWAP2 SWAP1 POP JUMP JUMPDEST PUSH3 0x512 DUP4 PUSH3 0x4D7 JUMP JUMPDEST PUSH3 0x52A PUSH3 0x521 DUP3 PUSH3 0x4FE JUMP JUMPDEST DUP5 DUP5 SLOAD PUSH3 0x470 JUMP JUMPDEST DUP3 SSTORE POP POP POP POP JUMP JUMPDEST PUSH0 SWAP1 JUMP JUMPDEST PUSH3 0x540 PUSH3 0x532 JUMP JUMPDEST PUSH3 0x54D DUP2 DUP5 DUP5 PUSH3 0x507 JUMP JUMPDEST POP POP POP JUMP JUMPDEST JUMPDEST DUP2 DUP2 LT ISZERO PUSH3 0x574 JUMPI PUSH3 0x568 PUSH0 DUP3 PUSH3 0x536 JUMP JUMPDEST PUSH1 0x1 DUP2 ADD SWAP1 POP PUSH3 0x553 JUMP JUMPDEST POP POP JUMP JUMPDEST PUSH1 0x1F DUP3 GT ISZERO PUSH3 0x5C3 JUMPI PUSH3 0x58D DUP2 PUSH3 0x443 JUMP JUMPDEST PUSH3 0x598 DUP5 PUSH3 0x455 JUMP JUMPDEST DUP2 ADD PUSH1 0x20 DUP6 LT ISZERO PUSH3 0x5A8 JUMPI DUP2 SWAP1 POP JUMPDEST PUSH3 0x5C0 PUSH3 0x5B7 DUP6 PUSH3 0x455 JUMP JUMPDEST DUP4 ADD DUP3 PUSH3 0x552 JUMP JUMPDEST POP POP JUMPDEST POP POP POP JUMP JUMPDEST PUSH0 DUP3 DUP3 SHR SWAP1 POP SWAP3 SWAP2 POP POP JUMP JUMPDEST PUSH0 PUSH3 0x5E5 PUSH0 NOT DUP5 PUSH1 0x8 MUL PUSH3 0x5C8 JUMP JUMPDEST NOT DUP1 DUP4 AND SWAP2 POP POP SWAP3 SWAP2 POP POP JUMP JUMPDEST PUSH0 PUSH3 0x5FF DUP4 DUP4 PUSH3 0x5D4 JUMP JUMPDEST SWAP2 POP DUP3 PUSH1 0x2 MUL DUP3 OR SWAP1 POP SWAP3 SWAP2 POP POP JUMP JUMPDEST PUSH3 0x61A DUP3 PUSH3 0x3AB JUMP JUMPDEST PUSH8 0xFFFFFFFFFFFFFFFF DUP2 GT ISZERO PUSH3 0x636 JUMPI PUSH3 0x635 PUSH3 0x3B5 JUMP JUMPDEST JUMPDEST PUSH3 0x642 DUP3 SLOAD PUSH3 0x40F JUMP JUMPDEST PUSH3 0x64F DUP3 DUP3 DUP6 PUSH3 0x578 JUMP JUMPDEST PUSH0 PUSH1 0x20 SWAP1 POP PUSH1 0x1F DUP4 GT PUSH1 0x1 DUP2 EQ PUSH3 0x685 JUMPI PUSH0 DUP5 ISZERO PUSH3 0x670 JUMPI DUP3 DUP8 ADD MLOAD SWAP1 POP JUMPDEST PUSH3 0x67C DUP6 DUP3 PUSH3 0x5F2 JUMP JUMPDEST DUP7 SSTORE POP PUSH3 0x6EB JUMP JUMPDEST PUSH1 0x1F NOT DUP5 AND PUSH3 0x695 DUP7 PUSH3 0x443 JUMP JUMPDEST PUSH0 JUMPDEST DUP3 DUP2 LT ISZERO PUSH3 0x6BE JUMPI DUP5 DUP10 ADD MLOAD DUP3 SSTORE PUSH1 0x1 DUP3 ADD SWAP2 POP PUSH1 0x20 DUP6 ADD SWAP5 POP PUSH1 0x20 DUP2 ADD SWAP1 POP PUSH3 0x697 JUMP JUMPDEST DUP7 DUP4 LT ISZERO PUSH3 0x6DE JUMPI DUP5 DUP10 ADD MLOAD PUSH3 0x6DA PUSH1 0x1F DUP10 AND DUP3 PUSH3 0x5D4 JUMP JUMPDEST DUP4 SSTORE POP JUMPDEST PUSH1 0x1 PUSH1 0x2 DUP9 MUL ADD DUP9 SSTORE POP POP POP JUMPDEST POP POP POP POP POP POP JUMP JUMPDEST PUSH0 PUSH20 0xFFFFFFFFFFFFFFFFFFFFFFFFFFFFFFFFFFFFFFFF DUP3 AND SWAP1 POP SWAP2 SWAP1 POP JUMP JUMPDEST PUSH0 PUSH3 0x71E DUP3 PUSH3 0x6F3 JUMP JUMPDEST SWAP1 POP SWAP2 SWAP1 POP JUMP JUMPDEST PUSH3 0x730 DUP2 PUSH3 0x712 JUMP JUMPDEST DUP3 MSTORE POP POP JUMP JUMPDEST PUSH0 PUSH1 0x20 DUP3 ADD SWAP1 POP PUSH3 0x74B PUSH0 DUP4 ADD DUP5 PUSH3 0x725 JUMP JUMPDEST SWAP3 SWAP2 POP POP JUMP JUMPDEST PUSH32 0x4E487B7100000000000000000000000000000000000000000000000000000000 PUSH0 MSTORE PUSH1 0x11 PUSH1 0x4 MSTORE PUSH1 0x24 PUSH0 REVERT JUMPDEST PUSH0 PUSH3 0x78A DUP3 PUSH3 0x4C5 JUMP JUMPDEST SWAP2 POP PUSH3 0x797 DUP4 PUSH3 0x4C5 JUMP JUMPDEST SWAP3 POP DUP3 DUP3 ADD SWAP1 POP DUP1 DUP3 GT ISZERO PUSH3 0x7B2 JUMPI PUSH3 0x7B1 PUSH3 0x751 JUMP JUMPDEST JUMPDEST SWAP3 SWAP2 POP POP JUMP JUMPDEST PUSH3 0x7C3 DUP2 PUSH3 0x4C5 JUMP JUMPDEST DUP3 MSTORE POP POP JUMP JUMPDEST PUSH0 PUSH1 0x60 DUP3 ADD SWAP1 POP PUSH3 0x7DE PUSH0 DUP4 ADD DUP7 PUSH3 0x725 JUMP JUMPDEST PUSH3 0x7ED PUSH1 0x20 DUP4 ADD DUP6 PUSH3 0x7B8 JUMP JUMPDEST PUSH3 0x7FC PUSH1 0x40 DUP4 ADD DUP5 PUSH3 0x7B8 JUMP JUMPDEST SWAP5 SWAP4 POP POP POP POP JUMP JUMPDEST PUSH0 PUSH1 0x20 DUP3 ADD SWAP1 POP PUSH3 0x819 PUSH0 DUP4 ADD DUP5 PUSH3 0x7B8 JUMP JUMPDEST SWAP3 SWAP2 POP POP JUMP JUMPDEST PUSH2 0x1A05 DUP1 PUSH3 0x82D PUSH0 CODECOPY PUSH0 RETURN INVALID PUSH1 0x80 PUSH1 0x40 MSTORE CALLVALUE DUP1 ISZERO PUSH2 0xF JUMPI PUSH0 DUP1 REVERT JUMPDEST POP PUSH1 0x4 CALLDATASIZE LT PUSH2 0xF3 JUMPI PUSH0 CALLDATALOAD PUSH1 0xE0 SHR DUP1 PUSH4 0x42966C68 GT PUSH2 0x95 JUMPI DUP1 PUSH4 0xBEAD3F50 GT PUSH2 0x64 JUMPI DUP1 PUSH4 0xBEAD3F50 EQ PUSH2 0x285 JUMPI DUP1 PUSH4 0xD45E3F4A EQ PUSH2 0x2A3 JUMPI DUP1 PUSH4 0xDD62ED3E EQ PUSH2 0x2C1 JUMPI DUP1 PUSH4 0xF851A440 EQ PUSH2 0x2F1 JUMPI PUSH2 0xF3 JUMP JUMPDEST DUP1 PUSH4 0x42966C68 EQ PUSH2 0x1EB JUMPI DUP1 PUSH4 0x70A08231 EQ PUSH2 0x207 JUMPI DUP1 PUSH4 0x95D89B41 EQ PUSH2 0x237 JUMPI DUP1 PUSH4 0xA9059CBB EQ PUSH2 0x255 JUMPI PUSH2 0xF3 JUMP JUMPDEST DUP1 PUSH4 0x23B872DD GT PUSH2 0xD1 JUMPI DUP1 PUSH4 0x23B872DD EQ PUSH2 0x163 JUMPI DUP1 PUSH4 0x2FF2E9DC EQ PUSH2 0x193 JUMPI DUP1 PUSH4 0x313CE567 EQ PUSH2 0x1B1 JUMPI DUP1 PUSH4 0x40C10F19 EQ PUSH2 0x1CF JUMPI PUSH2 0xF3 JUMP JUMPDEST DUP1 PUSH4 0x6FDDE03 EQ PUSH2 0xF7 JUMPI DUP1 PUSH4 0x95EA7B3 EQ PUSH2 0x115 JUMPI DUP1 PUSH4 0x18160DDD EQ PUSH2 0x145 JUMPI JUMPDEST PUSH0 DUP1 REVERT JUMPDEST PUSH2 0xFF PUSH2 0x30F JUMP JUMPDEST PUSH1 0x40 MLOAD PUSH2 0x10C SWAP2 SWAP1 PUSH2 0x1358 JUMP JUMPDEST PUSH1 0x40 MLOAD DUP1 SWAP2 SUB SWAP1 RETURN JUMPDEST PUSH2 0x12F PUSH1 0x4 DUP1 CALLDATASIZE SUB DUP2 ADD SWAP1 PUSH2 0x12A SWAP2 SWAP1 PUSH2 0x1409 JUMP JUMPDEST PUSH2 0x39F JUMP JUMPDEST PUSH1 0x40 MLOAD PUSH2 0x13C SWAP2 SWAP1 PUSH2 0x1461 JUMP JUMPDEST PUSH1 0x40 MLOAD DUP1 SWAP2 SUB SWAP1 RETURN JUMPDEST PUSH2 0x14D PUSH2 0x3C1 JUMP JUMPDEST PUSH1 0x40 MLOAD PUSH2 0x15A SWAP2 SWAP1 PUSH2 0x1489 JUMP JUMPDEST PUSH1 0x40 MLOAD DUP1 SWAP2 SUB SWAP1 RETURN JUMPDEST PUSH2 0x17D PUSH1 0x4 DUP1 CALLDATASIZE SUB DUP2 ADD SWAP1 PUSH2 0x178 SWAP2 SWAP1 PUSH2 0x14A2 JUMP JUMPDEST PUSH2 0x3CA JUMP JUMPDEST PUSH1 0x40 MLOAD PUSH2 0x18A SWAP2 SWAP1 PUSH2 0x1461 JUMP JUMPDEST PUSH1 0x40 MLOAD DUP1 SWAP2 SUB SWAP1 RETURN JUMPDEST PUSH2 0x19B PUSH2 0x3F8 JUMP JUMPDEST PUSH1 0x40 MLOAD PUSH2 0x1A8 SWAP2 SWAP1 PUSH2 0x1489 JUMP JUMPDEST PUSH1 0x40 MLOAD DUP1 SWAP2 SUB SWAP1 RETURN JUMPDEST PUSH2 0x1B9 PUSH2 0x3FE JUMP JUMPDEST PUSH1 0x40 MLOAD PUSH2 0x1C6 SWAP2 SWAP1 PUSH2 0x150D JUMP JUMPDEST PUSH1 0x40 MLOAD DUP1 SWAP2 SUB SWAP1 RETURN JUMPDEST PUSH2 0x1E9 PUSH1 0x4 DUP1 CALLDATASIZE SUB DUP2 ADD SWAP1 PUSH2 0x1E4 SWAP2 SWAP1 PUSH2 0x1409 JUMP JUMPDEST PUSH2 0x406 JUMP JUMPDEST STOP JUMPDEST PUSH2 0x205 PUSH1 0x4 DUP1 CALLDATASIZE SUB DUP2 ADD SWAP1 PUSH2 0x200 SWAP2 SWAP1 PUSH2 0x1526 JUMP JUMPDEST PUSH2 0x4A3 JUMP JUMPDEST STOP JUMPDEST PUSH2 0x221 PUSH1 0x4 DUP1 CALLDATASIZE SUB DUP2 ADD SWAP1 PUSH2 0x21C SWAP2 SWAP1 PUSH2 0x1551 JUMP JUMPDEST PUSH2 0x4B0 JUMP JUMPDEST PUSH1 0x40 MLOAD PUSH2 0x22E SWAP2 SWAP1 PUSH2 0x1489 JUMP JUMPDEST PUSH1 0x40 MLOAD DUP1 SWAP2 SUB SWAP1 RETURN JUMPDEST PUSH2 0x23F PUSH2 0x4F5 JUMP JUMPDEST PUSH1 0x40 MLOAD PUSH2 0x24C SWAP2 SWAP1 PUSH2 0x1358 JUMP JUMPDEST PUSH1 0x40 MLOAD DUP1 SWAP2 SUB SWAP1 RETURN JUMPDEST PUSH2 0x26F PUSH1 0x4 DUP1 CALLDATASIZE SUB DUP2 ADD SWAP1 PUSH2 0x26A SWAP2 SWAP1 PUSH2 0x1409 JUMP JUMPDEST PUSH2 0x585 JUMP JUMPDEST PUSH1 0x40 MLOAD PUSH2 0x27C SWAP2 SWAP1 PUSH2 0x1461 JUMP JUMPDEST PUSH1 0x40 MLOAD DUP1 SWAP2 SUB SWAP1 RETURN JUMPDEST PUSH2 0x28D PUSH2 0x5A7 JUMP JUMPDEST PUSH1 0x40 MLOAD PUSH2 0x29A SWAP2 SWAP1 PUSH2 0x158B JUMP JUMPDEST PUSH1 0x40 MLOAD DUP1 SWAP2 SUB SWAP1 RETURN JUMPDEST PUSH2 0x2AB PUSH2 0x5B5 JUMP JUMPDEST PUSH1 0x40 MLOAD PUSH2 0x2B8 SWAP2 SWAP1 PUSH2 0x1358 JUMP JUMPDEST PUSH1 0x40 MLOAD DUP1 SWAP2 SUB SWAP1 RETURN JUMPDEST PUSH2 0x2DB PUSH1 0x4 DUP1 CALLDATASIZE SUB DUP2 ADD SWAP1 PUSH2 0x2D6 SWAP2 SWAP1 PUSH2 0x15A4 JUMP JUMPDEST PUSH2 0x5C5 JUMP JUMPDEST PUSH1 0x40 MLOAD PUSH2 0x2E8 SWAP2 SWAP1 PUSH2 0x1489 JUMP JUMPDEST PUSH1 0x40 MLOAD DUP1 SWAP2 SUB SWAP1 RETURN JUMPDEST PUSH2 0x2F9 PUSH2 0x647 JUMP JUMPDEST PUSH1 0x40 MLOAD PUSH2 0x306 SWAP2 SWAP1 PUSH2 0x158B JUMP JUMPDEST PUSH1 0x40 MLOAD DUP1 SWAP2 SUB SWAP1 RETURN JUMPDEST PUSH1 0x60 PUSH1 0x3 DUP1 SLOAD PUSH2 0x31E SWAP1 PUSH2 0x160F JUMP JUMPDEST DUP1 PUSH1 0x1F ADD PUSH1 0x20 DUP1 SWAP2 DIV MUL PUSH1 0x20 ADD PUSH1 0x40 MLOAD SWAP1 DUP2 ADD PUSH1 0x40 MSTORE DUP1 SWAP3 SWAP2 SWAP1 DUP2 DUP2 MSTORE PUSH1 0x20 ADD DUP3 DUP1 SLOAD PUSH2 0x34A SWAP1 PUSH2 0x160F JUMP JUMPDEST DUP1 ISZERO PUSH2 0x395 JUMPI DUP1 PUSH1 0x1F LT PUSH2 0x36C JUMPI PUSH2 0x100 DUP1 DUP4 SLOAD DIV MUL DUP4 MSTORE SWAP2 PUSH1 0x20 ADD SWAP2 PUSH2 0x395 JUMP JUMPDEST DUP3 ADD SWAP2 SWAP1 PUSH0 MSTORE PUSH1 0x20 PUSH0 KECCAK256 SWAP1 JUMPDEST DUP2 SLOAD DUP2 MSTORE SWAP1 PUSH1 0x1 ADD SWAP1 PUSH1 0x20 ADD DUP1 DUP4 GT PUSH2 0x378 JUMPI DUP3 SWAP1 SUB PUSH1 0x1F AND DUP3 ADD SWAP2 JUMPDEST POP POP POP POP POP SWAP1 POP SWAP1 JUMP JUMPDEST PUSH0 DUP1 PUSH2 0x3A9 PUSH2 0x66C JUMP JUMPDEST SWAP1 POP PUSH2 0x3B6 DUP2 DUP6 DUP6 PUSH2 0x673 JUMP JUMPDEST PUSH1 0x1 SWAP2 POP POP SWAP3 SWAP2 POP POP JUMP JUMPDEST PUSH0 PUSH1 0x2 SLOAD SWAP1 POP SWAP1 JUMP JUMPDEST PUSH0 DUP1 PUSH2 0x3D4 PUSH2 0x66C JUMP JUMPDEST SWAP1 POP PUSH2 0x3E1 DUP6 DUP3 DUP6 PUSH2 0x685 JUMP JUMPDEST PUSH2 0x3EC DUP6 DUP6 DUP6 PUSH2 0x717 JUMP JUMPDEST PUSH1 0x1 SWAP2 POP POP SWAP4 SWAP3 POP POP POP JUMP JUMPDEST PUSH2 0x7D0 DUP2 JUMP JUMPDEST PUSH0 PUSH1 0x12 SWAP1 POP SWAP1 JUMP JUMPDEST PUSH1 0x5 PUSH0 SWAP1 SLOAD SWAP1 PUSH2 0x100 EXP SWAP1 DIV PUSH20 0xFFFFFFFFFFFFFFFFFFFFFFFFFFFFFFFFFFFFFFFF AND PUSH20 0xFFFFFFFFFFFFFFFFFFFFFFFFFFFFFFFFFFFFFFFF AND CALLER PUSH20 0xFFFFFFFFFFFFFFFFFFFFFFFFFFFFFFFFFFFFFFFF AND EQ PUSH2 0x495 JUMPI PUSH1 0x40 MLOAD PUSH32 0x8C379A000000000000000000000000000000000000000000000000000000000 DUP2 MSTORE PUSH1 0x4 ADD PUSH2 0x48C SWAP1 PUSH2 0x1689 JUMP JUMPDEST PUSH1 0x40 MLOAD DUP1 SWAP2 SUB SWAP1 REVERT JUMPDEST PUSH2 0x49F DUP3 DUP3 PUSH2 0x807 JUMP JUMPDEST POP POP JUMP JUMPDEST PUSH2 0x4AD CALLER DUP3 PUSH2 0x886 JUMP JUMPDEST POP JUMP JUMPDEST PUSH0 DUP1 PUSH0 DUP4 PUSH20 0xFFFFFFFFFFFFFFFFFFFFFFFFFFFFFFFFFFFFFFFF AND PUSH20 0xFFFFFFFFFFFFFFFFFFFFFFFFFFFFFFFFFFFFFFFF AND DUP2 MSTORE PUSH1 0x20 ADD SWAP1 DUP2 MSTORE PUSH1 0x20 ADD PUSH0 KECCAK256 SLOAD SWAP1 POP SWAP2 SWAP1 POP JUMP JUMPDEST PUSH1 0x60 PUSH1 0x4 DUP1 SLOAD PUSH2 0x504 SWAP1 PUSH2 0x160F JUMP JUMPDEST DUP1 PUSH1 0x1F ADD PUSH1 0x20 DUP1 SWAP2 DIV MUL PUSH1 0x20 ADD PUSH1 0x40 MLOAD SWAP1 DUP2 ADD PUSH1 0x40 MSTORE DUP1 SWAP3 SWAP2 SWAP1 DUP2 DUP2 MSTORE PUSH1 0x20 ADD DUP3 DUP1 SLOAD PUSH2 0x530 SWAP1 PUSH2 0x160F JUMP JUMPDEST DUP1 ISZERO PUSH2 0x57B JUMPI DUP1 PUSH1 0x1F LT PUSH2 0x552 JUMPI PUSH2 0x100 DUP1 DUP4 SLOAD DIV MUL DUP4 MSTORE SWAP2 PUSH1 0x20 ADD SWAP2 PUSH2 0x57B JUMP JUMPDEST DUP3 ADD SWAP2 SWAP1 PUSH0 MSTORE PUSH1 0x20 PUSH0 KECCAK256 SWAP1 JUMPDEST DUP2 SLOAD DUP2 MSTORE SWAP1 PUSH1 0x1 ADD SWAP1 PUSH1 0x20 ADD DUP1 DUP4 GT PUSH2 0x55E JUMPI DUP3 SWAP1 SUB PUSH1 0x1F AND DUP3 ADD SWAP2 JUMPDEST POP POP POP POP POP SWAP1 POP SWAP1 JUMP JUMPDEST PUSH0 DUP1 PUSH2 0x58F PUSH2 0x66C JUMP JUMPDEST SWAP1 POP PUSH2 0x59C DUP2 DUP6 DUP6 PUSH2 0x717 JUMP JUMPDEST PUSH1 0x1 SWAP2 POP POP SWAP3 SWAP2 POP POP JUMP JUMPDEST PUSH0 PUSH2 0x5B0 PUSH2 0x66C JUMP JUMPDEST SWAP1 POP SWAP1 JUMP JUMPDEST PUSH1 0x60 PUSH2 0x5C0 TIMESTAMP PUSH2 0x905 JUMP JUMPDEST SWAP1 POP SWAP1 JUMP JUMPDEST PUSH0 PUSH1 0x1 PUSH0 DUP5 PUSH20 0xFFFFFFFFFFFFFFFFFFFFFFFFFFFFFFFFFFFFFFFF AND PUSH20 0xFFFFFFFFFFFFFFFFFFFFFFFFFFFFFFFFFFFFFFFF AND DUP2 MSTORE PUSH1 0x20 ADD SWAP1 DUP2 MSTORE PUSH1 0x20 ADD PUSH0 KECCAK256 PUSH0 DUP4 PUSH20 0xFFFFFFFFFFFFFFFFFFFFFFFFFFFFFFFFFFFFFFFF AND PUSH20 0xFFFFFFFFFFFFFFFFFFFFFFFFFFFFFFFFFFFFFFFF AND DUP2 MSTORE PUSH1 0x20 ADD SWAP1 DUP2 MSTORE PUSH1 0x20 ADD PUSH0 KECCAK256 SLOAD SWAP1 POP SWAP3 SWAP2 POP POP JUMP JUMPDEST PUSH1 0x5 PUSH0 SWAP1 SLOAD SWAP1 PUSH2 0x100 EXP SWAP1 DIV PUSH20 0xFFFFFFFFFFFFFFFFFFFFFFFFFFFFFFFFFFFFFFFF AND DUP2 JUMP JUMPDEST PUSH0 CALLER SWAP1 POP SWAP1 JUMP JUMPDEST PUSH2 0x680 DUP4 DUP4 DUP4 PUSH1 0x1 PUSH2 0x971 JUMP JUMPDEST POP POP POP JUMP JUMPDEST PUSH0 PUSH2 0x690 DUP5 DUP5 PUSH2 0x5C5 JUMP JUMPDEST SWAP1 POP PUSH32 0xFFFFFFFFFFFFFFFFFFFFFFFFFFFFFFFFFFFFFFFFFFFFFFFFFFFFFFFFFFFFFFFF DUP2 EQ PUSH2 0x711 JUMPI DUP2 DUP2 LT ISZERO PUSH2 0x702 JUMPI DUP3 DUP2 DUP4 PUSH1 0x40 MLOAD PUSH32 0xFB8F41B200000000000000000000000000000000000000000000000000000000 DUP2 MSTORE PUSH1 0x4 ADD PUSH2 0x6F9 SWAP4 SWAP3 SWAP2 SWAP1 PUSH2 0x16A7 JUMP JUMPDEST PUSH1 0x40 MLOAD DUP1 SWAP2 SUB SWAP1 REVERT JUMPDEST PUSH2 0x710 DUP5 DUP5 DUP5 DUP5 SUB PUSH0 PUSH2 0x971 JUMP JUMPDEST JUMPDEST POP POP POP POP JUMP JUMPDEST PUSH0 PUSH20 0xFFFFFFFFFFFFFFFFFFFFFFFFFFFFFFFFFFFFFFFF AND DUP4 PUSH20 0xFFFFFFFFFFFFFFFFFFFFFFFFFFFFFFFFFFFFFFFF AND SUB PUSH2 0x787 JUMPI PUSH0 PUSH1 0x40 MLOAD PUSH32 0x96C6FD1E00000000000000000000000000000000000000000000000000000000 DUP2 MSTORE PUSH1 0x4 ADD PUSH2 0x77E SWAP2 SWAP1 PUSH2 0x158B JUMP JUMPDEST PUSH1 0x40 MLOAD DUP1 SWAP2 SUB SWAP1 REVERT JUMPDEST PUSH0 PUSH20 0xFFFFFFFFFFFFFFFFFFFFFFFFFFFFFFFFFFFFFFFF AND DUP3 PUSH20 0xFFFFFFFFFFFFFFFFFFFFFFFFFFFFFFFFFFFFFFFF AND SUB PUSH2 0x7F7 JUMPI PUSH0 PUSH1 0x40 MLOAD PUSH32 0xEC442F0500000000000000000000000000000000000000000000000000000000 DUP2 MSTORE PUSH1 0x4 ADD PUSH2 0x7EE SWAP2 SWAP1 PUSH2 0x158B JUMP JUMPDEST PUSH1 0x40 MLOAD DUP1 SWAP2 SUB SWAP1 REVERT JUMPDEST PUSH2 0x802 DUP4 DUP4 DUP4 PUSH2 0xB40 JUMP JUMPDEST POP POP POP JUMP JUMPDEST PUSH0 PUSH20 0xFFFFFFFFFFFFFFFFFFFFFFFFFFFFFFFFFFFFFFFF AND DUP3 PUSH20 0xFFFFFFFFFFFFFFFFFFFFFFFFFFFFFFFFFFFFFFFF AND SUB PUSH2 0x877 JUMPI PUSH0 PUSH1 0x40 MLOAD PUSH32 0xEC442F0500000000000000000000000000000000000000000000000000000000 DUP2 MSTORE PUSH1 0x4 ADD PUSH2 0x86E SWAP2 SWAP1 PUSH2 0x158B JUMP JUMPDEST PUSH1 0x40 MLOAD DUP1 SWAP2 SUB SWAP1 REVERT JUMPDEST PUSH2 0x882 PUSH0 DUP4 DUP4 PUSH2 0xB40 JUMP JUMPDEST POP POP JUMP JUMPDEST PUSH0 PUSH20 0xFFFFFFFFFFFFFFFFFFFFFFFFFFFFFFFFFFFFFFFF AND DUP3 PUSH20 0xFFFFFFFFFFFFFFFFFFFFFFFFFFFFFFFFFFFFFFFF AND SUB PUSH2 0x8F6 JUMPI PUSH0 PUSH1 0x40 MLOAD PUSH32 0x96C6FD1E00000000000000000000000000000000000000000000000000000000 DUP2 MSTORE PUSH1 0x4 ADD PUSH2 0x8ED SWAP2 SWAP1 PUSH2 0x158B JUMP JUMPDEST PUSH1 0x40 MLOAD DUP1 SWAP2 SUB SWAP1 REVERT JUMPDEST PUSH2 0x901 DUP3 PUSH0 DUP4 PUSH2 0xB40 JUMP JUMPDEST POP POP JUMP JUMPDEST PUSH1 0x60 PUSH0 PUSH2 0x919 PUSH2 0x914 DUP5 PUSH2 0xD59 JUMP JUMPDEST PUSH2 0xDE0 JUMP JUMPDEST SWAP1 POP PUSH0 PUSH2 0x92D PUSH2 0x928 DUP6 PUSH2 0xF38 JUMP JUMPDEST PUSH2 0xDE0 JUMP JUMPDEST SWAP1 POP PUSH0 PUSH2 0x941 PUSH2 0x93C DUP7 PUSH2 0x126D JUMP JUMPDEST PUSH2 0xDE0 JUMP JUMPDEST SWAP1 POP DUP3 DUP3 DUP3 PUSH1 0x40 MLOAD PUSH1 0x20 ADD PUSH2 0x958 SWAP4 SWAP3 SWAP2 SWAP1 PUSH2 0x1760 JUMP JUMPDEST PUSH1 0x40 MLOAD PUSH1 0x20 DUP2 DUP4 SUB SUB DUP2 MSTORE SWAP1 PUSH1 0x40 MSTORE SWAP4 POP POP POP POP SWAP2 SWAP1 POP JUMP JUMPDEST PUSH0 PUSH20 0xFFFFFFFFFFFFFFFFFFFFFFFFFFFFFFFFFFFFFFFF AND DUP5 PUSH20 0xFFFFFFFFFFFFFFFFFFFFFFFFFFFFFFFFFFFFFFFF AND SUB PUSH2 0x9E1 JUMPI PUSH0 PUSH1 0x40 MLOAD PUSH32 0xE602DF0500000000000000000000000000000000000000000000000000000000 DUP2 MSTORE PUSH1 0x4 ADD PUSH2 0x9D8 SWAP2 SWAP1 PUSH2 0x158B JUMP JUMPDEST PUSH1 0x40 MLOAD DUP1 SWAP2 SUB SWAP1 REVERT JUMPDEST PUSH0 PUSH20 0xFFFFFFFFFFFFFFFFFFFFFFFFFFFFFFFFFFFFFFFF AND DUP4 PUSH20 0xFFFFFFFFFFFFFFFFFFFFFFFFFFFFFFFFFFFFFFFF AND SUB PUSH2 0xA51 JUMPI PUSH0 PUSH1 0x40 MLOAD PUSH32 0x94280D6200000000000000000000000000000000000000000000000000000000 DUP2 MSTORE PUSH1 0x4 ADD PUSH2 0xA48 SWAP2 SWAP1 PUSH2 0x158B JUMP JUMPDEST PUSH1 0x40 MLOAD DUP1 SWAP2 SUB SWAP1 REVERT JUMPDEST DUP2 PUSH1 0x1 PUSH0 DUP7 PUSH20 0xFFFFFFFFFFFFFFFFFFFFFFFFFFFFFFFFFFFFFFFF AND PUSH20 0xFFFFFFFFFFFFFFFFFFFFFFFFFFFFFFFFFFFFFFFF AND DUP2 MSTORE PUSH1 0x20 ADD SWAP1 DUP2 MSTORE PUSH1 0x20 ADD PUSH0 KECCAK256 PUSH0 DUP6 PUSH20 0xFFFFFFFFFFFFFFFFFFFFFFFFFFFFFFFFFFFFFFFF AND PUSH20 0xFFFFFFFFFFFFFFFFFFFFFFFFFFFFFFFFFFFFFFFF AND DUP2 MSTORE PUSH1 0x20 ADD SWAP1 DUP2 MSTORE PUSH1 0x20 ADD PUSH0 KECCAK256 DUP2 SWAP1 SSTORE POP DUP1 ISZERO PUSH2 0xB3A JUMPI DUP3 PUSH20 0xFFFFFFFFFFFFFFFFFFFFFFFFFFFFFFFFFFFFFFFF AND DUP5 PUSH20 0xFFFFFFFFFFFFFFFFFFFFFFFFFFFFFFFFFFFFFFFF AND PUSH32 0x8C5BE1E5EBEC7D5BD14F71427D1E84F3DD0314C0F7B2291E5B200AC8C7C3B925 DUP5 PUSH1 0x40 MLOAD PUSH2 0xB31 SWAP2 SWAP1 PUSH2 0x1489 JUMP JUMPDEST PUSH1 0x40 MLOAD DUP1 SWAP2 SUB SWAP1 LOG3 JUMPDEST POP POP POP POP JUMP JUMPDEST PUSH0 PUSH20 0xFFFFFFFFFFFFFFFFFFFFFFFFFFFFFFFFFFFFFFFF AND DUP4 PUSH20 0xFFFFFFFFFFFFFFFFFFFFFFFFFFFFFFFFFFFFFFFF AND SUB PUSH2 0xB90 JUMPI DUP1 PUSH1 0x2 PUSH0 DUP3 DUP3 SLOAD PUSH2 0xB84 SWAP2 SWAP1 PUSH2 0x17D3 JUMP JUMPDEST SWAP3 POP POP DUP2 SWAP1 SSTORE POP PUSH2 0xC5E JUMP JUMPDEST PUSH0 DUP1 PUSH0 DUP6 PUSH20 0xFFFFFFFFFFFFFFFFFFFFFFFFFFFFFFFFFFFFFFFF AND PUSH20 0xFFFFFFFFFFFFFFFFFFFFFFFFFFFFFFFFFFFFFFFF AND DUP2 MSTORE PUSH1 0x20 ADD SWAP1 DUP2 MSTORE PUSH1 0x20 ADD PUSH0 KECCAK256 SLOAD SWAP1 POP DUP2 DUP2 LT ISZERO PUSH2 0xC19 JUMPI DUP4 DUP2 DUP4 PUSH1 0x40 MLOAD PUSH32 0xE450D38C00000000000000000000000000000000000000000000000000000000 DUP2 MSTORE PUSH1 0x4 ADD PUSH2 0xC10 SWAP4 SWAP3 SWAP2 SWAP1 PUSH2 0x16A7 JUMP JUMPDEST PUSH1 0x40 MLOAD DUP1 SWAP2 SUB SWAP1 REVERT JUMPDEST DUP2 DUP2 SUB PUSH0 DUP1 DUP7 PUSH20 0xFFFFFFFFFFFFFFFFFFFFFFFFFFFFFFFFFFFFFFFF AND PUSH20 0xFFFFFFFFFFFFFFFFFFFFFFFFFFFFFFFFFFFFFFFF AND DUP2 MSTORE PUSH1 0x20 ADD SWAP1 DUP2 MSTORE PUSH1 0x20 ADD PUSH0 KECCAK256 DUP2 SWAP1 SSTORE POP POP JUMPDEST PUSH0 PUSH20 0xFFFFFFFFFFFFFFFFFFFFFFFFFFFFFFFFFFFFFFFF AND DUP3 PUSH20 0xFFFFFFFFFFFFFFFFFFFFFFFFFFFFFFFFFFFFFFFF AND SUB PUSH2 0xCA5 JUMPI DUP1 PUSH1 0x2 PUSH0 DUP3 DUP3 SLOAD SUB SWAP3 POP POP DUP2 SWAP1 SSTORE POP PUSH2 0xCEF JUMP JUMPDEST DUP1 PUSH0 DUP1 DUP5 PUSH20 0xFFFFFFFFFFFFFFFFFFFFFFFFFFFFFFFFFFFFFFFF AND PUSH20 0xFFFFFFFFFFFFFFFFFFFFFFFFFFFFFFFFFFFFFFFF AND DUP2 MSTORE PUSH1 0x20 ADD SWAP1 DUP2 MSTORE PUSH1 0x20 ADD PUSH0 KECCAK256 PUSH0 DUP3 DUP3 SLOAD ADD SWAP3 POP POP DUP2 SWAP1 SSTORE POP JUMPDEST DUP2 PUSH20 0xFFFFFFFFFFFFFFFFFFFFFFFFFFFFFFFFFFFFFFFF AND DUP4 PUSH20 0xFFFFFFFFFFFFFFFFFFFFFFFFFFFFFFFFFFFFFFFF AND PUSH32 0xDDF252AD1BE2C89B69C2B068FC378DAA952BA7F163C4A11628F55A4DF523B3EF DUP4 PUSH1 0x40 MLOAD PUSH2 0xD4C SWAP2 SWAP1 PUSH2 0x1489 JUMP JUMPDEST PUSH1 0x40 MLOAD DUP1 SWAP2 SUB SWAP1 LOG3 POP POP POP JUMP JUMPDEST PUSH0 DUP1 PUSH2 0xD64 DUP4 PUSH2 0x126D JUMP JUMPDEST SWAP1 POP PUSH0 PUSH2 0x7B2 DUP3 PUSH2 0xD75 SWAP2 SWAP1 PUSH2 0x1806 JUMP JUMPDEST SWAP1 POP PUSH0 PUSH3 0x15180 DUP6 PUSH2 0xD87 SWAP2 SWAP1 PUSH2 0x1866 JUMP JUMPDEST SWAP1 POP PUSH0 DUP1 PUSH1 0x4 DUP6 PUSH2 0xD98 SWAP2 SWAP1 PUSH2 0x1896 JUMP JUMPDEST SUB PUSH2 0xDA7 JUMPI PUSH2 0x16D SWAP1 POP PUSH2 0xDAD JUMP JUMPDEST PUSH2 0x16C SWAP1 POP JUMPDEST PUSH0 PUSH1 0xC DUP3 DUP6 PUSH2 0xDBC SWAP2 SWAP1 PUSH2 0x18C6 JUMP JUMPDEST DUP5 PUSH2 0xDC7 SWAP2 SWAP1 PUSH2 0x1806 JUMP JUMPDEST PUSH2 0xDD1 SWAP2 SWAP1 PUSH2 0x1806 JUMP JUMPDEST SWAP1 POP DUP1 SWAP6 POP POP POP POP POP POP SWAP2 SWAP1 POP JUMP JUMPDEST PUSH1 0x60 PUSH0 DUP3 SUB PUSH2 0xE26 JUMPI PUSH1 0x40 MLOAD DUP1 PUSH1 0x40 ADD PUSH1 0x40 MSTORE DUP1 PUSH1 0x1 DUP2 MSTORE PUSH1 0x20 ADD PUSH32 0x3000000000000000000000000000000000000000000000000000000000000000 DUP2 MSTORE POP SWAP1 POP PUSH2 0xF33 JUMP JUMPDEST PUSH0 DUP3 SWAP1 POP PUSH0 JUMPDEST PUSH0 DUP3 EQ PUSH2 0xE55 JUMPI DUP1 DUP1 PUSH2 0xE3E SWAP1 PUSH2 0x1907 JUMP JUMPDEST SWAP2 POP POP PUSH1 0xA DUP3 PUSH2 0xE4E SWAP2 SWAP1 PUSH2 0x1866 JUMP JUMPDEST SWAP2 POP PUSH2 0xE2C JUMP JUMPDEST PUSH0 DUP2 PUSH8 0xFFFFFFFFFFFFFFFF DUP2 GT ISZERO PUSH2 0xE70 JUMPI PUSH2 0xE6F PUSH2 0x194E JUMP JUMPDEST JUMPDEST PUSH1 0x40 MLOAD SWAP1 DUP1 DUP3 MSTORE DUP1 PUSH1 0x1F ADD PUSH1 0x1F NOT AND PUSH1 0x20 ADD DUP3 ADD PUSH1 0x40 MSTORE DUP1 ISZERO PUSH2 0xEA2 JUMPI DUP2 PUSH1 0x20 ADD PUSH1 0x1 DUP3 MUL DUP1 CALLDATASIZE DUP4 CALLDATACOPY DUP1 DUP3 ADD SWAP2 POP POP SWAP1 POP JUMPDEST POP SWAP1 POP JUMPDEST PUSH0 DUP6 EQ PUSH2 0xF2C JUMPI DUP2 DUP1 PUSH2 0xEB8 SWAP1 PUSH2 0x197B JUMP JUMPDEST SWAP3 POP POP PUSH1 0xA DUP6 PUSH2 0xEC8 SWAP2 SWAP1 PUSH2 0x1896 JUMP JUMPDEST PUSH1 0x30 PUSH2 0xED4 SWAP2 SWAP1 PUSH2 0x17D3 JUMP JUMPDEST PUSH1 0xF8 SHL DUP2 DUP4 DUP2 MLOAD DUP2 LT PUSH2 0xEEA JUMPI PUSH2 0xEE9 PUSH2 0x19A2 JUMP JUMPDEST JUMPDEST PUSH1 0x20 ADD ADD SWAP1 PUSH31 0xFFFFFFFFFFFFFFFFFFFFFFFFFFFFFFFFFFFFFFFFFFFFFFFFFFFFFFFFFFFFFF NOT AND SWAP1 DUP2 PUSH0 BYTE SWAP1 MSTORE8 POP PUSH1 0xA DUP6 PUSH2 0xF25 SWAP2 SWAP1 PUSH2 0x1866 JUMP JUMPDEST SWAP5 POP PUSH2 0xEA6 JUMP JUMPDEST DUP1 SWAP4 POP POP POP POP JUMPDEST SWAP2 SWAP1 POP JUMP JUMPDEST PUSH0 DUP1 PUSH2 0xF43 DUP4 PUSH2 0x126D JUMP JUMPDEST SWAP1 POP PUSH0 DUP1 PUSH1 0x4 DUP4 PUSH2 0xF54 SWAP2 SWAP1 PUSH2 0x1896 JUMP JUMPDEST SUB PUSH2 0xF63 JUMPI PUSH2 0x16E SWAP1 POP PUSH2 0xF69 JUMP JUMPDEST PUSH2 0x16D SWAP1 POP JUMPDEST PUSH0 PUSH2 0xF73 DUP6 PUSH2 0xD59 JUMP JUMPDEST SWAP1 POP PUSH0 PUSH1 0x1F DUP3 GT PUSH2 0xF87 JUMPI PUSH1 0x1 SWAP1 POP PUSH2 0x1261 JUMP JUMPDEST PUSH1 0x3B DUP3 GT ISZERO DUP1 ISZERO PUSH2 0xF99 JUMPI POP PUSH2 0x16D DUP4 EQ JUMPDEST ISZERO PUSH2 0xFA7 JUMPI PUSH1 0x2 SWAP1 POP PUSH2 0x1260 JUMP JUMPDEST PUSH1 0x3C DUP3 GT ISZERO DUP1 ISZERO PUSH2 0xFB9 JUMPI POP PUSH2 0x16E DUP4 EQ JUMPDEST ISZERO PUSH2 0xFC7 JUMPI PUSH1 0x2 SWAP1 POP PUSH2 0x125F JUMP JUMPDEST PUSH1 0x5A DUP3 GT ISZERO DUP1 ISZERO PUSH2 0xFD9 JUMPI POP PUSH2 0x16D DUP4 EQ JUMPDEST ISZERO PUSH2 0xFE7 JUMPI PUSH1 0x3 SWAP1 POP PUSH2 0x125E JUMP JUMPDEST PUSH1 0x5B DUP3 GT ISZERO DUP1 ISZERO PUSH2 0xFF9 JUMPI POP PUSH2 0x16E DUP4 EQ JUMPDEST ISZERO PUSH2 0x1007 JUMPI PUSH1 0x3 SWAP1 POP PUSH2 0x125D JUMP JUMPDEST PUSH1 0x78 DUP3 GT ISZERO DUP1 ISZERO PUSH2 0x1019 JUMPI POP PUSH2 0x16D DUP4 EQ JUMPDEST ISZERO PUSH2 0x1027 JUMPI PUSH1 0x4 SWAP1 POP PUSH2 0x125C JUMP JUMPDEST PUSH1 0x79 DUP3 GT ISZERO DUP1 ISZERO PUSH2 0x1039 JUMPI POP PUSH2 0x16E DUP4 EQ JUMPDEST ISZERO PUSH2 0x1047 JUMPI PUSH1 0x4 SWAP1 POP PUSH2 0x125B JUMP JUMPDEST PUSH1 0x97 DUP3 GT ISZERO DUP1 ISZERO PUSH2 0x1059 JUMPI POP PUSH2 0x16D DUP4 EQ JUMPDEST ISZERO PUSH2 0x1067 JUMPI PUSH1 0x5 SWAP1 POP PUSH2 0x125A JUMP JUMPDEST PUSH1 0x98 DUP3 GT ISZERO DUP1 ISZERO PUSH2 0x1079 JUMPI POP PUSH2 0x16E DUP4 EQ JUMPDEST ISZERO PUSH2 0x1087 JUMPI PUSH1 0x5 SWAP1 POP PUSH2 0x1259 JUMP JUMPDEST PUSH1 0xB5 DUP3 GT ISZERO DUP1 ISZERO PUSH2 0x1099 JUMPI POP PUSH2 0x16D DUP4 EQ JUMPDEST ISZERO PUSH2 0x10A7 JUMPI PUSH1 0x6 SWAP1 POP PUSH2 0x1258 JUMP JUMPDEST PUSH1 0xB6 DUP3 GT ISZERO DUP1 ISZERO PUSH2 0x10B9 JUMPI POP PUSH2 0x16E DUP4 EQ JUMPDEST ISZERO PUSH2 0x10C7 JUMPI PUSH1 0x6 SWAP1 POP PUSH2 0x1257 JUMP JUMPDEST PUSH1 0xD4 DUP3 GT ISZERO DUP1 ISZERO PUSH2 0x10D9 JUMPI POP PUSH2 0x16D DUP4 EQ JUMPDEST ISZERO PUSH2 0x10E7 JUMPI PUSH1 0x7 SWAP1 POP PUSH2 0x1256 JUMP JUMPDEST PUSH1 0xD5 DUP3 GT ISZERO DUP1 ISZERO PUSH2 0x10F9 JUMPI POP PUSH2 0x16E DUP4 EQ JUMPDEST ISZERO PUSH2 0x1107 JUMPI PUSH1 0x7 SWAP1 POP PUSH2 0x1255 JUMP JUMPDEST PUSH1 0xF3 DUP3 GT ISZERO DUP1 ISZERO PUSH2 0x1119 JUMPI POP PUSH2 0x16D DUP4 EQ JUMPDEST ISZERO PUSH2 0x1127 JUMPI PUSH1 0x8 SWAP1 POP PUSH2 0x1254 JUMP JUMPDEST PUSH1 0xF4 DUP3 GT ISZERO DUP1 ISZERO PUSH2 0x1139 JUMPI POP PUSH2 0x16E DUP4 EQ JUMPDEST ISZERO PUSH2 0x1147 JUMPI PUSH1 0x8 SWAP1 POP PUSH2 0x1253 JUMP JUMPDEST PUSH2 0x111 DUP3 GT ISZERO DUP1 ISZERO PUSH2 0x115A JUMPI POP PUSH2 0x16D DUP4 EQ JUMPDEST ISZERO PUSH2 0x1168 JUMPI PUSH1 0x9 SWAP1 POP PUSH2 0x1252 JUMP JUMPDEST PUSH2 0x112 DUP3 GT ISZERO DUP1 ISZERO PUSH2 0x117B JUMPI POP PUSH2 0x16E DUP4 EQ JUMPDEST ISZERO PUSH2 0x1189 JUMPI PUSH1 0x9 SWAP1 POP PUSH2 0x1251 JUMP JUMPDEST PUSH2 0x130 DUP3 GT ISZERO DUP1 ISZERO PUSH2 0x119C JUMPI POP PUSH2 0x16D DUP4 EQ JUMPDEST ISZERO PUSH2 0x11AA JUMPI PUSH1 0xA SWAP1 POP PUSH2 0x1250 JUMP JUMPDEST PUSH2 0x131 DUP3 GT ISZERO DUP1 ISZERO PUSH2 0x11BD JUMPI POP PUSH2 0x16E DUP4 EQ JUMPDEST ISZERO PUSH2 0x11CB JUMPI PUSH1 0xA SWAP1 POP PUSH2 0x124F JUMP JUMPDEST PUSH2 0x14E DUP3 GT ISZERO DUP1 ISZERO PUSH2 0x11DE JUMPI POP PUSH2 0x16D DUP4 EQ JUMPDEST ISZERO PUSH2 0x11EC JUMPI PUSH1 0xB SWAP1 POP PUSH2 0x124E JUMP JUMPDEST PUSH2 0x14F DUP3 GT ISZERO DUP1 ISZERO PUSH2 0x11FF JUMPI POP PUSH2 0x16E DUP4 EQ JUMPDEST ISZERO PUSH2 0x120D JUMPI PUSH1 0xB SWAP1 POP PUSH2 0x124D JUMP JUMPDEST PUSH2 0x16D DUP3 GT ISZERO DUP1 ISZERO PUSH2 0x1220 JUMPI POP PUSH2 0x16D DUP4 EQ JUMPDEST ISZERO PUSH2 0x122E JUMPI PUSH1 0xC SWAP1 POP PUSH2 0x124C JUMP JUMPDEST PUSH2 0x16E DUP3 GT ISZERO DUP1 ISZERO PUSH2 0x1241 JUMPI POP PUSH2 0x16E DUP4 EQ JUMPDEST ISZERO PUSH2 0x124B JUMPI PUSH1 0xC SWAP1 POP JUMPDEST JUMPDEST JUMPDEST JUMPDEST JUMPDEST JUMPDEST JUMPDEST JUMPDEST JUMPDEST JUMPDEST JUMPDEST JUMPDEST JUMPDEST JUMPDEST JUMPDEST JUMPDEST JUMPDEST JUMPDEST JUMPDEST JUMPDEST JUMPDEST JUMPDEST JUMPDEST DUP1 SWAP5 POP POP POP POP POP SWAP2 SWAP1 POP JUMP JUMPDEST PUSH0 DUP1 PUSH1 0x4 DUP4 PUSH2 0x127C SWAP2 SWAP1 PUSH2 0x1866 JUMP JUMPDEST SWAP1 POP PUSH0 PUSH2 0x7B3 PUSH4 0x1E28500 DUP4 PUSH2 0x1292 SWAP2 SWAP1 PUSH2 0x1866 JUMP JUMPDEST PUSH4 0x1E13380 DUP5 PUSH1 0x3 PUSH2 0x12A4 SWAP2 SWAP1 PUSH2 0x18C6 JUMP JUMPDEST PUSH2 0x12AE SWAP2 SWAP1 PUSH2 0x1866 JUMP JUMPDEST PUSH2 0x12B8 SWAP2 SWAP1 PUSH2 0x17D3 JUMP JUMPDEST PUSH2 0x12C2 SWAP2 SWAP1 PUSH2 0x17D3 JUMP JUMPDEST SWAP1 POP DUP1 SWAP3 POP POP POP SWAP2 SWAP1 POP JUMP JUMPDEST PUSH0 DUP2 MLOAD SWAP1 POP SWAP2 SWAP1 POP JUMP JUMPDEST PUSH0 DUP3 DUP3 MSTORE PUSH1 0x20 DUP3 ADD SWAP1 POP SWAP3 SWAP2 POP POP JUMP JUMPDEST PUSH0 JUMPDEST DUP4 DUP2 LT ISZERO PUSH2 0x1305 JUMPI DUP1 DUP3 ADD MLOAD DUP2 DUP5 ADD MSTORE PUSH1 0x20 DUP2 ADD SWAP1 POP PUSH2 0x12EA JUMP JUMPDEST PUSH0 DUP5 DUP5 ADD MSTORE POP POP POP POP JUMP JUMPDEST PUSH0 PUSH1 0x1F NOT PUSH1 0x1F DUP4 ADD AND SWAP1 POP SWAP2 SWAP1 POP JUMP JUMPDEST PUSH0 PUSH2 0x132A DUP3 PUSH2 0x12CE JUMP JUMPDEST PUSH2 0x1334 DUP2 DUP6 PUSH2 0x12D8 JUMP JUMPDEST SWAP4 POP PUSH2 0x1344 DUP2 DUP6 PUSH1 0x20 DUP7 ADD PUSH2 0x12E8 JUMP JUMPDEST PUSH2 0x134D DUP2 PUSH2 0x1310 JUMP JUMPDEST DUP5 ADD SWAP2 POP POP SWAP3 SWAP2 POP POP JUMP JUMPDEST PUSH0 PUSH1 0x20 DUP3 ADD SWAP1 POP DUP2 DUP2 SUB PUSH0 DUP4 ADD MSTORE PUSH2 0x1370 DUP2 DUP5 PUSH2 0x1320 JUMP JUMPDEST SWAP1 POP SWAP3 SWAP2 POP POP JUMP JUMPDEST PUSH0 DUP1 REVERT JUMPDEST PUSH0 PUSH20 0xFFFFFFFFFFFFFFFFFFFFFFFFFFFFFFFFFFFFFFFF DUP3 AND SWAP1 POP SWAP2 SWAP1 POP JUMP JUMPDEST PUSH0 PUSH2 0x13A5 DUP3 PUSH2 0x137C JUMP JUMPDEST SWAP1 POP SWAP2 SWAP1 POP JUMP JUMPDEST PUSH2 0x13B5 DUP2 PUSH2 0x139B JUMP JUMPDEST DUP2 EQ PUSH2 0x13BF JUMPI PUSH0 DUP1 REVERT JUMPDEST POP JUMP JUMPDEST PUSH0 DUP2 CALLDATALOAD SWAP1 POP PUSH2 0x13D0 DUP2 PUSH2 0x13AC JUMP JUMPDEST SWAP3 SWAP2 POP POP JUMP JUMPDEST PUSH0 DUP2 SWAP1 POP SWAP2 SWAP1 POP JUMP JUMPDEST PUSH2 0x13E8 DUP2 PUSH2 0x13D6 JUMP JUMPDEST DUP2 EQ PUSH2 0x13F2 JUMPI PUSH0 DUP1 REVERT JUMPDEST POP JUMP JUMPDEST PUSH0 DUP2 CALLDATALOAD SWAP1 POP PUSH2 0x1403 DUP2 PUSH2 0x13DF JUMP JUMPDEST SWAP3 SWAP2 POP POP JUMP JUMPDEST PUSH0 DUP1 PUSH1 0x40 DUP4 DUP6 SUB SLT ISZERO PUSH2 0x141F JUMPI PUSH2 0x141E PUSH2 0x1378 JUMP JUMPDEST JUMPDEST PUSH0 PUSH2 0x142C DUP6 DUP3 DUP7 ADD PUSH2 0x13C2 JUMP JUMPDEST SWAP3 POP POP PUSH1 0x20 PUSH2 0x143D DUP6 DUP3 DUP7 ADD PUSH2 0x13F5 JUMP JUMPDEST SWAP2 POP POP SWAP3 POP SWAP3 SWAP1 POP JUMP JUMPDEST PUSH0 DUP2 ISZERO ISZERO SWAP1 POP SWAP2 SWAP1 POP JUMP JUMPDEST PUSH2 0x145B DUP2 PUSH2 0x1447 JUMP JUMPDEST DUP3 MSTORE POP POP JUMP JUMPDEST PUSH0 PUSH1 0x20 DUP3 ADD SWAP1 POP PUSH2 0x1474 PUSH0 DUP4 ADD DUP5 PUSH2 0x1452 JUMP JUMPDEST SWAP3 SWAP2 POP POP JUMP JUMPDEST PUSH2 0x1483 DUP2 PUSH2 0x13D6 JUMP JUMPDEST DUP3 MSTORE POP POP JUMP JUMPDEST PUSH0 PUSH1 0x20 DUP3 ADD SWAP1 POP PUSH2 0x149C PUSH0 DUP4 ADD DUP5 PUSH2 0x147A JUMP JUMPDEST SWAP3 SWAP2 POP POP JUMP JUMPDEST PUSH0 DUP1 PUSH0 PUSH1 0x60 DUP5 DUP7 SUB SLT ISZERO PUSH2 0x14B9 JUMPI PUSH2 0x14B8 PUSH2 0x1378 JUMP JUMPDEST JUMPDEST PUSH0 PUSH2 0x14C6 DUP7 DUP3 DUP8 ADD PUSH2 0x13C2 JUMP JUMPDEST SWAP4 POP POP PUSH1 0x20 PUSH2 0x14D7 DUP7 DUP3 DUP8 ADD PUSH2 0x13C2 JUMP JUMPDEST SWAP3 POP POP PUSH1 0x40 PUSH2 0x14E8 DUP7 DUP3 DUP8 ADD PUSH2 0x13F5 JUMP JUMPDEST SWAP2 POP POP SWAP3 POP SWAP3 POP SWAP3 JUMP JUMPDEST PUSH0 PUSH1 0xFF DUP3 AND SWAP1 POP SWAP2 SWAP1 POP JUMP JUMPDEST PUSH2 0x1507 DUP2 PUSH2 0x14F2 JUMP JUMPDEST DUP3 MSTORE POP POP JUMP JUMPDEST PUSH0 PUSH1 0x20 DUP3 ADD SWAP1 POP PUSH2 0x1520 PUSH0 DUP4 ADD DUP5 PUSH2 0x14FE JUMP JUMPDEST SWAP3 SWAP2 POP POP JUMP JUMPDEST PUSH0 PUSH1 0x20 DUP3 DUP5 SUB SLT ISZERO PUSH2 0x153B JUMPI PUSH2 0x153A PUSH2 0x1378 JUMP JUMPDEST JUMPDEST PUSH0 PUSH2 0x1548 DUP5 DUP3 DUP6 ADD PUSH2 0x13F5 JUMP JUMPDEST SWAP2 POP POP SWAP3 SWAP2 POP POP JUMP JUMPDEST PUSH0 PUSH1 0x20 DUP3 DUP5 SUB SLT ISZERO PUSH2 0x1566 JUMPI PUSH2 0x1565 PUSH2 0x1378 JUMP JUMPDEST JUMPDEST PUSH0 PUSH2 0x1573 DUP5 DUP3 DUP6 ADD PUSH2 0x13C2 JUMP JUMPDEST SWAP2 POP POP SWAP3 SWAP2 POP POP JUMP JUMPDEST PUSH2 0x1585 DUP2 PUSH2 0x139B JUMP JUMPDEST DUP3 MSTORE POP POP JUMP JUMPDEST PUSH0 PUSH1 0x20 DUP3 ADD SWAP1 POP PUSH2 0x159E PUSH0 DUP4 ADD DUP5 PUSH2 0x157C JUMP JUMPDEST SWAP3 SWAP2 POP POP JUMP JUMPDEST PUSH0 DUP1 PUSH1 0x40 DUP4 DUP6 SUB SLT ISZERO PUSH2 0x15BA JUMPI PUSH2 0x15B9 PUSH2 0x1378 JUMP JUMPDEST JUMPDEST PUSH0 PUSH2 0x15C7 DUP6 DUP3 DUP7 ADD PUSH2 0x13C2 JUMP JUMPDEST SWAP3 POP POP PUSH1 0x20 PUSH2 0x15D8 DUP6 DUP3 DUP7 ADD PUSH2 0x13C2 JUMP JUMPDEST SWAP2 POP POP SWAP3 POP SWAP3 SWAP1 POP JUMP JUMPDEST PUSH32 0x4E487B7100000000000000000000000000000000000000000000000000000000 PUSH0 MSTORE PUSH1 0x22 PUSH1 0x4 MSTORE PUSH1 0x24 PUSH0 REVERT JUMPDEST PUSH0 PUSH1 0x2 DUP3 DIV SWAP1 POP PUSH1 0x1 DUP3 AND DUP1 PUSH2 0x1626 JUMPI PUSH1 0x7F DUP3 AND SWAP2 POP JUMPDEST PUSH1 0x20 DUP3 LT DUP2 SUB PUSH2 0x1639 JUMPI PUSH2 0x1638 PUSH2 0x15E2 JUMP JUMPDEST JUMPDEST POP SWAP2 SWAP1 POP JUMP JUMPDEST PUSH32 0x4F6E6C792061646D696E00000000000000000000000000000000000000000000 PUSH0 DUP3 ADD MSTORE POP JUMP JUMPDEST PUSH0 PUSH2 0x1673 PUSH1 0xA DUP4 PUSH2 0x12D8 JUMP JUMPDEST SWAP2 POP PUSH2 0x167E DUP3 PUSH2 0x163F JUMP JUMPDEST PUSH1 0x20 DUP3 ADD SWAP1 POP SWAP2 SWAP1 POP JUMP JUMPDEST PUSH0 PUSH1 0x20 DUP3 ADD SWAP1 POP DUP2 DUP2 SUB PUSH0 DUP4 ADD MSTORE PUSH2 0x16A0 DUP2 PUSH2 0x1667 JUMP JUMPDEST SWAP1 POP SWAP2 SWAP1 POP JUMP JUMPDEST PUSH0 PUSH1 0x60 DUP3 ADD SWAP1 POP PUSH2 0x16BA PUSH0 DUP4 ADD DUP7 PUSH2 0x157C JUMP JUMPDEST PUSH2 0x16C7 PUSH1 0x20 DUP4 ADD DUP6 PUSH2 0x147A JUMP JUMPDEST PUSH2 0x16D4 PUSH1 0x40 DUP4 ADD DUP5 PUSH2 0x147A JUMP JUMPDEST SWAP5 SWAP4 POP POP POP POP JUMP JUMPDEST PUSH0 DUP2 SWAP1 POP SWAP3 SWAP2 POP POP JUMP JUMPDEST PUSH0 PUSH2 0x16F0 DUP3 PUSH2 0x12CE JUMP JUMPDEST PUSH2 0x16FA DUP2 DUP6 PUSH2 0x16DC JUMP JUMPDEST SWAP4 POP PUSH2 0x170A DUP2 DUP6 PUSH1 0x20 DUP7 ADD PUSH2 0x12E8 JUMP JUMPDEST DUP1 DUP5 ADD SWAP2 POP POP SWAP3 SWAP2 POP POP JUMP JUMPDEST PUSH32 0x2F00000000000000000000000000000000000000000000000000000000000000 PUSH0 DUP3 ADD MSTORE POP JUMP JUMPDEST PUSH0 PUSH2 0x174A PUSH1 0x1 DUP4 PUSH2 0x16DC JUMP JUMPDEST SWAP2 POP PUSH2 0x1755 DUP3 PUSH2 0x1716 JUMP JUMPDEST PUSH1 0x1 DUP3 ADD SWAP1 POP SWAP2 SWAP1 POP JUMP JUMPDEST PUSH0 PUSH2 0x176B DUP3 DUP7 PUSH2 0x16E6 JUMP JUMPDEST SWAP2 POP PUSH2 0x1776 DUP3 PUSH2 0x173E JUMP JUMPDEST SWAP2 POP PUSH2 0x1782 DUP3 DUP6 PUSH2 0x16E6 JUMP JUMPDEST SWAP2 POP PUSH2 0x178D DUP3 PUSH2 0x173E JUMP JUMPDEST SWAP2 POP PUSH2 0x1799 DUP3 DUP5 PUSH2 0x16E6 JUMP JUMPDEST SWAP2 POP DUP2 SWAP1 POP SWAP5 SWAP4 POP POP POP POP JUMP JUMPDEST PUSH32 0x4E487B7100000000000000000000000000000000000000000000000000000000 PUSH0 MSTORE PUSH1 0x11 PUSH1 0x4 MSTORE PUSH1 0x24 PUSH0 REVERT JUMPDEST PUSH0 PUSH2 0x17DD DUP3 PUSH2 0x13D6 JUMP JUMPDEST SWAP2 POP PUSH2 0x17E8 DUP4 PUSH2 0x13D6 JUMP JUMPDEST SWAP3 POP DUP3 DUP3 ADD SWAP1 POP DUP1 DUP3 GT ISZERO PUSH2 0x1800 JUMPI PUSH2 0x17FF PUSH2 0x17A6 JUMP JUMPDEST JUMPDEST SWAP3 SWAP2 POP POP JUMP JUMPDEST PUSH0 PUSH2 0x1810 DUP3 PUSH2 0x13D6 JUMP JUMPDEST SWAP2 POP PUSH2 0x181B DUP4 PUSH2 0x13D6 JUMP JUMPDEST SWAP3 POP DUP3 DUP3 SUB SWAP1 POP DUP2 DUP2 GT ISZERO PUSH2 0x1833 JUMPI PUSH2 0x1832 PUSH2 0x17A6 JUMP JUMPDEST JUMPDEST SWAP3 SWAP2 POP POP JUMP JUMPDEST PUSH32 0x4E487B7100000000000000000000000000000000000000000000000000000000 PUSH0 MSTORE PUSH1 0x12 PUSH1 0x4 MSTORE PUSH1 0x24 PUSH0 REVERT JUMPDEST PUSH0 PUSH2 0x1870 DUP3 PUSH2 0x13D6 JUMP JUMPDEST SWAP2 POP PUSH2 0x187B DUP4 PUSH2 0x13D6 JUMP JUMPDEST SWAP3 POP DUP3 PUSH2 0x188B JUMPI PUSH2 0x188A PUSH2 0x1839 JUMP JUMPDEST JUMPDEST DUP3 DUP3 DIV SWAP1 POP SWAP3 SWAP2 POP POP JUMP JUMPDEST PUSH0 PUSH2 0x18A0 DUP3 PUSH2 0x13D6 JUMP JUMPDEST SWAP2 POP PUSH2 0x18AB DUP4 PUSH2 0x13D6 JUMP JUMPDEST SWAP3 POP DUP3 PUSH2 0x18BB JUMPI PUSH2 0x18BA PUSH2 0x1839 JUMP JUMPDEST JUMPDEST DUP3 DUP3 MOD SWAP1 POP SWAP3 SWAP2 POP POP JUMP JUMPDEST PUSH0 PUSH2 0x18D0 DUP3 PUSH2 0x13D6 JUMP JUMPDEST SWAP2 POP PUSH2 0x18DB DUP4 PUSH2 0x13D6 JUMP JUMPDEST SWAP3 POP DUP3 DUP3 MUL PUSH2 0x18E9 DUP2 PUSH2 0x13D6 JUMP JUMPDEST SWAP2 POP DUP3 DUP3 DIV DUP5 EQ DUP4 ISZERO OR PUSH2 0x1900 JUMPI PUSH2 0x18FF PUSH2 0x17A6 JUMP JUMPDEST JUMPDEST POP SWAP3 SWAP2 POP POP JUMP JUMPDEST PUSH0 PUSH2 0x1911 DUP3 PUSH2 0x13D6 JUMP JUMPDEST SWAP2 POP PUSH32 0xFFFFFFFFFFFFFFFFFFFFFFFFFFFFFFFFFFFFFFFFFFFFFFFFFFFFFFFFFFFFFFFF DUP3 SUB PUSH2 0x1943 JUMPI PUSH2 0x1942 PUSH2 0x17A6 JUMP JUMPDEST JUMPDEST PUSH1 0x1 DUP3 ADD SWAP1 POP SWAP2 SWAP1 POP JUMP JUMPDEST PUSH32 0x4E487B7100000000000000000000000000000000000000000000000000000000 PUSH0 MSTORE PUSH1 0x41 PUSH1 0x4 MSTORE PUSH1 0x24 PUSH0 REVERT JUMPDEST PUSH0 PUSH2 0x1985 DUP3 PUSH2 0x13D6 JUMP JUMPDEST SWAP2 POP PUSH0 DUP3 SUB PUSH2 0x1997 JUMPI PUSH2 0x1996 PUSH2 0x17A6 JUMP JUMPDEST JUMPDEST PUSH1 0x1 DUP3 SUB SWAP1 POP SWAP2 SWAP1 POP JUMP JUMPDEST PUSH32 0x4E487B7100000000000000000000000000000000000000000000000000000000 PUSH0 MSTORE PUSH1 0x32 PUSH1 0x4 MSTORE PUSH1 0x24 PUSH0 REVERT INVALID LOG2 PUSH5 0x6970667358 0x22 SLT KECCAK256 PUSH27 0xFEC91A0BB0A14AA801FA6EF7090A9C1BE1C69472774C3600A3DFB7 0xAE PUSH23 0x97DE64736F6C6343000816003300000000000000000000 "
		},
		"gasEstimates": {
			"creation": {
				"codeDepositCost": "1332200",
				"executionCost": "infinite",
				"totalCost": "infinite"
			},
			"external": {
				"INITIAL_SUPPLY()": "370",
				"admin()": "2596",
				"allowance(address,address)": "infinite",
				"approve(address,uint256)": "infinite",
				"balanceOf(address)": "2874",
				"burn(uint256)": "infinite",
				"decimals()": "405",
				"getLatestTransactionTimestamp()": "infinite",
				"getTransactionSender()": "435",
				"mint(address,uint256)": "infinite",
				"name()": "infinite",
				"symbol()": "infinite",
				"totalSupply()": "2500",
				"transfer(address,uint256)": "infinite",
				"transferFrom(address,address,uint256)": "infinite"
			},
			"internal": {
				"toDate(uint256)": "infinite",
				"toDay(uint256)": "infinite",
				"toMonth(uint256)": "infinite",
				"toYear(uint256)": "infinite",
				"uint256ToString(uint256)": "infinite"
			}
		},
		"methodIdentifiers": {
			"INITIAL_SUPPLY()": "2ff2e9dc",
			"admin()": "f851a440",
			"allowance(address,address)": "dd62ed3e",
			"approve(address,uint256)": "095ea7b3",
			"balanceOf(address)": "70a08231",
			"burn(uint256)": "42966c68",
			"decimals()": "313ce567",
			"getLatestTransactionTimestamp()": "d45e3f4a",
			"getTransactionSender()": "bead3f50",
			"mint(address,uint256)": "40c10f19",
			"name()": "06fdde03",
			"symbol()": "95d89b41",
			"totalSupply()": "18160ddd",
			"transfer(address,uint256)": "a9059cbb",
			"transferFrom(address,address,uint256)": "23b872dd"
		}
	},
	"abi": [
		{
			"inputs": [],
			"stateMutability": "nonpayable",
			"type": "constructor"
		},
		{
			"inputs": [
				{
					"internalType": "address",
					"name": "spender",
					"type": "address"
				},
				{
					"internalType": "uint256",
					"name": "allowance",
					"type": "uint256"
				},
				{
					"internalType": "uint256",
					"name": "needed",
					"type": "uint256"
				}
			],
			"name": "ERC20InsufficientAllowance",
			"type": "error"
		},
		{
			"inputs": [
				{
					"internalType": "address",
					"name": "sender",
					"type": "address"
				},
				{
					"internalType": "uint256",
					"name": "balance",
					"type": "uint256"
				},
				{
					"internalType": "uint256",
					"name": "needed",
					"type": "uint256"
				}
			],
			"name": "ERC20InsufficientBalance",
			"type": "error"
		},
		{
			"inputs": [
				{
					"internalType": "address",
					"name": "approver",
					"type": "address"
				}
			],
			"name": "ERC20InvalidApprover",
			"type": "error"
		},
		{
			"inputs": [
				{
					"internalType": "address",
					"name": "receiver",
					"type": "address"
				}
			],
			"name": "ERC20InvalidReceiver",
			"type": "error"
		},
		{
			"inputs": [
				{
					"internalType": "address",
					"name": "sender",
					"type": "address"
				}
			],
			"name": "ERC20InvalidSender",
			"type": "error"
		},
		{
			"inputs": [
				{
					"internalType": "address",
					"name": "spender",
					"type": "address"
				}
			],
			"name": "ERC20InvalidSpender",
			"type": "error"
		},
		{
			"anonymous": false,
			"inputs": [
				{
					"indexed": true,
					"internalType": "address",
					"name": "owner",
					"type": "address"
				},
				{
					"indexed": true,
					"internalType": "address",
					"name": "spender",
					"type": "address"
				},
				{
					"indexed": false,
					"internalType": "uint256",
					"name": "value",
					"type": "uint256"
				}
			],
			"name": "Approval",
			"type": "event"
		},
		{
			"anonymous": false,
			"inputs": [
				{
					"indexed": true,
					"internalType": "address",
					"name": "sender",
					"type": "address"
				},
				{
					"indexed": true,
					"internalType": "address",
					"name": "receiver",
					"type": "address"
				},
				{
					"indexed": false,
					"internalType": "uint256",
					"name": "value",
					"type": "uint256"
				},
				{
					"indexed": false,
					"internalType": "string",
					"name": "timestamp",
					"type": "string"
				}
			],
			"name": "TransactionInfo",
			"type": "event"
		},
		{
			"anonymous": false,
			"inputs": [
				{
					"indexed": true,
					"internalType": "address",
					"name": "from",
					"type": "address"
				},
				{
					"indexed": true,
					"internalType": "address",
					"name": "to",
					"type": "address"
				},
				{
					"indexed": false,
					"internalType": "uint256",
					"name": "value",
					"type": "uint256"
				}
			],
			"name": "Transfer",
			"type": "event"
		},
		{
			"inputs": [],
			"name": "INITIAL_SUPPLY",
			"outputs": [
				{
					"internalType": "uint256",
					"name": "",
					"type": "uint256"
				}
			],
			"stateMutability": "view",
			"type": "function"
		},
		{
			"inputs": [],
			"name": "admin",
			"outputs": [
				{
					"internalType": "address",
					"name": "",
					"type": "address"
				}
			],
			"stateMutability": "view",
			"type": "function"
		},
		{
			"inputs": [
				{
					"internalType": "address",
					"name": "owner",
					"type": "address"
				},
				{
					"internalType": "address",
					"name": "spender",
					"type": "address"
				}
			],
			"name": "allowance",
			"outputs": [
				{
					"internalType": "uint256",
					"name": "",
					"type": "uint256"
				}
			],
			"stateMutability": "view",
			"type": "function"
		},
		{
			"inputs": [
				{
					"internalType": "address",
					"name": "spender",
					"type": "address"
				},
				{
					"internalType": "uint256",
					"name": "value",
					"type": "uint256"
				}
			],
			"name": "approve",
			"outputs": [
				{
					"internalType": "bool",
					"name": "",
					"type": "bool"
				}
			],
			"stateMutability": "nonpayable",
			"type": "function"
		},
		{
			"inputs": [
				{
					"internalType": "address",
					"name": "account",
					"type": "address"
				}
			],
			"name": "balanceOf",
			"outputs": [
				{
					"internalType": "uint256",
					"name": "",
					"type": "uint256"
				}
			],
			"stateMutability": "view",
			"type": "function"
		},
		{
			"inputs": [
				{
					"internalType": "uint256",
					"name": "amount",
					"type": "uint256"
				}
			],
			"name": "burn",
			"outputs": [],
			"stateMutability": "nonpayable",
			"type": "function"
		},
		{
			"inputs": [],
			"name": "decimals",
			"outputs": [
				{
					"internalType": "uint8",
					"name": "",
					"type": "uint8"
				}
			],
			"stateMutability": "view",
			"type": "function"
		},
		{
			"inputs": [],
			"name": "getLatestTransactionTimestamp",
			"outputs": [
				{
					"internalType": "string",
					"name": "",
					"type": "string"
				}
			],
			"stateMutability": "view",
			"type": "function"
		},
		{
			"inputs": [],
			"name": "getTransactionSender",
			"outputs": [
				{
					"internalType": "address",
					"name": "",
					"type": "address"
				}
			],
			"stateMutability": "view",
			"type": "function"
		},
		{
			"inputs": [
				{
					"internalType": "address",
					"name": "to",
					"type": "address"
				},
				{
					"internalType": "uint256",
					"name": "amount",
					"type": "uint256"
				}
			],
			"name": "mint",
			"outputs": [],
			"stateMutability": "nonpayable",
			"type": "function"
		},
		{
			"inputs": [],
			"name": "name",
			"outputs": [
				{
					"internalType": "string",
					"name": "",
					"type": "string"
				}
			],
			"stateMutability": "view",
			"type": "function"
		},
		{
			"inputs": [],
			"name": "symbol",
			"outputs": [
				{
					"internalType": "string",
					"name": "",
					"type": "string"
				}
			],
			"stateMutability": "view",
			"type": "function"
		},
		{
			"inputs": [],
			"name": "totalSupply",
			"outputs": [
				{
					"internalType": "uint256",
					"name": "",
					"type": "uint256"
				}
			],
			"stateMutability": "view",
			"type": "function"
		},
		{
			"inputs": [
				{
					"internalType": "address",
					"name": "to",
					"type": "address"
				},
				{
					"internalType": "uint256",
					"name": "value",
					"type": "uint256"
				}
			],
			"name": "transfer",
			"outputs": [
				{
					"internalType": "bool",
					"name": "",
					"type": "bool"
				}
			],
			"stateMutability": "nonpayable",
			"type": "function"
		},
		{
			"inputs": [
				{
					"internalType": "address",
					"name": "from",
					"type": "address"
				},
				{
					"internalType": "address",
					"name": "to",
					"type": "address"
				},
				{
					"internalType": "uint256",
					"name": "value",
					"type": "uint256"
				}
			],
			"name": "transferFrom",
			"outputs": [
				{
					"internalType": "bool",
					"name": "",
					"type": "bool"
				}
			],
			"stateMutability": "nonpayable",
			"type": "function"
		}
	]
}